{
  "contractName": "AssetID",
  "abi": [
    {
      "inputs": [
        {
          "name": "_assetID",
          "type": "string"
        }
      ],
      "payable": false,
      "stateMutability": "nonpayable",
      "type": "constructor"
    },
    {
      "constant": true,
      "inputs": [],
      "name": "getAssetID",
      "outputs": [
        {
          "name": "",
          "type": "string"
        }
      ],
      "payable": false,
      "stateMutability": "view",
      "type": "function"
    },
    {
      "constant": true,
      "inputs": [],
      "name": "getAssetIDHash",
      "outputs": [
        {
          "name": "",
          "type": "bytes32"
        }
      ],
      "payable": false,
      "stateMutability": "view",
      "type": "function"
    }
  ],
  "bytecode": "0x608060405234801561001057600080fd5b50604051610366380380610366833981018060405281019080805182019291905050506000815111151561004357600080fd5b8060009080519060200190610059929190610060565b5050610105565b828054600181600116156101000203166002900490600052602060002090601f016020900481019282601f106100a157805160ff19168380011785556100cf565b828001600101855582156100cf579182015b828111156100ce5782518255916020019190600101906100b3565b5b5090506100dc91906100e0565b5090565b61010291905b808211156100fe5760008160009055506001016100e6565b5090565b90565b610252806101146000396000f30060806040526004361061004c576000357c0100000000000000000000000000000000000000000000000000000000900463ffffffff168063696b5fb714610051578063a773d98a146100e1575b600080fd5b34801561005d57600080fd5b50610066610114565b6040518080602001828103825283818151815260200191508051906020019080838360005b838110156100a657808201518184015260208101905061008b565b50505050905090810190601f1680156100d35780820380516001836020036101000a031916815260200191505b509250505060405180910390f35b3480156100ed57600080fd5b506100f66101b6565b60405180826000191660001916815260200191505060405180910390f35b606060008054600181600116156101000203166002900480601f0160208091040260200160405190810160405280929190818152602001828054600181600116156101000203166002900480156101ac5780601f10610181576101008083540402835291602001916101ac565b820191906000526020600020905b81548152906001019060200180831161018f57829003601f168201915b5050505050905090565b60008060405180828054600181600116156101000203166002900480156102145780601f106101f2576101008083540402835291820191610214565b820191906000526020600020905b815481529060010190602001808311610200575b505091505060405180910390209050905600a165627a7a723058208db158fd1ae8d4f22b89e2101e1cff35cbf305d8ef8c0f74c5790efd5642a1480029",
  "source": "/* Author: Aleksey Selikhov  aleksey.selikhov@gmail.com */\n\npragma solidity ^0.4.24;\n\n\nimport './AssetIDInterface.sol';\n\n\n/**\n * @title AssetID\n * @dev Base contract implementing AssetIDInterface\n */\ncontract AssetID is AssetIDInterface {\n\n  /* Storage */\n\n  string assetID;\n\n\n  /* Constructor */\n\n  constructor (string _assetID) public {\n    require(bytes(_assetID).length > 0);\n\n    assetID = _assetID;\n  }\n\n\n  /* Getters */\n\n  function getAssetID() public constant returns (string) {\n    return assetID;\n  }\n\n  function getAssetIDHash() public constant returns (bytes32) {\n    return keccak256(assetID);\n  }\n}\n",
  "sourcePath": "/home/user/dev/project/jibrel/jibrel-contracts/contracts/feature/AssetID/AssetID.sol",
  "compiler": {
    "name": "solc",
    "version": "0.4.24+commit.e67f0147.Emscripten.clang"
  },
  "schemaVersion": "2.0.1",
  "updatedAt": "2018-08-12T00:59:03.502Z"
}