{
  "contractName": "AssetID",
  "abi": [
    {
      "constant": true,
      "inputs": [],
      "name": "getAssetID",
      "outputs": [
        {
          "name": "",
          "type": "string"
        }
      ],
      "payable": false,
      "stateMutability": "view",
      "type": "function"
    },
    {
      "constant": true,
      "inputs": [],
      "name": "getAssetIDHash",
      "outputs": [
        {
          "name": "",
          "type": "bytes32"
        }
      ],
      "payable": false,
      "stateMutability": "view",
      "type": "function"
    },
    {
      "inputs": [
        {
          "name": "_assetID",
          "type": "string"
        }
      ],
      "payable": false,
      "stateMutability": "nonpayable",
      "type": "constructor"
    }
  ],
  "bytecode": "0x6060604052341561000f57600080fd5b604051610374380380610374833981016040528080518201919050506000815111151561003b57600080fd5b8060009080519060200190610051929190610058565b50506100fd565b828054600181600116156101000203166002900490600052602060002090601f016020900481019282601f1061009957805160ff19168380011785556100c7565b828001600101855582156100c7579182015b828111156100c65782518255916020019190600101906100ab565b5b5090506100d491906100d8565b5090565b6100fa91905b808211156100f65760008160009055506001016100de565b5090565b90565b6102688061010c6000396000f30060606040526004361061004c576000357c0100000000000000000000000000000000000000000000000000000000900463ffffffff168063696b5fb714610051578063a773d98a146100df575b600080fd5b341561005c57600080fd5b610064610110565b6040518080602001828103825283818151815260200191508051906020019080838360005b838110156100a4578082015181840152602081019050610089565b50505050905090810190601f1680156100d15780820380516001836020036101000a031916815260200191505b509250505060405180910390f35b34156100ea57600080fd5b6100f26101b8565b60405180826000191660001916815260200191505060405180910390f35b610118610228565b60008054600181600116156101000203166002900480601f0160208091040260200160405190810160405280929190818152602001828054600181600116156101000203166002900480156101ae5780601f10610183576101008083540402835291602001916101ae565b820191906000526020600020905b81548152906001019060200180831161019157829003601f168201915b5050505050905090565b60008060405180828054600181600116156101000203166002900480156102165780601f106101f4576101008083540402835291820191610216565b820191906000526020600020905b815481529060010190602001808311610202575b50509150506040518091039020905090565b6020604051908101604052806000815250905600a165627a7a723058200ff7ed8ffd3d2d257af1aabc2ae6c2dbdf108dd8e43f94c878fcbed981c564fc0029",
  "source": "/* Author: Aleksey Selikhov  aleksey.selikhov@gmail.com */\n\npragma solidity ^0.4.18;\n\n\nimport './AssetIDInterface.sol';\n\n\n/**\n * @title AssetID\n * @dev Base contract implementing AssetIDInterface\n */\ncontract AssetID is AssetIDInterface {\n\n  /* Storage */\n\n  string assetID;\n\n\n  /* Constructor */\n\n  function AssetID(string _assetID) public {\n    require(bytes(_assetID).length > 0);\n\n    assetID = _assetID;\n  }\n\n\n  /* Getters */\n\n  function getAssetID() public constant returns (string) {\n    return assetID;\n  }\n\n  function getAssetIDHash() public constant returns (bytes32) {\n    return keccak256(assetID);\n  }\n}\n",
  "sourcePath": "/home/user/dev/project/jibrel/jibrel-contracts/contracts/feature/assetid/AssetID.sol",
  "compiler": {
    "name": "solc",
    "version": "0.4.18+commit.9cf6e910.Emscripten.clang"
  },
  "schemaVersion": "1.0.1",
  "updatedAt": "2017-12-15T09:06:54.701Z"
}