{
  "contractName": "CrydrControllerBaseMock",
  "abi": [
    {
      "constant": true,
      "inputs": [
        {
          "name": "_manager",
          "type": "address"
        },
        {
          "name": "_permissionName",
          "type": "string"
        }
      ],
      "name": "isManagerAllowed",
      "outputs": [
        {
          "name": "",
          "type": "bool"
        }
      ],
      "payable": false,
      "stateMutability": "view",
      "type": "function"
    },
    {
      "constant": false,
      "inputs": [
        {
          "name": "_crydrStorage",
          "type": "address"
        }
      ],
      "name": "setCrydrStorage",
      "outputs": [],
      "payable": false,
      "stateMutability": "nonpayable",
      "type": "function"
    },
    {
      "constant": false,
      "inputs": [],
      "name": "cancelOwnershipOffer",
      "outputs": [],
      "payable": false,
      "stateMutability": "nonpayable",
      "type": "function"
    },
    {
      "constant": true,
      "inputs": [
        {
          "name": "_manager",
          "type": "address"
        },
        {
          "name": "_permissionName",
          "type": "string"
        }
      ],
      "name": "isPermissionGranted",
      "outputs": [
        {
          "name": "",
          "type": "bool"
        }
      ],
      "payable": false,
      "stateMutability": "view",
      "type": "function"
    },
    {
      "constant": false,
      "inputs": [],
      "name": "pauseContract",
      "outputs": [],
      "payable": false,
      "stateMutability": "nonpayable",
      "type": "function"
    },
    {
      "constant": false,
      "inputs": [
        {
          "name": "_manager",
          "type": "address"
        }
      ],
      "name": "enableManager",
      "outputs": [],
      "payable": false,
      "stateMutability": "nonpayable",
      "type": "function"
    },
    {
      "constant": true,
      "inputs": [],
      "name": "getPaused",
      "outputs": [
        {
          "name": "",
          "type": "bool"
        }
      ],
      "payable": false,
      "stateMutability": "view",
      "type": "function"
    },
    {
      "constant": true,
      "inputs": [],
      "name": "getAssetID",
      "outputs": [
        {
          "name": "",
          "type": "string"
        }
      ],
      "payable": false,
      "stateMutability": "view",
      "type": "function"
    },
    {
      "constant": false,
      "inputs": [
        {
          "name": "_viewApiStandardName",
          "type": "string"
        }
      ],
      "name": "removeCrydrView",
      "outputs": [],
      "payable": false,
      "stateMutability": "nonpayable",
      "type": "function"
    },
    {
      "constant": false,
      "inputs": [
        {
          "name": "_manager",
          "type": "address"
        },
        {
          "name": "_permissionName",
          "type": "string"
        }
      ],
      "name": "revokeManagerPermission",
      "outputs": [],
      "payable": false,
      "stateMutability": "nonpayable",
      "type": "function"
    },
    {
      "constant": false,
      "inputs": [
        {
          "name": "_manager",
          "type": "address"
        },
        {
          "name": "_permissionName",
          "type": "string"
        }
      ],
      "name": "grantManagerPermission",
      "outputs": [],
      "payable": false,
      "stateMutability": "nonpayable",
      "type": "function"
    },
    {
      "constant": true,
      "inputs": [],
      "name": "getOwner",
      "outputs": [
        {
          "name": "",
          "type": "address"
        }
      ],
      "payable": false,
      "stateMutability": "view",
      "type": "function"
    },
    {
      "constant": true,
      "inputs": [],
      "name": "getCrydrStorageAddress",
      "outputs": [
        {
          "name": "",
          "type": "address"
        }
      ],
      "payable": false,
      "stateMutability": "view",
      "type": "function"
    },
    {
      "constant": false,
      "inputs": [
        {
          "name": "_proposedOwner",
          "type": "address"
        }
      ],
      "name": "createOwnershipOffer",
      "outputs": [],
      "payable": false,
      "stateMutability": "nonpayable",
      "type": "function"
    },
    {
      "constant": true,
      "inputs": [
        {
          "name": "_manager",
          "type": "address"
        }
      ],
      "name": "isManagerEnabled",
      "outputs": [
        {
          "name": "",
          "type": "bool"
        }
      ],
      "payable": false,
      "stateMutability": "view",
      "type": "function"
    },
    {
      "constant": true,
      "inputs": [],
      "name": "getAssetIDHash",
      "outputs": [
        {
          "name": "",
          "type": "bytes32"
        }
      ],
      "payable": false,
      "stateMutability": "view",
      "type": "function"
    },
    {
      "constant": false,
      "inputs": [],
      "name": "unpauseContract",
      "outputs": [],
      "payable": false,
      "stateMutability": "nonpayable",
      "type": "function"
    },
    {
      "constant": true,
      "inputs": [
        {
          "name": "_viewApiStandardName",
          "type": "string"
        }
      ],
      "name": "getCrydrViewAddress",
      "outputs": [
        {
          "name": "",
          "type": "address"
        }
      ],
      "payable": false,
      "stateMutability": "view",
      "type": "function"
    },
    {
      "constant": true,
      "inputs": [
        {
          "name": "_crydrViewAddress",
          "type": "address"
        }
      ],
      "name": "isCrydrViewAddress",
      "outputs": [
        {
          "name": "",
          "type": "bool"
        }
      ],
      "payable": false,
      "stateMutability": "view",
      "type": "function"
    },
    {
      "constant": false,
      "inputs": [
        {
          "name": "_manager",
          "type": "address"
        }
      ],
      "name": "disableManager",
      "outputs": [],
      "payable": false,
      "stateMutability": "nonpayable",
      "type": "function"
    },
    {
      "constant": true,
      "inputs": [
        {
          "name": "_viewApiStandardName",
          "type": "string"
        }
      ],
      "name": "isCrydrViewRegistered",
      "outputs": [
        {
          "name": "",
          "type": "bool"
        }
      ],
      "payable": false,
      "stateMutability": "view",
      "type": "function"
    },
    {
      "constant": false,
      "inputs": [
        {
          "name": "_newCrydrView",
          "type": "address"
        },
        {
          "name": "_viewApiStandardName",
          "type": "string"
        }
      ],
      "name": "setCrydrView",
      "outputs": [],
      "payable": false,
      "stateMutability": "nonpayable",
      "type": "function"
    },
    {
      "constant": true,
      "inputs": [],
      "name": "getProposedOwner",
      "outputs": [
        {
          "name": "",
          "type": "address"
        }
      ],
      "payable": false,
      "stateMutability": "view",
      "type": "function"
    },
    {
      "constant": false,
      "inputs": [],
      "name": "acceptOwnershipOffer",
      "outputs": [],
      "payable": false,
      "stateMutability": "nonpayable",
      "type": "function"
    },
    {
      "inputs": [
        {
          "name": "_assetID",
          "type": "string"
        }
      ],
      "payable": false,
      "stateMutability": "nonpayable",
      "type": "constructor"
    },
    {
      "anonymous": false,
      "inputs": [
        {
          "indexed": true,
          "name": "crydrstorage",
          "type": "address"
        }
      ],
      "name": "CrydrStorageChangedEvent",
      "type": "event"
    },
    {
      "anonymous": false,
      "inputs": [
        {
          "indexed": true,
          "name": "crydrview",
          "type": "address"
        },
        {
          "indexed": false,
          "name": "standardname",
          "type": "string"
        }
      ],
      "name": "CrydrViewAddedEvent",
      "type": "event"
    },
    {
      "anonymous": false,
      "inputs": [
        {
          "indexed": true,
          "name": "crydrview",
          "type": "address"
        },
        {
          "indexed": false,
          "name": "standardname",
          "type": "string"
        }
      ],
      "name": "CrydrViewRemovedEvent",
      "type": "event"
    },
    {
      "anonymous": false,
      "inputs": [],
      "name": "PauseEvent",
      "type": "event"
    },
    {
      "anonymous": false,
      "inputs": [],
      "name": "UnpauseEvent",
      "type": "event"
    },
    {
      "anonymous": false,
      "inputs": [
        {
          "indexed": true,
          "name": "manager",
          "type": "address"
        }
      ],
      "name": "ManagerEnabledEvent",
      "type": "event"
    },
    {
      "anonymous": false,
      "inputs": [
        {
          "indexed": true,
          "name": "manager",
          "type": "address"
        }
      ],
      "name": "ManagerDisabledEvent",
      "type": "event"
    },
    {
      "anonymous": false,
      "inputs": [
        {
          "indexed": true,
          "name": "manager",
          "type": "address"
        },
        {
          "indexed": false,
          "name": "permission",
          "type": "string"
        }
      ],
      "name": "ManagerPermissionGrantedEvent",
      "type": "event"
    },
    {
      "anonymous": false,
      "inputs": [
        {
          "indexed": true,
          "name": "manager",
          "type": "address"
        },
        {
          "indexed": false,
          "name": "permission",
          "type": "string"
        }
      ],
      "name": "ManagerPermissionRevokedEvent",
      "type": "event"
    },
    {
      "anonymous": false,
      "inputs": [
        {
          "indexed": true,
          "name": "newowner",
          "type": "address"
        }
      ],
      "name": "OwnerAssignedEvent",
      "type": "event"
    },
    {
      "anonymous": false,
      "inputs": [
        {
          "indexed": true,
          "name": "currentowner",
          "type": "address"
        },
        {
          "indexed": true,
          "name": "proposedowner",
          "type": "address"
        }
      ],
      "name": "OwnershipOfferCreatedEvent",
      "type": "event"
    },
    {
      "anonymous": false,
      "inputs": [
        {
          "indexed": true,
          "name": "currentowner",
          "type": "address"
        },
        {
          "indexed": true,
          "name": "proposedowner",
          "type": "address"
        }
      ],
      "name": "OwnershipOfferAcceptedEvent",
      "type": "event"
    },
    {
      "anonymous": false,
      "inputs": [
        {
          "indexed": true,
          "name": "currentowner",
          "type": "address"
        },
        {
          "indexed": true,
          "name": "proposedowner",
          "type": "address"
        }
      ],
      "name": "OwnershipOfferCancelledEvent",
      "type": "event"
    }
  ],
  "bytecode": "0x606060405260018054600160a060020a031990811682556002805490911690556005805460ff191690911761010060a860020a031916905534156200004357600080fd5b60405162001941380380620019418339810160405280805190910190508060008151116200007057600080fd5b600081805162000085929160200190620000dd565b505060018054600160a060020a03191633600160a060020a039081169190911791829055167f8d2a41ca5ff551a8f68510de75177b7d56e6019c8579b5509d2be1bb41a0d0af60405160405180910390a25062000182565b828054600181600116156101000203166002900490600052602060002090601f016020900481019282601f106200012057805160ff191683800117855562000150565b8280016001018555821562000150579182015b828111156200015057825182559160200191906001019062000133565b506200015e92915062000162565b5090565b6200017f91905b808211156200015e576000815560010162000169565b90565b6117af80620001926000396000f30060606040526004361061013d5763ffffffff7c01000000000000000000000000000000000000000000000000000000006000350416630392d2b481146101425780630c79e3e6146101b55780631eb96a5c146101d657806332a2fda7146101e9578063439766ce146102485780635ca5b3341461025b5780636805b84b1461027a578063696b5fb71461028d5780636ec03f7a146103175780637c0efb8b14610335578063822b08d014610360578063893d20e81461038b5780639554c8e5146103ba5780639739db9d146103cd5780639b53d87c146103ec578063a773d98a1461040b578063b33712c514610430578063bc40bac614610443578063d372e3a014610494578063d4859dc5146104b3578063d98de8a5146104d2578063e3a861a414610523578063eae5a62d1461054e578063f538534514610561575b600080fd5b341561014d57600080fd5b6101a160048035600160a060020a03169060446024803590810190830135806020601f8201819004810201604051908101604052818152929190602084018383808284375094965061057495505050505050565b604051901515815260200160405180910390f35b34156101c057600080fd5b6101d4600160a060020a0360043516610649565b005b34156101e157600080fd5b6101d4610768565b34156101f457600080fd5b6101a160048035600160a060020a03169060446024803590810190830135806020601f8201819004810201604051908101604052818152929190602084018383808284375094965061081995505050505050565b341561025357600080fd5b6101d4610888565b341561026657600080fd5b6101d4600160a060020a0360043516610922565b341561028557600080fd5b6101a16109d9565b341561029857600080fd5b6102a06109e2565b60405160208082528190810183818151815260200191508051906020019080838360005b838110156102dc5780820151838201526020016102c4565b50505050905090810190601f1680156103095780820380516001836020036101000a031916815260200191505b509250505060405180910390f35b341561032257600080fd5b6101d46004803560248101910135610a8a565b341561034057600080fd5b6101d460048035600160a060020a03169060248035908101910135610c38565b341561036b57600080fd5b6101d460048035600160a060020a03169060248035908101910135610dae565b341561039657600080fd5b61039e610f23565b604051600160a060020a03909116815260200160405180910390f35b34156103c557600080fd5b61039e610f32565b34156103d857600080fd5b6101d4600160a060020a0360043516610f46565b34156103f757600080fd5b6101a1600160a060020a036004351661101a565b341561041657600080fd5b61041e611052565b60405190815260200160405180910390f35b341561043b57600080fd5b6101d46110c2565b341561044e57600080fd5b61039e60046024813581810190830135806020601f8201819004810201604051908101604052818152929190602084018383808284375094965061115d95505050505050565b341561049f57600080fd5b6101a1600160a060020a0360043516611262565b34156104be57600080fd5b6101d4600160a060020a0360043516611298565b34156104dd57600080fd5b6101a160046024813581810190830135806020601f8201819004810201604051908101604052818152929190602084018383808284375094965061135095505050505050565b341561052e57600080fd5b6101d460048035600160a060020a031690602480359081019101356113dc565b341561055957600080fd5b61039e611660565b341561056c57600080fd5b6101d461166f565b600082600160a060020a038116151561058c57600080fd5b828051151561059a57600080fd5b600160a060020a03851660009081526003602052604090205460ff1680156106405750600160a060020a03851660009081526004602052604090819020908590518082805190602001908083835b602083106106075780518252601f1990920191602091820191016105e8565b6001836020036101000a0380198251168184511680821785525050505050509050019150509081526020016040519081900390205460ff165b95945050505050565b806106538161174f565b151560011461066157600080fd5b60408051908101604052601181527f7365745f63727964725f73746f72616765000000000000000000000000000000602082015261069f3382610574565b15156001146106ad57600080fd5b6106b56109d9565b15156001146106c357600080fd5b30600160a060020a031683600160a060020a0316141515156106e457600080fd5b600554600160a060020a0384811661010090920416141561070457600080fd5b6005805474ffffffffffffffffffffffffffffffffffffffff001916610100600160a060020a038616908102919091179091557f252da09c88b02fec1dd57c3183573d05d69ae5da5ca0ce6e6eff3e35e9662fdf60405160405180910390a2505050565b600254600090600160a060020a0316151561078257600080fd5b60015433600160a060020a03908116911614806107ad575060025433600160a060020a039081169116145b15156107b857600080fd5b506002805473ffffffffffffffffffffffffffffffffffffffff198116909155600154600160a060020a03918216918291167f223225995c0c0965e8752fd93ca10aba4bafcbca26f31b1565955adb68e76bda60405160405180910390a350565b600082600160a060020a038116151561083157600080fd5b828051151561083f57600080fd5b600160a060020a0385166000908152600460205260409081902090859051808280519060200190808383602083106106075780518252601f1990920191602091820191016105e8565b60408051908101604052600e81527f70617573655f636f6e747261637400000000000000000000000000000000000060208201526108c63382610574565b15156001146108d457600080fd5b6108dc6109d9565b156108e657600080fd5b6005805460ff191660011790557f14cc32b2b0edca88201ca20553c392d108a2feb2c750a0ee14c707b4f34fbee260405160405180910390a150565b61092a610f23565b600160a060020a031633600160a060020a031614151561094957600080fd5b80600160a060020a038116151561095f57600080fd5b600160a060020a03821660009081526003602052604090205460ff161561098557600080fd5b600160a060020a03821660008181526003602052604090819020805460ff191660011790557f7f0b61f78ab0b549b68ce61404f4ee01a26ffdf8d421d099d271d789aaea3a8e905160405180910390a25050565b60055460ff1690565b6109ea611771565b60008054600181600116156101000203166002900480601f016020809104026020016040519081016040528092919081815260200182805460018160011615610100020316600290048015610a805780601f10610a5557610100808354040283529160200191610a80565b820191906000526020600020905b815481529060010190602001808311610a6357829003601f168201915b5050505050905090565b600082828080601f016020809104026020016040519081016040528181529291906020840183838082843750600094508593505050505111610acb57600080fd5b60408051908101604052601181527f72656d6f76655f63727964725f766965770000000000000000000000000000006020820152610b093382610574565b1515600114610b1757600080fd5b610b1f6109d9565b1515600114610b2d57600080fd5b6000600686866040518083838082843782019150509250505090815260200160405190819003902054600160a060020a03161415610b6a57600080fd5b600685856040518083838082843782019150509250505090815260200160405190819003902054600160a060020a0316925060006006868660405180838380828437820191505092505050908152602001604051505050600160a060020a03831660008181526007602052604090819020805460ff191690557f8b2ac9cdd5b81bdcecfa184f5383be60526a8213b64246dfa5024a3a3632f7359087908790516020808252810182905280604081018484808284378201915050935050505060405180910390a25050505050565b610c40610f23565b600160a060020a031633600160a060020a0316141515610c5f57600080fd5b82600160a060020a0381161515610c7557600080fd5b82828080601f01602080910402602001604051908101604052818152929190602084018383808284375085945050505050511515610cb257600080fd5b600160a060020a03851660009081526004602052604090819020908590859051808383808284378201915050925050509081526020016040519081900390205460ff161515600114610d0357600080fd5b600160a060020a03851660009081526004602052604080822090869086905180838380828437820191505092505050908152602001604051908190039020805460ff1916911515919091179055600160a060020a0385167fe2b13fa06e3428fe0e43b2e517d25708ba477cafdff4fbcd06e3e93864517ddc85856040516020808252810182905280604081018484808284378201915050935050505060405180910390a25050505050565b610db6610f23565b600160a060020a031633600160a060020a0316141515610dd557600080fd5b82600160a060020a0381161515610deb57600080fd5b82828080601f01602080910402602001604051908101604052818152929190602084018383808284375085945050505050511515610e2857600080fd5b600160a060020a03851660009081526004602052604090819020908590859051808383808284378201915050925050509081526020016040519081900390205460ff1615610e7557600080fd5b600160a060020a03851660009081526004602052604090819020600191869086905180838380828437820191505092505050908152602001604051908190039020805460ff1916911515919091179055600160a060020a0385167fb76b4ee2621e0744da93fa797bdc4851a3b9e303b2950f2f234a449e5f36d35e85856040516020808252810182905280604081018484808284378201915050935050505060405180910390a25050505050565b600154600160a060020a031690565b6005546101009004600160a060020a031690565b610f4e610f23565b600160a060020a031633600160a060020a0316141515610f6d57600080fd5b600254600160a060020a031615610f8357600080fd5b600160a060020a0381161515610f9857600080fd5b30600160a060020a031681600160a060020a031614151515610fb957600080fd5b6002805473ffffffffffffffffffffffffffffffffffffffff1916600160a060020a038381169182179092556001549091167f0c5d18b25c2665dfeec8ea7956663ec48f079fdd04799ddd335f2fdce1a9fceb60405160405180910390a350565b600081600160a060020a038116151561103257600080fd5b5050600160a060020a031660009081526003602052604090205460ff1690565b60008060405180828054600181600116156101000203166002900480156110b05780601f1061108e5761010080835404028352918201916110b0565b820191906000526020600020905b81548152906001019060200180831161109c575b50509150506040518091039020905090565b60408051908101604052601081527f756e70617573655f636f6e74726163740000000000000000000000000000000060208201526111003382610574565b151560011461110e57600080fd5b6111166109d9565b151560011461112457600080fd5b6005805460ff191690557f6249a5c797c884cbf33e63e8cfc250816032db24e22051de68a388315e64afc660405160405180910390a150565b600081600081511161116e57600080fd5b60006006846040518082805190602001908083835b602083106111a25780518252601f199092019160209182019101611183565b6001836020036101000a03801982511681845116808217855250505050505090500191505090815260200160405190819003902054600160a060020a031614156111eb57600080fd5b6006836040518082805190602001908083835b6020831061121d5780518252601f1990920191602091820191016111fe565b6001836020036101000a03801982511681845116808217855250505050505090500191505090815260200160405190819003902054600160a060020a03169392505050565b6000600160a060020a038216151561127957600080fd5b50600160a060020a031660009081526007602052604090205460ff1690565b6112a0610f23565b600160a060020a031633600160a060020a03161415156112bf57600080fd5b80600160a060020a03811615156112d557600080fd5b600160a060020a03821660009081526003602052604090205460ff1615156001146112ff57600080fd5b600160a060020a03821660008181526003602052604090819020805460ff191690557f91975e22df3ba360814d3153e8eaef17954cf47d52a42840fc9747ad1086b351905160405180910390a25050565b600081600081511161136157600080fd5b60006006846040518082805190602001908083835b602083106113955780518252601f199092019160209182019101611376565b6001836020036101000a03801982511681845116808217855250505050505090500191505090815260200160405190819003902054600160a060020a031614159392505050565b600080846113e98161174f565b15156001146113f757600080fd5b84848080601f01602080910402602001604051908101604052818152929190602084018383808284375060009450859350505050511161143657600080fd5b60408051908101604052600e81527f7365745f63727964725f7669657700000000000000000000000000000000000060208201526114743382610574565b151560011461148257600080fd5b61148a6109d9565b151560011461149857600080fd5b30600160a060020a031688600160a060020a0316141515156114b957600080fd5b6000600688886040518083838082843782019150509250505090815260200160405190819003902054600160a060020a0316146114f557600080fd5b87945084600160a060020a031663230f6e836000604051602001526040518163ffffffff167c0100000000000000000000000000000000000000000000000000000000028152600401602060405180830381600087803b151561155757600080fd5b6102c65a03f1151561156857600080fd5b505050604051805190509350868660405180838380828437820191505092505050604051908190039020841461159d57600080fd5b876006888860405180838380828437820191505092505050908152602001604051908190039020805473ffffffffffffffffffffffffffffffffffffffff1916600160a060020a03928316179055881660008181526007602052604090819020805460ff191660011790557fcfadacbf7f27f22ba1af1974054b57d5f84c1081016cd355ada40f80c27d75249089908990516020808252810182905280604081018484808284378201915050935050505060405180910390a25050505050505050565b600254600160a060020a031690565b600254600090600160a060020a0316151561168957600080fd5b60025433600160a060020a039081169116146116a457600080fd5b50600180546002805473ffffffffffffffffffffffffffffffffffffffff19808416600160a060020a038381169190911795869055911690915590811691167f8d2a41ca5ff551a8f68510de75177b7d56e6019c8579b5509d2be1bb41a0d0af60405160405180910390a2600154600160a060020a039081169082167f3912b3f6ff73ee5d4cd2894666c349dec2d3d2ed7dc6d35c28c5eabf105a88d860405160405180910390a350565b600080600160a060020a038316151561176757600080fd5b50506000903b1190565b602060405190810160405260008152905600a165627a7a7230582000806012ca752a396cc234141823ebe0348f726e2a4846d3cad7fc84c1caf3d10029",
  "source": "/* Author: Victor Mezrin  victor@mezrin.com */\n\npragma solidity ^0.4.18;\n\nimport '../util/CommonModifiers.sol';\nimport '../feature/assetid/AssetID.sol';\nimport '../lifecycle/Ownable.sol';\nimport '../lifecycle/Manageable.sol';\nimport '../lifecycle/Pausable.sol';\nimport '../crydr/controller/CrydrControllerBase.sol';\n\n\n/**\n * @title CrydrControllerMintableMock\n * @dev Contract for unit tests\n */\ncontract CrydrControllerBaseMock is CommonModifiers,\n                                    AssetID,\n                                    Ownable,\n                                    Manageable,\n                                    Pausable,\n                                    CrydrControllerBase {\n\n  function CrydrControllerBaseMock(string _assetID) public AssetID(_assetID) {}\n}\n",
  "sourcePath": "/home/user/dev/project/jibrel/jibrel-contracts/contracts/unittest/CrydrControllerBaseMock.sol",
  "compiler": {
    "name": "solc",
    "version": "0.4.18+commit.9cf6e910.Emscripten.clang"
  },
  "schemaVersion": "1.0.1",
  "updatedAt": "2017-12-17T22:16:40.561Z"
}