{
  "contractName": "CrydrControllerMintableMock",
  "abi": [
    {
      "constant": true,
      "inputs": [
        {
          "name": "_manager",
          "type": "address"
        },
        {
          "name": "_permissionName",
          "type": "string"
        }
      ],
      "name": "isManagerAllowed",
      "outputs": [
        {
          "name": "",
          "type": "bool"
        }
      ],
      "payable": false,
      "stateMutability": "view",
      "type": "function"
    },
    {
      "constant": false,
      "inputs": [
        {
          "name": "_crydrStorage",
          "type": "address"
        }
      ],
      "name": "setCrydrStorage",
      "outputs": [],
      "payable": false,
      "stateMutability": "nonpayable",
      "type": "function"
    },
    {
      "constant": false,
      "inputs": [],
      "name": "cancelOwnershipOffer",
      "outputs": [],
      "payable": false,
      "stateMutability": "nonpayable",
      "type": "function"
    },
    {
      "constant": true,
      "inputs": [
        {
          "name": "_manager",
          "type": "address"
        },
        {
          "name": "_permissionName",
          "type": "string"
        }
      ],
      "name": "isPermissionGranted",
      "outputs": [
        {
          "name": "",
          "type": "bool"
        }
      ],
      "payable": false,
      "stateMutability": "view",
      "type": "function"
    },
    {
      "constant": false,
      "inputs": [
        {
          "name": "_account",
          "type": "address"
        },
        {
          "name": "_value",
          "type": "uint256"
        }
      ],
      "name": "mint",
      "outputs": [],
      "payable": false,
      "stateMutability": "nonpayable",
      "type": "function"
    },
    {
      "constant": false,
      "inputs": [],
      "name": "pauseContract",
      "outputs": [],
      "payable": false,
      "stateMutability": "nonpayable",
      "type": "function"
    },
    {
      "constant": false,
      "inputs": [
        {
          "name": "_manager",
          "type": "address"
        }
      ],
      "name": "enableManager",
      "outputs": [],
      "payable": false,
      "stateMutability": "nonpayable",
      "type": "function"
    },
    {
      "constant": true,
      "inputs": [],
      "name": "getPaused",
      "outputs": [
        {
          "name": "",
          "type": "bool"
        }
      ],
      "payable": false,
      "stateMutability": "view",
      "type": "function"
    },
    {
      "constant": true,
      "inputs": [],
      "name": "getAssetID",
      "outputs": [
        {
          "name": "",
          "type": "string"
        }
      ],
      "payable": false,
      "stateMutability": "view",
      "type": "function"
    },
    {
      "constant": false,
      "inputs": [
        {
          "name": "_viewApiStandardName",
          "type": "string"
        }
      ],
      "name": "removeCrydrView",
      "outputs": [],
      "payable": false,
      "stateMutability": "nonpayable",
      "type": "function"
    },
    {
      "constant": false,
      "inputs": [
        {
          "name": "_manager",
          "type": "address"
        },
        {
          "name": "_permissionName",
          "type": "string"
        }
      ],
      "name": "revokeManagerPermission",
      "outputs": [],
      "payable": false,
      "stateMutability": "nonpayable",
      "type": "function"
    },
    {
      "constant": false,
      "inputs": [
        {
          "name": "_manager",
          "type": "address"
        },
        {
          "name": "_permissionName",
          "type": "string"
        }
      ],
      "name": "grantManagerPermission",
      "outputs": [],
      "payable": false,
      "stateMutability": "nonpayable",
      "type": "function"
    },
    {
      "constant": true,
      "inputs": [],
      "name": "getOwner",
      "outputs": [
        {
          "name": "",
          "type": "address"
        }
      ],
      "payable": false,
      "stateMutability": "view",
      "type": "function"
    },
    {
      "constant": true,
      "inputs": [],
      "name": "getCrydrStorageAddress",
      "outputs": [
        {
          "name": "",
          "type": "address"
        }
      ],
      "payable": false,
      "stateMutability": "view",
      "type": "function"
    },
    {
      "constant": false,
      "inputs": [
        {
          "name": "_proposedOwner",
          "type": "address"
        }
      ],
      "name": "createOwnershipOffer",
      "outputs": [],
      "payable": false,
      "stateMutability": "nonpayable",
      "type": "function"
    },
    {
      "constant": true,
      "inputs": [
        {
          "name": "_manager",
          "type": "address"
        }
      ],
      "name": "isManagerEnabled",
      "outputs": [
        {
          "name": "",
          "type": "bool"
        }
      ],
      "payable": false,
      "stateMutability": "view",
      "type": "function"
    },
    {
      "constant": false,
      "inputs": [
        {
          "name": "_account",
          "type": "address"
        },
        {
          "name": "_value",
          "type": "uint256"
        }
      ],
      "name": "burn",
      "outputs": [],
      "payable": false,
      "stateMutability": "nonpayable",
      "type": "function"
    },
    {
      "constant": true,
      "inputs": [],
      "name": "getAssetIDHash",
      "outputs": [
        {
          "name": "",
          "type": "bytes32"
        }
      ],
      "payable": false,
      "stateMutability": "view",
      "type": "function"
    },
    {
      "constant": false,
      "inputs": [],
      "name": "unpauseContract",
      "outputs": [],
      "payable": false,
      "stateMutability": "nonpayable",
      "type": "function"
    },
    {
      "constant": true,
      "inputs": [
        {
          "name": "_viewApiStandardName",
          "type": "string"
        }
      ],
      "name": "getCrydrViewAddress",
      "outputs": [
        {
          "name": "",
          "type": "address"
        }
      ],
      "payable": false,
      "stateMutability": "view",
      "type": "function"
    },
    {
      "constant": true,
      "inputs": [
        {
          "name": "_crydrViewAddress",
          "type": "address"
        }
      ],
      "name": "isCrydrViewAddress",
      "outputs": [
        {
          "name": "",
          "type": "bool"
        }
      ],
      "payable": false,
      "stateMutability": "view",
      "type": "function"
    },
    {
      "constant": false,
      "inputs": [
        {
          "name": "_manager",
          "type": "address"
        }
      ],
      "name": "disableManager",
      "outputs": [],
      "payable": false,
      "stateMutability": "nonpayable",
      "type": "function"
    },
    {
      "constant": true,
      "inputs": [
        {
          "name": "_viewApiStandardName",
          "type": "string"
        }
      ],
      "name": "isCrydrViewRegistered",
      "outputs": [
        {
          "name": "",
          "type": "bool"
        }
      ],
      "payable": false,
      "stateMutability": "view",
      "type": "function"
    },
    {
      "constant": false,
      "inputs": [
        {
          "name": "_newCrydrView",
          "type": "address"
        },
        {
          "name": "_viewApiStandardName",
          "type": "string"
        }
      ],
      "name": "setCrydrView",
      "outputs": [],
      "payable": false,
      "stateMutability": "nonpayable",
      "type": "function"
    },
    {
      "constant": true,
      "inputs": [],
      "name": "getProposedOwner",
      "outputs": [
        {
          "name": "",
          "type": "address"
        }
      ],
      "payable": false,
      "stateMutability": "view",
      "type": "function"
    },
    {
      "constant": false,
      "inputs": [],
      "name": "acceptOwnershipOffer",
      "outputs": [],
      "payable": false,
      "stateMutability": "nonpayable",
      "type": "function"
    },
    {
      "inputs": [
        {
          "name": "_assetID",
          "type": "string"
        }
      ],
      "payable": false,
      "stateMutability": "nonpayable",
      "type": "constructor"
    },
    {
      "anonymous": false,
      "inputs": [
        {
          "indexed": true,
          "name": "owner",
          "type": "address"
        },
        {
          "indexed": false,
          "name": "value",
          "type": "uint256"
        }
      ],
      "name": "MintEvent",
      "type": "event"
    },
    {
      "anonymous": false,
      "inputs": [
        {
          "indexed": true,
          "name": "owner",
          "type": "address"
        },
        {
          "indexed": false,
          "name": "value",
          "type": "uint256"
        }
      ],
      "name": "BurnEvent",
      "type": "event"
    },
    {
      "anonymous": false,
      "inputs": [
        {
          "indexed": true,
          "name": "crydrstorage",
          "type": "address"
        }
      ],
      "name": "CrydrStorageChangedEvent",
      "type": "event"
    },
    {
      "anonymous": false,
      "inputs": [
        {
          "indexed": true,
          "name": "crydrview",
          "type": "address"
        },
        {
          "indexed": false,
          "name": "standardname",
          "type": "bytes32"
        }
      ],
      "name": "CrydrViewAddedEvent",
      "type": "event"
    },
    {
      "anonymous": false,
      "inputs": [
        {
          "indexed": true,
          "name": "crydrview",
          "type": "address"
        },
        {
          "indexed": false,
          "name": "standardname",
          "type": "bytes32"
        }
      ],
      "name": "CrydrViewRemovedEvent",
      "type": "event"
    },
    {
      "anonymous": false,
      "inputs": [],
      "name": "PauseEvent",
      "type": "event"
    },
    {
      "anonymous": false,
      "inputs": [],
      "name": "UnpauseEvent",
      "type": "event"
    },
    {
      "anonymous": false,
      "inputs": [
        {
          "indexed": true,
          "name": "manager",
          "type": "address"
        }
      ],
      "name": "ManagerEnabledEvent",
      "type": "event"
    },
    {
      "anonymous": false,
      "inputs": [
        {
          "indexed": true,
          "name": "manager",
          "type": "address"
        }
      ],
      "name": "ManagerDisabledEvent",
      "type": "event"
    },
    {
      "anonymous": false,
      "inputs": [
        {
          "indexed": true,
          "name": "manager",
          "type": "address"
        },
        {
          "indexed": false,
          "name": "permission",
          "type": "bytes32"
        }
      ],
      "name": "ManagerPermissionGrantedEvent",
      "type": "event"
    },
    {
      "anonymous": false,
      "inputs": [
        {
          "indexed": true,
          "name": "manager",
          "type": "address"
        },
        {
          "indexed": false,
          "name": "permission",
          "type": "bytes32"
        }
      ],
      "name": "ManagerPermissionRevokedEvent",
      "type": "event"
    },
    {
      "anonymous": false,
      "inputs": [
        {
          "indexed": true,
          "name": "newowner",
          "type": "address"
        }
      ],
      "name": "OwnerAssignedEvent",
      "type": "event"
    },
    {
      "anonymous": false,
      "inputs": [
        {
          "indexed": true,
          "name": "currentowner",
          "type": "address"
        },
        {
          "indexed": true,
          "name": "proposedowner",
          "type": "address"
        }
      ],
      "name": "OwnershipOfferCreatedEvent",
      "type": "event"
    },
    {
      "anonymous": false,
      "inputs": [
        {
          "indexed": true,
          "name": "currentowner",
          "type": "address"
        },
        {
          "indexed": true,
          "name": "proposedowner",
          "type": "address"
        }
      ],
      "name": "OwnershipOfferAcceptedEvent",
      "type": "event"
    },
    {
      "anonymous": false,
      "inputs": [
        {
          "indexed": true,
          "name": "currentowner",
          "type": "address"
        },
        {
          "indexed": true,
          "name": "proposedowner",
          "type": "address"
        }
      ],
      "name": "OwnershipOfferCancelledEvent",
      "type": "event"
    }
  ],
  "bytecode": "0x60806040526000600160006101000a81548173ffffffffffffffffffffffffffffffffffffffff021916908373ffffffffffffffffffffffffffffffffffffffff1602179055506000600260006101000a81548173ffffffffffffffffffffffffffffffffffffffff021916908373ffffffffffffffffffffffffffffffffffffffff1602179055506001600560006101000a81548160ff0219169083151502179055506000600560016101000a81548173ffffffffffffffffffffffffffffffffffffffff021916908373ffffffffffffffffffffffffffffffffffffffff160217905550348015620000f257600080fd5b5060405162003334380380620033348339810180604052810190808051820192919050505080600081511115156200012957600080fd5b806000908051906020019062000141929190620001f0565b505033600160006101000a81548173ffffffffffffffffffffffffffffffffffffffff021916908373ffffffffffffffffffffffffffffffffffffffff160217905550600160009054906101000a900473ffffffffffffffffffffffffffffffffffffffff1673ffffffffffffffffffffffffffffffffffffffff167f8d2a41ca5ff551a8f68510de75177b7d56e6019c8579b5509d2be1bb41a0d0af60405160405180910390a2506200029f565b828054600181600116156101000203166002900490600052602060002090601f016020900481019282601f106200023357805160ff191683800117855562000264565b8280016001018555821562000264579182015b828111156200026357825182559160200191906001019062000246565b5b50905062000273919062000277565b5090565b6200029c91905b80821115620002985760008160009055506001016200027e565b5090565b90565b61308580620002af6000396000f300608060405260043610610154576000357c0100000000000000000000000000000000000000000000000000000000900463ffffffff1680630392d2b4146101595780630c79e3e6146101fa5780631eb96a5c1461023d57806332a2fda71461025457806340c10f19146102f5578063439766ce146103425780635ca5b334146103595780636805b84b1461039c578063696b5fb7146103cb5780636ec03f7a1461045b5780637c0efb8b14610496578063822b08d0146104f1578063893d20e81461054c5780639554c8e5146105a35780639739db9d146105fa5780639b53d87c1461063d5780639dc29fac14610698578063a773d98a146106e5578063b33712c514610718578063bc40bac61461072f578063d372e3a0146107d8578063d4859dc514610833578063d98de8a514610876578063e3a861a4146108f7578063eae5a62d14610952578063f5385345146109a9575b600080fd5b34801561016557600080fd5b506101e0600480360381019080803573ffffffffffffffffffffffffffffffffffffffff169060200190929190803590602001908201803590602001908080601f01602080910402602001604051908101604052809392919081815260200183838082843782019150505050505091929192905050506109c0565b604051808215151515815260200191505060405180910390f35b34801561020657600080fd5b5061023b600480360381019080803573ffffffffffffffffffffffffffffffffffffffff169060200190929190505050610b26565b005b34801561024957600080fd5b50610252610ccf565b005b34801561026057600080fd5b506102db600480360381019080803573ffffffffffffffffffffffffffffffffffffffff169060200190929190803590602001908201803590602001908080601f0160208091040260200160405190810160405280939291908181526020018383808284378201915050505050509192919290505050610ec8565b604051808215151515815260200191505060405180910390f35b34801561030157600080fd5b50610340600480360381019080803573ffffffffffffffffffffffffffffffffffffffff16906020019092919080359060200190929190505050610fd9565b005b34801561034e57600080fd5b506103576113ca565b005b34801561036557600080fd5b5061039a600480360381019080803573ffffffffffffffffffffffffffffffffffffffff169060200190929190505050611480565b005b3480156103a857600080fd5b506103b16115fc565b604051808215151515815260200191505060405180910390f35b3480156103d757600080fd5b506103e0611613565b6040518080602001828103825283818151815260200191508051906020019080838360005b83811015610420578082015181840152602081019050610405565b50505050905090810190601f16801561044d5780820380516001836020036101000a031916815260200191505b509250505060405180910390f35b34801561046757600080fd5b506104946004803603810190808035906020019082018035906020019190919293919293905050506116b5565b005b3480156104a257600080fd5b506104ef600480360381019080803573ffffffffffffffffffffffffffffffffffffffff16906020019092919080359060200190820180359060200191909192939192939050505061194a565b005b3480156104fd57600080fd5b5061054a600480360381019080803573ffffffffffffffffffffffffffffffffffffffff169060200190929190803590602001908201803590602001919091929391929390505050611b82565b005b34801561055857600080fd5b50610561611dba565b604051808273ffffffffffffffffffffffffffffffffffffffff1673ffffffffffffffffffffffffffffffffffffffff16815260200191505060405180910390f35b3480156105af57600080fd5b506105b8611de4565b604051808273ffffffffffffffffffffffffffffffffffffffff1673ffffffffffffffffffffffffffffffffffffffff16815260200191505060405180910390f35b34801561060657600080fd5b5061063b600480360381019080803573ffffffffffffffffffffffffffffffffffffffff169060200190929190505050611e0e565b005b34801561064957600080fd5b5061067e600480360381019080803573ffffffffffffffffffffffffffffffffffffffff169060200190929190505050611fe3565b604051808215151515815260200191505060405180910390f35b3480156106a457600080fd5b506106e3600480360381019080803573ffffffffffffffffffffffffffffffffffffffff16906020019092919080359060200190929190505050612077565b005b3480156106f157600080fd5b506106fa612468565b60405180826000191660001916815260200191505060405180910390f35b34801561072457600080fd5b5061072d6124d8565b005b34801561073b57600080fd5b50610796600480360381019080803590602001908201803590602001908080601f016020809104026020016040519081016040528093929190818152602001838380828437820191505050505050919291929050505061258e565b604051808273ffffffffffffffffffffffffffffffffffffffff1673ffffffffffffffffffffffffffffffffffffffff16815260200191505060405180910390f35b3480156107e457600080fd5b50610819600480360381019080803573ffffffffffffffffffffffffffffffffffffffff1690602001909291905050506126fc565b604051808215151515815260200191505060405180910390f35b34801561083f57600080fd5b50610874600480360381019080803573ffffffffffffffffffffffffffffffffffffffff16906020019092919050505061278d565b005b34801561088257600080fd5b506108dd600480360381019080803590602001908201803590602001908080601f0160208091040260200160405190810160405280939291908181526020018383808284378201915050505050509192919290505050612909565b604051808215151515815260200191505060405180910390f35b34801561090357600080fd5b50610950600480360381019080803573ffffffffffffffffffffffffffffffffffffffff1690602001909291908035906020019082018035906020019190919293919293905050506129e0565b005b34801561095e57600080fd5b50610967612d77565b604051808273ffffffffffffffffffffffffffffffffffffffff1673ffffffffffffffffffffffffffffffffffffffff16815260200191505060405180910390f35b3480156109b557600080fd5b506109be612da1565b005b600082600073ffffffffffffffffffffffffffffffffffffffff168173ffffffffffffffffffffffffffffffffffffffff16141515156109ff57600080fd5b826000815114151515610a1157600080fd5b600360008673ffffffffffffffffffffffffffffffffffffffff1673ffffffffffffffffffffffffffffffffffffffff16815260200190815260200160002060009054906101000a900460ff168015610b1c5750600460008673ffffffffffffffffffffffffffffffffffffffff1673ffffffffffffffffffffffffffffffffffffffff168152602001908152602001600020846040518082805190602001908083835b602083101515610ada5780518252602082019150602081019050602083039250610ab5565b6001836020036101000a038019825116818451168082178552505050505050905001915050908152602001604051809103902060009054906101000a900460ff165b9250505092915050565b8060011515610b348261300a565b1515141515610b4257600080fd5b6040805190810160405280601181526020017f7365745f63727964725f73746f7261676500000000000000000000000000000081525060011515610b8633836109c0565b1515141515610b9457600080fd5b60011515610ba06115fc565b1515141515610bae57600080fd5b3073ffffffffffffffffffffffffffffffffffffffff168373ffffffffffffffffffffffffffffffffffffffff1614151515610be957600080fd5b600560019054906101000a900473ffffffffffffffffffffffffffffffffffffffff1673ffffffffffffffffffffffffffffffffffffffff168373ffffffffffffffffffffffffffffffffffffffff1614151515610c4657600080fd5b82600560016101000a81548173ffffffffffffffffffffffffffffffffffffffff021916908373ffffffffffffffffffffffffffffffffffffffff1602179055508273ffffffffffffffffffffffffffffffffffffffff167f252da09c88b02fec1dd57c3183573d05d69ae5da5ca0ce6e6eff3e35e9662fdf60405160405180910390a2505050565b60008073ffffffffffffffffffffffffffffffffffffffff16600260009054906101000a900473ffffffffffffffffffffffffffffffffffffffff1673ffffffffffffffffffffffffffffffffffffffff1614151515610d2e57600080fd5b600160009054906101000a900473ffffffffffffffffffffffffffffffffffffffff1673ffffffffffffffffffffffffffffffffffffffff163373ffffffffffffffffffffffffffffffffffffffff161480610dd75750600260009054906101000a900473ffffffffffffffffffffffffffffffffffffffff1673ffffffffffffffffffffffffffffffffffffffff163373ffffffffffffffffffffffffffffffffffffffff16145b1515610de257600080fd5b600260009054906101000a900473ffffffffffffffffffffffffffffffffffffffff1690506000600260006101000a81548173ffffffffffffffffffffffffffffffffffffffff021916908373ffffffffffffffffffffffffffffffffffffffff1602179055508073ffffffffffffffffffffffffffffffffffffffff16600160009054906101000a900473ffffffffffffffffffffffffffffffffffffffff1673ffffffffffffffffffffffffffffffffffffffff167f223225995c0c0965e8752fd93ca10aba4bafcbca26f31b1565955adb68e76bda60405160405180910390a350565b600082600073ffffffffffffffffffffffffffffffffffffffff168173ffffffffffffffffffffffffffffffffffffffff1614151515610f0757600080fd5b826000815114151515610f1957600080fd5b600460008673ffffffffffffffffffffffffffffffffffffffff1673ffffffffffffffffffffffffffffffffffffffff168152602001908152602001600020846040518082805190602001908083835b602083101515610f8e5780518252602082019150602081019050602083039250610f69565b6001836020036101000a038019825116818451168082178552505050505050905001915050908152602001604051809103902060009054906101000a900460ff169250505092915050565b60001515610fe56115fc565b1515141515610ff357600080fd5b6040805190810160405280600a81526020017f6d696e745f6372796472000000000000000000000000000000000000000000008152506001151561103733836109c0565b151514151561104557600080fd5b61104d611de4565b73ffffffffffffffffffffffffffffffffffffffff16635b86f59984846040518363ffffffff167c0100000000000000000000000000000000000000000000000000000000028152600401808373ffffffffffffffffffffffffffffffffffffffff1673ffffffffffffffffffffffffffffffffffffffff16815260200182815260200192505050600060405180830381600087803b1580156110ef57600080fd5b505af1158015611103573d6000803e3d6000fd5b505050508273ffffffffffffffffffffffffffffffffffffffff167f3fffaa5804a26fcec0d70b1d0fb0a2d0031df3a5f9c8af2127c2f4360e97b463836040518082815260200191505060405180910390a2600115156111976040805190810160405280600581526020017f6572633230000000000000000000000000000000000000000000000000000000815250612909565b151514156113c5576111dd6040805190810160405280600581526020017f657263323000000000000000000000000000000000000000000000000000000081525061258e565b73ffffffffffffffffffffffffffffffffffffffff1663958689d784846040518363ffffffff167c0100000000000000000000000000000000000000000000000000000000028152600401808373ffffffffffffffffffffffffffffffffffffffff1673ffffffffffffffffffffffffffffffffffffffff16815260200182815260200192505050600060405180830381600087803b15801561127f57600080fd5b505af1158015611293573d6000803e3d6000fd5b505050506112d56040805190810160405280600581526020017f657263323000000000000000000000000000000000000000000000000000000081525061258e565b73ffffffffffffffffffffffffffffffffffffffff1663a6d49dca600085856040518463ffffffff167c0100000000000000000000000000000000000000000000000000000000028152600401808473ffffffffffffffffffffffffffffffffffffffff1673ffffffffffffffffffffffffffffffffffffffff1681526020018373ffffffffffffffffffffffffffffffffffffffff1673ffffffffffffffffffffffffffffffffffffffff1681526020018281526020019350505050600060405180830381600087803b1580156113ac57600080fd5b505af11580156113c0573d6000803e3d6000fd5b505050505b505050565b6040805190810160405280600e81526020017f70617573655f636f6e74726163740000000000000000000000000000000000008152506001151561140e33836109c0565b151514151561141c57600080fd5b600015156114286115fc565b151514151561143657600080fd5b6001600560006101000a81548160ff0219169083151502179055507f14cc32b2b0edca88201ca20553c392d108a2feb2c750a0ee14c707b4f34fbee260405160405180910390a150565b611488611dba565b73ffffffffffffffffffffffffffffffffffffffff163373ffffffffffffffffffffffffffffffffffffffff161415156114c157600080fd5b80600073ffffffffffffffffffffffffffffffffffffffff168173ffffffffffffffffffffffffffffffffffffffff16141515156114fe57600080fd5b60001515600360008473ffffffffffffffffffffffffffffffffffffffff1673ffffffffffffffffffffffffffffffffffffffff16815260200190815260200160002060009054906101000a900460ff16151514151561155d57600080fd5b6001600360008473ffffffffffffffffffffffffffffffffffffffff1673ffffffffffffffffffffffffffffffffffffffff16815260200190815260200160002060006101000a81548160ff0219169083151502179055508173ffffffffffffffffffffffffffffffffffffffff167f7f0b61f78ab0b549b68ce61404f4ee01a26ffdf8d421d099d271d789aaea3a8e60405160405180910390a25050565b6000600560009054906101000a900460ff16905090565b606060008054600181600116156101000203166002900480601f0160208091040260200160405190810160405280929190818152602001828054600181600116156101000203166002900480156116ab5780601f10611680576101008083540402835291602001916116ab565b820191906000526020600020905b81548152906001019060200180831161168e57829003601f168201915b5050505050905090565b600082828080601f016020809104026020016040519081016040528093929190818152602001838380828437820191505050505050600081511115156116fa57600080fd5b6040805190810160405280601181526020017f72656d6f76655f63727964725f766965770000000000000000000000000000008152506001151561173e33836109c0565b151514151561174c57600080fd5b600115156117586115fc565b151514151561176657600080fd5b600073ffffffffffffffffffffffffffffffffffffffff166006868660405180838380828437820191505092505050908152602001604051809103902060009054906101000a900473ffffffffffffffffffffffffffffffffffffffff1673ffffffffffffffffffffffffffffffffffffffff16141515156117e757600080fd5b6006858560405180838380828437820191505092505050908152602001604051809103902060009054906101000a900473ffffffffffffffffffffffffffffffffffffffff169250600073ffffffffffffffffffffffffffffffffffffffff166006868660405180838380828437820191505092505050908152602001604051809103902060009054906101000a905050506000600760008573ffffffffffffffffffffffffffffffffffffffff1673ffffffffffffffffffffffffffffffffffffffff16815260200190815260200160002060006101000a81548160ff0219169083151502179055508273ffffffffffffffffffffffffffffffffffffffff167f334317094b161d745f7febc896c88d1973f98db8cd2941436406bbd432a6055f868660405180838380828437820191505092505050604051809103902060405180826000191660001916815260200191505060405180910390a25050505050565b611952611dba565b73ffffffffffffffffffffffffffffffffffffffff163373ffffffffffffffffffffffffffffffffffffffff1614151561198b57600080fd5b82600073ffffffffffffffffffffffffffffffffffffffff168173ffffffffffffffffffffffffffffffffffffffff16141515156119c857600080fd5b82828080601f0160208091040260200160405190810160405280939291908181526020018383808284378201915050505050506000815114151515611a0c57600080fd5b60011515600460008773ffffffffffffffffffffffffffffffffffffffff1673ffffffffffffffffffffffffffffffffffffffff168152602001908152602001600020858560405180838380828437820191505092505050908152602001604051809103902060009054906101000a900460ff161515141515611a8e57600080fd5b6000600460008773ffffffffffffffffffffffffffffffffffffffff1673ffffffffffffffffffffffffffffffffffffffff168152602001908152602001600020858560405180838380828437820191505092505050908152602001604051809103902060006101000a81548160ff0219169083151502179055508473ffffffffffffffffffffffffffffffffffffffff167ffef063ea41a1d4d73bca77475bd8fc3c81a1145b2f3afa879a1530bb6a8401e3858560405180838380828437820191505092505050604051809103902060405180826000191660001916815260200191505060405180910390a25050505050565b611b8a611dba565b73ffffffffffffffffffffffffffffffffffffffff163373ffffffffffffffffffffffffffffffffffffffff16141515611bc357600080fd5b82600073ffffffffffffffffffffffffffffffffffffffff168173ffffffffffffffffffffffffffffffffffffffff1614151515611c0057600080fd5b82828080601f0160208091040260200160405190810160405280939291908181526020018383808284378201915050505050506000815114151515611c4457600080fd5b60001515600460008773ffffffffffffffffffffffffffffffffffffffff1673ffffffffffffffffffffffffffffffffffffffff168152602001908152602001600020858560405180838380828437820191505092505050908152602001604051809103902060009054906101000a900460ff161515141515611cc657600080fd5b6001600460008773ffffffffffffffffffffffffffffffffffffffff1673ffffffffffffffffffffffffffffffffffffffff168152602001908152602001600020858560405180838380828437820191505092505050908152602001604051809103902060006101000a81548160ff0219169083151502179055508473ffffffffffffffffffffffffffffffffffffffff167fc1b43c9c4075dfc74444e2d220aecef01cd89d63abb613d28f1f727c973f1f50858560405180838380828437820191505092505050604051809103902060405180826000191660001916815260200191505060405180910390a25050505050565b6000600160009054906101000a900473ffffffffffffffffffffffffffffffffffffffff16905090565b6000600560019054906101000a900473ffffffffffffffffffffffffffffffffffffffff16905090565b611e16611dba565b73ffffffffffffffffffffffffffffffffffffffff163373ffffffffffffffffffffffffffffffffffffffff16141515611e4f57600080fd5b600073ffffffffffffffffffffffffffffffffffffffff16600260009054906101000a900473ffffffffffffffffffffffffffffffffffffffff1673ffffffffffffffffffffffffffffffffffffffff16141515611eac57600080fd5b600073ffffffffffffffffffffffffffffffffffffffff168173ffffffffffffffffffffffffffffffffffffffff1614151515611ee857600080fd5b3073ffffffffffffffffffffffffffffffffffffffff168173ffffffffffffffffffffffffffffffffffffffff1614151515611f2357600080fd5b80600260006101000a81548173ffffffffffffffffffffffffffffffffffffffff021916908373ffffffffffffffffffffffffffffffffffffffff1602179055508073ffffffffffffffffffffffffffffffffffffffff16600160009054906101000a900473ffffffffffffffffffffffffffffffffffffffff1673ffffffffffffffffffffffffffffffffffffffff167f0c5d18b25c2665dfeec8ea7956663ec48f079fdd04799ddd335f2fdce1a9fceb60405160405180910390a350565b600081600073ffffffffffffffffffffffffffffffffffffffff168173ffffffffffffffffffffffffffffffffffffffff161415151561202257600080fd5b600360008473ffffffffffffffffffffffffffffffffffffffff1673ffffffffffffffffffffffffffffffffffffffff16815260200190815260200160002060009054906101000a900460ff16915050919050565b600015156120836115fc565b151514151561209157600080fd5b6040805190810160405280600a81526020017f6275726e5f637279647200000000000000000000000000000000000000000000815250600115156120d533836109c0565b15151415156120e357600080fd5b6120eb611de4565b73ffffffffffffffffffffffffffffffffffffffff1663ff05694984846040518363ffffffff167c0100000000000000000000000000000000000000000000000000000000028152600401808373ffffffffffffffffffffffffffffffffffffffff1673ffffffffffffffffffffffffffffffffffffffff16815260200182815260200192505050600060405180830381600087803b15801561218d57600080fd5b505af11580156121a1573d6000803e3d6000fd5b505050508273ffffffffffffffffffffffffffffffffffffffff167f512586160ebd4dc6945ba9ec5d21a1f723f26f3c7aa36cdffb6818d4e7b88030836040518082815260200191505060405180910390a2600115156122356040805190810160405280600581526020017f6572633230000000000000000000000000000000000000000000000000000000815250612909565b151514156124635761227b6040805190810160405280600581526020017f657263323000000000000000000000000000000000000000000000000000000081525061258e565b73ffffffffffffffffffffffffffffffffffffffff1663ed810cfa84846040518363ffffffff167c0100000000000000000000000000000000000000000000000000000000028152600401808373ffffffffffffffffffffffffffffffffffffffff1673ffffffffffffffffffffffffffffffffffffffff16815260200182815260200192505050600060405180830381600087803b15801561231d57600080fd5b505af1158015612331573d6000803e3d6000fd5b505050506123736040805190810160405280600581526020017f657263323000000000000000000000000000000000000000000000000000000081525061258e565b73ffffffffffffffffffffffffffffffffffffffff1663a6d49dca846000856040518463ffffffff167c0100000000000000000000000000000000000000000000000000000000028152600401808473ffffffffffffffffffffffffffffffffffffffff1673ffffffffffffffffffffffffffffffffffffffff1681526020018373ffffffffffffffffffffffffffffffffffffffff1673ffffffffffffffffffffffffffffffffffffffff1681526020018281526020019350505050600060405180830381600087803b15801561244a57600080fd5b505af115801561245e573d6000803e3d6000fd5b505050505b505050565b60008060405180828054600181600116156101000203166002900480156124c65780601f106124a45761010080835404028352918201916124c6565b820191906000526020600020905b8154815290600101906020018083116124b2575b50509150506040518091039020905090565b6040805190810160405280601081526020017f756e70617573655f636f6e7472616374000000000000000000000000000000008152506001151561251c33836109c0565b151514151561252a57600080fd5b600115156125366115fc565b151514151561254457600080fd5b6000600560006101000a81548160ff0219169083151502179055507f6249a5c797c884cbf33e63e8cfc250816032db24e22051de68a388315e64afc660405160405180910390a150565b600081600081511115156125a157600080fd5b600073ffffffffffffffffffffffffffffffffffffffff166006846040518082805190602001908083835b6020831015156125f157805182526020820191506020810190506020830392506125cc565b6001836020036101000a038019825116818451168082178552505050505050905001915050908152602001604051809103902060009054906101000a900473ffffffffffffffffffffffffffffffffffffffff1673ffffffffffffffffffffffffffffffffffffffff161415151561266857600080fd5b6006836040518082805190602001908083835b6020831015156126a0578051825260208201915060208101905060208303925061267b565b6001836020036101000a038019825116818451168082178552505050505050905001915050908152602001604051809103902060009054906101000a900473ffffffffffffffffffffffffffffffffffffffff16915050919050565b60008073ffffffffffffffffffffffffffffffffffffffff168273ffffffffffffffffffffffffffffffffffffffff161415151561273957600080fd5b600760008373ffffffffffffffffffffffffffffffffffffffff1673ffffffffffffffffffffffffffffffffffffffff16815260200190815260200160002060009054906101000a900460ff169050919050565b612795611dba565b73ffffffffffffffffffffffffffffffffffffffff163373ffffffffffffffffffffffffffffffffffffffff161415156127ce57600080fd5b80600073ffffffffffffffffffffffffffffffffffffffff168173ffffffffffffffffffffffffffffffffffffffff161415151561280b57600080fd5b60011515600360008473ffffffffffffffffffffffffffffffffffffffff1673ffffffffffffffffffffffffffffffffffffffff16815260200190815260200160002060009054906101000a900460ff16151514151561286a57600080fd5b6000600360008473ffffffffffffffffffffffffffffffffffffffff1673ffffffffffffffffffffffffffffffffffffffff16815260200190815260200160002060006101000a81548160ff0219169083151502179055508173ffffffffffffffffffffffffffffffffffffffff167f91975e22df3ba360814d3153e8eaef17954cf47d52a42840fc9747ad1086b35160405160405180910390a25050565b6000816000815111151561291c57600080fd5b600073ffffffffffffffffffffffffffffffffffffffff166006846040518082805190602001908083835b60208310151561296c5780518252602082019150602081019050602083039250612947565b6001836020036101000a038019825116818451168082178552505050505050905001915050908152602001604051809103902060009054906101000a900473ffffffffffffffffffffffffffffffffffffffff1673ffffffffffffffffffffffffffffffffffffffff161415915050919050565b60008084600115156129f18261300a565b15151415156129ff57600080fd5b84848080601f01602080910402602001604051908101604052809392919081815260200183838082843782019150505050505060008151111515612a4257600080fd5b6040805190810160405280600e81526020017f7365745f63727964725f7669657700000000000000000000000000000000000081525060011515612a8633836109c0565b1515141515612a9457600080fd5b60011515612aa06115fc565b1515141515612aae57600080fd5b3073ffffffffffffffffffffffffffffffffffffffff168873ffffffffffffffffffffffffffffffffffffffff1614151515612ae957600080fd5b600073ffffffffffffffffffffffffffffffffffffffff166006888860405180838380828437820191505092505050908152602001604051809103902060009054906101000a900473ffffffffffffffffffffffffffffffffffffffff1673ffffffffffffffffffffffffffffffffffffffff16141515612b6957600080fd5b8794508473ffffffffffffffffffffffffffffffffffffffff1663230f6e836040518163ffffffff167c0100000000000000000000000000000000000000000000000000000000028152600401602060405180830381600087803b158015612bd057600080fd5b505af1158015612be4573d6000803e3d6000fd5b505050506040513d6020811015612bfa57600080fd5b810190808051906020019092919050505093508686604051808383808284378201915050925050506040518091039020600019168460001916141515612c3f57600080fd5b876006888860405180838380828437820191505092505050908152602001604051809103902060006101000a81548173ffffffffffffffffffffffffffffffffffffffff021916908373ffffffffffffffffffffffffffffffffffffffff1602179055506001600760008a73ffffffffffffffffffffffffffffffffffffffff1673ffffffffffffffffffffffffffffffffffffffff16815260200190815260200160002060006101000a81548160ff0219169083151502179055508773ffffffffffffffffffffffffffffffffffffffff167fc5a10da5d84dc2a879ce04afc23740db6e9203195d833111485d0d6a47ee2df6888860405180838380828437820191505092505050604051809103902060405180826000191660001916815260200191505060405180910390a25050505050505050565b6000600260009054906101000a900473ffffffffffffffffffffffffffffffffffffffff16905090565b60008073ffffffffffffffffffffffffffffffffffffffff16600260009054906101000a900473ffffffffffffffffffffffffffffffffffffffff1673ffffffffffffffffffffffffffffffffffffffff1614151515612e0057600080fd5b600260009054906101000a900473ffffffffffffffffffffffffffffffffffffffff1673ffffffffffffffffffffffffffffffffffffffff163373ffffffffffffffffffffffffffffffffffffffff16141515612e5c57600080fd5b600160009054906101000a900473ffffffffffffffffffffffffffffffffffffffff169050600260009054906101000a900473ffffffffffffffffffffffffffffffffffffffff16600160006101000a81548173ffffffffffffffffffffffffffffffffffffffff021916908373ffffffffffffffffffffffffffffffffffffffff1602179055506000600260006101000a81548173ffffffffffffffffffffffffffffffffffffffff021916908373ffffffffffffffffffffffffffffffffffffffff160217905550600160009054906101000a900473ffffffffffffffffffffffffffffffffffffffff1673ffffffffffffffffffffffffffffffffffffffff167f8d2a41ca5ff551a8f68510de75177b7d56e6019c8579b5509d2be1bb41a0d0af60405160405180910390a2600160009054906101000a900473ffffffffffffffffffffffffffffffffffffffff1673ffffffffffffffffffffffffffffffffffffffff168173ffffffffffffffffffffffffffffffffffffffff167f3912b3f6ff73ee5d4cd2894666c349dec2d3d2ed7dc6d35c28c5eabf105a88d860405160405180910390a350565b600080600073ffffffffffffffffffffffffffffffffffffffff168373ffffffffffffffffffffffffffffffffffffffff161415151561304957600080fd5b823b9050600081119150509190505600a165627a7a72305820e499f051e69aaccc2055d0634ade8c470ff534893a8cd1d9defeb75b45ac0d7f0029",
  "source": "/* Author: Victor Mezrin  victor@mezrin.com */\n\npragma solidity ^0.4.24;\n\nimport '../util/CommonModifiers/CommonModifiers.sol';\nimport '../feature/AssetID/AssetID.sol';\nimport '../lifecycle/Ownable/Ownable.sol';\nimport '../lifecycle/Manageable/Manageable.sol';\nimport '../lifecycle/Pausable/Pausable.sol';\nimport '../crydr/controller/CrydrControllerBase/CrydrControllerBase.sol';\nimport '../crydr/controller/CrydrControllerMintable/CrydrControllerMintable.sol';\n\n\n/**\n * @title CrydrControllerMintableMock\n * @dev Contract for unit tests\n */\ncontract CrydrControllerMintableMock is CommonModifiers,\n                                        AssetID,\n                                        Ownable,\n                                        Manageable,\n                                        Pausable,\n                                        CrydrControllerBase,\n                                        CrydrControllerMintable {\n\n  constructor (string _assetID) public AssetID(_assetID) {}\n}\n",
  "sourcePath": "/home/user/develop/jcontracts/jibrel-contracts/contracts/unittest/CrydrControllerMintableMock.sol",
  "compiler": {
    "name": "solc",
    "version": "0.4.24+commit.e67f0147.Emscripten.clang"
  },
  "schemaVersion": "2.0.1",
  "updatedAt": "2018-12-10T21:02:12.445Z"
}