{
  "contractName": "CrydrControllerForcedTransferMock",
  "abi": [
    {
      "constant": true,
      "inputs": [
        {
          "name": "_manager",
          "type": "address"
        },
        {
          "name": "_permissionName",
          "type": "string"
        }
      ],
      "name": "isManagerAllowed",
      "outputs": [
        {
          "name": "",
          "type": "bool"
        }
      ],
      "payable": false,
      "stateMutability": "view",
      "type": "function"
    },
    {
      "constant": false,
      "inputs": [
        {
          "name": "_crydrStorage",
          "type": "address"
        }
      ],
      "name": "setCrydrStorage",
      "outputs": [],
      "payable": false,
      "stateMutability": "nonpayable",
      "type": "function"
    },
    {
      "constant": false,
      "inputs": [],
      "name": "cancelOwnershipOffer",
      "outputs": [],
      "payable": false,
      "stateMutability": "nonpayable",
      "type": "function"
    },
    {
      "constant": true,
      "inputs": [
        {
          "name": "_manager",
          "type": "address"
        },
        {
          "name": "_permissionName",
          "type": "string"
        }
      ],
      "name": "isPermissionGranted",
      "outputs": [
        {
          "name": "",
          "type": "bool"
        }
      ],
      "payable": false,
      "stateMutability": "view",
      "type": "function"
    },
    {
      "constant": false,
      "inputs": [
        {
          "name": "_account",
          "type": "address"
        },
        {
          "name": "_value",
          "type": "uint256"
        }
      ],
      "name": "mint",
      "outputs": [],
      "payable": false,
      "stateMutability": "nonpayable",
      "type": "function"
    },
    {
      "constant": false,
      "inputs": [],
      "name": "pauseContract",
      "outputs": [],
      "payable": false,
      "stateMutability": "nonpayable",
      "type": "function"
    },
    {
      "constant": false,
      "inputs": [
        {
          "name": "_manager",
          "type": "address"
        }
      ],
      "name": "enableManager",
      "outputs": [],
      "payable": false,
      "stateMutability": "nonpayable",
      "type": "function"
    },
    {
      "constant": true,
      "inputs": [],
      "name": "getPaused",
      "outputs": [
        {
          "name": "",
          "type": "bool"
        }
      ],
      "payable": false,
      "stateMutability": "view",
      "type": "function"
    },
    {
      "constant": true,
      "inputs": [],
      "name": "getAssetID",
      "outputs": [
        {
          "name": "",
          "type": "string"
        }
      ],
      "payable": false,
      "stateMutability": "view",
      "type": "function"
    },
    {
      "constant": false,
      "inputs": [
        {
          "name": "_viewApiStandardName",
          "type": "string"
        }
      ],
      "name": "removeCrydrView",
      "outputs": [],
      "payable": false,
      "stateMutability": "nonpayable",
      "type": "function"
    },
    {
      "constant": false,
      "inputs": [
        {
          "name": "_manager",
          "type": "address"
        },
        {
          "name": "_permissionName",
          "type": "string"
        }
      ],
      "name": "revokeManagerPermission",
      "outputs": [],
      "payable": false,
      "stateMutability": "nonpayable",
      "type": "function"
    },
    {
      "constant": false,
      "inputs": [
        {
          "name": "_manager",
          "type": "address"
        },
        {
          "name": "_permissionName",
          "type": "string"
        }
      ],
      "name": "grantManagerPermission",
      "outputs": [],
      "payable": false,
      "stateMutability": "nonpayable",
      "type": "function"
    },
    {
      "constant": true,
      "inputs": [],
      "name": "getOwner",
      "outputs": [
        {
          "name": "",
          "type": "address"
        }
      ],
      "payable": false,
      "stateMutability": "view",
      "type": "function"
    },
    {
      "constant": true,
      "inputs": [],
      "name": "getCrydrStorageAddress",
      "outputs": [
        {
          "name": "",
          "type": "address"
        }
      ],
      "payable": false,
      "stateMutability": "view",
      "type": "function"
    },
    {
      "constant": false,
      "inputs": [
        {
          "name": "_proposedOwner",
          "type": "address"
        }
      ],
      "name": "createOwnershipOffer",
      "outputs": [],
      "payable": false,
      "stateMutability": "nonpayable",
      "type": "function"
    },
    {
      "constant": true,
      "inputs": [
        {
          "name": "_manager",
          "type": "address"
        }
      ],
      "name": "isManagerEnabled",
      "outputs": [
        {
          "name": "",
          "type": "bool"
        }
      ],
      "payable": false,
      "stateMutability": "view",
      "type": "function"
    },
    {
      "constant": false,
      "inputs": [
        {
          "name": "_account",
          "type": "address"
        },
        {
          "name": "_value",
          "type": "uint256"
        }
      ],
      "name": "burn",
      "outputs": [],
      "payable": false,
      "stateMutability": "nonpayable",
      "type": "function"
    },
    {
      "constant": false,
      "inputs": [
        {
          "name": "_from",
          "type": "address"
        },
        {
          "name": "_to",
          "type": "address"
        },
        {
          "name": "_value",
          "type": "uint256"
        }
      ],
      "name": "forcedTransfer",
      "outputs": [],
      "payable": false,
      "stateMutability": "nonpayable",
      "type": "function"
    },
    {
      "constant": true,
      "inputs": [],
      "name": "getAssetIDHash",
      "outputs": [
        {
          "name": "",
          "type": "bytes32"
        }
      ],
      "payable": false,
      "stateMutability": "view",
      "type": "function"
    },
    {
      "constant": false,
      "inputs": [],
      "name": "unpauseContract",
      "outputs": [],
      "payable": false,
      "stateMutability": "nonpayable",
      "type": "function"
    },
    {
      "constant": true,
      "inputs": [
        {
          "name": "_viewApiStandardName",
          "type": "string"
        }
      ],
      "name": "getCrydrViewAddress",
      "outputs": [
        {
          "name": "",
          "type": "address"
        }
      ],
      "payable": false,
      "stateMutability": "view",
      "type": "function"
    },
    {
      "constant": true,
      "inputs": [
        {
          "name": "_crydrViewAddress",
          "type": "address"
        }
      ],
      "name": "isCrydrViewAddress",
      "outputs": [
        {
          "name": "",
          "type": "bool"
        }
      ],
      "payable": false,
      "stateMutability": "view",
      "type": "function"
    },
    {
      "constant": false,
      "inputs": [
        {
          "name": "_manager",
          "type": "address"
        }
      ],
      "name": "disableManager",
      "outputs": [],
      "payable": false,
      "stateMutability": "nonpayable",
      "type": "function"
    },
    {
      "constant": true,
      "inputs": [
        {
          "name": "_viewApiStandardName",
          "type": "string"
        }
      ],
      "name": "isCrydrViewRegistered",
      "outputs": [
        {
          "name": "",
          "type": "bool"
        }
      ],
      "payable": false,
      "stateMutability": "view",
      "type": "function"
    },
    {
      "constant": false,
      "inputs": [
        {
          "name": "_newCrydrView",
          "type": "address"
        },
        {
          "name": "_viewApiStandardName",
          "type": "string"
        }
      ],
      "name": "setCrydrView",
      "outputs": [],
      "payable": false,
      "stateMutability": "nonpayable",
      "type": "function"
    },
    {
      "constant": true,
      "inputs": [],
      "name": "getProposedOwner",
      "outputs": [
        {
          "name": "",
          "type": "address"
        }
      ],
      "payable": false,
      "stateMutability": "view",
      "type": "function"
    },
    {
      "constant": false,
      "inputs": [],
      "name": "acceptOwnershipOffer",
      "outputs": [],
      "payable": false,
      "stateMutability": "nonpayable",
      "type": "function"
    },
    {
      "constant": false,
      "inputs": [
        {
          "name": "_from",
          "type": "address"
        },
        {
          "name": "_to",
          "type": "address"
        }
      ],
      "name": "forcedTransferAll",
      "outputs": [],
      "payable": false,
      "stateMutability": "nonpayable",
      "type": "function"
    },
    {
      "inputs": [
        {
          "name": "_assetID",
          "type": "string"
        }
      ],
      "payable": false,
      "stateMutability": "nonpayable",
      "type": "constructor"
    },
    {
      "anonymous": false,
      "inputs": [
        {
          "indexed": true,
          "name": "from",
          "type": "address"
        },
        {
          "indexed": true,
          "name": "to",
          "type": "address"
        },
        {
          "indexed": false,
          "name": "value",
          "type": "uint256"
        }
      ],
      "name": "ForcedTransferEvent",
      "type": "event"
    },
    {
      "anonymous": false,
      "inputs": [
        {
          "indexed": true,
          "name": "owner",
          "type": "address"
        },
        {
          "indexed": false,
          "name": "value",
          "type": "uint256"
        }
      ],
      "name": "MintEvent",
      "type": "event"
    },
    {
      "anonymous": false,
      "inputs": [
        {
          "indexed": true,
          "name": "owner",
          "type": "address"
        },
        {
          "indexed": false,
          "name": "value",
          "type": "uint256"
        }
      ],
      "name": "BurnEvent",
      "type": "event"
    },
    {
      "anonymous": false,
      "inputs": [
        {
          "indexed": true,
          "name": "crydrstorage",
          "type": "address"
        }
      ],
      "name": "CrydrStorageChangedEvent",
      "type": "event"
    },
    {
      "anonymous": false,
      "inputs": [
        {
          "indexed": true,
          "name": "crydrview",
          "type": "address"
        },
        {
          "indexed": false,
          "name": "standardname",
          "type": "bytes32"
        }
      ],
      "name": "CrydrViewAddedEvent",
      "type": "event"
    },
    {
      "anonymous": false,
      "inputs": [
        {
          "indexed": true,
          "name": "crydrview",
          "type": "address"
        },
        {
          "indexed": false,
          "name": "standardname",
          "type": "bytes32"
        }
      ],
      "name": "CrydrViewRemovedEvent",
      "type": "event"
    },
    {
      "anonymous": false,
      "inputs": [],
      "name": "PauseEvent",
      "type": "event"
    },
    {
      "anonymous": false,
      "inputs": [],
      "name": "UnpauseEvent",
      "type": "event"
    },
    {
      "anonymous": false,
      "inputs": [
        {
          "indexed": true,
          "name": "manager",
          "type": "address"
        }
      ],
      "name": "ManagerEnabledEvent",
      "type": "event"
    },
    {
      "anonymous": false,
      "inputs": [
        {
          "indexed": true,
          "name": "manager",
          "type": "address"
        }
      ],
      "name": "ManagerDisabledEvent",
      "type": "event"
    },
    {
      "anonymous": false,
      "inputs": [
        {
          "indexed": true,
          "name": "manager",
          "type": "address"
        },
        {
          "indexed": false,
          "name": "permission",
          "type": "bytes32"
        }
      ],
      "name": "ManagerPermissionGrantedEvent",
      "type": "event"
    },
    {
      "anonymous": false,
      "inputs": [
        {
          "indexed": true,
          "name": "manager",
          "type": "address"
        },
        {
          "indexed": false,
          "name": "permission",
          "type": "bytes32"
        }
      ],
      "name": "ManagerPermissionRevokedEvent",
      "type": "event"
    },
    {
      "anonymous": false,
      "inputs": [
        {
          "indexed": true,
          "name": "newowner",
          "type": "address"
        }
      ],
      "name": "OwnerAssignedEvent",
      "type": "event"
    },
    {
      "anonymous": false,
      "inputs": [
        {
          "indexed": true,
          "name": "currentowner",
          "type": "address"
        },
        {
          "indexed": true,
          "name": "proposedowner",
          "type": "address"
        }
      ],
      "name": "OwnershipOfferCreatedEvent",
      "type": "event"
    },
    {
      "anonymous": false,
      "inputs": [
        {
          "indexed": true,
          "name": "currentowner",
          "type": "address"
        },
        {
          "indexed": true,
          "name": "proposedowner",
          "type": "address"
        }
      ],
      "name": "OwnershipOfferAcceptedEvent",
      "type": "event"
    },
    {
      "anonymous": false,
      "inputs": [
        {
          "indexed": true,
          "name": "currentowner",
          "type": "address"
        },
        {
          "indexed": true,
          "name": "proposedowner",
          "type": "address"
        }
      ],
      "name": "OwnershipOfferCancelledEvent",
      "type": "event"
    }
  ],
  "bytecode": "0x60806040526000600160006101000a81548173ffffffffffffffffffffffffffffffffffffffff021916908373ffffffffffffffffffffffffffffffffffffffff1602179055506000600260006101000a81548173ffffffffffffffffffffffffffffffffffffffff021916908373ffffffffffffffffffffffffffffffffffffffff1602179055506001600560006101000a81548160ff0219169083151502179055506000600560016101000a81548173ffffffffffffffffffffffffffffffffffffffff021916908373ffffffffffffffffffffffffffffffffffffffff160217905550348015620000f257600080fd5b5060405162003c9e38038062003c9e8339810180604052810190808051820192919050505080600081511115156200012957600080fd5b806000908051906020019062000141929190620001f0565b505033600160006101000a81548173ffffffffffffffffffffffffffffffffffffffff021916908373ffffffffffffffffffffffffffffffffffffffff160217905550600160009054906101000a900473ffffffffffffffffffffffffffffffffffffffff1673ffffffffffffffffffffffffffffffffffffffff167f8d2a41ca5ff551a8f68510de75177b7d56e6019c8579b5509d2be1bb41a0d0af60405160405180910390a2506200029f565b828054600181600116156101000203166002900490600052602060002090601f016020900481019282601f106200023357805160ff191683800117855562000264565b8280016001018555821562000264579182015b828111156200026357825182559160200191906001019062000246565b5b50905062000273919062000277565b5090565b6200029c91905b80821115620002985760008160009055506001016200027e565b5090565b90565b6139ef80620002af6000396000f30060806040526004361061016a576000357c0100000000000000000000000000000000000000000000000000000000900463ffffffff1680630392d2b41461016f5780630c79e3e6146102105780631eb96a5c1461025357806332a2fda71461026a57806340c10f191461030b578063439766ce146103585780635ca5b3341461036f5780636805b84b146103b2578063696b5fb7146103e15780636ec03f7a146104715780637c0efb8b146104ac578063822b08d014610507578063893d20e8146105625780639554c8e5146105b95780639739db9d146106105780639b53d87c146106535780639dc29fac146106ae5780639fc1d0e7146106fb578063a773d98a14610768578063b33712c51461079b578063bc40bac6146107b2578063d372e3a01461085b578063d4859dc5146108b6578063d98de8a5146108f9578063e3a861a41461097a578063eae5a62d146109d5578063f538534514610a2c578063fa8a975d14610a43575b600080fd5b34801561017b57600080fd5b506101f6600480360381019080803573ffffffffffffffffffffffffffffffffffffffff169060200190929190803590602001908201803590602001908080601f0160208091040260200160405190810160405280939291908181526020018383808284378201915050505050509192919290505050610aa6565b604051808215151515815260200191505060405180910390f35b34801561021c57600080fd5b50610251600480360381019080803573ffffffffffffffffffffffffffffffffffffffff169060200190929190505050610c0c565b005b34801561025f57600080fd5b50610268610db5565b005b34801561027657600080fd5b506102f1600480360381019080803573ffffffffffffffffffffffffffffffffffffffff169060200190929190803590602001908201803590602001908080601f0160208091040260200160405190810160405280939291908181526020018383808284378201915050505050509192919290505050610fae565b604051808215151515815260200191505060405180910390f35b34801561031757600080fd5b50610356600480360381019080803573ffffffffffffffffffffffffffffffffffffffff169060200190929190803590602001909291905050506110bf565b005b34801561036457600080fd5b5061036d6114b0565b005b34801561037b57600080fd5b506103b0600480360381019080803573ffffffffffffffffffffffffffffffffffffffff169060200190929190505050611566565b005b3480156103be57600080fd5b506103c76116e2565b604051808215151515815260200191505060405180910390f35b3480156103ed57600080fd5b506103f66116f9565b6040518080602001828103825283818151815260200191508051906020019080838360005b8381101561043657808201518184015260208101905061041b565b50505050905090810190601f1680156104635780820380516001836020036101000a031916815260200191505b509250505060405180910390f35b34801561047d57600080fd5b506104aa60048036038101908080359060200190820180359060200191909192939192939050505061179b565b005b3480156104b857600080fd5b50610505600480360381019080803573ffffffffffffffffffffffffffffffffffffffff169060200190929190803590602001908201803590602001919091929391929390505050611a30565b005b34801561051357600080fd5b50610560600480360381019080803573ffffffffffffffffffffffffffffffffffffffff169060200190929190803590602001908201803590602001919091929391929390505050611c68565b005b34801561056e57600080fd5b50610577611ea0565b604051808273ffffffffffffffffffffffffffffffffffffffff1673ffffffffffffffffffffffffffffffffffffffff16815260200191505060405180910390f35b3480156105c557600080fd5b506105ce611eca565b604051808273ffffffffffffffffffffffffffffffffffffffff1673ffffffffffffffffffffffffffffffffffffffff16815260200191505060405180910390f35b34801561061c57600080fd5b50610651600480360381019080803573ffffffffffffffffffffffffffffffffffffffff169060200190929190505050611ef4565b005b34801561065f57600080fd5b50610694600480360381019080803573ffffffffffffffffffffffffffffffffffffffff1690602001909291905050506120c9565b604051808215151515815260200191505060405180910390f35b3480156106ba57600080fd5b506106f9600480360381019080803573ffffffffffffffffffffffffffffffffffffffff1690602001909291908035906020019092919050505061215d565b005b34801561070757600080fd5b50610766600480360381019080803573ffffffffffffffffffffffffffffffffffffffff169060200190929190803573ffffffffffffffffffffffffffffffffffffffff1690602001909291908035906020019092919050505061254e565b005b34801561077457600080fd5b5061077d612920565b60405180826000191660001916815260200191505060405180910390f35b3480156107a757600080fd5b506107b0612990565b005b3480156107be57600080fd5b50610819600480360381019080803590602001908201803590602001908080601f0160208091040260200160405190810160405280939291908181526020018383808284378201915050505050509192919290505050612a46565b604051808273ffffffffffffffffffffffffffffffffffffffff1673ffffffffffffffffffffffffffffffffffffffff16815260200191505060405180910390f35b34801561086757600080fd5b5061089c600480360381019080803573ffffffffffffffffffffffffffffffffffffffff169060200190929190505050612bb4565b604051808215151515815260200191505060405180910390f35b3480156108c257600080fd5b506108f7600480360381019080803573ffffffffffffffffffffffffffffffffffffffff169060200190929190505050612c45565b005b34801561090557600080fd5b50610960600480360381019080803590602001908201803590602001908080601f0160208091040260200160405190810160405280939291908181526020018383808284378201915050505050509192919290505050612dc1565b604051808215151515815260200191505060405180910390f35b34801561098657600080fd5b506109d3600480360381019080803573ffffffffffffffffffffffffffffffffffffffff169060200190929190803590602001908201803590602001919091929391929390505050612e98565b005b3480156109e157600080fd5b506109ea61322f565b604051808273ffffffffffffffffffffffffffffffffffffffff1673ffffffffffffffffffffffffffffffffffffffff16815260200191505060405180910390f35b348015610a3857600080fd5b50610a41613259565b005b348015610a4f57600080fd5b50610aa4600480360381019080803573ffffffffffffffffffffffffffffffffffffffff169060200190929190803573ffffffffffffffffffffffffffffffffffffffff1690602001909291905050506134c2565b005b600082600073ffffffffffffffffffffffffffffffffffffffff168173ffffffffffffffffffffffffffffffffffffffff1614151515610ae557600080fd5b826000815114151515610af757600080fd5b600360008673ffffffffffffffffffffffffffffffffffffffff1673ffffffffffffffffffffffffffffffffffffffff16815260200190815260200160002060009054906101000a900460ff168015610c025750600460008673ffffffffffffffffffffffffffffffffffffffff1673ffffffffffffffffffffffffffffffffffffffff168152602001908152602001600020846040518082805190602001908083835b602083101515610bc05780518252602082019150602081019050602083039250610b9b565b6001836020036101000a038019825116818451168082178552505050505050905001915050908152602001604051809103902060009054906101000a900460ff165b9250505092915050565b8060011515610c1a82613974565b1515141515610c2857600080fd5b6040805190810160405280601181526020017f7365745f63727964725f73746f7261676500000000000000000000000000000081525060011515610c6c3383610aa6565b1515141515610c7a57600080fd5b60011515610c866116e2565b1515141515610c9457600080fd5b3073ffffffffffffffffffffffffffffffffffffffff168373ffffffffffffffffffffffffffffffffffffffff1614151515610ccf57600080fd5b600560019054906101000a900473ffffffffffffffffffffffffffffffffffffffff1673ffffffffffffffffffffffffffffffffffffffff168373ffffffffffffffffffffffffffffffffffffffff1614151515610d2c57600080fd5b82600560016101000a81548173ffffffffffffffffffffffffffffffffffffffff021916908373ffffffffffffffffffffffffffffffffffffffff1602179055508273ffffffffffffffffffffffffffffffffffffffff167f252da09c88b02fec1dd57c3183573d05d69ae5da5ca0ce6e6eff3e35e9662fdf60405160405180910390a2505050565b60008073ffffffffffffffffffffffffffffffffffffffff16600260009054906101000a900473ffffffffffffffffffffffffffffffffffffffff1673ffffffffffffffffffffffffffffffffffffffff1614151515610e1457600080fd5b600160009054906101000a900473ffffffffffffffffffffffffffffffffffffffff1673ffffffffffffffffffffffffffffffffffffffff163373ffffffffffffffffffffffffffffffffffffffff161480610ebd5750600260009054906101000a900473ffffffffffffffffffffffffffffffffffffffff1673ffffffffffffffffffffffffffffffffffffffff163373ffffffffffffffffffffffffffffffffffffffff16145b1515610ec857600080fd5b600260009054906101000a900473ffffffffffffffffffffffffffffffffffffffff1690506000600260006101000a81548173ffffffffffffffffffffffffffffffffffffffff021916908373ffffffffffffffffffffffffffffffffffffffff1602179055508073ffffffffffffffffffffffffffffffffffffffff16600160009054906101000a900473ffffffffffffffffffffffffffffffffffffffff1673ffffffffffffffffffffffffffffffffffffffff167f223225995c0c0965e8752fd93ca10aba4bafcbca26f31b1565955adb68e76bda60405160405180910390a350565b600082600073ffffffffffffffffffffffffffffffffffffffff168173ffffffffffffffffffffffffffffffffffffffff1614151515610fed57600080fd5b826000815114151515610fff57600080fd5b600460008673ffffffffffffffffffffffffffffffffffffffff1673ffffffffffffffffffffffffffffffffffffffff168152602001908152602001600020846040518082805190602001908083835b602083101515611074578051825260208201915060208101905060208303925061104f565b6001836020036101000a038019825116818451168082178552505050505050905001915050908152602001604051809103902060009054906101000a900460ff169250505092915050565b600015156110cb6116e2565b15151415156110d957600080fd5b6040805190810160405280600a81526020017f6d696e745f6372796472000000000000000000000000000000000000000000008152506001151561111d3383610aa6565b151514151561112b57600080fd5b611133611eca565b73ffffffffffffffffffffffffffffffffffffffff16635b86f59984846040518363ffffffff167c0100000000000000000000000000000000000000000000000000000000028152600401808373ffffffffffffffffffffffffffffffffffffffff1673ffffffffffffffffffffffffffffffffffffffff16815260200182815260200192505050600060405180830381600087803b1580156111d557600080fd5b505af11580156111e9573d6000803e3d6000fd5b505050508273ffffffffffffffffffffffffffffffffffffffff167f3fffaa5804a26fcec0d70b1d0fb0a2d0031df3a5f9c8af2127c2f4360e97b463836040518082815260200191505060405180910390a26001151561127d6040805190810160405280600581526020017f6572633230000000000000000000000000000000000000000000000000000000815250612dc1565b151514156114ab576112c36040805190810160405280600581526020017f6572633230000000000000000000000000000000000000000000000000000000815250612a46565b73ffffffffffffffffffffffffffffffffffffffff1663958689d784846040518363ffffffff167c0100000000000000000000000000000000000000000000000000000000028152600401808373ffffffffffffffffffffffffffffffffffffffff1673ffffffffffffffffffffffffffffffffffffffff16815260200182815260200192505050600060405180830381600087803b15801561136557600080fd5b505af1158015611379573d6000803e3d6000fd5b505050506113bb6040805190810160405280600581526020017f6572633230000000000000000000000000000000000000000000000000000000815250612a46565b73ffffffffffffffffffffffffffffffffffffffff1663a6d49dca600085856040518463ffffffff167c0100000000000000000000000000000000000000000000000000000000028152600401808473ffffffffffffffffffffffffffffffffffffffff1673ffffffffffffffffffffffffffffffffffffffff1681526020018373ffffffffffffffffffffffffffffffffffffffff1673ffffffffffffffffffffffffffffffffffffffff1681526020018281526020019350505050600060405180830381600087803b15801561149257600080fd5b505af11580156114a6573d6000803e3d6000fd5b505050505b505050565b6040805190810160405280600e81526020017f70617573655f636f6e7472616374000000000000000000000000000000000000815250600115156114f43383610aa6565b151514151561150257600080fd5b6000151561150e6116e2565b151514151561151c57600080fd5b6001600560006101000a81548160ff0219169083151502179055507f14cc32b2b0edca88201ca20553c392d108a2feb2c750a0ee14c707b4f34fbee260405160405180910390a150565b61156e611ea0565b73ffffffffffffffffffffffffffffffffffffffff163373ffffffffffffffffffffffffffffffffffffffff161415156115a757600080fd5b80600073ffffffffffffffffffffffffffffffffffffffff168173ffffffffffffffffffffffffffffffffffffffff16141515156115e457600080fd5b60001515600360008473ffffffffffffffffffffffffffffffffffffffff1673ffffffffffffffffffffffffffffffffffffffff16815260200190815260200160002060009054906101000a900460ff16151514151561164357600080fd5b6001600360008473ffffffffffffffffffffffffffffffffffffffff1673ffffffffffffffffffffffffffffffffffffffff16815260200190815260200160002060006101000a81548160ff0219169083151502179055508173ffffffffffffffffffffffffffffffffffffffff167f7f0b61f78ab0b549b68ce61404f4ee01a26ffdf8d421d099d271d789aaea3a8e60405160405180910390a25050565b6000600560009054906101000a900460ff16905090565b606060008054600181600116156101000203166002900480601f0160208091040260200160405190810160405280929190818152602001828054600181600116156101000203166002900480156117915780601f1061176657610100808354040283529160200191611791565b820191906000526020600020905b81548152906001019060200180831161177457829003601f168201915b5050505050905090565b600082828080601f016020809104026020016040519081016040528093929190818152602001838380828437820191505050505050600081511115156117e057600080fd5b6040805190810160405280601181526020017f72656d6f76655f63727964725f76696577000000000000000000000000000000815250600115156118243383610aa6565b151514151561183257600080fd5b6001151561183e6116e2565b151514151561184c57600080fd5b600073ffffffffffffffffffffffffffffffffffffffff166006868660405180838380828437820191505092505050908152602001604051809103902060009054906101000a900473ffffffffffffffffffffffffffffffffffffffff1673ffffffffffffffffffffffffffffffffffffffff16141515156118cd57600080fd5b6006858560405180838380828437820191505092505050908152602001604051809103902060009054906101000a900473ffffffffffffffffffffffffffffffffffffffff169250600073ffffffffffffffffffffffffffffffffffffffff166006868660405180838380828437820191505092505050908152602001604051809103902060009054906101000a905050506000600760008573ffffffffffffffffffffffffffffffffffffffff1673ffffffffffffffffffffffffffffffffffffffff16815260200190815260200160002060006101000a81548160ff0219169083151502179055508273ffffffffffffffffffffffffffffffffffffffff167f334317094b161d745f7febc896c88d1973f98db8cd2941436406bbd432a6055f868660405180838380828437820191505092505050604051809103902060405180826000191660001916815260200191505060405180910390a25050505050565b611a38611ea0565b73ffffffffffffffffffffffffffffffffffffffff163373ffffffffffffffffffffffffffffffffffffffff16141515611a7157600080fd5b82600073ffffffffffffffffffffffffffffffffffffffff168173ffffffffffffffffffffffffffffffffffffffff1614151515611aae57600080fd5b82828080601f0160208091040260200160405190810160405280939291908181526020018383808284378201915050505050506000815114151515611af257600080fd5b60011515600460008773ffffffffffffffffffffffffffffffffffffffff1673ffffffffffffffffffffffffffffffffffffffff168152602001908152602001600020858560405180838380828437820191505092505050908152602001604051809103902060009054906101000a900460ff161515141515611b7457600080fd5b6000600460008773ffffffffffffffffffffffffffffffffffffffff1673ffffffffffffffffffffffffffffffffffffffff168152602001908152602001600020858560405180838380828437820191505092505050908152602001604051809103902060006101000a81548160ff0219169083151502179055508473ffffffffffffffffffffffffffffffffffffffff167ffef063ea41a1d4d73bca77475bd8fc3c81a1145b2f3afa879a1530bb6a8401e3858560405180838380828437820191505092505050604051809103902060405180826000191660001916815260200191505060405180910390a25050505050565b611c70611ea0565b73ffffffffffffffffffffffffffffffffffffffff163373ffffffffffffffffffffffffffffffffffffffff16141515611ca957600080fd5b82600073ffffffffffffffffffffffffffffffffffffffff168173ffffffffffffffffffffffffffffffffffffffff1614151515611ce657600080fd5b82828080601f0160208091040260200160405190810160405280939291908181526020018383808284378201915050505050506000815114151515611d2a57600080fd5b60001515600460008773ffffffffffffffffffffffffffffffffffffffff1673ffffffffffffffffffffffffffffffffffffffff168152602001908152602001600020858560405180838380828437820191505092505050908152602001604051809103902060009054906101000a900460ff161515141515611dac57600080fd5b6001600460008773ffffffffffffffffffffffffffffffffffffffff1673ffffffffffffffffffffffffffffffffffffffff168152602001908152602001600020858560405180838380828437820191505092505050908152602001604051809103902060006101000a81548160ff0219169083151502179055508473ffffffffffffffffffffffffffffffffffffffff167fc1b43c9c4075dfc74444e2d220aecef01cd89d63abb613d28f1f727c973f1f50858560405180838380828437820191505092505050604051809103902060405180826000191660001916815260200191505060405180910390a25050505050565b6000600160009054906101000a900473ffffffffffffffffffffffffffffffffffffffff16905090565b6000600560019054906101000a900473ffffffffffffffffffffffffffffffffffffffff16905090565b611efc611ea0565b73ffffffffffffffffffffffffffffffffffffffff163373ffffffffffffffffffffffffffffffffffffffff16141515611f3557600080fd5b600073ffffffffffffffffffffffffffffffffffffffff16600260009054906101000a900473ffffffffffffffffffffffffffffffffffffffff1673ffffffffffffffffffffffffffffffffffffffff16141515611f9257600080fd5b600073ffffffffffffffffffffffffffffffffffffffff168173ffffffffffffffffffffffffffffffffffffffff1614151515611fce57600080fd5b3073ffffffffffffffffffffffffffffffffffffffff168173ffffffffffffffffffffffffffffffffffffffff161415151561200957600080fd5b80600260006101000a81548173ffffffffffffffffffffffffffffffffffffffff021916908373ffffffffffffffffffffffffffffffffffffffff1602179055508073ffffffffffffffffffffffffffffffffffffffff16600160009054906101000a900473ffffffffffffffffffffffffffffffffffffffff1673ffffffffffffffffffffffffffffffffffffffff167f0c5d18b25c2665dfeec8ea7956663ec48f079fdd04799ddd335f2fdce1a9fceb60405160405180910390a350565b600081600073ffffffffffffffffffffffffffffffffffffffff168173ffffffffffffffffffffffffffffffffffffffff161415151561210857600080fd5b600360008473ffffffffffffffffffffffffffffffffffffffff1673ffffffffffffffffffffffffffffffffffffffff16815260200190815260200160002060009054906101000a900460ff16915050919050565b600015156121696116e2565b151514151561217757600080fd5b6040805190810160405280600a81526020017f6275726e5f637279647200000000000000000000000000000000000000000000815250600115156121bb3383610aa6565b15151415156121c957600080fd5b6121d1611eca565b73ffffffffffffffffffffffffffffffffffffffff1663ff05694984846040518363ffffffff167c0100000000000000000000000000000000000000000000000000000000028152600401808373ffffffffffffffffffffffffffffffffffffffff1673ffffffffffffffffffffffffffffffffffffffff16815260200182815260200192505050600060405180830381600087803b15801561227357600080fd5b505af1158015612287573d6000803e3d6000fd5b505050508273ffffffffffffffffffffffffffffffffffffffff167f512586160ebd4dc6945ba9ec5d21a1f723f26f3c7aa36cdffb6818d4e7b88030836040518082815260200191505060405180910390a26001151561231b6040805190810160405280600581526020017f6572633230000000000000000000000000000000000000000000000000000000815250612dc1565b15151415612549576123616040805190810160405280600581526020017f6572633230000000000000000000000000000000000000000000000000000000815250612a46565b73ffffffffffffffffffffffffffffffffffffffff1663ed810cfa84846040518363ffffffff167c0100000000000000000000000000000000000000000000000000000000028152600401808373ffffffffffffffffffffffffffffffffffffffff1673ffffffffffffffffffffffffffffffffffffffff16815260200182815260200192505050600060405180830381600087803b15801561240357600080fd5b505af1158015612417573d6000803e3d6000fd5b505050506124596040805190810160405280600581526020017f6572633230000000000000000000000000000000000000000000000000000000815250612a46565b73ffffffffffffffffffffffffffffffffffffffff1663a6d49dca846000856040518463ffffffff167c0100000000000000000000000000000000000000000000000000000000028152600401808473ffffffffffffffffffffffffffffffffffffffff1673ffffffffffffffffffffffffffffffffffffffff1681526020018373ffffffffffffffffffffffffffffffffffffffff1673ffffffffffffffffffffffffffffffffffffffff1681526020018281526020019350505050600060405180830381600087803b15801561253057600080fd5b505af1158015612544573d6000803e3d6000fd5b505050505b505050565b6000151561255a6116e2565b151514151561256857600080fd5b6040805190810160405280600f81526020017f666f726365645f7472616e736665720000000000000000000000000000000000815250600115156125ac3383610aa6565b15151415156125ba57600080fd5b6125c2611eca565b73ffffffffffffffffffffffffffffffffffffffff1663ff05694985846040518363ffffffff167c0100000000000000000000000000000000000000000000000000000000028152600401808373ffffffffffffffffffffffffffffffffffffffff1673ffffffffffffffffffffffffffffffffffffffff16815260200182815260200192505050600060405180830381600087803b15801561266457600080fd5b505af1158015612678573d6000803e3d6000fd5b50505050612684611eca565b73ffffffffffffffffffffffffffffffffffffffff16635b86f59984846040518363ffffffff167c0100000000000000000000000000000000000000000000000000000000028152600401808373ffffffffffffffffffffffffffffffffffffffff1673ffffffffffffffffffffffffffffffffffffffff16815260200182815260200192505050600060405180830381600087803b15801561272657600080fd5b505af115801561273a573d6000803e3d6000fd5b505050508273ffffffffffffffffffffffffffffffffffffffff168473ffffffffffffffffffffffffffffffffffffffff167f49ed9a888a528d93549a1107d36a898c70a461f4a906fa0d439ad78217e4b0d3846040518082815260200191505060405180910390a3600115156127e56040805190810160405280600581526020017f6572633230000000000000000000000000000000000000000000000000000000815250612dc1565b1515141561291a5761282b6040805190810160405280600581526020017f6572633230000000000000000000000000000000000000000000000000000000815250612a46565b73ffffffffffffffffffffffffffffffffffffffff1663a6d49dca8585856040518463ffffffff167c0100000000000000000000000000000000000000000000000000000000028152600401808473ffffffffffffffffffffffffffffffffffffffff1673ffffffffffffffffffffffffffffffffffffffff1681526020018373ffffffffffffffffffffffffffffffffffffffff1673ffffffffffffffffffffffffffffffffffffffff1681526020018281526020019350505050600060405180830381600087803b15801561290157600080fd5b505af1158015612915573d6000803e3d6000fd5b505050505b50505050565b600080604051808280546001816001161561010002031660029004801561297e5780601f1061295c57610100808354040283529182019161297e565b820191906000526020600020905b81548152906001019060200180831161296a575b50509150506040518091039020905090565b6040805190810160405280601081526020017f756e70617573655f636f6e747261637400000000000000000000000000000000815250600115156129d43383610aa6565b15151415156129e257600080fd5b600115156129ee6116e2565b15151415156129fc57600080fd5b6000600560006101000a81548160ff0219169083151502179055507f6249a5c797c884cbf33e63e8cfc250816032db24e22051de68a388315e64afc660405160405180910390a150565b60008160008151111515612a5957600080fd5b600073ffffffffffffffffffffffffffffffffffffffff166006846040518082805190602001908083835b602083101515612aa95780518252602082019150602081019050602083039250612a84565b6001836020036101000a038019825116818451168082178552505050505050905001915050908152602001604051809103902060009054906101000a900473ffffffffffffffffffffffffffffffffffffffff1673ffffffffffffffffffffffffffffffffffffffff1614151515612b2057600080fd5b6006836040518082805190602001908083835b602083101515612b585780518252602082019150602081019050602083039250612b33565b6001836020036101000a038019825116818451168082178552505050505050905001915050908152602001604051809103902060009054906101000a900473ffffffffffffffffffffffffffffffffffffffff16915050919050565b60008073ffffffffffffffffffffffffffffffffffffffff168273ffffffffffffffffffffffffffffffffffffffff1614151515612bf157600080fd5b600760008373ffffffffffffffffffffffffffffffffffffffff1673ffffffffffffffffffffffffffffffffffffffff16815260200190815260200160002060009054906101000a900460ff169050919050565b612c4d611ea0565b73ffffffffffffffffffffffffffffffffffffffff163373ffffffffffffffffffffffffffffffffffffffff16141515612c8657600080fd5b80600073ffffffffffffffffffffffffffffffffffffffff168173ffffffffffffffffffffffffffffffffffffffff1614151515612cc357600080fd5b60011515600360008473ffffffffffffffffffffffffffffffffffffffff1673ffffffffffffffffffffffffffffffffffffffff16815260200190815260200160002060009054906101000a900460ff161515141515612d2257600080fd5b6000600360008473ffffffffffffffffffffffffffffffffffffffff1673ffffffffffffffffffffffffffffffffffffffff16815260200190815260200160002060006101000a81548160ff0219169083151502179055508173ffffffffffffffffffffffffffffffffffffffff167f91975e22df3ba360814d3153e8eaef17954cf47d52a42840fc9747ad1086b35160405160405180910390a25050565b60008160008151111515612dd457600080fd5b600073ffffffffffffffffffffffffffffffffffffffff166006846040518082805190602001908083835b602083101515612e245780518252602082019150602081019050602083039250612dff565b6001836020036101000a038019825116818451168082178552505050505050905001915050908152602001604051809103902060009054906101000a900473ffffffffffffffffffffffffffffffffffffffff1673ffffffffffffffffffffffffffffffffffffffff161415915050919050565b6000808460011515612ea982613974565b1515141515612eb757600080fd5b84848080601f01602080910402602001604051908101604052809392919081815260200183838082843782019150505050505060008151111515612efa57600080fd5b6040805190810160405280600e81526020017f7365745f63727964725f7669657700000000000000000000000000000000000081525060011515612f3e3383610aa6565b1515141515612f4c57600080fd5b60011515612f586116e2565b1515141515612f6657600080fd5b3073ffffffffffffffffffffffffffffffffffffffff168873ffffffffffffffffffffffffffffffffffffffff1614151515612fa157600080fd5b600073ffffffffffffffffffffffffffffffffffffffff166006888860405180838380828437820191505092505050908152602001604051809103902060009054906101000a900473ffffffffffffffffffffffffffffffffffffffff1673ffffffffffffffffffffffffffffffffffffffff1614151561302157600080fd5b8794508473ffffffffffffffffffffffffffffffffffffffff1663230f6e836040518163ffffffff167c0100000000000000000000000000000000000000000000000000000000028152600401602060405180830381600087803b15801561308857600080fd5b505af115801561309c573d6000803e3d6000fd5b505050506040513d60208110156130b257600080fd5b8101908080519060200190929190505050935086866040518083838082843782019150509250505060405180910390206000191684600019161415156130f757600080fd5b876006888860405180838380828437820191505092505050908152602001604051809103902060006101000a81548173ffffffffffffffffffffffffffffffffffffffff021916908373ffffffffffffffffffffffffffffffffffffffff1602179055506001600760008a73ffffffffffffffffffffffffffffffffffffffff1673ffffffffffffffffffffffffffffffffffffffff16815260200190815260200160002060006101000a81548160ff0219169083151502179055508773ffffffffffffffffffffffffffffffffffffffff167fc5a10da5d84dc2a879ce04afc23740db6e9203195d833111485d0d6a47ee2df6888860405180838380828437820191505092505050604051809103902060405180826000191660001916815260200191505060405180910390a25050505050505050565b6000600260009054906101000a900473ffffffffffffffffffffffffffffffffffffffff16905090565b60008073ffffffffffffffffffffffffffffffffffffffff16600260009054906101000a900473ffffffffffffffffffffffffffffffffffffffff1673ffffffffffffffffffffffffffffffffffffffff16141515156132b857600080fd5b600260009054906101000a900473ffffffffffffffffffffffffffffffffffffffff1673ffffffffffffffffffffffffffffffffffffffff163373ffffffffffffffffffffffffffffffffffffffff1614151561331457600080fd5b600160009054906101000a900473ffffffffffffffffffffffffffffffffffffffff169050600260009054906101000a900473ffffffffffffffffffffffffffffffffffffffff16600160006101000a81548173ffffffffffffffffffffffffffffffffffffffff021916908373ffffffffffffffffffffffffffffffffffffffff1602179055506000600260006101000a81548173ffffffffffffffffffffffffffffffffffffffff021916908373ffffffffffffffffffffffffffffffffffffffff160217905550600160009054906101000a900473ffffffffffffffffffffffffffffffffffffffff1673ffffffffffffffffffffffffffffffffffffffff167f8d2a41ca5ff551a8f68510de75177b7d56e6019c8579b5509d2be1bb41a0d0af60405160405180910390a2600160009054906101000a900473ffffffffffffffffffffffffffffffffffffffff1673ffffffffffffffffffffffffffffffffffffffff168173ffffffffffffffffffffffffffffffffffffffff167f3912b3f6ff73ee5d4cd2894666c349dec2d3d2ed7dc6d35c28c5eabf105a88d860405160405180910390a350565b60008015156134cf6116e2565b15151415156134dd57600080fd5b6040805190810160405280600f81526020017f666f726365645f7472616e736665720000000000000000000000000000000000815250600115156135213383610aa6565b151514151561352f57600080fd5b613537611eca565b73ffffffffffffffffffffffffffffffffffffffff1663f8b2cb4f856040518263ffffffff167c0100000000000000000000000000000000000000000000000000000000028152600401808273ffffffffffffffffffffffffffffffffffffffff1673ffffffffffffffffffffffffffffffffffffffff168152602001915050602060405180830381600087803b1580156135d157600080fd5b505af11580156135e5573d6000803e3d6000fd5b505050506040513d60208110156135fb57600080fd5b81019080805190602001909291905050509150613616611eca565b73ffffffffffffffffffffffffffffffffffffffff1663ff05694985846040518363ffffffff167c0100000000000000000000000000000000000000000000000000000000028152600401808373ffffffffffffffffffffffffffffffffffffffff1673ffffffffffffffffffffffffffffffffffffffff16815260200182815260200192505050600060405180830381600087803b1580156136b857600080fd5b505af11580156136cc573d6000803e3d6000fd5b505050506136d8611eca565b73ffffffffffffffffffffffffffffffffffffffff16635b86f59984846040518363ffffffff167c0100000000000000000000000000000000000000000000000000000000028152600401808373ffffffffffffffffffffffffffffffffffffffff1673ffffffffffffffffffffffffffffffffffffffff16815260200182815260200192505050600060405180830381600087803b15801561377a57600080fd5b505af115801561378e573d6000803e3d6000fd5b505050508273ffffffffffffffffffffffffffffffffffffffff168473ffffffffffffffffffffffffffffffffffffffff167f49ed9a888a528d93549a1107d36a898c70a461f4a906fa0d439ad78217e4b0d3846040518082815260200191505060405180910390a3600115156138396040805190810160405280600581526020017f6572633230000000000000000000000000000000000000000000000000000000815250612dc1565b1515141561396e5761387f6040805190810160405280600581526020017f6572633230000000000000000000000000000000000000000000000000000000815250612a46565b73ffffffffffffffffffffffffffffffffffffffff1663a6d49dca8585856040518463ffffffff167c0100000000000000000000000000000000000000000000000000000000028152600401808473ffffffffffffffffffffffffffffffffffffffff1673ffffffffffffffffffffffffffffffffffffffff1681526020018373ffffffffffffffffffffffffffffffffffffffff1673ffffffffffffffffffffffffffffffffffffffff1681526020018281526020019350505050600060405180830381600087803b15801561395557600080fd5b505af1158015613969573d6000803e3d6000fd5b505050505b50505050565b600080600073ffffffffffffffffffffffffffffffffffffffff168373ffffffffffffffffffffffffffffffffffffffff16141515156139b357600080fd5b823b9050600081119150509190505600a165627a7a72305820109c383186c9ffa4946f5f3c506f89b6fe5798b009c6e4b4fdebb5b7b4c51edd0029",
  "source": "/* Author: Victor Mezrin  victor@mezrin.com */\n\npragma solidity ^0.4.24;\n\nimport '../util/CommonModifiers/CommonModifiers.sol';\nimport '../feature/AssetID/AssetID.sol';\nimport '../lifecycle/Ownable/Ownable.sol';\nimport '../lifecycle/Manageable/Manageable.sol';\nimport '../lifecycle/Pausable/Pausable.sol';\nimport '../crydr/controller/CrydrControllerBase/CrydrControllerBase.sol';\nimport '../crydr/controller/CrydrControllerMintable/CrydrControllerMintable.sol';\nimport '../crydr/controller/CrydrControllerForcedTransfer/CrydrControllerForcedTransfer.sol';\n\n\n/**\n * @title CrydrControllerForcedTransfer\n * @dev Contract for unit tests\n */\ncontract CrydrControllerForcedTransferMock is CommonModifiers,\n                                              AssetID,\n                                              Ownable,\n                                              Manageable,\n                                              Pausable,\n                                              CrydrControllerBase,\n                                              CrydrControllerMintable,\n                                              CrydrControllerForcedTransfer {\n\n  constructor (string _assetID) public AssetID(_assetID) {}\n}\n",
  "sourcePath": "/home/user/dev/project/jibrel/jibrel-contracts/contracts/unittest/CrydrControllerForcedTransferMock.sol",
  "compiler": {
    "name": "solc",
    "version": "0.4.24+commit.e67f0147.Emscripten.clang"
  },
  "schemaVersion": "2.0.1",
  "updatedAt": "2018-08-27T22:59:31.987Z"
}