{
  "contractName": "CrydrControllerERC20Stub",
  "abi": [
    {
      "constant": true,
      "inputs": [],
      "name": "tokenDecimals",
      "outputs": [
        {
          "name": "",
          "type": "uint8"
        }
      ],
      "payable": false,
      "stateMutability": "view",
      "type": "function"
    },
    {
      "constant": true,
      "inputs": [],
      "name": "transferCounter",
      "outputs": [
        {
          "name": "",
          "type": "uint256"
        }
      ],
      "payable": false,
      "stateMutability": "view",
      "type": "function"
    },
    {
      "constant": true,
      "inputs": [],
      "name": "approveCounter",
      "outputs": [
        {
          "name": "",
          "type": "uint256"
        }
      ],
      "payable": false,
      "stateMutability": "view",
      "type": "function"
    },
    {
      "constant": true,
      "inputs": [],
      "name": "getAssetID",
      "outputs": [
        {
          "name": "",
          "type": "string"
        }
      ],
      "payable": false,
      "stateMutability": "view",
      "type": "function"
    },
    {
      "constant": true,
      "inputs": [],
      "name": "tokenName",
      "outputs": [
        {
          "name": "",
          "type": "string"
        }
      ],
      "payable": false,
      "stateMutability": "view",
      "type": "function"
    },
    {
      "constant": true,
      "inputs": [],
      "name": "tokenSymbol",
      "outputs": [
        {
          "name": "",
          "type": "string"
        }
      ],
      "payable": false,
      "stateMutability": "view",
      "type": "function"
    },
    {
      "constant": true,
      "inputs": [],
      "name": "getAssetIDHash",
      "outputs": [
        {
          "name": "",
          "type": "bytes32"
        }
      ],
      "payable": false,
      "stateMutability": "view",
      "type": "function"
    },
    {
      "constant": true,
      "inputs": [],
      "name": "transferFromCounter",
      "outputs": [
        {
          "name": "",
          "type": "uint256"
        }
      ],
      "payable": false,
      "stateMutability": "view",
      "type": "function"
    },
    {
      "inputs": [
        {
          "name": "_assetID",
          "type": "string"
        },
        {
          "name": "_crydrView",
          "type": "address"
        }
      ],
      "payable": false,
      "stateMutability": "nonpayable",
      "type": "constructor"
    },
    {
      "constant": false,
      "inputs": [
        {
          "name": "_msgsender",
          "type": "address"
        },
        {
          "name": "_to",
          "type": "address"
        },
        {
          "name": "_value",
          "type": "uint256"
        }
      ],
      "name": "transfer",
      "outputs": [],
      "payable": false,
      "stateMutability": "nonpayable",
      "type": "function"
    },
    {
      "constant": true,
      "inputs": [],
      "name": "getTotalSupply",
      "outputs": [
        {
          "name": "",
          "type": "uint256"
        }
      ],
      "payable": false,
      "stateMutability": "view",
      "type": "function"
    },
    {
      "constant": true,
      "inputs": [
        {
          "name": "_owner",
          "type": "address"
        }
      ],
      "name": "getBalance",
      "outputs": [
        {
          "name": "",
          "type": "uint256"
        }
      ],
      "payable": false,
      "stateMutability": "view",
      "type": "function"
    },
    {
      "constant": false,
      "inputs": [
        {
          "name": "_msgsender",
          "type": "address"
        },
        {
          "name": "_spender",
          "type": "address"
        },
        {
          "name": "_value",
          "type": "uint256"
        }
      ],
      "name": "approve",
      "outputs": [],
      "payable": false,
      "stateMutability": "nonpayable",
      "type": "function"
    },
    {
      "constant": false,
      "inputs": [
        {
          "name": "_msgsender",
          "type": "address"
        },
        {
          "name": "_from",
          "type": "address"
        },
        {
          "name": "_to",
          "type": "address"
        },
        {
          "name": "_value",
          "type": "uint256"
        }
      ],
      "name": "transferFrom",
      "outputs": [],
      "payable": false,
      "stateMutability": "nonpayable",
      "type": "function"
    },
    {
      "constant": true,
      "inputs": [
        {
          "name": "_owner",
          "type": "address"
        },
        {
          "name": "_spender",
          "type": "address"
        }
      ],
      "name": "getAllowance",
      "outputs": [
        {
          "name": "",
          "type": "uint256"
        }
      ],
      "payable": false,
      "stateMutability": "view",
      "type": "function"
    },
    {
      "constant": false,
      "inputs": [
        {
          "name": "_from",
          "type": "address"
        },
        {
          "name": "_to",
          "type": "address"
        },
        {
          "name": "_value",
          "type": "uint256"
        }
      ],
      "name": "emitTransferEvent",
      "outputs": [],
      "payable": false,
      "stateMutability": "nonpayable",
      "type": "function"
    },
    {
      "constant": false,
      "inputs": [
        {
          "name": "_owner",
          "type": "address"
        },
        {
          "name": "_spender",
          "type": "address"
        },
        {
          "name": "_value",
          "type": "uint256"
        }
      ],
      "name": "emitApprovalEvent",
      "outputs": [],
      "payable": false,
      "stateMutability": "nonpayable",
      "type": "function"
    }
  ],
  "bytecode": "0x60806040526040805190810160405280600981526020017f746f6b656e4e616d65000000000000000000000000000000000000000000000081525060019080519060200190620000519291906200017f565b506040805190810160405280600b81526020017f746f6b656e53796d626f6c000000000000000000000000000000000000000000815250600290805190602001906200009f9291906200017f565b506012600360006101000a81548160ff021916908360ff160217905550600060045560006005556000600655348015620000d857600080fd5b50604051620010ac380380620010ac833981018060405281019080805182019291906020018051906020019092919050505081600081511115156200011c57600080fd5b8060009080519060200190620001349291906200017f565b505080600760006101000a81548173ffffffffffffffffffffffffffffffffffffffff021916908373ffffffffffffffffffffffffffffffffffffffff16021790555050506200022e565b828054600181600116156101000203166002900490600052602060002090601f016020900481019282601f10620001c257805160ff1916838001178555620001f3565b82800160010185558215620001f3579182015b82811115620001f2578251825591602001919060010190620001d5565b5b50905062000202919062000206565b5090565b6200022b91905b80821115620002275760008160009055506001016200020d565b5090565b90565b610e6e806200023e6000396000f3006080604052600436106100e6576000357c0100000000000000000000000000000000000000000000000000000000900463ffffffff1680630af4187d146100eb57806315dacbea146101625780633b97e856146101ef5780633cf8ddf2146102205780634b914f101461024b578063696b5fb7146102765780636c02a931146103065780637b61c32014610396578063a6d49dca14610426578063a773d98a14610493578063beabacc8146104c6578063c0b7b1a714610533578063c4e41b221461055e578063e1f21c6714610589578063f23b6fa2146105f6578063f8b2cb4f14610663575b600080fd5b3480156100f757600080fd5b5061014c600480360381019080803573ffffffffffffffffffffffffffffffffffffffff169060200190929190803573ffffffffffffffffffffffffffffffffffffffff1690602001909291905050506106ba565b6040518082815260200191505060405180910390f35b34801561016e57600080fd5b506101ed600480360381019080803573ffffffffffffffffffffffffffffffffffffffff169060200190929190803573ffffffffffffffffffffffffffffffffffffffff169060200190929190803573ffffffffffffffffffffffffffffffffffffffff16906020019092919080359060200190929190505050610742565b005b3480156101fb57600080fd5b50610204610815565b604051808260ff1660ff16815260200191505060405180910390f35b34801561022c57600080fd5b50610235610828565b6040518082815260200191505060405180910390f35b34801561025757600080fd5b5061026061082e565b6040518082815260200191505060405180910390f35b34801561028257600080fd5b5061028b610834565b6040518080602001828103825283818151815260200191508051906020019080838360005b838110156102cb5780820151818401526020810190506102b0565b50505050905090810190601f1680156102f85780820380516001836020036101000a031916815260200191505b509250505060405180910390f35b34801561031257600080fd5b5061031b6108d6565b6040518080602001828103825283818151815260200191508051906020019080838360005b8381101561035b578082015181840152602081019050610340565b50505050905090810190601f1680156103885780820380516001836020036101000a031916815260200191505b509250505060405180910390f35b3480156103a257600080fd5b506103ab610974565b6040518080602001828103825283818151815260200191508051906020019080838360005b838110156103eb5780820151818401526020810190506103d0565b50505050905090810190601f1680156104185780820380516001836020036101000a031916815260200191505b509250505060405180910390f35b34801561043257600080fd5b50610491600480360381019080803573ffffffffffffffffffffffffffffffffffffffff169060200190929190803573ffffffffffffffffffffffffffffffffffffffff16906020019092919080359060200190929190505050610a12565b005b34801561049f57600080fd5b506104a8610b28565b60405180826000191660001916815260200191505060405180910390f35b3480156104d257600080fd5b50610531600480360381019080803573ffffffffffffffffffffffffffffffffffffffff169060200190929190803573ffffffffffffffffffffffffffffffffffffffff16906020019092919080359060200190929190505050610b98565b005b34801561053f57600080fd5b50610548610c30565b6040518082815260200191505060405180910390f35b34801561056a57600080fd5b50610573610c36565b6040518082815260200191505060405180910390f35b34801561059557600080fd5b506105f4600480360381019080803573ffffffffffffffffffffffffffffffffffffffff169060200190929190803573ffffffffffffffffffffffffffffffffffffffff16906020019092919080359060200190929190505050610c47565b005b34801561060257600080fd5b50610661600480360381019080803573ffffffffffffffffffffffffffffffffffffffff169060200190929190803573ffffffffffffffffffffffffffffffffffffffff16906020019092919080359060200190929190505050610cdf565b005b34801561066f57600080fd5b506106a4600480360381019080803573ffffffffffffffffffffffffffffffffffffffff169060200190929190505050610df5565b6040518082815260200191505060405180910390f35b60008273ffffffffffffffffffffffffffffffffffffffff168373ffffffffffffffffffffffffffffffffffffffff161415156106f657600080fd5b8173ffffffffffffffffffffffffffffffffffffffff168273ffffffffffffffffffffffffffffffffffffffff1614151561073057600080fd5b6801158e460913d00000905092915050565b8373ffffffffffffffffffffffffffffffffffffffff168473ffffffffffffffffffffffffffffffffffffffff1614151561077c57600080fd5b8273ffffffffffffffffffffffffffffffffffffffff168373ffffffffffffffffffffffffffffffffffffffff161415156107b657600080fd5b8173ffffffffffffffffffffffffffffffffffffffff168273ffffffffffffffffffffffffffffffffffffffff161415156107f057600080fd5b80811415156107fe57600080fd5b600160066000828254019250508190555050505050565b600360009054906101000a900460ff1681565b60045481565b60055481565b606060008054600181600116156101000203166002900480601f0160208091040260200160405190810160405280929190818152602001828054600181600116156101000203166002900480156108cc5780601f106108a1576101008083540402835291602001916108cc565b820191906000526020600020905b8154815290600101906020018083116108af57829003601f168201915b5050505050905090565b60018054600181600116156101000203166002900480601f01602080910402602001604051908101604052809291908181526020018280546001816001161561010002031660029004801561096c5780601f106109415761010080835404028352916020019161096c565b820191906000526020600020905b81548152906001019060200180831161094f57829003601f168201915b505050505081565b60028054600181600116156101000203166002900480601f016020809104026020016040519081016040528092919081815260200182805460018160011615610100020316600290048015610a0a5780601f106109df57610100808354040283529160200191610a0a565b820191906000526020600020905b8154815290600101906020018083116109ed57829003601f168201915b505050505081565b600760009054906101000a900473ffffffffffffffffffffffffffffffffffffffff1673ffffffffffffffffffffffffffffffffffffffff1663a6d49dca8484846040518463ffffffff167c0100000000000000000000000000000000000000000000000000000000028152600401808473ffffffffffffffffffffffffffffffffffffffff1673ffffffffffffffffffffffffffffffffffffffff1681526020018373ffffffffffffffffffffffffffffffffffffffff1673ffffffffffffffffffffffffffffffffffffffff1681526020018281526020019350505050600060405180830381600087803b158015610b0b57600080fd5b505af1158015610b1f573d6000803e3d6000fd5b50505050505050565b6000806040518082805460018160011615610100020316600290048015610b865780601f10610b64576101008083540402835291820191610b86565b820191906000526020600020905b815481529060010190602001808311610b72575b50509150506040518091039020905090565b8273ffffffffffffffffffffffffffffffffffffffff168373ffffffffffffffffffffffffffffffffffffffff16141515610bd257600080fd5b8173ffffffffffffffffffffffffffffffffffffffff168273ffffffffffffffffffffffffffffffffffffffff16141515610c0c57600080fd5b8081141515610c1a57600080fd5b6001600460008282540192505081905550505050565b60065481565b6000680340aad21b3b700000905090565b8273ffffffffffffffffffffffffffffffffffffffff168373ffffffffffffffffffffffffffffffffffffffff16141515610c8157600080fd5b8173ffffffffffffffffffffffffffffffffffffffff168273ffffffffffffffffffffffffffffffffffffffff16141515610cbb57600080fd5b8081141515610cc957600080fd5b6001600560008282540192505081905550505050565b600760009054906101000a900473ffffffffffffffffffffffffffffffffffffffff1673ffffffffffffffffffffffffffffffffffffffff1663f23b6fa28484846040518463ffffffff167c0100000000000000000000000000000000000000000000000000000000028152600401808473ffffffffffffffffffffffffffffffffffffffff1673ffffffffffffffffffffffffffffffffffffffff1681526020018373ffffffffffffffffffffffffffffffffffffffff1673ffffffffffffffffffffffffffffffffffffffff1681526020018281526020019350505050600060405180830381600087803b158015610dd857600080fd5b505af1158015610dec573d6000803e3d6000fd5b50505050505050565b60008173ffffffffffffffffffffffffffffffffffffffff168273ffffffffffffffffffffffffffffffffffffffff16141515610e3157600080fd5b68022b1c8c1227a0000090509190505600a165627a7a723058209209dce206a12bf5146e975f4a783ae533c33e5a07fd716a78d7231a1f40195d0029",
  "source": "/* Author: Aleksey Selikhov  aleksey.selikhov@gmail.com */\n\npragma solidity ^0.4.24;\n\n\nimport '../feature/AssetID/AssetID.sol';\nimport '../../contracts/crydr/controller/CrydrControllerERC20/CrydrControllerERC20Interface.sol';\nimport '../../contracts/crydr/view/CrydrViewERC20Loggable/CrydrViewERC20LoggableInterface.sol';\n\n\n/**\n * @title CrydrControllerERC20Stub\n * @dev This contract used only to test contracts\n */\ncontract CrydrControllerERC20Stub is AssetID,\n                                     CrydrControllerERC20Interface,\n                                     CrydrViewERC20LoggableInterface {\n\n  /* Storage */\n\n  string public tokenName = 'tokenName';\n  string public tokenSymbol = 'tokenSymbol';\n  uint8 public tokenDecimals = 18;\n\n  uint256 public transferCounter = 0;\n  uint256 public approveCounter = 0;\n  uint256 public transferFromCounter = 0;\n\n  address crydrView;\n\n\n  /* Constructor */\n\n  constructor (string _assetID, address _crydrView) public AssetID(_assetID) {\n    crydrView = _crydrView;\n  }\n\n\n  /* CrydrControllerERC20Interface */\n\n  function transfer(address _msgsender, address _to, uint256 _value) public\n  {\n    require(_msgsender == _msgsender); // always true, to avoid annoying compilation warnings\n    require(_to == _to); // always true, to avoid annoying compilation warnings\n    require(_value == _value); // always true, to avoid annoying compilation warnings\n\n    transferCounter += 1;\n  }\n\n  function getTotalSupply() public constant returns (uint256)\n  {\n    return 60 * (10 ** 18);\n  }\n\n  function getBalance(address _owner) public constant returns (uint256)\n  {\n    require(_owner == _owner); // always true, to avoid annoying compilation warnings\n\n    return 40 * (10 ** 18);\n  }\n\n  function approve(address _msgsender, address _spender, uint256 _value) public\n  {\n    require(_msgsender == _msgsender); // always true, to avoid annoying compilation warnings\n    require(_spender == _spender); // always true, to avoid annoying compilation warnings\n    require(_value == _value); // always true, to avoid annoying compilation warnings\n\n    approveCounter += 1;\n  }\n\n  function transferFrom(address _msgsender, address _from, address _to, uint256 _value) public\n  {\n    require(_msgsender == _msgsender); // always true, to avoid annoying compilation warnings\n    require(_from == _from); // always true, to avoid annoying compilation warnings\n    require(_to == _to); // always true, to avoid annoying compilation warnings\n    require(_value == _value); // always true, to avoid annoying compilation warnings\n\n    transferFromCounter += 1;\n  }\n\n  function getAllowance(address _owner, address _spender) public constant returns (uint256)\n  {\n    require(_owner == _owner); // always true, to avoid annoying compilation warnings\n    require(_spender == _spender); // always true, to avoid annoying compilation warnings\n\n    return 20 * (10 ** 18);\n  }\n\n\n  /* CrydrViewERC20LoggableInterface */\n\n  function emitTransferEvent(address _from, address _to, uint256 _value) external\n  {\n    CrydrViewERC20LoggableInterface(crydrView).emitTransferEvent(_from, _to, _value);\n  }\n\n  function emitApprovalEvent(address _owner, address _spender, uint256 _value) external\n  {\n    CrydrViewERC20LoggableInterface(crydrView).emitApprovalEvent(_owner, _spender, _value);\n  }\n}\n",
  "sourcePath": "/home/user/dev/project/jibrel/jibrel-contracts/contracts/unittest/CrydrControllerERC20Stub.sol",
  "compiler": {
    "name": "solc",
    "version": "0.4.24+commit.e67f0147.Emscripten.clang"
  },
  "schemaVersion": "2.0.1",
  "updatedAt": "2018-08-27T22:59:31.986Z"
}