{
  "contractName": "CrydrLicenseRegistryMock",
  "abi": [
    {
      "constant": false,
      "inputs": [
        {
          "name": "_userAddress",
          "type": "address"
        },
        {
          "name": "_licenseName",
          "type": "string"
        }
      ],
      "name": "grantUserLicense",
      "outputs": [],
      "payable": false,
      "stateMutability": "nonpayable",
      "type": "function"
    },
    {
      "constant": true,
      "inputs": [
        {
          "name": "_manager",
          "type": "address"
        },
        {
          "name": "_permissionName",
          "type": "string"
        }
      ],
      "name": "isManagerAllowed",
      "outputs": [
        {
          "name": "",
          "type": "bool"
        }
      ],
      "payable": false,
      "stateMutability": "view",
      "type": "function"
    },
    {
      "constant": true,
      "inputs": [
        {
          "name": "_userAddress",
          "type": "address"
        },
        {
          "name": "_licenseName",
          "type": "string"
        }
      ],
      "name": "isUserGranted",
      "outputs": [
        {
          "name": "",
          "type": "bool"
        }
      ],
      "payable": false,
      "stateMutability": "view",
      "type": "function"
    },
    {
      "constant": false,
      "inputs": [],
      "name": "cancelOwnershipOffer",
      "outputs": [],
      "payable": false,
      "stateMutability": "nonpayable",
      "type": "function"
    },
    {
      "constant": true,
      "inputs": [
        {
          "name": "_manager",
          "type": "address"
        },
        {
          "name": "_permissionName",
          "type": "string"
        }
      ],
      "name": "isPermissionGranted",
      "outputs": [
        {
          "name": "",
          "type": "bool"
        }
      ],
      "payable": false,
      "stateMutability": "view",
      "type": "function"
    },
    {
      "constant": true,
      "inputs": [
        {
          "name": "_userAddress",
          "type": "address"
        },
        {
          "name": "_licenseName",
          "type": "string"
        }
      ],
      "name": "isUserLicenseValid",
      "outputs": [
        {
          "name": "",
          "type": "bool"
        }
      ],
      "payable": false,
      "stateMutability": "view",
      "type": "function"
    },
    {
      "constant": false,
      "inputs": [
        {
          "name": "_userAddress",
          "type": "address"
        }
      ],
      "name": "denyUser",
      "outputs": [],
      "payable": false,
      "stateMutability": "nonpayable",
      "type": "function"
    },
    {
      "constant": true,
      "inputs": [
        {
          "name": "_userAddress",
          "type": "address"
        }
      ],
      "name": "isUserAdmitted",
      "outputs": [
        {
          "name": "",
          "type": "bool"
        }
      ],
      "payable": false,
      "stateMutability": "view",
      "type": "function"
    },
    {
      "constant": false,
      "inputs": [
        {
          "name": "_manager",
          "type": "address"
        }
      ],
      "name": "enableManager",
      "outputs": [],
      "payable": false,
      "stateMutability": "nonpayable",
      "type": "function"
    },
    {
      "constant": false,
      "inputs": [
        {
          "name": "_manager",
          "type": "address"
        },
        {
          "name": "_permissionName",
          "type": "string"
        }
      ],
      "name": "revokeManagerPermission",
      "outputs": [],
      "payable": false,
      "stateMutability": "nonpayable",
      "type": "function"
    },
    {
      "constant": false,
      "inputs": [
        {
          "name": "_manager",
          "type": "address"
        },
        {
          "name": "_permissionName",
          "type": "string"
        }
      ],
      "name": "grantManagerPermission",
      "outputs": [],
      "payable": false,
      "stateMutability": "nonpayable",
      "type": "function"
    },
    {
      "constant": true,
      "inputs": [],
      "name": "getOwner",
      "outputs": [
        {
          "name": "",
          "type": "address"
        }
      ],
      "payable": false,
      "stateMutability": "view",
      "type": "function"
    },
    {
      "constant": false,
      "inputs": [
        {
          "name": "_proposedOwner",
          "type": "address"
        }
      ],
      "name": "createOwnershipOffer",
      "outputs": [],
      "payable": false,
      "stateMutability": "nonpayable",
      "type": "function"
    },
    {
      "constant": true,
      "inputs": [
        {
          "name": "_manager",
          "type": "address"
        }
      ],
      "name": "isManagerEnabled",
      "outputs": [
        {
          "name": "",
          "type": "bool"
        }
      ],
      "payable": false,
      "stateMutability": "view",
      "type": "function"
    },
    {
      "constant": false,
      "inputs": [
        {
          "name": "_userAddress",
          "type": "address"
        },
        {
          "name": "_licenseName",
          "type": "string"
        }
      ],
      "name": "revokeUserLicense",
      "outputs": [],
      "payable": false,
      "stateMutability": "nonpayable",
      "type": "function"
    },
    {
      "constant": true,
      "inputs": [
        {
          "name": "_userAddress",
          "type": "address"
        },
        {
          "name": "_licenseName",
          "type": "string"
        }
      ],
      "name": "isUserAllowed",
      "outputs": [
        {
          "name": "",
          "type": "bool"
        }
      ],
      "payable": false,
      "stateMutability": "view",
      "type": "function"
    },
    {
      "constant": false,
      "inputs": [
        {
          "name": "_userAddress",
          "type": "address"
        }
      ],
      "name": "admitUser",
      "outputs": [],
      "payable": false,
      "stateMutability": "nonpayable",
      "type": "function"
    },
    {
      "constant": false,
      "inputs": [
        {
          "name": "_manager",
          "type": "address"
        }
      ],
      "name": "disableManager",
      "outputs": [],
      "payable": false,
      "stateMutability": "nonpayable",
      "type": "function"
    },
    {
      "constant": true,
      "inputs": [],
      "name": "getProposedOwner",
      "outputs": [
        {
          "name": "",
          "type": "address"
        }
      ],
      "payable": false,
      "stateMutability": "view",
      "type": "function"
    },
    {
      "constant": false,
      "inputs": [],
      "name": "acceptOwnershipOffer",
      "outputs": [],
      "payable": false,
      "stateMutability": "nonpayable",
      "type": "function"
    },
    {
      "anonymous": false,
      "inputs": [
        {
          "indexed": true,
          "name": "useraddress",
          "type": "address"
        }
      ],
      "name": "UserAdmittedEvent",
      "type": "event"
    },
    {
      "anonymous": false,
      "inputs": [
        {
          "indexed": true,
          "name": "useraddress",
          "type": "address"
        }
      ],
      "name": "UserDeniedEvent",
      "type": "event"
    },
    {
      "anonymous": false,
      "inputs": [
        {
          "indexed": true,
          "name": "useraddress",
          "type": "address"
        },
        {
          "indexed": false,
          "name": "licensename",
          "type": "bytes32"
        }
      ],
      "name": "UserLicenseGrantedEvent",
      "type": "event"
    },
    {
      "anonymous": false,
      "inputs": [
        {
          "indexed": true,
          "name": "useraddress",
          "type": "address"
        },
        {
          "indexed": false,
          "name": "licensename",
          "type": "bytes32"
        }
      ],
      "name": "UserLicenseRenewedEvent",
      "type": "event"
    },
    {
      "anonymous": false,
      "inputs": [
        {
          "indexed": true,
          "name": "useraddress",
          "type": "address"
        },
        {
          "indexed": false,
          "name": "licensename",
          "type": "bytes32"
        }
      ],
      "name": "UserLicenseRevokedEvent",
      "type": "event"
    },
    {
      "anonymous": false,
      "inputs": [
        {
          "indexed": true,
          "name": "manager",
          "type": "address"
        }
      ],
      "name": "ManagerEnabledEvent",
      "type": "event"
    },
    {
      "anonymous": false,
      "inputs": [
        {
          "indexed": true,
          "name": "manager",
          "type": "address"
        }
      ],
      "name": "ManagerDisabledEvent",
      "type": "event"
    },
    {
      "anonymous": false,
      "inputs": [
        {
          "indexed": true,
          "name": "manager",
          "type": "address"
        },
        {
          "indexed": false,
          "name": "permission",
          "type": "bytes32"
        }
      ],
      "name": "ManagerPermissionGrantedEvent",
      "type": "event"
    },
    {
      "anonymous": false,
      "inputs": [
        {
          "indexed": true,
          "name": "manager",
          "type": "address"
        },
        {
          "indexed": false,
          "name": "permission",
          "type": "bytes32"
        }
      ],
      "name": "ManagerPermissionRevokedEvent",
      "type": "event"
    },
    {
      "anonymous": false,
      "inputs": [
        {
          "indexed": true,
          "name": "newowner",
          "type": "address"
        }
      ],
      "name": "OwnerAssignedEvent",
      "type": "event"
    },
    {
      "anonymous": false,
      "inputs": [
        {
          "indexed": true,
          "name": "currentowner",
          "type": "address"
        },
        {
          "indexed": true,
          "name": "proposedowner",
          "type": "address"
        }
      ],
      "name": "OwnershipOfferCreatedEvent",
      "type": "event"
    },
    {
      "anonymous": false,
      "inputs": [
        {
          "indexed": true,
          "name": "currentowner",
          "type": "address"
        },
        {
          "indexed": true,
          "name": "proposedowner",
          "type": "address"
        }
      ],
      "name": "OwnershipOfferAcceptedEvent",
      "type": "event"
    },
    {
      "anonymous": false,
      "inputs": [
        {
          "indexed": true,
          "name": "currentowner",
          "type": "address"
        },
        {
          "indexed": true,
          "name": "proposedowner",
          "type": "address"
        }
      ],
      "name": "OwnershipOfferCancelledEvent",
      "type": "event"
    }
  ],
  "bytecode": "0x608060405260008060006101000a81548173ffffffffffffffffffffffffffffffffffffffff021916908373ffffffffffffffffffffffffffffffffffffffff1602179055506000600160006101000a81548173ffffffffffffffffffffffffffffffffffffffff021916908373ffffffffffffffffffffffffffffffffffffffff160217905550336000806101000a81548173ffffffffffffffffffffffffffffffffffffffff021916908373ffffffffffffffffffffffffffffffffffffffff1602179055506000809054906101000a900473ffffffffffffffffffffffffffffffffffffffff1673ffffffffffffffffffffffffffffffffffffffff167f8d2a41ca5ff551a8f68510de75177b7d56e6019c8579b5509d2be1bb41a0d0af60405160405180910390a26125728061013a6000396000f300608060405260043610610112576000357c0100000000000000000000000000000000000000000000000000000000900463ffffffff168063026d0e1c146101175780630392d2b4146101725780630caa1d84146102135780631eb96a5c146102b457806332a2fda7146102cb57806346d0fb601461036c57806348e071d41461040d57806354ef356f146104505780635ca5b334146104ab5780637c0efb8b146104ee578063822b08d014610549578063893d20e8146105a45780639739db9d146105fb5780639b53d87c1461063e578063afa3de9b14610699578063b08bbff0146106f4578063c050f6dc14610795578063d4859dc5146107d8578063eae5a62d1461081b578063f538534514610872575b600080fd5b34801561012357600080fd5b50610170600480360381019080803573ffffffffffffffffffffffffffffffffffffffff169060200190929190803590602001908201803590602001919091929391929390505050610889565b005b34801561017e57600080fd5b506101f9600480360381019080803573ffffffffffffffffffffffffffffffffffffffff169060200190929190803590602001908201803590602001908080601f0160208091040260200160405190810160405280939291908181526020018383808284378201915050505050509192919290505050610ad2565b604051808215151515815260200191505060405180910390f35b34801561021f57600080fd5b5061029a600480360381019080803573ffffffffffffffffffffffffffffffffffffffff169060200190929190803590602001908201803590602001908080601f0160208091040260200160405190810160405280939291908181526020018383808284378201915050505050509192919290505050610c38565b604051808215151515815260200191505060405180910390f35b3480156102c057600080fd5b506102c9610d48565b005b3480156102d757600080fd5b50610352600480360381019080803573ffffffffffffffffffffffffffffffffffffffff169060200190929190803590602001908201803590602001908080601f0160208091040260200160405190810160405280939291908181526020018383808284378201915050505050509192919290505050610f3f565b604051808215151515815260200191505060405180910390f35b34801561037857600080fd5b506103f3600480360381019080803573ffffffffffffffffffffffffffffffffffffffff169060200190929190803590602001908201803590602001908080601f0160208091040260200160405190810160405280939291908181526020018383808284378201915050505050509192919290505050611050565b604051808215151515815260200191505060405180910390f35b34801561041957600080fd5b5061044e600480360381019080803573ffffffffffffffffffffffffffffffffffffffff169060200190929190505050611160565b005b34801561045c57600080fd5b50610491600480360381019080803573ffffffffffffffffffffffffffffffffffffffff1690602001909291905050506112ee565b604051808215151515815260200191505060405180910390f35b3480156104b757600080fd5b506104ec600480360381019080803573ffffffffffffffffffffffffffffffffffffffff169060200190929190505050611382565b005b3480156104fa57600080fd5b50610547600480360381019080803573ffffffffffffffffffffffffffffffffffffffff1690602001909291908035906020019082018035906020019190919293919293905050506114fe565b005b34801561055557600080fd5b506105a2600480360381019080803573ffffffffffffffffffffffffffffffffffffffff169060200190929190803590602001908201803590602001919091929391929390505050611736565b005b3480156105b057600080fd5b506105b961196e565b604051808273ffffffffffffffffffffffffffffffffffffffff1673ffffffffffffffffffffffffffffffffffffffff16815260200191505060405180910390f35b34801561060757600080fd5b5061063c600480360381019080803573ffffffffffffffffffffffffffffffffffffffff169060200190929190505050611997565b005b34801561064a57600080fd5b5061067f600480360381019080803573ffffffffffffffffffffffffffffffffffffffff169060200190929190505050611b6b565b604051808215151515815260200191505060405180910390f35b3480156106a557600080fd5b506106f2600480360381019080803573ffffffffffffffffffffffffffffffffffffffff169060200190929190803590602001908201803590602001919091929391929390505050611bff565b005b34801561070057600080fd5b5061077b600480360381019080803573ffffffffffffffffffffffffffffffffffffffff169060200190929190803590602001908201803590602001908080601f0160208091040260200160405190810160405280939291908181526020018383808284378201915050505050509192919290505050611e48565b604051808215151515815260200191505060405180910390f35b3480156107a157600080fd5b506107d6600480360381019080803573ffffffffffffffffffffffffffffffffffffffff169060200190929190505050611fad565b005b3480156107e457600080fd5b50610819600480360381019080803573ffffffffffffffffffffffffffffffffffffffff16906020019092919050505061213b565b005b34801561082757600080fd5b506108306122b7565b604051808273ffffffffffffffffffffffffffffffffffffffff1673ffffffffffffffffffffffffffffffffffffffff16815260200191505060405180910390f35b34801561087e57600080fd5b506108876122e1565b005b82600073ffffffffffffffffffffffffffffffffffffffff168173ffffffffffffffffffffffffffffffffffffffff16141515156108c657600080fd5b82828080601f0160208091040260200160405190810160405280939291908181526020018383808284378201915050505050506000815111151561090957600080fd5b6040805190810160405280600d81526020017f6772616e745f6c6963656e7365000000000000000000000000000000000000008152506001151561094d3383610ad2565b151514151561095b57600080fd5b60001515600560008873ffffffffffffffffffffffffffffffffffffffff1673ffffffffffffffffffffffffffffffffffffffff168152602001908152602001600020868660405180838380828437820191505092505050908152602001604051809103902060009054906101000a900460ff1615151415156109dd57600080fd5b6001600560008873ffffffffffffffffffffffffffffffffffffffff1673ffffffffffffffffffffffffffffffffffffffff168152602001908152602001600020868660405180838380828437820191505092505050908152602001604051809103902060006101000a81548160ff0219169083151502179055508573ffffffffffffffffffffffffffffffffffffffff167fc3e035c8da5265ecd158950d851ecf2b2bc0591aa338daa250ddb767c5349bc0868660405180838380828437820191505092505050604051809103902060405180826000191660001916815260200191505060405180910390a2505050505050565b600082600073ffffffffffffffffffffffffffffffffffffffff168173ffffffffffffffffffffffffffffffffffffffff1614151515610b1157600080fd5b826000815114151515610b2357600080fd5b600260008673ffffffffffffffffffffffffffffffffffffffff1673ffffffffffffffffffffffffffffffffffffffff16815260200190815260200160002060009054906101000a900460ff168015610c2e5750600360008673ffffffffffffffffffffffffffffffffffffffff1673ffffffffffffffffffffffffffffffffffffffff168152602001908152602001600020846040518082805190602001908083835b602083101515610bec5780518252602082019150602081019050602083039250610bc7565b6001836020036101000a038019825116818451168082178552505050505050905001915050908152602001604051809103902060009054906101000a900460ff165b9250505092915050565b600082600073ffffffffffffffffffffffffffffffffffffffff168173ffffffffffffffffffffffffffffffffffffffff1614151515610c7757600080fd5b8260008151111515610c8857600080fd5b600560008673ffffffffffffffffffffffffffffffffffffffff1673ffffffffffffffffffffffffffffffffffffffff168152602001908152602001600020846040518082805190602001908083835b602083101515610cfd5780518252602082019150602081019050602083039250610cd8565b6001836020036101000a038019825116818451168082178552505050505050905001915050908152602001604051809103902060009054906101000a900460ff169250505092915050565b60008073ffffffffffffffffffffffffffffffffffffffff16600160009054906101000a900473ffffffffffffffffffffffffffffffffffffffff1673ffffffffffffffffffffffffffffffffffffffff1614151515610da757600080fd5b6000809054906101000a900473ffffffffffffffffffffffffffffffffffffffff1673ffffffffffffffffffffffffffffffffffffffff163373ffffffffffffffffffffffffffffffffffffffff161480610e4f5750600160009054906101000a900473ffffffffffffffffffffffffffffffffffffffff1673ffffffffffffffffffffffffffffffffffffffff163373ffffffffffffffffffffffffffffffffffffffff16145b1515610e5a57600080fd5b600160009054906101000a900473ffffffffffffffffffffffffffffffffffffffff1690506000600160006101000a81548173ffffffffffffffffffffffffffffffffffffffff021916908373ffffffffffffffffffffffffffffffffffffffff1602179055508073ffffffffffffffffffffffffffffffffffffffff166000809054906101000a900473ffffffffffffffffffffffffffffffffffffffff1673ffffffffffffffffffffffffffffffffffffffff167f223225995c0c0965e8752fd93ca10aba4bafcbca26f31b1565955adb68e76bda60405160405180910390a350565b600082600073ffffffffffffffffffffffffffffffffffffffff168173ffffffffffffffffffffffffffffffffffffffff1614151515610f7e57600080fd5b826000815114151515610f9057600080fd5b600360008673ffffffffffffffffffffffffffffffffffffffff1673ffffffffffffffffffffffffffffffffffffffff168152602001908152602001600020846040518082805190602001908083835b6020831015156110055780518252602082019150602081019050602083039250610fe0565b6001836020036101000a038019825116818451168082178552505050505050905001915050908152602001604051809103902060009054906101000a900460ff169250505092915050565b600082600073ffffffffffffffffffffffffffffffffffffffff168173ffffffffffffffffffffffffffffffffffffffff161415151561108f57600080fd5b82600081511115156110a057600080fd5b600560008673ffffffffffffffffffffffffffffffffffffffff1673ffffffffffffffffffffffffffffffffffffffff168152602001908152602001600020846040518082805190602001908083835b60208310151561111557805182526020820191506020810190506020830392506110f0565b6001836020036101000a038019825116818451168082178552505050505050905001915050908152602001604051809103902060009054906101000a900460ff169250505092915050565b80600073ffffffffffffffffffffffffffffffffffffffff168173ffffffffffffffffffffffffffffffffffffffff161415151561119d57600080fd5b6040805190810160405280600981526020017f64656e795f757365720000000000000000000000000000000000000000000000815250600115156111e13383610ad2565b15151415156111ef57600080fd5b60011515600460008573ffffffffffffffffffffffffffffffffffffffff1673ffffffffffffffffffffffffffffffffffffffff16815260200190815260200160002060009054906101000a900460ff16151514151561124e57600080fd5b6000600460008573ffffffffffffffffffffffffffffffffffffffff1673ffffffffffffffffffffffffffffffffffffffff16815260200190815260200160002060006101000a81548160ff0219169083151502179055508273ffffffffffffffffffffffffffffffffffffffff167fe7e65f730d559db2b46f8f48ccfe155cfac294035e3ec54990c5fd632c11620e60405160405180910390a2505050565b600081600073ffffffffffffffffffffffffffffffffffffffff168173ffffffffffffffffffffffffffffffffffffffff161415151561132d57600080fd5b600460008473ffffffffffffffffffffffffffffffffffffffff1673ffffffffffffffffffffffffffffffffffffffff16815260200190815260200160002060009054906101000a900460ff16915050919050565b61138a61196e565b73ffffffffffffffffffffffffffffffffffffffff163373ffffffffffffffffffffffffffffffffffffffff161415156113c357600080fd5b80600073ffffffffffffffffffffffffffffffffffffffff168173ffffffffffffffffffffffffffffffffffffffff161415151561140057600080fd5b60001515600260008473ffffffffffffffffffffffffffffffffffffffff1673ffffffffffffffffffffffffffffffffffffffff16815260200190815260200160002060009054906101000a900460ff16151514151561145f57600080fd5b6001600260008473ffffffffffffffffffffffffffffffffffffffff1673ffffffffffffffffffffffffffffffffffffffff16815260200190815260200160002060006101000a81548160ff0219169083151502179055508173ffffffffffffffffffffffffffffffffffffffff167f7f0b61f78ab0b549b68ce61404f4ee01a26ffdf8d421d099d271d789aaea3a8e60405160405180910390a25050565b61150661196e565b73ffffffffffffffffffffffffffffffffffffffff163373ffffffffffffffffffffffffffffffffffffffff1614151561153f57600080fd5b82600073ffffffffffffffffffffffffffffffffffffffff168173ffffffffffffffffffffffffffffffffffffffff161415151561157c57600080fd5b82828080601f01602080910402602001604051908101604052809392919081815260200183838082843782019150505050505060008151141515156115c057600080fd5b60011515600360008773ffffffffffffffffffffffffffffffffffffffff1673ffffffffffffffffffffffffffffffffffffffff168152602001908152602001600020858560405180838380828437820191505092505050908152602001604051809103902060009054906101000a900460ff16151514151561164257600080fd5b6000600360008773ffffffffffffffffffffffffffffffffffffffff1673ffffffffffffffffffffffffffffffffffffffff168152602001908152602001600020858560405180838380828437820191505092505050908152602001604051809103902060006101000a81548160ff0219169083151502179055508473ffffffffffffffffffffffffffffffffffffffff167ffef063ea41a1d4d73bca77475bd8fc3c81a1145b2f3afa879a1530bb6a8401e3858560405180838380828437820191505092505050604051809103902060405180826000191660001916815260200191505060405180910390a25050505050565b61173e61196e565b73ffffffffffffffffffffffffffffffffffffffff163373ffffffffffffffffffffffffffffffffffffffff1614151561177757600080fd5b82600073ffffffffffffffffffffffffffffffffffffffff168173ffffffffffffffffffffffffffffffffffffffff16141515156117b457600080fd5b82828080601f01602080910402602001604051908101604052809392919081815260200183838082843782019150505050505060008151141515156117f857600080fd5b60001515600360008773ffffffffffffffffffffffffffffffffffffffff1673ffffffffffffffffffffffffffffffffffffffff168152602001908152602001600020858560405180838380828437820191505092505050908152602001604051809103902060009054906101000a900460ff16151514151561187a57600080fd5b6001600360008773ffffffffffffffffffffffffffffffffffffffff1673ffffffffffffffffffffffffffffffffffffffff168152602001908152602001600020858560405180838380828437820191505092505050908152602001604051809103902060006101000a81548160ff0219169083151502179055508473ffffffffffffffffffffffffffffffffffffffff167fc1b43c9c4075dfc74444e2d220aecef01cd89d63abb613d28f1f727c973f1f50858560405180838380828437820191505092505050604051809103902060405180826000191660001916815260200191505060405180910390a25050505050565b60008060009054906101000a900473ffffffffffffffffffffffffffffffffffffffff16905090565b61199f61196e565b73ffffffffffffffffffffffffffffffffffffffff163373ffffffffffffffffffffffffffffffffffffffff161415156119d857600080fd5b600073ffffffffffffffffffffffffffffffffffffffff16600160009054906101000a900473ffffffffffffffffffffffffffffffffffffffff1673ffffffffffffffffffffffffffffffffffffffff16141515611a3557600080fd5b600073ffffffffffffffffffffffffffffffffffffffff168173ffffffffffffffffffffffffffffffffffffffff1614151515611a7157600080fd5b3073ffffffffffffffffffffffffffffffffffffffff168173ffffffffffffffffffffffffffffffffffffffff1614151515611aac57600080fd5b80600160006101000a81548173ffffffffffffffffffffffffffffffffffffffff021916908373ffffffffffffffffffffffffffffffffffffffff1602179055508073ffffffffffffffffffffffffffffffffffffffff166000809054906101000a900473ffffffffffffffffffffffffffffffffffffffff1673ffffffffffffffffffffffffffffffffffffffff167f0c5d18b25c2665dfeec8ea7956663ec48f079fdd04799ddd335f2fdce1a9fceb60405160405180910390a350565b600081600073ffffffffffffffffffffffffffffffffffffffff168173ffffffffffffffffffffffffffffffffffffffff1614151515611baa57600080fd5b600260008473ffffffffffffffffffffffffffffffffffffffff1673ffffffffffffffffffffffffffffffffffffffff16815260200190815260200160002060009054906101000a900460ff16915050919050565b82600073ffffffffffffffffffffffffffffffffffffffff168173ffffffffffffffffffffffffffffffffffffffff1614151515611c3c57600080fd5b82828080601f01602080910402602001604051908101604052809392919081815260200183838082843782019150505050505060008151111515611c7f57600080fd5b6040805190810160405280600e81526020017f7265766f6b655f6c6963656e736500000000000000000000000000000000000081525060011515611cc33383610ad2565b1515141515611cd157600080fd5b60011515600560008873ffffffffffffffffffffffffffffffffffffffff1673ffffffffffffffffffffffffffffffffffffffff168152602001908152602001600020868660405180838380828437820191505092505050908152602001604051809103902060009054906101000a900460ff161515141515611d5357600080fd5b6000600560008873ffffffffffffffffffffffffffffffffffffffff1673ffffffffffffffffffffffffffffffffffffffff168152602001908152602001600020868660405180838380828437820191505092505050908152602001604051809103902060006101000a81548160ff0219169083151502179055508573ffffffffffffffffffffffffffffffffffffffff167fd853c209c5a583baf5e21b2bcaf5260ee2a787619665cb533941474d3e2659c4868660405180838380828437820191505092505050604051809103902060405180826000191660001916815260200191505060405180910390a2505050505050565b600082600073ffffffffffffffffffffffffffffffffffffffff168173ffffffffffffffffffffffffffffffffffffffff1614151515611e8757600080fd5b8260008151111515611e9857600080fd5b600460008673ffffffffffffffffffffffffffffffffffffffff1673ffffffffffffffffffffffffffffffffffffffff16815260200190815260200160002060009054906101000a900460ff168015611fa35750600560008673ffffffffffffffffffffffffffffffffffffffff1673ffffffffffffffffffffffffffffffffffffffff168152602001908152602001600020846040518082805190602001908083835b602083101515611f615780518252602082019150602081019050602083039250611f3c565b6001836020036101000a038019825116818451168082178552505050505050905001915050908152602001604051809103902060009054906101000a900460ff165b9250505092915050565b80600073ffffffffffffffffffffffffffffffffffffffff168173ffffffffffffffffffffffffffffffffffffffff1614151515611fea57600080fd5b6040805190810160405280600a81526020017f61646d69745f75736572000000000000000000000000000000000000000000008152506001151561202e3383610ad2565b151514151561203c57600080fd5b60001515600460008573ffffffffffffffffffffffffffffffffffffffff1673ffffffffffffffffffffffffffffffffffffffff16815260200190815260200160002060009054906101000a900460ff16151514151561209b57600080fd5b6001600460008573ffffffffffffffffffffffffffffffffffffffff1673ffffffffffffffffffffffffffffffffffffffff16815260200190815260200160002060006101000a81548160ff0219169083151502179055508273ffffffffffffffffffffffffffffffffffffffff167fc60d2bb4f86eca87b59da71777c9c49f14b7e6e0567cdb94cf8ca37c4cfba90360405160405180910390a2505050565b61214361196e565b73ffffffffffffffffffffffffffffffffffffffff163373ffffffffffffffffffffffffffffffffffffffff1614151561217c57600080fd5b80600073ffffffffffffffffffffffffffffffffffffffff168173ffffffffffffffffffffffffffffffffffffffff16141515156121b957600080fd5b60011515600260008473ffffffffffffffffffffffffffffffffffffffff1673ffffffffffffffffffffffffffffffffffffffff16815260200190815260200160002060009054906101000a900460ff16151514151561221857600080fd5b6000600260008473ffffffffffffffffffffffffffffffffffffffff1673ffffffffffffffffffffffffffffffffffffffff16815260200190815260200160002060006101000a81548160ff0219169083151502179055508173ffffffffffffffffffffffffffffffffffffffff167f91975e22df3ba360814d3153e8eaef17954cf47d52a42840fc9747ad1086b35160405160405180910390a25050565b6000600160009054906101000a900473ffffffffffffffffffffffffffffffffffffffff16905090565b60008073ffffffffffffffffffffffffffffffffffffffff16600160009054906101000a900473ffffffffffffffffffffffffffffffffffffffff1673ffffffffffffffffffffffffffffffffffffffff161415151561234057600080fd5b600160009054906101000a900473ffffffffffffffffffffffffffffffffffffffff1673ffffffffffffffffffffffffffffffffffffffff163373ffffffffffffffffffffffffffffffffffffffff1614151561239c57600080fd5b6000809054906101000a900473ffffffffffffffffffffffffffffffffffffffff169050600160009054906101000a900473ffffffffffffffffffffffffffffffffffffffff166000806101000a81548173ffffffffffffffffffffffffffffffffffffffff021916908373ffffffffffffffffffffffffffffffffffffffff1602179055506000600160006101000a81548173ffffffffffffffffffffffffffffffffffffffff021916908373ffffffffffffffffffffffffffffffffffffffff1602179055506000809054906101000a900473ffffffffffffffffffffffffffffffffffffffff1673ffffffffffffffffffffffffffffffffffffffff167f8d2a41ca5ff551a8f68510de75177b7d56e6019c8579b5509d2be1bb41a0d0af60405160405180910390a26000809054906101000a900473ffffffffffffffffffffffffffffffffffffffff1673ffffffffffffffffffffffffffffffffffffffff168173ffffffffffffffffffffffffffffffffffffffff167f3912b3f6ff73ee5d4cd2894666c349dec2d3d2ed7dc6d35c28c5eabf105a88d860405160405180910390a3505600a165627a7a7230582014c4db65bc1c6ddf9483d61ef34645f0d1dfdc26327a9a87062a3e48d0ce03030029",
  "source": "/* Author: Victor Mezrin  victor@mezrin.com */\n\npragma solidity ^0.4.24;\n\n\nimport \"../lifecycle/Ownable/Ownable.sol\";\nimport \"../lifecycle/Manageable/Manageable.sol\";\nimport \"../crydr/license/CrydrLicenseRegistry.sol\";\n\n\n/**\n * @title CrydrLicenseRegistry\n * @dev Contract that stores licenses\n */\ncontract CrydrLicenseRegistryMock is Ownable, Manageable, CrydrLicenseRegistry { }\n",
  "sourcePath": "/home/user/develop/jcontracts/jibrel-contracts/contracts/unittest/CrydrLicenseRegistryMock.sol",
  "compiler": {
    "name": "solc",
    "version": "0.4.24+commit.e67f0147.Emscripten.clang"
  },
  "schemaVersion": "2.0.1",
  "updatedAt": "2018-12-10T21:02:12.446Z"
}