{
  "contractName": "CrydrControllerERC20Stub",
  "abi": [
    {
      "constant": true,
      "inputs": [
        {
          "name": "_owner",
          "type": "address"
        },
        {
          "name": "_spender",
          "type": "address"
        }
      ],
      "name": "getAllowance",
      "outputs": [
        {
          "name": "",
          "type": "uint256"
        }
      ],
      "payable": false,
      "stateMutability": "view",
      "type": "function"
    },
    {
      "constant": false,
      "inputs": [
        {
          "name": "_msgsender",
          "type": "address"
        },
        {
          "name": "_from",
          "type": "address"
        },
        {
          "name": "_to",
          "type": "address"
        },
        {
          "name": "_value",
          "type": "uint256"
        }
      ],
      "name": "transferFrom",
      "outputs": [],
      "payable": false,
      "stateMutability": "nonpayable",
      "type": "function"
    },
    {
      "constant": true,
      "inputs": [],
      "name": "tokenDecimals",
      "outputs": [
        {
          "name": "",
          "type": "uint8"
        }
      ],
      "payable": false,
      "stateMutability": "view",
      "type": "function"
    },
    {
      "constant": true,
      "inputs": [],
      "name": "transferCounter",
      "outputs": [
        {
          "name": "",
          "type": "uint256"
        }
      ],
      "payable": false,
      "stateMutability": "view",
      "type": "function"
    },
    {
      "constant": true,
      "inputs": [],
      "name": "approveCounter",
      "outputs": [
        {
          "name": "",
          "type": "uint256"
        }
      ],
      "payable": false,
      "stateMutability": "view",
      "type": "function"
    },
    {
      "constant": true,
      "inputs": [],
      "name": "getAssetID",
      "outputs": [
        {
          "name": "",
          "type": "string"
        }
      ],
      "payable": false,
      "stateMutability": "view",
      "type": "function"
    },
    {
      "constant": true,
      "inputs": [],
      "name": "tokenName",
      "outputs": [
        {
          "name": "",
          "type": "string"
        }
      ],
      "payable": false,
      "stateMutability": "view",
      "type": "function"
    },
    {
      "constant": true,
      "inputs": [],
      "name": "tokenSymbol",
      "outputs": [
        {
          "name": "",
          "type": "string"
        }
      ],
      "payable": false,
      "stateMutability": "view",
      "type": "function"
    },
    {
      "constant": false,
      "inputs": [
        {
          "name": "_from",
          "type": "address"
        },
        {
          "name": "_to",
          "type": "address"
        },
        {
          "name": "_value",
          "type": "uint256"
        }
      ],
      "name": "emitTransferEvent",
      "outputs": [],
      "payable": false,
      "stateMutability": "nonpayable",
      "type": "function"
    },
    {
      "constant": true,
      "inputs": [],
      "name": "getAssetIDHash",
      "outputs": [
        {
          "name": "",
          "type": "bytes32"
        }
      ],
      "payable": false,
      "stateMutability": "view",
      "type": "function"
    },
    {
      "constant": false,
      "inputs": [
        {
          "name": "_msgsender",
          "type": "address"
        },
        {
          "name": "_to",
          "type": "address"
        },
        {
          "name": "_value",
          "type": "uint256"
        }
      ],
      "name": "transfer",
      "outputs": [],
      "payable": false,
      "stateMutability": "nonpayable",
      "type": "function"
    },
    {
      "constant": true,
      "inputs": [],
      "name": "transferFromCounter",
      "outputs": [
        {
          "name": "",
          "type": "uint256"
        }
      ],
      "payable": false,
      "stateMutability": "view",
      "type": "function"
    },
    {
      "constant": true,
      "inputs": [],
      "name": "getTotalSupply",
      "outputs": [
        {
          "name": "",
          "type": "uint256"
        }
      ],
      "payable": false,
      "stateMutability": "view",
      "type": "function"
    },
    {
      "constant": false,
      "inputs": [
        {
          "name": "_msgsender",
          "type": "address"
        },
        {
          "name": "_spender",
          "type": "address"
        },
        {
          "name": "_value",
          "type": "uint256"
        }
      ],
      "name": "approve",
      "outputs": [],
      "payable": false,
      "stateMutability": "nonpayable",
      "type": "function"
    },
    {
      "constant": false,
      "inputs": [
        {
          "name": "_owner",
          "type": "address"
        },
        {
          "name": "_spender",
          "type": "address"
        },
        {
          "name": "_value",
          "type": "uint256"
        }
      ],
      "name": "emitApprovalEvent",
      "outputs": [],
      "payable": false,
      "stateMutability": "nonpayable",
      "type": "function"
    },
    {
      "constant": true,
      "inputs": [
        {
          "name": "_owner",
          "type": "address"
        }
      ],
      "name": "getBalance",
      "outputs": [
        {
          "name": "",
          "type": "uint256"
        }
      ],
      "payable": false,
      "stateMutability": "view",
      "type": "function"
    },
    {
      "inputs": [
        {
          "name": "_assetID",
          "type": "string"
        },
        {
          "name": "_crydrView",
          "type": "address"
        }
      ],
      "payable": false,
      "stateMutability": "nonpayable",
      "type": "constructor"
    }
  ],
  "bytecode": "0x606060405260408051908101604052600981527f746f6b656e4e616d6500000000000000000000000000000000000000000000006020820152600190805161004b929160200190610128565b5060408051908101604052600b81527f746f6b656e53796d626f6c00000000000000000000000000000000000000000060208201526002908051610093929160200190610128565b506003805460ff1916601217905560006004819055600581905560065534156100bb57600080fd5b6040516108b03803806108b083398101604052808051820191906020018051915082905060008151116100ed57600080fd5b6000818051610100929160200190610128565b505060078054600160a060020a031916600160a060020a0392909216919091179055506101c3565b828054600181600116156101000203166002900490600052602060002090601f016020900481019282601f1061016957805160ff1916838001178555610196565b82800160010185558215610196579182015b8281111561019657825182559160200191906001019061017b565b506101a29291506101a6565b5090565b6101c091905b808211156101a257600081556001016101ac565b90565b6106de806101d26000396000f3006060604052600436106100cc5763ffffffff60e060020a6000350416630af4187d81146100d157806315dacbea146101085780633b97e856146101385780633cf8ddf2146101615780634b914f1014610174578063696b5fb7146101875780636c02a931146102115780637b61c32014610224578063a6d49dca14610237578063a773d98a1461025f578063beabacc814610272578063c0b7b1a71461029a578063c4e41b22146102ad578063e1f21c67146102c0578063f23b6fa2146102e8578063f8b2cb4f14610310575b600080fd5b34156100dc57600080fd5b6100f6600160a060020a036004358116906024351661032f565b60405190815260200160405180910390f35b341561011357600080fd5b610136600160a060020a036004358116906024358116906044351660643561033f565b005b341561014357600080fd5b61014b61034e565b60405160ff909116815260200160405180910390f35b341561016c57600080fd5b6100f6610357565b341561017f57600080fd5b6100f661035d565b341561019257600080fd5b61019a610363565b60405160208082528190810183818151815260200191508051906020019080838360005b838110156101d65780820151838201526020016101be565b50505050905090810190601f1680156102035780820380516001836020036101000a031916815260200191505b509250505060405180910390f35b341561021c57600080fd5b61019a61040b565b341561022f57600080fd5b61019a6104a9565b341561024257600080fd5b610136600160a060020a0360043581169060243516604435610514565b341561026a57600080fd5b6100f6610590565b341561027d57600080fd5b610136600160a060020a0360043581169060243516604435610600565b34156102a557600080fd5b6100f661060e565b34156102b857600080fd5b6100f6610614565b34156102cb57600080fd5b610136600160a060020a0360043581169060243516604435610621565b34156102f357600080fd5b610136600160a060020a036004358116906024351660443561062f565b341561031b57600080fd5b6100f6600160a060020a0360043516610692565b6801158e460913d0000092915050565b50506006805460010190555050565b60035460ff1681565b60045481565b60055481565b61036b6106a0565b60008054600181600116156101000203166002900480601f0160208091040260200160405190810160405280929190818152602001828054600181600116156101000203166002900480156104015780601f106103d657610100808354040283529160200191610401565b820191906000526020600020905b8154815290600101906020018083116103e457829003601f168201915b5050505050905090565b60018054600181600116156101000203166002900480601f0160208091040260200160405190810160405280929190818152602001828054600181600116156101000203166002900480156104a15780601f10610476576101008083540402835291602001916104a1565b820191906000526020600020905b81548152906001019060200180831161048457829003601f168201915b505050505081565b60028054600181600116156101000203166002900480601f0160208091040260200160405190810160405280929190818152602001828054600181600116156101000203166002900480156104a15780601f10610476576101008083540402835291602001916104a1565b600754600160a060020a031663a6d49dca84848460405160e060020a63ffffffff8616028152600160a060020a0393841660048201529190921660248201526044810191909152606401600060405180830381600087803b151561057757600080fd5b6102c65a03f1151561058857600080fd5b505050505050565b60008060405180828054600181600116156101000203166002900480156105ee5780601f106105cc5761010080835404028352918201916105ee565b820191906000526020600020905b8154815290600101906020018083116105da575b50509150506040518091039020905090565b505060048054600101905550565b60065481565b680340aad21b3b70000090565b505060058054600101905550565b600754600160a060020a031663f23b6fa284848460405160e060020a63ffffffff8616028152600160a060020a0393841660048201529190921660248201526044810191909152606401600060405180830381600087803b151561057757600080fd5b5068022b1c8c1227a0000090565b602060405190810160405260008152905600a165627a7a72305820d38dd2ee21af5724dddb05d53c8dd70cb5d3ce8698a785e25d40dc388785b2ba0029",
  "source": "/* Author: Aleksey Selikhov  aleksey.selikhov@gmail.com */\n\npragma solidity ^0.4.18;\n\n\nimport '../feature/assetid/AssetID.sol';\nimport '../../contracts/crydr/controller/CrydrControllerERC20Interface.sol';\nimport '../../contracts/crydr/view/CrydrViewERC20LoggableInterface.sol';\n\n\n/**\n * @title CrydrControllerERC20Stub\n * @dev This contract used only to test contracts\n */\ncontract CrydrControllerERC20Stub is AssetID,\n                                     CrydrControllerERC20Interface,\n                                     CrydrViewERC20LoggableInterface {\n\n  /* Storage */\n\n  string public tokenName = 'tokenName';\n  string public tokenSymbol = 'tokenSymbol';\n  uint8 public tokenDecimals = 18;\n\n  uint256 public transferCounter = 0;\n  uint256 public approveCounter = 0;\n  uint256 public transferFromCounter = 0;\n\n  address crydrView;\n\n\n  /* Constructor */\n\n  function CrydrControllerERC20Stub(string _assetID, address _crydrView) public AssetID(_assetID) {\n    crydrView = _crydrView;\n  }\n\n\n  /* CrydrControllerERC20Interface */\n\n  function transfer(address _msgsender, address _to, uint256 _value) public\n  {\n    require(_msgsender == _msgsender); // always true, to avoid annoying compilation warnings\n    require(_to == _to); // always true, to avoid annoying compilation warnings\n    require(_value == _value); // always true, to avoid annoying compilation warnings\n\n    transferCounter += 1;\n  }\n\n  function getTotalSupply() public constant returns (uint256)\n  {\n    return 60 * (10 ** 18);\n  }\n\n  function getBalance(address _owner) public constant returns (uint256)\n  {\n    require(_owner == _owner); // always true, to avoid annoying compilation warnings\n\n    return 40 * (10 ** 18);\n  }\n\n  function approve(address _msgsender, address _spender, uint256 _value) public\n  {\n    require(_msgsender == _msgsender); // always true, to avoid annoying compilation warnings\n    require(_spender == _spender); // always true, to avoid annoying compilation warnings\n    require(_value == _value); // always true, to avoid annoying compilation warnings\n\n    approveCounter += 1;\n  }\n\n  function transferFrom(address _msgsender, address _from, address _to, uint256 _value) public\n  {\n    require(_msgsender == _msgsender); // always true, to avoid annoying compilation warnings\n    require(_from == _from); // always true, to avoid annoying compilation warnings\n    require(_to == _to); // always true, to avoid annoying compilation warnings\n    require(_value == _value); // always true, to avoid annoying compilation warnings\n\n    transferFromCounter += 1;\n  }\n\n  function getAllowance(address _owner, address _spender) public constant returns (uint256)\n  {\n    require(_owner == _owner); // always true, to avoid annoying compilation warnings\n    require(_spender == _spender); // always true, to avoid annoying compilation warnings\n\n    return 20 * (10 ** 18);\n  }\n\n\n  /* CrydrViewERC20LoggableInterface */\n\n  function emitTransferEvent(address _from, address _to, uint256 _value) external\n  {\n    CrydrViewERC20LoggableInterface(crydrView).emitTransferEvent(_from, _to, _value);\n  }\n\n  function emitApprovalEvent(address _owner, address _spender, uint256 _value) external\n  {\n    CrydrViewERC20LoggableInterface(crydrView).emitApprovalEvent(_owner, _spender, _value);\n  }\n}\n",
  "sourcePath": "/home/user/dev/project/jibrel/jibrel-contracts_ropsten/contracts/unittest/CrydrControllerERC20Stub.sol",
  "compiler": {
    "name": "solc",
    "version": "0.4.18+commit.9cf6e910.Emscripten.clang"
  },
  "schemaVersion": "1.0.1",
  "updatedAt": "2017-12-15T09:35:42.151Z"
}