{
  "contractName": "CrydrViewBaseMock",
  "abi": [
    {
      "constant": true,
      "inputs": [
        {
          "name": "_manager",
          "type": "address"
        },
        {
          "name": "_permissionName",
          "type": "string"
        }
      ],
      "name": "isManagerAllowed",
      "outputs": [
        {
          "name": "",
          "type": "bool"
        }
      ],
      "payable": false,
      "stateMutability": "view",
      "type": "function"
    },
    {
      "constant": false,
      "inputs": [],
      "name": "cancelOwnershipOffer",
      "outputs": [],
      "payable": false,
      "stateMutability": "nonpayable",
      "type": "function"
    },
    {
      "constant": true,
      "inputs": [],
      "name": "getCrydrViewStandardNameHash",
      "outputs": [
        {
          "name": "",
          "type": "bytes32"
        }
      ],
      "payable": false,
      "stateMutability": "view",
      "type": "function"
    },
    {
      "constant": false,
      "inputs": [
        {
          "name": "_crydrController",
          "type": "address"
        }
      ],
      "name": "setCrydrController",
      "outputs": [],
      "payable": false,
      "stateMutability": "nonpayable",
      "type": "function"
    },
    {
      "constant": true,
      "inputs": [
        {
          "name": "_manager",
          "type": "address"
        },
        {
          "name": "_permissionName",
          "type": "string"
        }
      ],
      "name": "isPermissionGranted",
      "outputs": [
        {
          "name": "",
          "type": "bool"
        }
      ],
      "payable": false,
      "stateMutability": "view",
      "type": "function"
    },
    {
      "constant": false,
      "inputs": [],
      "name": "pauseContract",
      "outputs": [],
      "payable": false,
      "stateMutability": "nonpayable",
      "type": "function"
    },
    {
      "constant": false,
      "inputs": [
        {
          "name": "_manager",
          "type": "address"
        }
      ],
      "name": "enableManager",
      "outputs": [],
      "payable": false,
      "stateMutability": "nonpayable",
      "type": "function"
    },
    {
      "constant": true,
      "inputs": [],
      "name": "getPaused",
      "outputs": [
        {
          "name": "",
          "type": "bool"
        }
      ],
      "payable": false,
      "stateMutability": "view",
      "type": "function"
    },
    {
      "constant": true,
      "inputs": [],
      "name": "getAssetID",
      "outputs": [
        {
          "name": "",
          "type": "string"
        }
      ],
      "payable": false,
      "stateMutability": "view",
      "type": "function"
    },
    {
      "constant": false,
      "inputs": [
        {
          "name": "_manager",
          "type": "address"
        },
        {
          "name": "_permissionName",
          "type": "string"
        }
      ],
      "name": "revokeManagerPermission",
      "outputs": [],
      "payable": false,
      "stateMutability": "nonpayable",
      "type": "function"
    },
    {
      "constant": true,
      "inputs": [],
      "name": "getCrydrViewStandardName",
      "outputs": [
        {
          "name": "",
          "type": "string"
        }
      ],
      "payable": false,
      "stateMutability": "view",
      "type": "function"
    },
    {
      "constant": false,
      "inputs": [
        {
          "name": "_manager",
          "type": "address"
        },
        {
          "name": "_permissionName",
          "type": "string"
        }
      ],
      "name": "grantManagerPermission",
      "outputs": [],
      "payable": false,
      "stateMutability": "nonpayable",
      "type": "function"
    },
    {
      "constant": true,
      "inputs": [],
      "name": "getOwner",
      "outputs": [
        {
          "name": "",
          "type": "address"
        }
      ],
      "payable": false,
      "stateMutability": "view",
      "type": "function"
    },
    {
      "constant": false,
      "inputs": [
        {
          "name": "_proposedOwner",
          "type": "address"
        }
      ],
      "name": "createOwnershipOffer",
      "outputs": [],
      "payable": false,
      "stateMutability": "nonpayable",
      "type": "function"
    },
    {
      "constant": true,
      "inputs": [
        {
          "name": "_manager",
          "type": "address"
        }
      ],
      "name": "isManagerEnabled",
      "outputs": [
        {
          "name": "",
          "type": "bool"
        }
      ],
      "payable": false,
      "stateMutability": "view",
      "type": "function"
    },
    {
      "constant": true,
      "inputs": [],
      "name": "getAssetIDHash",
      "outputs": [
        {
          "name": "",
          "type": "bytes32"
        }
      ],
      "payable": false,
      "stateMutability": "view",
      "type": "function"
    },
    {
      "constant": false,
      "inputs": [],
      "name": "unpauseContract",
      "outputs": [],
      "payable": false,
      "stateMutability": "nonpayable",
      "type": "function"
    },
    {
      "constant": true,
      "inputs": [],
      "name": "getCrydrController",
      "outputs": [
        {
          "name": "",
          "type": "address"
        }
      ],
      "payable": false,
      "stateMutability": "view",
      "type": "function"
    },
    {
      "constant": false,
      "inputs": [
        {
          "name": "_manager",
          "type": "address"
        }
      ],
      "name": "disableManager",
      "outputs": [],
      "payable": false,
      "stateMutability": "nonpayable",
      "type": "function"
    },
    {
      "constant": true,
      "inputs": [],
      "name": "getProposedOwner",
      "outputs": [
        {
          "name": "",
          "type": "address"
        }
      ],
      "payable": false,
      "stateMutability": "view",
      "type": "function"
    },
    {
      "constant": false,
      "inputs": [],
      "name": "acceptOwnershipOffer",
      "outputs": [],
      "payable": false,
      "stateMutability": "nonpayable",
      "type": "function"
    },
    {
      "inputs": [
        {
          "name": "_assetID",
          "type": "string"
        },
        {
          "name": "_crydrViewStandardName",
          "type": "string"
        }
      ],
      "payable": false,
      "stateMutability": "nonpayable",
      "type": "constructor"
    },
    {
      "anonymous": false,
      "inputs": [
        {
          "indexed": true,
          "name": "crydrcontroller",
          "type": "address"
        }
      ],
      "name": "CrydrControllerChangedEvent",
      "type": "event"
    },
    {
      "anonymous": false,
      "inputs": [],
      "name": "PauseEvent",
      "type": "event"
    },
    {
      "anonymous": false,
      "inputs": [],
      "name": "UnpauseEvent",
      "type": "event"
    },
    {
      "anonymous": false,
      "inputs": [
        {
          "indexed": true,
          "name": "manager",
          "type": "address"
        }
      ],
      "name": "ManagerEnabledEvent",
      "type": "event"
    },
    {
      "anonymous": false,
      "inputs": [
        {
          "indexed": true,
          "name": "manager",
          "type": "address"
        }
      ],
      "name": "ManagerDisabledEvent",
      "type": "event"
    },
    {
      "anonymous": false,
      "inputs": [
        {
          "indexed": true,
          "name": "manager",
          "type": "address"
        },
        {
          "indexed": false,
          "name": "permission",
          "type": "string"
        }
      ],
      "name": "ManagerPermissionGrantedEvent",
      "type": "event"
    },
    {
      "anonymous": false,
      "inputs": [
        {
          "indexed": true,
          "name": "manager",
          "type": "address"
        },
        {
          "indexed": false,
          "name": "permission",
          "type": "string"
        }
      ],
      "name": "ManagerPermissionRevokedEvent",
      "type": "event"
    },
    {
      "anonymous": false,
      "inputs": [
        {
          "indexed": true,
          "name": "newowner",
          "type": "address"
        }
      ],
      "name": "OwnerAssignedEvent",
      "type": "event"
    },
    {
      "anonymous": false,
      "inputs": [
        {
          "indexed": true,
          "name": "currentowner",
          "type": "address"
        },
        {
          "indexed": true,
          "name": "proposedowner",
          "type": "address"
        }
      ],
      "name": "OwnershipOfferCreatedEvent",
      "type": "event"
    },
    {
      "anonymous": false,
      "inputs": [
        {
          "indexed": true,
          "name": "currentowner",
          "type": "address"
        },
        {
          "indexed": true,
          "name": "proposedowner",
          "type": "address"
        }
      ],
      "name": "OwnershipOfferAcceptedEvent",
      "type": "event"
    },
    {
      "anonymous": false,
      "inputs": [
        {
          "indexed": true,
          "name": "currentowner",
          "type": "address"
        },
        {
          "indexed": true,
          "name": "proposedowner",
          "type": "address"
        }
      ],
      "name": "OwnershipOfferCancelledEvent",
      "type": "event"
    }
  ],
  "bytecode": "0x6060604090815260018054600160a060020a031990811682556002805490911690556005805460ff191690911761010060a860020a0319169055602090519081016040526000815260069080516200005c92916020019062000134565b5034156200006957600080fd5b604051620013ee380380620013ee83398101604052808051820191906020018051909101905080826000815111620000a057600080fd5b6000818051620000b592916020019062000134565b505060018054600160a060020a03191633600160a060020a039081169190911791829055167f8d2a41ca5ff551a8f68510de75177b7d56e6019c8579b5509d2be1bb41a0d0af60405160405180910390a260008151116200011557600080fd5b60068180516200012a92916020019062000134565b50505050620001d9565b828054600181600116156101000203166002900490600052602060002090601f016020900481019282601f106200017757805160ff1916838001178555620001a7565b82800160010185558215620001a7579182015b82811115620001a75782518255916020019190600101906200018a565b50620001b5929150620001b9565b5090565b620001d691905b80821115620001b55760008155600101620001c0565b90565b61120580620001e96000396000f30060606040526004361061011c5763ffffffff7c01000000000000000000000000000000000000000000000000000000006000350416630392d2b481146101215780631eb96a5c14610194578063230f6e83146101a9578063305f17d5146101ce57806332a2fda7146101ed578063439766ce1461024c5780635ca5b3341461025f5780636805b84b1461027e578063696b5fb7146102915780637c0efb8b1461031b5780637c6fb02a14610346578063822b08d014610359578063893d20e8146103845780639739db9d146103b35780639b53d87c146103d2578063a773d98a146103f1578063b33712c514610404578063ca9c286214610417578063d4859dc51461042a578063eae5a62d14610449578063f53853451461045c575b600080fd5b341561012c57600080fd5b61018060048035600160a060020a03169060446024803590810190830135806020601f8201819004810201604051908101604052818152929190602084018383808284375094965061046f95505050505050565b604051901515815260200160405180910390f35b341561019f57600080fd5b6101a7610544565b005b34156101b457600080fd5b6101bc6105f5565b60405190815260200160405180910390f35b34156101d957600080fd5b6101a7600160a060020a0360043516610666565b34156101f857600080fd5b61018060048035600160a060020a03169060446024803590810190830135806020601f8201819004810201604051908101604052818152929190602084018383808284375094965061076495505050505050565b341561025757600080fd5b6101a76107d3565b341561026a57600080fd5b6101a7600160a060020a036004351661086d565b341561028957600080fd5b610180610924565b341561029c57600080fd5b6102a461092d565b60405160208082528190810183818151815260200191508051906020019080838360005b838110156102e05780820151838201526020016102c8565b50505050905090810190601f16801561030d5780820380516001836020036101000a031916815260200191505b509250505060405180910390f35b341561032657600080fd5b6101a760048035600160a060020a031690602480359081019101356109d5565b341561035157600080fd5b6102a4610b4b565b341561036457600080fd5b6101a760048035600160a060020a03169060248035908101910135610bbe565b341561038f57600080fd5b610397610d33565b604051600160a060020a03909116815260200160405180910390f35b34156103be57600080fd5b6101a7600160a060020a0360043516610d42565b34156103dd57600080fd5b610180600160a060020a0360043516610e16565b34156103fc57600080fd5b6101bc610e4e565b341561040f57600080fd5b6101a7610e8a565b341561042257600080fd5b610397610f4f565b341561043557600080fd5b6101a7600160a060020a0360043516610f63565b341561045457600080fd5b61039761101b565b341561046757600080fd5b6101a761102a565b600082600160a060020a038116151561048757600080fd5b828051151561049557600080fd5b600160a060020a03851660009081526003602052604090205460ff16801561053b5750600160a060020a03851660009081526004602052604090819020908590518082805190602001908083835b602083106105025780518252601f1990920191602091820191016104e3565b6001836020036101000a0380198251168184511680821785525050505050509050019150509081526020016040519081900390205460ff165b95945050505050565b600254600090600160a060020a0316151561055e57600080fd5b60015433600160a060020a0390811691161480610589575060025433600160a060020a039081169116145b151561059457600080fd5b506002805473ffffffffffffffffffffffffffffffffffffffff198116909155600154600160a060020a03918216918291167f223225995c0c0965e8752fd93ca10aba4bafcbca26f31b1565955adb68e76bda60405160405180910390a350565b6000600660405180828054600181600116156101000203166002900480156106545780601f10610632576101008083540402835291820191610654565b820191906000526020600020905b815481529060010190602001808311610640575b50509150506040518091039020905090565b806106708161110a565b151560011461067e57600080fd5b60408051908101604052601481527f7365745f63727964725f636f6e74726f6c6c657200000000000000000000000060208201526106bc338261046f565b15156001146106ca57600080fd5b6106d2610924565b15156001146106e057600080fd5b600554600160a060020a0384811661010090920416141561070057600080fd5b6005805474ffffffffffffffffffffffffffffffffffffffff001916610100600160a060020a038616908102919091179091557f95e43e6707a0436b5cc3af93d12042ce56df5ec4fe857d77836fe6316dc8457060405160405180910390a2505050565b600082600160a060020a038116151561077c57600080fd5b828051151561078a57600080fd5b600160a060020a0385166000908152600460205260409081902090859051808280519060200190808383602083106105025780518252601f1990920191602091820191016104e3565b60408051908101604052600e81527f70617573655f636f6e74726163740000000000000000000000000000000000006020820152610811338261046f565b151560011461081f57600080fd5b610827610924565b1561083157600080fd5b6005805460ff191660011790557f14cc32b2b0edca88201ca20553c392d108a2feb2c750a0ee14c707b4f34fbee260405160405180910390a150565b610875610d33565b600160a060020a031633600160a060020a031614151561089457600080fd5b80600160a060020a03811615156108aa57600080fd5b600160a060020a03821660009081526003602052604090205460ff16156108d057600080fd5b600160a060020a03821660008181526003602052604090819020805460ff191660011790557f7f0b61f78ab0b549b68ce61404f4ee01a26ffdf8d421d099d271d789aaea3a8e905160405180910390a25050565b60055460ff1690565b6109356111c7565b60008054600181600116156101000203166002900480601f0160208091040260200160405190810160405280929190818152602001828054600181600116156101000203166002900480156109cb5780601f106109a0576101008083540402835291602001916109cb565b820191906000526020600020905b8154815290600101906020018083116109ae57829003601f168201915b5050505050905090565b6109dd610d33565b600160a060020a031633600160a060020a03161415156109fc57600080fd5b82600160a060020a0381161515610a1257600080fd5b82828080601f01602080910402602001604051908101604052818152929190602084018383808284375085945050505050511515610a4f57600080fd5b600160a060020a03851660009081526004602052604090819020908590859051808383808284378201915050925050509081526020016040519081900390205460ff161515600114610aa057600080fd5b600160a060020a03851660009081526004602052604080822090869086905180838380828437820191505092505050908152602001604051908190039020805460ff1916911515919091179055600160a060020a0385167fe2b13fa06e3428fe0e43b2e517d25708ba477cafdff4fbcd06e3e93864517ddc85856040516020808252810182905280604081018484808284378201915050935050505060405180910390a25050505050565b610b536111c7565b60068054600181600116156101000203166002900480601f0160208091040260200160405190810160405280929190818152602001828054600181600116156101000203166002900480156109cb5780601f106109a0576101008083540402835291602001916109cb565b610bc6610d33565b600160a060020a031633600160a060020a0316141515610be557600080fd5b82600160a060020a0381161515610bfb57600080fd5b82828080601f01602080910402602001604051908101604052818152929190602084018383808284375085945050505050511515610c3857600080fd5b600160a060020a03851660009081526004602052604090819020908590859051808383808284378201915050925050509081526020016040519081900390205460ff1615610c8557600080fd5b600160a060020a03851660009081526004602052604090819020600191869086905180838380828437820191505092505050908152602001604051908190039020805460ff1916911515919091179055600160a060020a0385167fb76b4ee2621e0744da93fa797bdc4851a3b9e303b2950f2f234a449e5f36d35e85856040516020808252810182905280604081018484808284378201915050935050505060405180910390a25050505050565b600154600160a060020a031690565b610d4a610d33565b600160a060020a031633600160a060020a0316141515610d6957600080fd5b600254600160a060020a031615610d7f57600080fd5b600160a060020a0381161515610d9457600080fd5b30600160a060020a031681600160a060020a031614151515610db557600080fd5b6002805473ffffffffffffffffffffffffffffffffffffffff1916600160a060020a038381169182179092556001549091167f0c5d18b25c2665dfeec8ea7956663ec48f079fdd04799ddd335f2fdce1a9fceb60405160405180910390a350565b600081600160a060020a0381161515610e2e57600080fd5b5050600160a060020a031660009081526003602052604090205460ff1690565b60008060405180828054600181600116156101000203166002900480156106545780601f10610632576101008083540402835291820191610654565b600554610ea4906101009004600160a060020a031661110a565b1515600114610eb257600080fd5b6005546101009004600160a060020a031663a773d98a6000604051602001526040518163ffffffff167c0100000000000000000000000000000000000000000000000000000000028152600401602060405180830381600087803b1515610f1857600080fd5b6102c65a03f11515610f2957600080fd5b50505060405180519050610f3b610e4e565b14610f4557600080fd5b610f4d61112c565b565b6005546101009004600160a060020a031690565b610f6b610d33565b600160a060020a031633600160a060020a0316141515610f8a57600080fd5b80600160a060020a0381161515610fa057600080fd5b600160a060020a03821660009081526003602052604090205460ff161515600114610fca57600080fd5b600160a060020a03821660008181526003602052604090819020805460ff191690557f91975e22df3ba360814d3153e8eaef17954cf47d52a42840fc9747ad1086b351905160405180910390a25050565b600254600160a060020a031690565b600254600090600160a060020a0316151561104457600080fd5b60025433600160a060020a0390811691161461105f57600080fd5b50600180546002805473ffffffffffffffffffffffffffffffffffffffff19808416600160a060020a038381169190911795869055911690915590811691167f8d2a41ca5ff551a8f68510de75177b7d56e6019c8579b5509d2be1bb41a0d0af60405160405180910390a2600154600160a060020a039081169082167f3912b3f6ff73ee5d4cd2894666c349dec2d3d2ed7dc6d35c28c5eabf105a88d860405160405180910390a350565b600080600160a060020a038316151561112257600080fd5b50506000903b1190565b60408051908101604052601081527f756e70617573655f636f6e747261637400000000000000000000000000000000602082015261116a338261046f565b151560011461117857600080fd5b611180610924565b151560011461118e57600080fd5b6005805460ff191690557f6249a5c797c884cbf33e63e8cfc250816032db24e22051de68a388315e64afc660405160405180910390a150565b602060405190810160405260008152905600a165627a7a723058202e48e05b7ab4a7f5a95c240e53c02d84ef1590106a937ad92e04b3bc3de319490029",
  "source": "/* Author: Victor Mezrin  victor@mezrin.com */\n\npragma solidity ^0.4.18;\n\n\nimport '../util/CommonModifiers.sol';\nimport '../feature/assetid/AssetID.sol';\nimport '../lifecycle/Ownable.sol';\nimport '../lifecycle/Manageable.sol';\nimport '../lifecycle/Pausable.sol';\nimport '../crydr/view/CrydrViewBase.sol';\n\n\ncontract CrydrViewBaseMock is CommonModifiers,\n                              AssetID,\n                              Ownable,\n                              Manageable,\n                              Pausable,\n                              CrydrViewBase {\n\n  function CrydrViewBaseMock(string _assetID, string _crydrViewStandardName)\n    public\n    AssetID(_assetID)\n    CrydrViewBase(_crydrViewStandardName)\n  { }\n}\n",
  "sourcePath": "/home/user/dev/project/jibrel/jibrel-contracts_ropsten/contracts/unittest/CrydrViewBaseMock.sol",
  "compiler": {
    "name": "solc",
    "version": "0.4.18+commit.9cf6e910.Emscripten.clang"
  },
  "schemaVersion": "1.0.1",
  "updatedAt": "2017-12-15T04:55:52.643Z"
}