{
  "contractName": "CrydrStorageERC20Proxy",
  "abi": [
    {
      "constant": true,
      "inputs": [
        {
          "name": "_owner",
          "type": "address"
        },
        {
          "name": "_spender",
          "type": "address"
        }
      ],
      "name": "getAllowance",
      "outputs": [
        {
          "name": "",
          "type": "uint256"
        }
      ],
      "payable": false,
      "stateMutability": "view",
      "type": "function"
    },
    {
      "constant": false,
      "inputs": [
        {
          "name": "_msgsender",
          "type": "address"
        },
        {
          "name": "_from",
          "type": "address"
        },
        {
          "name": "_to",
          "type": "address"
        },
        {
          "name": "_value",
          "type": "uint256"
        }
      ],
      "name": "transferFrom",
      "outputs": [],
      "payable": false,
      "stateMutability": "nonpayable",
      "type": "function"
    },
    {
      "constant": false,
      "inputs": [
        {
          "name": "_newController",
          "type": "address"
        }
      ],
      "name": "setCrydrController",
      "outputs": [],
      "payable": false,
      "stateMutability": "nonpayable",
      "type": "function"
    },
    {
      "constant": false,
      "inputs": [
        {
          "name": "_account",
          "type": "address"
        }
      ],
      "name": "unblockAccount",
      "outputs": [],
      "payable": false,
      "stateMutability": "nonpayable",
      "type": "function"
    },
    {
      "constant": false,
      "inputs": [
        {
          "name": "_account",
          "type": "address"
        },
        {
          "name": "_value",
          "type": "uint256"
        }
      ],
      "name": "increaseBalance",
      "outputs": [],
      "payable": false,
      "stateMutability": "nonpayable",
      "type": "function"
    },
    {
      "constant": true,
      "inputs": [],
      "name": "getAssetID",
      "outputs": [
        {
          "name": "",
          "type": "string"
        }
      ],
      "payable": false,
      "stateMutability": "view",
      "type": "function"
    },
    {
      "constant": false,
      "inputs": [
        {
          "name": "_owner",
          "type": "address"
        },
        {
          "name": "_spender",
          "type": "address"
        },
        {
          "name": "_value",
          "type": "uint256"
        }
      ],
      "name": "increaseAllowance",
      "outputs": [],
      "payable": false,
      "stateMutability": "nonpayable",
      "type": "function"
    },
    {
      "constant": false,
      "inputs": [
        {
          "name": "_account",
          "type": "address"
        }
      ],
      "name": "blockAccount",
      "outputs": [],
      "payable": false,
      "stateMutability": "nonpayable",
      "type": "function"
    },
    {
      "constant": false,
      "inputs": [
        {
          "name": "_account",
          "type": "address"
        },
        {
          "name": "_value",
          "type": "uint256"
        }
      ],
      "name": "unblockAccountFunds",
      "outputs": [],
      "payable": false,
      "stateMutability": "nonpayable",
      "type": "function"
    },
    {
      "constant": true,
      "inputs": [
        {
          "name": "_account",
          "type": "address"
        }
      ],
      "name": "getAccountBlocks",
      "outputs": [
        {
          "name": "",
          "type": "uint256"
        }
      ],
      "payable": false,
      "stateMutability": "view",
      "type": "function"
    },
    {
      "constant": true,
      "inputs": [],
      "name": "getAssetIDHash",
      "outputs": [
        {
          "name": "",
          "type": "bytes32"
        }
      ],
      "payable": false,
      "stateMutability": "view",
      "type": "function"
    },
    {
      "constant": true,
      "inputs": [
        {
          "name": "_account",
          "type": "address"
        }
      ],
      "name": "getAccountBlockedFunds",
      "outputs": [
        {
          "name": "",
          "type": "uint256"
        }
      ],
      "payable": false,
      "stateMutability": "view",
      "type": "function"
    },
    {
      "constant": false,
      "inputs": [
        {
          "name": "_msgsender",
          "type": "address"
        },
        {
          "name": "_to",
          "type": "address"
        },
        {
          "name": "_value",
          "type": "uint256"
        }
      ],
      "name": "transfer",
      "outputs": [],
      "payable": false,
      "stateMutability": "nonpayable",
      "type": "function"
    },
    {
      "constant": true,
      "inputs": [],
      "name": "getTotalSupply",
      "outputs": [
        {
          "name": "",
          "type": "uint256"
        }
      ],
      "payable": false,
      "stateMutability": "view",
      "type": "function"
    },
    {
      "constant": false,
      "inputs": [
        {
          "name": "_account",
          "type": "address"
        },
        {
          "name": "_value",
          "type": "uint256"
        }
      ],
      "name": "blockAccountFunds",
      "outputs": [],
      "payable": false,
      "stateMutability": "nonpayable",
      "type": "function"
    },
    {
      "constant": true,
      "inputs": [],
      "name": "getCrydrController",
      "outputs": [
        {
          "name": "",
          "type": "address"
        }
      ],
      "payable": false,
      "stateMutability": "view",
      "type": "function"
    },
    {
      "constant": false,
      "inputs": [
        {
          "name": "_owner",
          "type": "address"
        },
        {
          "name": "_spender",
          "type": "address"
        },
        {
          "name": "_value",
          "type": "uint256"
        }
      ],
      "name": "decreaseAllowance",
      "outputs": [],
      "payable": false,
      "stateMutability": "nonpayable",
      "type": "function"
    },
    {
      "constant": false,
      "inputs": [
        {
          "name": "_msgsender",
          "type": "address"
        },
        {
          "name": "_spender",
          "type": "address"
        },
        {
          "name": "_value",
          "type": "uint256"
        }
      ],
      "name": "approve",
      "outputs": [],
      "payable": false,
      "stateMutability": "nonpayable",
      "type": "function"
    },
    {
      "constant": true,
      "inputs": [
        {
          "name": "_account",
          "type": "address"
        }
      ],
      "name": "getBalance",
      "outputs": [
        {
          "name": "",
          "type": "uint256"
        }
      ],
      "payable": false,
      "stateMutability": "view",
      "type": "function"
    },
    {
      "constant": false,
      "inputs": [
        {
          "name": "_account",
          "type": "address"
        },
        {
          "name": "_value",
          "type": "uint256"
        }
      ],
      "name": "decreaseBalance",
      "outputs": [],
      "payable": false,
      "stateMutability": "nonpayable",
      "type": "function"
    },
    {
      "inputs": [
        {
          "name": "_assetID",
          "type": "string"
        },
        {
          "name": "_crydrStorage",
          "type": "address"
        }
      ],
      "payable": false,
      "stateMutability": "nonpayable",
      "type": "constructor"
    },
    {
      "anonymous": false,
      "inputs": [
        {
          "indexed": true,
          "name": "from",
          "type": "address"
        },
        {
          "indexed": true,
          "name": "to",
          "type": "address"
        },
        {
          "indexed": false,
          "name": "value",
          "type": "uint256"
        }
      ],
      "name": "CrydrTransferredEvent",
      "type": "event"
    },
    {
      "anonymous": false,
      "inputs": [
        {
          "indexed": true,
          "name": "spender",
          "type": "address"
        },
        {
          "indexed": true,
          "name": "from",
          "type": "address"
        },
        {
          "indexed": true,
          "name": "to",
          "type": "address"
        },
        {
          "indexed": false,
          "name": "value",
          "type": "uint256"
        }
      ],
      "name": "CrydrTransferredFromEvent",
      "type": "event"
    },
    {
      "anonymous": false,
      "inputs": [
        {
          "indexed": true,
          "name": "owner",
          "type": "address"
        },
        {
          "indexed": true,
          "name": "spender",
          "type": "address"
        },
        {
          "indexed": false,
          "name": "value",
          "type": "uint256"
        }
      ],
      "name": "CrydrSpendingApprovedEvent",
      "type": "event"
    },
    {
      "anonymous": false,
      "inputs": [
        {
          "indexed": true,
          "name": "account",
          "type": "address"
        }
      ],
      "name": "AccountBlockedEvent",
      "type": "event"
    },
    {
      "anonymous": false,
      "inputs": [
        {
          "indexed": true,
          "name": "account",
          "type": "address"
        }
      ],
      "name": "AccountUnblockedEvent",
      "type": "event"
    },
    {
      "anonymous": false,
      "inputs": [
        {
          "indexed": true,
          "name": "account",
          "type": "address"
        },
        {
          "indexed": false,
          "name": "value",
          "type": "uint256"
        }
      ],
      "name": "AccountFundsBlockedEvent",
      "type": "event"
    },
    {
      "anonymous": false,
      "inputs": [
        {
          "indexed": true,
          "name": "account",
          "type": "address"
        },
        {
          "indexed": false,
          "name": "value",
          "type": "uint256"
        }
      ],
      "name": "AccountFundsUnblockedEvent",
      "type": "event"
    },
    {
      "anonymous": false,
      "inputs": [
        {
          "indexed": true,
          "name": "owner",
          "type": "address"
        },
        {
          "indexed": true,
          "name": "spender",
          "type": "address"
        },
        {
          "indexed": false,
          "name": "value",
          "type": "uint256"
        }
      ],
      "name": "AccountAllowanceIncreasedEvent",
      "type": "event"
    },
    {
      "anonymous": false,
      "inputs": [
        {
          "indexed": true,
          "name": "owner",
          "type": "address"
        },
        {
          "indexed": true,
          "name": "spender",
          "type": "address"
        },
        {
          "indexed": false,
          "name": "value",
          "type": "uint256"
        }
      ],
      "name": "AccountAllowanceDecreasedEvent",
      "type": "event"
    },
    {
      "anonymous": false,
      "inputs": [
        {
          "indexed": true,
          "name": "account",
          "type": "address"
        },
        {
          "indexed": false,
          "name": "value",
          "type": "uint256"
        }
      ],
      "name": "AccountBalanceIncreasedEvent",
      "type": "event"
    },
    {
      "anonymous": false,
      "inputs": [
        {
          "indexed": true,
          "name": "account",
          "type": "address"
        },
        {
          "indexed": false,
          "name": "value",
          "type": "uint256"
        }
      ],
      "name": "AccountBalanceDecreasedEvent",
      "type": "event"
    },
    {
      "anonymous": false,
      "inputs": [
        {
          "indexed": true,
          "name": "crydrcontroller",
          "type": "address"
        }
      ],
      "name": "CrydrControllerChangedEvent",
      "type": "event"
    }
  ],
  "bytecode": "0x6060604052341561000f57600080fd5b604051610d62380380610d62833981016040528080518201919060200180519150829050600081511161004157600080fd5b6000818051610054929160200190610091565b5050600160a060020a038116151561006b57600080fd5b60018054600160a060020a031916600160a060020a03929092169190911790555061012c565b828054600181600116156101000203166002900490600052602060002090601f016020900481019282601f106100d257805160ff19168380011785556100ff565b828001600101855582156100ff579182015b828111156100ff5782518255916020019190600101906100e4565b5061010b92915061010f565b5090565b61012991905b8082111561010b5760008155600101610115565b90565b610c278061013b6000396000f3006060604052600436106100f85763ffffffff60e060020a6000350416630af4187d81146100fd57806315dacbea14610134578063305f17d5146101645780634d78fdc6146101835780635b86f599146101a2578063696b5fb7146101c45780636c43a2ca1461024e5780637c0a893d146102765780637fa879491461029557806395534e00146102b7578063a773d98a146102d6578063be2a2ff2146102e9578063beabacc814610308578063c4e41b2214610330578063c60c13a314610343578063ca9c286214610365578063d73b1dc914610394578063e1f21c67146103bc578063f8b2cb4f146103e4578063ff05694914610403575b600080fd5b341561010857600080fd5b610122600160a060020a0360043581169060243516610425565b60405190815260200160405180910390f35b341561013f57600080fd5b610162600160a060020a03600435811690602435811690604435166064356104a9565b005b341561016f57600080fd5b610162600160a060020a036004351661052d565b341561018e57600080fd5b610162600160a060020a036004351661055c565b34156101ad57600080fd5b610162600160a060020a03600435166024356105c3565b34156101cf57600080fd5b6101d7610631565b60405160208082528190810183818151815260200191508051906020019080838360005b838110156102135780820151838201526020016101fb565b50505050905090810190601f1680156102405780820380516001836020036101000a031916815260200191505b509250505060405180910390f35b341561025957600080fd5b610162600160a060020a03600435811690602435166044356106d9565b341561028157600080fd5b610162600160a060020a0360043516610755565b34156102a057600080fd5b610162600160a060020a03600435166024356107a5565b34156102c257600080fd5b610122600160a060020a03600435166107fb565b34156102e157600080fd5b610122610876565b34156102f457600080fd5b610122600160a060020a03600435166108e6565b341561031357600080fd5b610162600160a060020a0360043581169060243516604435610941565b341561033b57600080fd5b6101226109a4565b341561034e57600080fd5b610162600160a060020a0360043516602435610a0d565b341561037057600080fd5b610378610a63565b604051600160a060020a03909116815260200160405180910390f35b341561039f57600080fd5b610162600160a060020a0360043581169060243516604435610a72565b34156103c757600080fd5b610162600160a060020a0360043581169060243516604435610ad5565b34156103ef57600080fd5b610122600160a060020a0360043516610b38565b341561040e57600080fd5b610162600160a060020a0360043516602435610b93565b600154600090600160a060020a0316630af4187d8484846040516020015260405160e060020a63ffffffff8516028152600160a060020a03928316600482015291166024820152604401602060405180830381600087803b151561048857600080fd5b6102c65a03f1151561049957600080fd5b5050506040518051949350505050565b600154600160a060020a03166315dacbea8585858560405160e060020a63ffffffff8716028152600160a060020a0394851660048201529284166024840152921660448201526064810191909152608401600060405180830381600087803b151561051357600080fd5b6102c65a03f1151561052457600080fd5b50505050505050565b6001805473ffffffffffffffffffffffffffffffffffffffff1916600160a060020a0392909216919091179055565b600154600160a060020a0316634d78fdc68260405160e060020a63ffffffff8416028152600160a060020a039091166004820152602401600060405180830381600087803b15156105ac57600080fd5b6102c65a03f115156105bd57600080fd5b50505050565b600154600160a060020a0316635b86f599838360405160e060020a63ffffffff8516028152600160a060020a0390921660048301526024820152604401600060405180830381600087803b151561061957600080fd5b6102c65a03f1151561062a57600080fd5b5050505050565b610639610be9565b60008054600181600116156101000203166002900480601f0160208091040260200160405190810160405280929190818152602001828054600181600116156101000203166002900480156106cf5780601f106106a4576101008083540402835291602001916106cf565b820191906000526020600020905b8154815290600101906020018083116106b257829003601f168201915b5050505050905090565b600154600160a060020a0316636c43a2ca84848460405160e060020a63ffffffff8616028152600160a060020a0393841660048201529190921660248201526044810191909152606401600060405180830381600087803b151561073c57600080fd5b6102c65a03f1151561074d57600080fd5b505050505050565b600154600160a060020a0316637c0a893d8260405160e060020a63ffffffff8416028152600160a060020a039091166004820152602401600060405180830381600087803b15156105ac57600080fd5b600154600160a060020a0316637fa87949838360405160e060020a63ffffffff8516028152600160a060020a0390921660048301526024820152604401600060405180830381600087803b151561061957600080fd5b600154600090600160a060020a03166395534e0083836040516020015260405160e060020a63ffffffff8416028152600160a060020a039091166004820152602401602060405180830381600087803b151561085657600080fd5b6102c65a03f1151561086757600080fd5b50505060405180519392505050565b60008060405180828054600181600116156101000203166002900480156108d45780601f106108b25761010080835404028352918201916108d4565b820191906000526020600020905b8154815290600101906020018083116108c0575b50509150506040518091039020905090565b600154600090600160a060020a031663be2a2ff283836040516020015260405160e060020a63ffffffff8416028152600160a060020a039091166004820152602401602060405180830381600087803b151561085657600080fd5b600154600160a060020a031663beabacc884848460405160e060020a63ffffffff8616028152600160a060020a0393841660048201529190921660248201526044810191909152606401600060405180830381600087803b151561073c57600080fd5b600154600090600160a060020a031663c4e41b2282604051602001526040518163ffffffff1660e060020a028152600401602060405180830381600087803b15156109ee57600080fd5b6102c65a03f115156109ff57600080fd5b505050604051805191505090565b600154600160a060020a031663c60c13a3838360405160e060020a63ffffffff8516028152600160a060020a0390921660048301526024820152604401600060405180830381600087803b151561061957600080fd5b600154600160a060020a031690565b600154600160a060020a031663d73b1dc984848460405160e060020a63ffffffff8616028152600160a060020a0393841660048201529190921660248201526044810191909152606401600060405180830381600087803b151561073c57600080fd5b600154600160a060020a031663e1f21c6784848460405160e060020a63ffffffff8616028152600160a060020a0393841660048201529190921660248201526044810191909152606401600060405180830381600087803b151561073c57600080fd5b600154600090600160a060020a031663f8b2cb4f83836040516020015260405160e060020a63ffffffff8416028152600160a060020a039091166004820152602401602060405180830381600087803b151561085657600080fd5b600154600160a060020a031663ff056949838360405160e060020a63ffffffff8516028152600160a060020a0390921660048301526024820152604401600060405180830381600087803b151561061957600080fd5b602060405190810160405260008152905600a165627a7a72305820b36fcccc74519e48a4f6b7bb15f0f8d7a313c01a186140ed9320023ccc356dc50029",
  "source": "/* Author: Aleksey Selikhov  aleksey.selikhov@mgmail.com */\n\npragma solidity ^0.4.18;\n\n\nimport '../feature/assetid/AssetID.sol';\nimport '../crydr/storage/CrydrStorageBaseInterface.sol';\nimport '../crydr/storage/CrydrStorageBalanceInterface.sol';\nimport '../crydr/storage/CrydrStorageAllowanceInterface.sol';\nimport '../crydr/storage/CrydrStorageBlocksInterface.sol';\nimport '../crydr/storage/CrydrStorageERC20Interface.sol';\n\n\n/**\n * @title CrydrStorageERC20Proxy\n * @dev This contract used only to test functions of CrydrStorage contract\n * @dev CrydrStorage allows calls only from CrydrController, which should be a contract,\n * @dev therefore we have to create proxy contract\n */\ncontract CrydrStorageERC20Proxy is AssetID,\n                                   CrydrStorageBaseInterface,\n                                   CrydrStorageBalanceInterface,\n                                   CrydrStorageAllowanceInterface,\n                                   CrydrStorageBlocksInterface,\n                                   CrydrStorageERC20Interface {\n\n  /* Storage */\n\n  address crydrStorage;\n\n  function CrydrStorageERC20Proxy(\n    string _assetID,\n    address _crydrStorage\n  )\n    public\n    AssetID(_assetID)\n  {\n    require(_crydrStorage != address(0x0));\n\n    crydrStorage = _crydrStorage;\n  }\n\n  function setCrydrController(address _newController) public { crydrStorage = _newController; }\n  function getCrydrController() public constant returns (address) { return crydrStorage; }\n\n\n  /* Low-level change of balance. Implied that totalSupply kept in sync. */\n\n  function increaseBalance(address _account, uint256 _value) public\n  {\n    CrydrStorageBalanceInterface(crydrStorage).increaseBalance(_account, _value);\n  }\n\n  function decreaseBalance(address _account, uint256 _value) public\n  {\n    CrydrStorageBalanceInterface(crydrStorage).decreaseBalance(_account, _value);\n  }\n\n  function getBalance(address _account) public constant returns (uint256)\n  {\n    return CrydrStorageBalanceInterface(crydrStorage).getBalance(_account);\n  }\n\n  function getTotalSupply() public constant returns (uint256)\n  {\n    return CrydrStorageBalanceInterface(crydrStorage).getTotalSupply();\n  }\n\n\n  /* Low-level change of allowance */\n\n  function increaseAllowance(address _owner, address _spender, uint256 _value) public\n  {\n    CrydrStorageAllowanceInterface(crydrStorage).increaseAllowance(_owner, _spender, _value);\n  }\n\n  function decreaseAllowance(address _owner, address _spender, uint256 _value) public\n  {\n    CrydrStorageAllowanceInterface(crydrStorage).decreaseAllowance(_owner, _spender, _value);\n  }\n\n  function getAllowance(address _owner, address _spender) public constant returns (uint256)\n  {\n    return CrydrStorageAllowanceInterface(crydrStorage).getAllowance(_owner, _spender);\n  }\n\n\n  /* Low-level change of blocks and getters */\n\n  function blockAccount(address _account) public\n  {\n    CrydrStorageBlocksInterface(crydrStorage).blockAccount(_account);\n  }\n\n  function unblockAccount(address _account) public\n  {\n    CrydrStorageBlocksInterface(crydrStorage).unblockAccount(_account);\n  }\n\n  function getAccountBlocks(address _account) public constant returns (uint256)\n  {\n    return CrydrStorageBlocksInterface(crydrStorage).getAccountBlocks(_account);\n  }\n\n\n  function blockAccountFunds(address _account, uint256 _value) public\n  {\n    CrydrStorageBlocksInterface(crydrStorage).blockAccountFunds(_account, _value);\n  }\n\n  function unblockAccountFunds(address _account, uint256 _value) public\n  {\n    CrydrStorageBlocksInterface(crydrStorage).unblockAccountFunds(_account, _value);\n  }\n\n  function getAccountBlockedFunds(address _account) public constant returns (uint256)\n  {\n    return CrydrStorageBlocksInterface(crydrStorage).getAccountBlockedFunds(_account);\n  }\n\n\n  /* CrydrStorageERC20Interface */\n\n  function transfer(address _msgsender, address _to, uint256 _value) public\n  {\n    CrydrStorageERC20Interface(crydrStorage).transfer(_msgsender, _to, _value);\n  }\n\n  function transferFrom(address _msgsender, address _from, address _to, uint256 _value) public\n  {\n    CrydrStorageERC20Interface(crydrStorage).transferFrom(_msgsender, _from, _to, _value);\n  }\n\n  function approve(address _msgsender, address _spender, uint256 _value) public\n  {\n    CrydrStorageERC20Interface(crydrStorage).approve(_msgsender, _spender, _value);\n  }\n}\n",
  "sourcePath": "/home/user/dev/project/jibrel/jibrel-contracts_ropsten/contracts/unittest/CrydrStorageERC20Proxy.sol",
  "compiler": {
    "name": "solc",
    "version": "0.4.18+commit.9cf6e910.Emscripten.clang"
  },
  "schemaVersion": "1.0.1",
  "updatedAt": "2017-12-15T04:55:52.645Z"
}