{
  "contractName": "Erc20Mock",
  "abi": [
    {
      "inputs": [],
      "payable": true,
      "stateMutability": "payable",
      "type": "constructor"
    },
    {
      "anonymous": false,
      "inputs": [
        {
          "indexed": true,
          "name": "from",
          "type": "address"
        },
        {
          "indexed": true,
          "name": "to",
          "type": "address"
        },
        {
          "indexed": false,
          "name": "value",
          "type": "uint256"
        }
      ],
      "name": "Transfer",
      "type": "event"
    },
    {
      "anonymous": false,
      "inputs": [
        {
          "indexed": true,
          "name": "to",
          "type": "address"
        },
        {
          "indexed": false,
          "name": "value",
          "type": "uint256"
        }
      ],
      "name": "MintEvent",
      "type": "event"
    },
    {
      "constant": false,
      "inputs": [
        {
          "name": "_to",
          "type": "address"
        },
        {
          "name": "_value",
          "type": "uint256"
        }
      ],
      "name": "transfer",
      "outputs": [
        {
          "name": "",
          "type": "bool"
        }
      ],
      "payable": false,
      "stateMutability": "nonpayable",
      "type": "function"
    },
    {
      "constant": true,
      "inputs": [],
      "name": "totalSupply",
      "outputs": [
        {
          "name": "",
          "type": "uint256"
        }
      ],
      "payable": false,
      "stateMutability": "view",
      "type": "function"
    },
    {
      "constant": true,
      "inputs": [
        {
          "name": "_owner",
          "type": "address"
        }
      ],
      "name": "balanceOf",
      "outputs": [
        {
          "name": "",
          "type": "uint256"
        }
      ],
      "payable": false,
      "stateMutability": "view",
      "type": "function"
    },
    {
      "constant": false,
      "inputs": [
        {
          "name": "_to",
          "type": "address"
        },
        {
          "name": "_value",
          "type": "uint256"
        }
      ],
      "name": "mint",
      "outputs": [],
      "payable": false,
      "stateMutability": "nonpayable",
      "type": "function"
    }
  ],
  "bytecode": "0x608060405260008060006101000a81548173ffffffffffffffffffffffffffffffffffffffff021916908373ffffffffffffffffffffffffffffffffffffffff1602179055506000600155336000806101000a81548173ffffffffffffffffffffffffffffffffffffffff021916908373ffffffffffffffffffffffffffffffffffffffff16021790555061063a806100996000396000f300608060405260043610610062576000357c0100000000000000000000000000000000000000000000000000000000900463ffffffff16806318160ddd1461006757806340c10f191461009257806370a08231146100df578063a9059cbb14610136575b600080fd5b34801561007357600080fd5b5061007c61019b565b6040518082815260200191505060405180910390f35b34801561009e57600080fd5b506100dd600480360381019080803573ffffffffffffffffffffffffffffffffffffffff169060200190929190803590602001909291905050506101a5565b005b3480156100eb57600080fd5b50610120600480360381019080803573ffffffffffffffffffffffffffffffffffffffff169060200190929190505050610388565b6040518082815260200191505060405180910390f35b34801561014257600080fd5b50610181600480360381019080803573ffffffffffffffffffffffffffffffffffffffff169060200190929190803590602001909291905050506103d1565b604051808215151515815260200191505060405180910390f35b6000600154905090565b6000809054906101000a900473ffffffffffffffffffffffffffffffffffffffff1673ffffffffffffffffffffffffffffffffffffffff163373ffffffffffffffffffffffffffffffffffffffff1614151561020057600080fd5b600073ffffffffffffffffffffffffffffffffffffffff168273ffffffffffffffffffffffffffffffffffffffff161415151561023c57600080fd5b60008111151561024b57600080fd5b600260008373ffffffffffffffffffffffffffffffffffffffff1673ffffffffffffffffffffffffffffffffffffffff1681526020019081526020016000205481600260008573ffffffffffffffffffffffffffffffffffffffff1673ffffffffffffffffffffffffffffffffffffffff16815260200190815260200160002054011115156102d957600080fd5b80600260008473ffffffffffffffffffffffffffffffffffffffff1673ffffffffffffffffffffffffffffffffffffffff16815260200190815260200160002060008282540192505081905550806001600082825401925050819055508173ffffffffffffffffffffffffffffffffffffffff167f3fffaa5804a26fcec0d70b1d0fb0a2d0031df3a5f9c8af2127c2f4360e97b463826040518082815260200191505060405180910390a25050565b6000600260008373ffffffffffffffffffffffffffffffffffffffff1673ffffffffffffffffffffffffffffffffffffffff168152602001908152602001600020549050919050565b60008073ffffffffffffffffffffffffffffffffffffffff168373ffffffffffffffffffffffffffffffffffffffff161415151561040e57600080fd5b60008211151561041d57600080fd5b81600260003373ffffffffffffffffffffffffffffffffffffffff1673ffffffffffffffffffffffffffffffffffffffff168152602001908152602001600020541015151561046b57600080fd5b600260008473ffffffffffffffffffffffffffffffffffffffff1673ffffffffffffffffffffffffffffffffffffffff1681526020019081526020016000205482600260008673ffffffffffffffffffffffffffffffffffffffff1673ffffffffffffffffffffffffffffffffffffffff16815260200190815260200160002054011115156104f957600080fd5b81600260003373ffffffffffffffffffffffffffffffffffffffff1673ffffffffffffffffffffffffffffffffffffffff1681526020019081526020016000206000828254039250508190555081600260008573ffffffffffffffffffffffffffffffffffffffff1673ffffffffffffffffffffffffffffffffffffffff16815260200190815260200160002060008282540192505081905550816001600082825401925050819055508273ffffffffffffffffffffffffffffffffffffffff163373ffffffffffffffffffffffffffffffffffffffff167fddf252ad1be2c89b69c2b068fc378daa952ba7f163c4a11628f55a4df523b3ef846040518082815260200191505060405180910390a3929150505600a165627a7a723058200a6d3faa43c0c5211c93612735db2dec26bcc7abe218938efec509d1b8b5ed8d0029",
  "source": "/* Author: Aleksey Selikhov  aleksey.selikhov@gmail.com */\n\npragma solidity ^0.4.18;\n\n\n/**\n * @title Erc20Mock\n * @dev Implementation of a contract that can receives ETH, refunds ETH and logs these operations\n */\ncontract Erc20Mock {\n\n  /* Storage */\n\n  address owner = address(0x0);\n  uint256 tokenTotalSupply = 0;\n  mapping (address => uint256) balances;\n\n\n  /* Events */\n\n  event Transfer(address indexed from, address indexed to, uint256 value);\n  event MintEvent(address indexed to, uint256 value);\n\n\n  /* Constructor */\n\n  constructor() public payable {\n    owner = msg.sender;\n  }\n\n\n  /* Erc20Interface */\n\n  function transfer(address _to, uint256 _value) external returns (bool) {\n    require (_to != address(0x0));\n    require (_value > 0);\n    require (balances[msg.sender] >= _value);\n    require (balances[_to] + _value > balances[_to]);\n\n    balances[msg.sender] -= _value;\n    balances[_to] += _value;\n    tokenTotalSupply += _value;\n    emit Transfer(msg.sender, _to, _value);\n  }\n\n  function totalSupply() external constant returns (uint256) {\n    return tokenTotalSupply;\n  }\n\n  function balanceOf(address _owner) external constant returns (uint256) {\n    return balances[_owner];\n  }\n\n\n  /* Mint */\n\n  function mint(address _to, uint256 _value) external {\n    require (msg.sender == owner);\n    require (_to != address(0x0));\n    require (_value > 0);\n    require (balances[_to] + _value > balances[_to]);\n\n    balances[_to] += _value;\n    tokenTotalSupply += _value;\n    emit MintEvent(_to, _value);\n  }\n}\n",
  "sourcePath": "/home/user/develop/jcontracts/jibrel-contracts/contracts/unittest/Erc20Mock.sol",
  "compiler": {
    "name": "solc",
    "version": "0.4.24+commit.e67f0147.Emscripten.clang"
  },
  "schemaVersion": "2.0.1",
  "updatedAt": "2018-12-10T21:02:12.448Z"
}