{
  "contractName": "JEURController",
  "abi": [
    {
      "constant": true,
      "inputs": [
        {
          "name": "_manager",
          "type": "address"
        },
        {
          "name": "_permissionName",
          "type": "string"
        }
      ],
      "name": "isManagerAllowed",
      "outputs": [
        {
          "name": "",
          "type": "bool"
        }
      ],
      "payable": false,
      "stateMutability": "view",
      "type": "function"
    },
    {
      "constant": true,
      "inputs": [
        {
          "name": "_owner",
          "type": "address"
        },
        {
          "name": "_spender",
          "type": "address"
        }
      ],
      "name": "getAllowance",
      "outputs": [
        {
          "name": "",
          "type": "uint256"
        }
      ],
      "payable": false,
      "stateMutability": "view",
      "type": "function"
    },
    {
      "constant": false,
      "inputs": [
        {
          "name": "_crydrStorage",
          "type": "address"
        }
      ],
      "name": "setCrydrStorage",
      "outputs": [],
      "payable": false,
      "stateMutability": "nonpayable",
      "type": "function"
    },
    {
      "constant": false,
      "inputs": [
        {
          "name": "_msgsender",
          "type": "address"
        },
        {
          "name": "_from",
          "type": "address"
        },
        {
          "name": "_to",
          "type": "address"
        },
        {
          "name": "_value",
          "type": "uint256"
        }
      ],
      "name": "transferFrom",
      "outputs": [],
      "payable": false,
      "stateMutability": "nonpayable",
      "type": "function"
    },
    {
      "constant": false,
      "inputs": [],
      "name": "cancelOwnershipOffer",
      "outputs": [],
      "payable": false,
      "stateMutability": "nonpayable",
      "type": "function"
    },
    {
      "constant": true,
      "inputs": [
        {
          "name": "_manager",
          "type": "address"
        },
        {
          "name": "_permissionName",
          "type": "string"
        }
      ],
      "name": "isPermissionGranted",
      "outputs": [
        {
          "name": "",
          "type": "bool"
        }
      ],
      "payable": false,
      "stateMutability": "view",
      "type": "function"
    },
    {
      "constant": false,
      "inputs": [
        {
          "name": "_account",
          "type": "address"
        },
        {
          "name": "_value",
          "type": "uint256"
        }
      ],
      "name": "mint",
      "outputs": [],
      "payable": false,
      "stateMutability": "nonpayable",
      "type": "function"
    },
    {
      "constant": false,
      "inputs": [],
      "name": "pauseContract",
      "outputs": [],
      "payable": false,
      "stateMutability": "nonpayable",
      "type": "function"
    },
    {
      "constant": false,
      "inputs": [
        {
          "name": "_account",
          "type": "address"
        }
      ],
      "name": "unblockAccount",
      "outputs": [],
      "payable": false,
      "stateMutability": "nonpayable",
      "type": "function"
    },
    {
      "constant": false,
      "inputs": [
        {
          "name": "_manager",
          "type": "address"
        }
      ],
      "name": "enableManager",
      "outputs": [],
      "payable": false,
      "stateMutability": "nonpayable",
      "type": "function"
    },
    {
      "constant": true,
      "inputs": [],
      "name": "getPaused",
      "outputs": [
        {
          "name": "",
          "type": "bool"
        }
      ],
      "payable": false,
      "stateMutability": "view",
      "type": "function"
    },
    {
      "constant": true,
      "inputs": [],
      "name": "getAssetID",
      "outputs": [
        {
          "name": "",
          "type": "string"
        }
      ],
      "payable": false,
      "stateMutability": "view",
      "type": "function"
    },
    {
      "constant": false,
      "inputs": [
        {
          "name": "_viewApiStandardName",
          "type": "string"
        }
      ],
      "name": "removeCrydrView",
      "outputs": [],
      "payable": false,
      "stateMutability": "nonpayable",
      "type": "function"
    },
    {
      "constant": false,
      "inputs": [
        {
          "name": "_account",
          "type": "address"
        }
      ],
      "name": "blockAccount",
      "outputs": [],
      "payable": false,
      "stateMutability": "nonpayable",
      "type": "function"
    },
    {
      "constant": false,
      "inputs": [
        {
          "name": "_manager",
          "type": "address"
        },
        {
          "name": "_permissionName",
          "type": "string"
        }
      ],
      "name": "revokeManagerPermission",
      "outputs": [],
      "payable": false,
      "stateMutability": "nonpayable",
      "type": "function"
    },
    {
      "constant": false,
      "inputs": [
        {
          "name": "_account",
          "type": "address"
        },
        {
          "name": "_value",
          "type": "uint256"
        }
      ],
      "name": "unblockAccountFunds",
      "outputs": [],
      "payable": false,
      "stateMutability": "nonpayable",
      "type": "function"
    },
    {
      "constant": false,
      "inputs": [
        {
          "name": "_manager",
          "type": "address"
        },
        {
          "name": "_permissionName",
          "type": "string"
        }
      ],
      "name": "grantManagerPermission",
      "outputs": [],
      "payable": false,
      "stateMutability": "nonpayable",
      "type": "function"
    },
    {
      "constant": true,
      "inputs": [],
      "name": "getOwner",
      "outputs": [
        {
          "name": "",
          "type": "address"
        }
      ],
      "payable": false,
      "stateMutability": "view",
      "type": "function"
    },
    {
      "constant": false,
      "inputs": [
        {
          "name": "_target",
          "type": "address"
        },
        {
          "name": "_suppliedGas",
          "type": "uint256"
        },
        {
          "name": "_ethValue",
          "type": "uint256"
        },
        {
          "name": "_transactionBytecode",
          "type": "bytes"
        }
      ],
      "name": "executeCall",
      "outputs": [],
      "payable": false,
      "stateMutability": "nonpayable",
      "type": "function"
    },
    {
      "constant": true,
      "inputs": [],
      "name": "getCrydrStorageAddress",
      "outputs": [
        {
          "name": "",
          "type": "address"
        }
      ],
      "payable": false,
      "stateMutability": "view",
      "type": "function"
    },
    {
      "constant": false,
      "inputs": [
        {
          "name": "_proposedOwner",
          "type": "address"
        }
      ],
      "name": "createOwnershipOffer",
      "outputs": [],
      "payable": false,
      "stateMutability": "nonpayable",
      "type": "function"
    },
    {
      "constant": true,
      "inputs": [
        {
          "name": "_manager",
          "type": "address"
        }
      ],
      "name": "isManagerEnabled",
      "outputs": [
        {
          "name": "",
          "type": "bool"
        }
      ],
      "payable": false,
      "stateMutability": "view",
      "type": "function"
    },
    {
      "constant": false,
      "inputs": [
        {
          "name": "_account",
          "type": "address"
        },
        {
          "name": "_value",
          "type": "uint256"
        }
      ],
      "name": "burn",
      "outputs": [],
      "payable": false,
      "stateMutability": "nonpayable",
      "type": "function"
    },
    {
      "constant": true,
      "inputs": [],
      "name": "getLicenseRegistryAddress",
      "outputs": [
        {
          "name": "",
          "type": "address"
        }
      ],
      "payable": false,
      "stateMutability": "view",
      "type": "function"
    },
    {
      "constant": true,
      "inputs": [],
      "name": "getAssetIDHash",
      "outputs": [
        {
          "name": "",
          "type": "bytes32"
        }
      ],
      "payable": false,
      "stateMutability": "view",
      "type": "function"
    },
    {
      "constant": false,
      "inputs": [],
      "name": "unpauseContract",
      "outputs": [],
      "payable": false,
      "stateMutability": "nonpayable",
      "type": "function"
    },
    {
      "constant": true,
      "inputs": [
        {
          "name": "_viewApiStandardName",
          "type": "string"
        }
      ],
      "name": "getCrydrViewAddress",
      "outputs": [
        {
          "name": "",
          "type": "address"
        }
      ],
      "payable": false,
      "stateMutability": "view",
      "type": "function"
    },
    {
      "constant": false,
      "inputs": [
        {
          "name": "_msgsender",
          "type": "address"
        },
        {
          "name": "_to",
          "type": "address"
        },
        {
          "name": "_value",
          "type": "uint256"
        }
      ],
      "name": "transfer",
      "outputs": [],
      "payable": false,
      "stateMutability": "nonpayable",
      "type": "function"
    },
    {
      "constant": true,
      "inputs": [],
      "name": "getTotalSupply",
      "outputs": [
        {
          "name": "",
          "type": "uint256"
        }
      ],
      "payable": false,
      "stateMutability": "view",
      "type": "function"
    },
    {
      "constant": false,
      "inputs": [
        {
          "name": "_account",
          "type": "address"
        },
        {
          "name": "_value",
          "type": "uint256"
        }
      ],
      "name": "blockAccountFunds",
      "outputs": [],
      "payable": false,
      "stateMutability": "nonpayable",
      "type": "function"
    },
    {
      "constant": false,
      "inputs": [
        {
          "name": "_target",
          "type": "address"
        },
        {
          "name": "_suppliedGas",
          "type": "uint256"
        },
        {
          "name": "_transactionBytecode",
          "type": "bytes"
        }
      ],
      "name": "executeDelegatecall",
      "outputs": [],
      "payable": false,
      "stateMutability": "nonpayable",
      "type": "function"
    },
    {
      "constant": true,
      "inputs": [
        {
          "name": "_crydrViewAddress",
          "type": "address"
        }
      ],
      "name": "isCrydrViewAddress",
      "outputs": [
        {
          "name": "",
          "type": "bool"
        }
      ],
      "payable": false,
      "stateMutability": "view",
      "type": "function"
    },
    {
      "constant": false,
      "inputs": [
        {
          "name": "_manager",
          "type": "address"
        }
      ],
      "name": "disableManager",
      "outputs": [],
      "payable": false,
      "stateMutability": "nonpayable",
      "type": "function"
    },
    {
      "constant": true,
      "inputs": [
        {
          "name": "_viewApiStandardName",
          "type": "string"
        }
      ],
      "name": "isCrydrViewRegistered",
      "outputs": [
        {
          "name": "",
          "type": "bool"
        }
      ],
      "payable": false,
      "stateMutability": "view",
      "type": "function"
    },
    {
      "constant": false,
      "inputs": [
        {
          "name": "_msgsender",
          "type": "address"
        },
        {
          "name": "_spender",
          "type": "address"
        },
        {
          "name": "_value",
          "type": "uint256"
        }
      ],
      "name": "approve",
      "outputs": [],
      "payable": false,
      "stateMutability": "nonpayable",
      "type": "function"
    },
    {
      "constant": false,
      "inputs": [
        {
          "name": "_newCrydrView",
          "type": "address"
        },
        {
          "name": "_viewApiStandardName",
          "type": "string"
        }
      ],
      "name": "setCrydrView",
      "outputs": [],
      "payable": false,
      "stateMutability": "nonpayable",
      "type": "function"
    },
    {
      "constant": true,
      "inputs": [],
      "name": "getProposedOwner",
      "outputs": [
        {
          "name": "",
          "type": "address"
        }
      ],
      "payable": false,
      "stateMutability": "view",
      "type": "function"
    },
    {
      "constant": false,
      "inputs": [],
      "name": "acceptOwnershipOffer",
      "outputs": [],
      "payable": false,
      "stateMutability": "nonpayable",
      "type": "function"
    },
    {
      "constant": true,
      "inputs": [
        {
          "name": "_owner",
          "type": "address"
        }
      ],
      "name": "getBalance",
      "outputs": [
        {
          "name": "",
          "type": "uint256"
        }
      ],
      "payable": false,
      "stateMutability": "view",
      "type": "function"
    },
    {
      "constant": false,
      "inputs": [
        {
          "name": "_newLicenseRegistry",
          "type": "address"
        }
      ],
      "name": "setLicenseRegistry",
      "outputs": [],
      "payable": false,
      "stateMutability": "nonpayable",
      "type": "function"
    },
    {
      "inputs": [],
      "payable": false,
      "stateMutability": "nonpayable",
      "type": "constructor"
    },
    {
      "anonymous": false,
      "inputs": [
        {
          "indexed": true,
          "name": "licenseregistry",
          "type": "address"
        }
      ],
      "name": "LicenseRegistryChangedEvent",
      "type": "event"
    },
    {
      "anonymous": false,
      "inputs": [
        {
          "indexed": true,
          "name": "crydrstorage",
          "type": "address"
        }
      ],
      "name": "CrydrStorageChangedEvent",
      "type": "event"
    },
    {
      "anonymous": false,
      "inputs": [
        {
          "indexed": true,
          "name": "crydrview",
          "type": "address"
        },
        {
          "indexed": false,
          "name": "standardname",
          "type": "bytes32"
        }
      ],
      "name": "CrydrViewAddedEvent",
      "type": "event"
    },
    {
      "anonymous": false,
      "inputs": [
        {
          "indexed": true,
          "name": "crydrview",
          "type": "address"
        },
        {
          "indexed": false,
          "name": "standardname",
          "type": "bytes32"
        }
      ],
      "name": "CrydrViewRemovedEvent",
      "type": "event"
    },
    {
      "anonymous": false,
      "inputs": [
        {
          "indexed": true,
          "name": "target",
          "type": "address"
        },
        {
          "indexed": false,
          "name": "suppliedGas",
          "type": "uint256"
        },
        {
          "indexed": false,
          "name": "ethValue",
          "type": "uint256"
        },
        {
          "indexed": false,
          "name": "transactionBytecodeHash",
          "type": "bytes32"
        }
      ],
      "name": "CallExecutedEvent",
      "type": "event"
    },
    {
      "anonymous": false,
      "inputs": [
        {
          "indexed": true,
          "name": "target",
          "type": "address"
        },
        {
          "indexed": false,
          "name": "suppliedGas",
          "type": "uint256"
        },
        {
          "indexed": false,
          "name": "transactionBytecodeHash",
          "type": "bytes32"
        }
      ],
      "name": "DelegatecallExecutedEvent",
      "type": "event"
    },
    {
      "anonymous": false,
      "inputs": [],
      "name": "PauseEvent",
      "type": "event"
    },
    {
      "anonymous": false,
      "inputs": [],
      "name": "UnpauseEvent",
      "type": "event"
    },
    {
      "anonymous": false,
      "inputs": [
        {
          "indexed": true,
          "name": "manager",
          "type": "address"
        }
      ],
      "name": "ManagerEnabledEvent",
      "type": "event"
    },
    {
      "anonymous": false,
      "inputs": [
        {
          "indexed": true,
          "name": "manager",
          "type": "address"
        }
      ],
      "name": "ManagerDisabledEvent",
      "type": "event"
    },
    {
      "anonymous": false,
      "inputs": [
        {
          "indexed": true,
          "name": "manager",
          "type": "address"
        },
        {
          "indexed": false,
          "name": "permission",
          "type": "bytes32"
        }
      ],
      "name": "ManagerPermissionGrantedEvent",
      "type": "event"
    },
    {
      "anonymous": false,
      "inputs": [
        {
          "indexed": true,
          "name": "manager",
          "type": "address"
        },
        {
          "indexed": false,
          "name": "permission",
          "type": "bytes32"
        }
      ],
      "name": "ManagerPermissionRevokedEvent",
      "type": "event"
    },
    {
      "anonymous": false,
      "inputs": [
        {
          "indexed": true,
          "name": "newowner",
          "type": "address"
        }
      ],
      "name": "OwnerAssignedEvent",
      "type": "event"
    },
    {
      "anonymous": false,
      "inputs": [
        {
          "indexed": true,
          "name": "currentowner",
          "type": "address"
        },
        {
          "indexed": true,
          "name": "proposedowner",
          "type": "address"
        }
      ],
      "name": "OwnershipOfferCreatedEvent",
      "type": "event"
    },
    {
      "anonymous": false,
      "inputs": [
        {
          "indexed": true,
          "name": "currentowner",
          "type": "address"
        },
        {
          "indexed": true,
          "name": "proposedowner",
          "type": "address"
        }
      ],
      "name": "OwnershipOfferAcceptedEvent",
      "type": "event"
    },
    {
      "anonymous": false,
      "inputs": [
        {
          "indexed": true,
          "name": "currentowner",
          "type": "address"
        },
        {
          "indexed": true,
          "name": "proposedowner",
          "type": "address"
        }
      ],
      "name": "OwnershipOfferCancelledEvent",
      "type": "event"
    }
  ],
  "bytecode": "0x60806040526000600160006101000a81548173ffffffffffffffffffffffffffffffffffffffff021916908373ffffffffffffffffffffffffffffffffffffffff1602179055506000600260006101000a81548173ffffffffffffffffffffffffffffffffffffffff021916908373ffffffffffffffffffffffffffffffffffffffff1602179055506001600560006101000a81548160ff0219169083151502179055506000600560016101000a81548160ff0219169083151502179055506000600560026101000a81548173ffffffffffffffffffffffffffffffffffffffff021916908373ffffffffffffffffffffffffffffffffffffffff1602179055506000600860006101000a81548173ffffffffffffffffffffffffffffffffffffffff021916908373ffffffffffffffffffffffffffffffffffffffff1602179055503480156200014f57600080fd5b506040805190810160405280600481526020017f4a4555520000000000000000000000000000000000000000000000000000000081525080600081511115156200019857600080fd5b8060009080519060200190620001b09291906200025f565b505033600160006101000a81548173ffffffffffffffffffffffffffffffffffffffff021916908373ffffffffffffffffffffffffffffffffffffffff160217905550600160009054906101000a900473ffffffffffffffffffffffffffffffffffffffff1673ffffffffffffffffffffffffffffffffffffffff167f8d2a41ca5ff551a8f68510de75177b7d56e6019c8579b5509d2be1bb41a0d0af60405160405180910390a2506200030e565b828054600181600116156101000203166002900490600052602060002090601f016020900481019282601f10620002a257805160ff1916838001178555620002d3565b82800160010185558215620002d3579182015b82811115620002d2578251825591602001919060010190620002b5565b5b509050620002e29190620002e6565b5090565b6200030b91905b8082111562000307576000816000905550600101620002ed565b5090565b90565b615084806200031e6000396000f3006080604052600436106101ee576000357c0100000000000000000000000000000000000000000000000000000000900463ffffffff1680630392d2b4146101f35780630af4187d146102945780630c79e3e61461030b57806315dacbea1461034e5780631eb96a5c146103db57806332a2fda7146103f257806340c10f1914610493578063439766ce146104e05780634d78fdc6146104f75780635ca5b3341461053a5780636805b84b1461057d578063696b5fb7146105ac5780636ec03f7a1461063c5780637c0a893d146106775780637c0efb8b146106ba5780637fa8794914610715578063822b08d014610762578063893d20e8146107bd5780638ba7e570146108145780639554c8e5146108835780639739db9d146108da5780639b53d87c1461091d5780639dc29fac14610978578063a38101cc146109c5578063a773d98a14610a1c578063b33712c514610a4f578063bc40bac614610a66578063beabacc814610b0f578063c4e41b2214610b7c578063c60c13a314610ba7578063d2b7d95714610bf4578063d372e3a014610c59578063d4859dc514610cb4578063d98de8a514610cf7578063e1f21c6714610d78578063e3a861a414610de5578063eae5a62d14610e40578063f538534514610e97578063f8b2cb4f14610eae578063fd89e22314610f05575b600080fd5b3480156101ff57600080fd5b5061027a600480360381019080803573ffffffffffffffffffffffffffffffffffffffff169060200190929190803590602001908201803590602001908080601f0160208091040260200160405190810160405280939291908181526020018383808284378201915050505050509192919290505050610f48565b604051808215151515815260200191505060405180910390f35b3480156102a057600080fd5b506102f5600480360381019080803573ffffffffffffffffffffffffffffffffffffffff169060200190929190803573ffffffffffffffffffffffffffffffffffffffff1690602001909291905050506110ae565b6040518082815260200191505060405180910390f35b34801561031757600080fd5b5061034c600480360381019080803573ffffffffffffffffffffffffffffffffffffffff1690602001909291905050506111c9565b005b34801561035a57600080fd5b506103d9600480360381019080803573ffffffffffffffffffffffffffffffffffffffff169060200190929190803573ffffffffffffffffffffffffffffffffffffffff169060200190929190803573ffffffffffffffffffffffffffffffffffffffff16906020019092919080359060200190929190505050611372565b005b3480156103e757600080fd5b506103f06116fc565b005b3480156103fe57600080fd5b50610479600480360381019080803573ffffffffffffffffffffffffffffffffffffffff169060200190929190803590602001908201803590602001908080601f01602080910402602001604051908101604052809392919081815260200183838082843782019150505050505091929192905050506118f5565b604051808215151515815260200191505060405180910390f35b34801561049f57600080fd5b506104de600480360381019080803573ffffffffffffffffffffffffffffffffffffffff16906020019092919080359060200190929190505050611a06565b005b3480156104ec57600080fd5b506104f5611c7c565b005b34801561050357600080fd5b50610538600480360381019080803573ffffffffffffffffffffffffffffffffffffffff169060200190929190505050611d32565b005b34801561054657600080fd5b5061057b600480360381019080803573ffffffffffffffffffffffffffffffffffffffff169060200190929190505050611e42565b005b34801561058957600080fd5b50610592611fbe565b604051808215151515815260200191505060405180910390f35b3480156105b857600080fd5b506105c1611fd5565b6040518080602001828103825283818151815260200191508051906020019080838360005b838110156106015780820151818401526020810190506105e6565b50505050905090810190601f16801561062e5780820380516001836020036101000a031916815260200191505b509250505060405180910390f35b34801561064857600080fd5b50610675600480360381019080803590602001908201803590602001919091929391929390505050612077565b005b34801561068357600080fd5b506106b8600480360381019080803573ffffffffffffffffffffffffffffffffffffffff16906020019092919050505061230c565b005b3480156106c657600080fd5b50610713600480360381019080803573ffffffffffffffffffffffffffffffffffffffff16906020019092919080359060200190820180359060200191909192939192939050505061241c565b005b34801561072157600080fd5b50610760600480360381019080803573ffffffffffffffffffffffffffffffffffffffff16906020019092919080359060200190929190505050612654565b005b34801561076e57600080fd5b506107bb600480360381019080803573ffffffffffffffffffffffffffffffffffffffff16906020019092919080359060200190820180359060200191909192939192939050505061276d565b005b3480156107c957600080fd5b506107d26129a5565b604051808273ffffffffffffffffffffffffffffffffffffffff1673ffffffffffffffffffffffffffffffffffffffff16815260200191505060405180910390f35b34801561082057600080fd5b50610881600480360381019080803573ffffffffffffffffffffffffffffffffffffffff16906020019092919080359060200190929190803590602001909291908035906020019082018035906020019190919293919293905050506129cf565b005b34801561088f57600080fd5b50610898612b44565b604051808273ffffffffffffffffffffffffffffffffffffffff1673ffffffffffffffffffffffffffffffffffffffff16815260200191505060405180910390f35b3480156108e657600080fd5b5061091b600480360381019080803573ffffffffffffffffffffffffffffffffffffffff169060200190929190505050612b6e565b005b34801561092957600080fd5b5061095e600480360381019080803573ffffffffffffffffffffffffffffffffffffffff169060200190929190505050612d43565b604051808215151515815260200191505060405180910390f35b34801561098457600080fd5b506109c3600480360381019080803573ffffffffffffffffffffffffffffffffffffffff16906020019092919080359060200190929190505050612dd7565b005b3480156109d157600080fd5b506109da61304d565b604051808273ffffffffffffffffffffffffffffffffffffffff1673ffffffffffffffffffffffffffffffffffffffff16815260200191505060405180910390f35b348015610a2857600080fd5b50610a31613077565b60405180826000191660001916815260200191505060405180910390f35b348015610a5b57600080fd5b50610a646130e7565b005b348015610a7257600080fd5b50610acd600480360381019080803590602001908201803590602001908080601f016020809104026020016040519081016040528093929190818152602001838380828437820191505050505050919291929050505061319d565b604051808273ffffffffffffffffffffffffffffffffffffffff1673ffffffffffffffffffffffffffffffffffffffff16815260200191505060405180910390f35b348015610b1b57600080fd5b50610b7a600480360381019080803573ffffffffffffffffffffffffffffffffffffffff169060200190929190803573ffffffffffffffffffffffffffffffffffffffff1690602001909291908035906020019092919050505061330b565b005b348015610b8857600080fd5b50610b9161356b565b6040518082815260200191505060405180910390f35b348015610bb357600080fd5b50610bf2600480360381019080803573ffffffffffffffffffffffffffffffffffffffff16906020019092919080359060200190929190505050613618565b005b348015610c0057600080fd5b50610c57600480360381019080803573ffffffffffffffffffffffffffffffffffffffff16906020019092919080359060200190929190803590602001908201803590602001919091929391929390505050613731565b005b348015610c6557600080fd5b50610c9a600480360381019080803573ffffffffffffffffffffffffffffffffffffffff16906020019092919050505061389a565b604051808215151515815260200191505060405180910390f35b348015610cc057600080fd5b50610cf5600480360381019080803573ffffffffffffffffffffffffffffffffffffffff16906020019092919050505061392b565b005b348015610d0357600080fd5b50610d5e600480360381019080803590602001908201803590602001908080601f0160208091040260200160405190810160405280939291908181526020018383808284378201915050505050509192919290505050613aa7565b604051808215151515815260200191505060405180910390f35b348015610d8457600080fd5b50610de3600480360381019080803573ffffffffffffffffffffffffffffffffffffffff169060200190929190803573ffffffffffffffffffffffffffffffffffffffff16906020019092919080359060200190929190505050613b7e565b005b348015610df157600080fd5b50610e3e600480360381019080803573ffffffffffffffffffffffffffffffffffffffff169060200190929190803590602001908201803590602001919091929391929390505050613dde565b005b348015610e4c57600080fd5b50610e55614175565b604051808273ffffffffffffffffffffffffffffffffffffffff1673ffffffffffffffffffffffffffffffffffffffff16815260200191505060405180910390f35b348015610ea357600080fd5b50610eac61419f565b005b348015610eba57600080fd5b50610eef600480360381019080803573ffffffffffffffffffffffffffffffffffffffff169060200190929190505050614408565b6040518082815260200191505060405180910390f35b348015610f1157600080fd5b50610f46600480360381019080803573ffffffffffffffffffffffffffffffffffffffff1690602001909291905050506144ee565b005b600082600073ffffffffffffffffffffffffffffffffffffffff168173ffffffffffffffffffffffffffffffffffffffff1614151515610f8757600080fd5b826000815114151515610f9957600080fd5b600360008673ffffffffffffffffffffffffffffffffffffffff1673ffffffffffffffffffffffffffffffffffffffff16815260200190815260200160002060009054906101000a900460ff1680156110a45750600460008673ffffffffffffffffffffffffffffffffffffffff1673ffffffffffffffffffffffffffffffffffffffff168152602001908152602001600020846040518082805190602001908083835b602083101515611062578051825260208201915060208101905060208303925061103d565b6001836020036101000a038019825116818451168082178552505050505050905001915050908152602001604051809103902060009054906101000a900460ff165b9250505092915050565b60006110b8612b44565b73ffffffffffffffffffffffffffffffffffffffff16630af4187d84846040518363ffffffff167c0100000000000000000000000000000000000000000000000000000000028152600401808373ffffffffffffffffffffffffffffffffffffffff1673ffffffffffffffffffffffffffffffffffffffff1681526020018273ffffffffffffffffffffffffffffffffffffffff1673ffffffffffffffffffffffffffffffffffffffff16815260200192505050602060405180830381600087803b15801561118657600080fd5b505af115801561119a573d6000803e3d6000fd5b505050506040513d60208110156111b057600080fd5b8101908080519060200190929190505050905092915050565b80600115156111d782614697565b15151415156111e557600080fd5b6040805190810160405280601181526020017f7365745f63727964725f73746f72616765000000000000000000000000000000815250600115156112293383610f48565b151514151561123757600080fd5b60011515611243611fbe565b151514151561125157600080fd5b3073ffffffffffffffffffffffffffffffffffffffff168373ffffffffffffffffffffffffffffffffffffffff161415151561128c57600080fd5b600560029054906101000a900473ffffffffffffffffffffffffffffffffffffffff1673ffffffffffffffffffffffffffffffffffffffff168373ffffffffffffffffffffffffffffffffffffffff16141515156112e957600080fd5b82600560026101000a81548173ffffffffffffffffffffffffffffffffffffffff021916908373ffffffffffffffffffffffffffffffffffffffff1602179055508273ffffffffffffffffffffffffffffffffffffffff167f252da09c88b02fec1dd57c3183573d05d69ae5da5ca0ce6e6eff3e35e9662fdf60405160405180910390a2505050565b6001151561137e61304d565b73ffffffffffffffffffffffffffffffffffffffff1663b08bbff0866040518263ffffffff167c0100000000000000000000000000000000000000000000000000000000028152600401808273ffffffffffffffffffffffffffffffffffffffff1673ffffffffffffffffffffffffffffffffffffffff168152602001806020018281038252600b8152602001807f7370656e645f66756e647300000000000000000000000000000000000000000081525060200192505050602060405180830381600087803b15801561145157600080fd5b505af1158015611465573d6000803e3d6000fd5b505050506040513d602081101561147b57600080fd5b8101908080519060200190929190505050151514151561149a57600080fd5b600115156114a661304d565b73ffffffffffffffffffffffffffffffffffffffff1663b08bbff0856040518263ffffffff167c0100000000000000000000000000000000000000000000000000000000028152600401808273ffffffffffffffffffffffffffffffffffffffff1673ffffffffffffffffffffffffffffffffffffffff168152602001806020018281038252600e8152602001807f7472616e736665725f66756e647300000000000000000000000000000000000081525060200192505050602060405180830381600087803b15801561157957600080fd5b505af115801561158d573d6000803e3d6000fd5b505050506040513d60208110156115a357600080fd5b810190808051906020019092919050505015151415156115c257600080fd5b600115156115ce61304d565b73ffffffffffffffffffffffffffffffffffffffff1663b08bbff0846040518263ffffffff167c0100000000000000000000000000000000000000000000000000000000028152600401808273ffffffffffffffffffffffffffffffffffffffff1673ffffffffffffffffffffffffffffffffffffffff168152602001806020018281038252600d8152602001807f726563656976655f66756e64730000000000000000000000000000000000000081525060200192505050602060405180830381600087803b1580156116a157600080fd5b505af11580156116b5573d6000803e3d6000fd5b505050506040513d60208110156116cb57600080fd5b810190808051906020019092919050505015151415156116ea57600080fd5b6116f6848484846146e6565b50505050565b60008073ffffffffffffffffffffffffffffffffffffffff16600260009054906101000a900473ffffffffffffffffffffffffffffffffffffffff1673ffffffffffffffffffffffffffffffffffffffff161415151561175b57600080fd5b600160009054906101000a900473ffffffffffffffffffffffffffffffffffffffff1673ffffffffffffffffffffffffffffffffffffffff163373ffffffffffffffffffffffffffffffffffffffff1614806118045750600260009054906101000a900473ffffffffffffffffffffffffffffffffffffffff1673ffffffffffffffffffffffffffffffffffffffff163373ffffffffffffffffffffffffffffffffffffffff16145b151561180f57600080fd5b600260009054906101000a900473ffffffffffffffffffffffffffffffffffffffff1690506000600260006101000a81548173ffffffffffffffffffffffffffffffffffffffff021916908373ffffffffffffffffffffffffffffffffffffffff1602179055508073ffffffffffffffffffffffffffffffffffffffff16600160009054906101000a900473ffffffffffffffffffffffffffffffffffffffff1673ffffffffffffffffffffffffffffffffffffffff167f223225995c0c0965e8752fd93ca10aba4bafcbca26f31b1565955adb68e76bda60405160405180910390a350565b600082600073ffffffffffffffffffffffffffffffffffffffff168173ffffffffffffffffffffffffffffffffffffffff161415151561193457600080fd5b82600081511415151561194657600080fd5b600460008673ffffffffffffffffffffffffffffffffffffffff1673ffffffffffffffffffffffffffffffffffffffff168152602001908152602001600020846040518082805190602001908083835b6020831015156119bb5780518252602082019150602081019050602083039250611996565b6001836020036101000a038019825116818451168082178552505050505050905001915050908152602001604051809103902060009054906101000a900460ff169250505092915050565b60001515611a12611fbe565b1515141515611a2057600080fd5b6040805190810160405280600a81526020017f6d696e745f63727964720000000000000000000000000000000000000000000081525060011515611a643383610f48565b1515141515611a7257600080fd5b611a7a612b44565b73ffffffffffffffffffffffffffffffffffffffff16635b86f59984846040518363ffffffff167c0100000000000000000000000000000000000000000000000000000000028152600401808373ffffffffffffffffffffffffffffffffffffffff1673ffffffffffffffffffffffffffffffffffffffff16815260200182815260200192505050600060405180830381600087803b158015611b1c57600080fd5b505af1158015611b30573d6000803e3d6000fd5b5050505060011515611b766040805190810160405280600581526020017f6572633230000000000000000000000000000000000000000000000000000000815250613aa7565b15151415611c7757611bbc6040805190810160405280600581526020017f657263323000000000000000000000000000000000000000000000000000000081525061319d565b73ffffffffffffffffffffffffffffffffffffffff1663958689d784846040518363ffffffff167c0100000000000000000000000000000000000000000000000000000000028152600401808373ffffffffffffffffffffffffffffffffffffffff1673ffffffffffffffffffffffffffffffffffffffff16815260200182815260200192505050600060405180830381600087803b158015611c5e57600080fd5b505af1158015611c72573d6000803e3d6000fd5b505050505b505050565b6040805190810160405280600e81526020017f70617573655f636f6e747261637400000000000000000000000000000000000081525060011515611cc03383610f48565b1515141515611cce57600080fd5b60001515611cda611fbe565b1515141515611ce857600080fd5b6001600560006101000a81548160ff0219169083151502179055507f14cc32b2b0edca88201ca20553c392d108a2feb2c750a0ee14c707b4f34fbee260405160405180910390a150565b6040805190810160405280600f81526020017f756e626c6f636b5f6163636f756e74000000000000000000000000000000000081525060011515611d763383610f48565b1515141515611d8457600080fd5b611d8c612b44565b73ffffffffffffffffffffffffffffffffffffffff16634d78fdc6836040518263ffffffff167c0100000000000000000000000000000000000000000000000000000000028152600401808273ffffffffffffffffffffffffffffffffffffffff1673ffffffffffffffffffffffffffffffffffffffff168152602001915050600060405180830381600087803b158015611e2657600080fd5b505af1158015611e3a573d6000803e3d6000fd5b505050505050565b611e4a6129a5565b73ffffffffffffffffffffffffffffffffffffffff163373ffffffffffffffffffffffffffffffffffffffff16141515611e8357600080fd5b80600073ffffffffffffffffffffffffffffffffffffffff168173ffffffffffffffffffffffffffffffffffffffff1614151515611ec057600080fd5b60001515600360008473ffffffffffffffffffffffffffffffffffffffff1673ffffffffffffffffffffffffffffffffffffffff16815260200190815260200160002060009054906101000a900460ff161515141515611f1f57600080fd5b6001600360008473ffffffffffffffffffffffffffffffffffffffff1673ffffffffffffffffffffffffffffffffffffffff16815260200190815260200160002060006101000a81548160ff0219169083151502179055508173ffffffffffffffffffffffffffffffffffffffff167f7f0b61f78ab0b549b68ce61404f4ee01a26ffdf8d421d099d271d789aaea3a8e60405160405180910390a25050565b6000600560009054906101000a900460ff16905090565b606060008054600181600116156101000203166002900480601f01602080910402602001604051908101604052809291908181526020018280546001816001161561010002031660029004801561206d5780601f106120425761010080835404028352916020019161206d565b820191906000526020600020905b81548152906001019060200180831161205057829003601f168201915b5050505050905090565b600082828080601f016020809104026020016040519081016040528093929190818152602001838380828437820191505050505050600081511115156120bc57600080fd5b6040805190810160405280601181526020017f72656d6f76655f63727964725f76696577000000000000000000000000000000815250600115156121003383610f48565b151514151561210e57600080fd5b6001151561211a611fbe565b151514151561212857600080fd5b600073ffffffffffffffffffffffffffffffffffffffff166006868660405180838380828437820191505092505050908152602001604051809103902060009054906101000a900473ffffffffffffffffffffffffffffffffffffffff1673ffffffffffffffffffffffffffffffffffffffff16141515156121a957600080fd5b6006858560405180838380828437820191505092505050908152602001604051809103902060009054906101000a900473ffffffffffffffffffffffffffffffffffffffff169250600073ffffffffffffffffffffffffffffffffffffffff166006868660405180838380828437820191505092505050908152602001604051809103902060009054906101000a905050506000600760008573ffffffffffffffffffffffffffffffffffffffff1673ffffffffffffffffffffffffffffffffffffffff16815260200190815260200160002060006101000a81548160ff0219169083151502179055508273ffffffffffffffffffffffffffffffffffffffff167f334317094b161d745f7febc896c88d1973f98db8cd2941436406bbd432a6055f868660405180838380828437820191505092505050604051809103902060405180826000191660001916815260200191505060405180910390a25050505050565b6040805190810160405280600d81526020017f626c6f636b5f6163636f756e7400000000000000000000000000000000000000815250600115156123503383610f48565b151514151561235e57600080fd5b612366612b44565b73ffffffffffffffffffffffffffffffffffffffff16637c0a893d836040518263ffffffff167c0100000000000000000000000000000000000000000000000000000000028152600401808273ffffffffffffffffffffffffffffffffffffffff1673ffffffffffffffffffffffffffffffffffffffff168152602001915050600060405180830381600087803b15801561240057600080fd5b505af1158015612414573d6000803e3d6000fd5b505050505050565b6124246129a5565b73ffffffffffffffffffffffffffffffffffffffff163373ffffffffffffffffffffffffffffffffffffffff1614151561245d57600080fd5b82600073ffffffffffffffffffffffffffffffffffffffff168173ffffffffffffffffffffffffffffffffffffffff161415151561249a57600080fd5b82828080601f01602080910402602001604051908101604052809392919081815260200183838082843782019150505050505060008151141515156124de57600080fd5b60011515600460008773ffffffffffffffffffffffffffffffffffffffff1673ffffffffffffffffffffffffffffffffffffffff168152602001908152602001600020858560405180838380828437820191505092505050908152602001604051809103902060009054906101000a900460ff16151514151561256057600080fd5b6000600460008773ffffffffffffffffffffffffffffffffffffffff1673ffffffffffffffffffffffffffffffffffffffff168152602001908152602001600020858560405180838380828437820191505092505050908152602001604051809103902060006101000a81548160ff0219169083151502179055508473ffffffffffffffffffffffffffffffffffffffff167ffef063ea41a1d4d73bca77475bd8fc3c81a1145b2f3afa879a1530bb6a8401e3858560405180838380828437820191505092505050604051809103902060405180826000191660001916815260200191505060405180910390a25050505050565b6040805190810160405280601581526020017f756e626c6f636b5f6163636f756e745f66756e64730000000000000000000000815250600115156126983383610f48565b15151415156126a657600080fd5b6126ae612b44565b73ffffffffffffffffffffffffffffffffffffffff16637fa8794984846040518363ffffffff167c0100000000000000000000000000000000000000000000000000000000028152600401808373ffffffffffffffffffffffffffffffffffffffff1673ffffffffffffffffffffffffffffffffffffffff16815260200182815260200192505050600060405180830381600087803b15801561275057600080fd5b505af1158015612764573d6000803e3d6000fd5b50505050505050565b6127756129a5565b73ffffffffffffffffffffffffffffffffffffffff163373ffffffffffffffffffffffffffffffffffffffff161415156127ae57600080fd5b82600073ffffffffffffffffffffffffffffffffffffffff168173ffffffffffffffffffffffffffffffffffffffff16141515156127eb57600080fd5b82828080601f016020809104026020016040519081016040528093929190818152602001838380828437820191505050505050600081511415151561282f57600080fd5b60001515600460008773ffffffffffffffffffffffffffffffffffffffff1673ffffffffffffffffffffffffffffffffffffffff168152602001908152602001600020858560405180838380828437820191505092505050908152602001604051809103902060009054906101000a900460ff1615151415156128b157600080fd5b6001600460008773ffffffffffffffffffffffffffffffffffffffff1673ffffffffffffffffffffffffffffffffffffffff168152602001908152602001600020858560405180838380828437820191505092505050908152602001604051809103902060006101000a81548160ff0219169083151502179055508473ffffffffffffffffffffffffffffffffffffffff167fc1b43c9c4075dfc74444e2d220aecef01cd89d63abb613d28f1f727c973f1f50858560405180838380828437820191505092505050604051809103902060405180826000191660001916815260200191505060405180910390a25050505050565b6000600160009054906101000a900473ffffffffffffffffffffffffffffffffffffffff16905090565b6040805190810160405280600c81526020017f657865637574655f63616c6c000000000000000000000000000000000000000081525060011515612a133383610f48565b1515141515612a2157600080fd5b60001515600560019054906101000a900460ff161515141515612a4357600080fd5b6001600560016101000a81548160ff0219169083151502179055508573ffffffffffffffffffffffffffffffffffffffff168585858560405180838380828437820191505092505050600060405180830381858888f19350505050506000600560016101000a81548160ff0219169083151502179055508573ffffffffffffffffffffffffffffffffffffffff167f376185a1f1832ecd7ffd6a421a54d437594db00f80f6122e8534d19d978b65b686868686604051808383808284378201915050925050506040518091039020604051808481526020018381526020018260001916600019168152602001935050505060405180910390a2505050505050565b6000600560029054906101000a900473ffffffffffffffffffffffffffffffffffffffff16905090565b612b766129a5565b73ffffffffffffffffffffffffffffffffffffffff163373ffffffffffffffffffffffffffffffffffffffff16141515612baf57600080fd5b600073ffffffffffffffffffffffffffffffffffffffff16600260009054906101000a900473ffffffffffffffffffffffffffffffffffffffff1673ffffffffffffffffffffffffffffffffffffffff16141515612c0c57600080fd5b600073ffffffffffffffffffffffffffffffffffffffff168173ffffffffffffffffffffffffffffffffffffffff1614151515612c4857600080fd5b3073ffffffffffffffffffffffffffffffffffffffff168173ffffffffffffffffffffffffffffffffffffffff1614151515612c8357600080fd5b80600260006101000a81548173ffffffffffffffffffffffffffffffffffffffff021916908373ffffffffffffffffffffffffffffffffffffffff1602179055508073ffffffffffffffffffffffffffffffffffffffff16600160009054906101000a900473ffffffffffffffffffffffffffffffffffffffff1673ffffffffffffffffffffffffffffffffffffffff167f0c5d18b25c2665dfeec8ea7956663ec48f079fdd04799ddd335f2fdce1a9fceb60405160405180910390a350565b600081600073ffffffffffffffffffffffffffffffffffffffff168173ffffffffffffffffffffffffffffffffffffffff1614151515612d8257600080fd5b600360008473ffffffffffffffffffffffffffffffffffffffff1673ffffffffffffffffffffffffffffffffffffffff16815260200190815260200160002060009054906101000a900460ff16915050919050565b60001515612de3611fbe565b1515141515612df157600080fd5b6040805190810160405280600a81526020017f6275726e5f63727964720000000000000000000000000000000000000000000081525060011515612e353383610f48565b1515141515612e4357600080fd5b612e4b612b44565b73ffffffffffffffffffffffffffffffffffffffff1663ff05694984846040518363ffffffff167c0100000000000000000000000000000000000000000000000000000000028152600401808373ffffffffffffffffffffffffffffffffffffffff1673ffffffffffffffffffffffffffffffffffffffff16815260200182815260200192505050600060405180830381600087803b158015612eed57600080fd5b505af1158015612f01573d6000803e3d6000fd5b5050505060011515612f476040805190810160405280600581526020017f6572633230000000000000000000000000000000000000000000000000000000815250613aa7565b1515141561304857612f8d6040805190810160405280600581526020017f657263323000000000000000000000000000000000000000000000000000000081525061319d565b73ffffffffffffffffffffffffffffffffffffffff1663ed810cfa84846040518363ffffffff167c0100000000000000000000000000000000000000000000000000000000028152600401808373ffffffffffffffffffffffffffffffffffffffff1673ffffffffffffffffffffffffffffffffffffffff16815260200182815260200192505050600060405180830381600087803b15801561302f57600080fd5b505af1158015613043573d6000803e3d6000fd5b505050505b505050565b6000600860009054906101000a900473ffffffffffffffffffffffffffffffffffffffff16905090565b60008060405180828054600181600116156101000203166002900480156130d55780601f106130b35761010080835404028352918201916130d5565b820191906000526020600020905b8154815290600101906020018083116130c1575b50509150506040518091039020905090565b6040805190810160405280601081526020017f756e70617573655f636f6e7472616374000000000000000000000000000000008152506001151561312b3383610f48565b151514151561313957600080fd5b60011515613145611fbe565b151514151561315357600080fd5b6000600560006101000a81548160ff0219169083151502179055507f6249a5c797c884cbf33e63e8cfc250816032db24e22051de68a388315e64afc660405160405180910390a150565b600081600081511115156131b057600080fd5b600073ffffffffffffffffffffffffffffffffffffffff166006846040518082805190602001908083835b60208310151561320057805182526020820191506020810190506020830392506131db565b6001836020036101000a038019825116818451168082178552505050505050905001915050908152602001604051809103902060009054906101000a900473ffffffffffffffffffffffffffffffffffffffff1673ffffffffffffffffffffffffffffffffffffffff161415151561327757600080fd5b6006836040518082805190602001908083835b6020831015156132af578051825260208201915060208101905060208303925061328a565b6001836020036101000a038019825116818451168082178552505050505050905001915050908152602001604051809103902060009054906101000a900473ffffffffffffffffffffffffffffffffffffffff16915050919050565b6001151561331761304d565b73ffffffffffffffffffffffffffffffffffffffff1663b08bbff0856040518263ffffffff167c0100000000000000000000000000000000000000000000000000000000028152600401808273ffffffffffffffffffffffffffffffffffffffff1673ffffffffffffffffffffffffffffffffffffffff168152602001806020018281038252600e8152602001807f7472616e736665725f66756e647300000000000000000000000000000000000081525060200192505050602060405180830381600087803b1580156133ea57600080fd5b505af11580156133fe573d6000803e3d6000fd5b505050506040513d602081101561341457600080fd5b8101908080519060200190929190505050151514151561343357600080fd5b6001151561343f61304d565b73ffffffffffffffffffffffffffffffffffffffff1663b08bbff0846040518263ffffffff167c0100000000000000000000000000000000000000000000000000000000028152600401808273ffffffffffffffffffffffffffffffffffffffff1673ffffffffffffffffffffffffffffffffffffffff168152602001806020018281038252600d8152602001807f726563656976655f66756e64730000000000000000000000000000000000000081525060200192505050602060405180830381600087803b15801561351257600080fd5b505af1158015613526573d6000803e3d6000fd5b505050506040513d602081101561353c57600080fd5b8101908080519060200190929190505050151514151561355b57600080fd5b6135668383836149c2565b505050565b6000613575612b44565b73ffffffffffffffffffffffffffffffffffffffff1663c4e41b226040518163ffffffff167c0100000000000000000000000000000000000000000000000000000000028152600401602060405180830381600087803b1580156135d857600080fd5b505af11580156135ec573d6000803e3d6000fd5b505050506040513d602081101561360257600080fd5b8101908080519060200190929190505050905090565b6040805190810160405280601381526020017f626c6f636b5f6163636f756e745f66756e6473000000000000000000000000008152506001151561365c3383610f48565b151514151561366a57600080fd5b613672612b44565b73ffffffffffffffffffffffffffffffffffffffff1663c60c13a384846040518363ffffffff167c0100000000000000000000000000000000000000000000000000000000028152600401808373ffffffffffffffffffffffffffffffffffffffff1673ffffffffffffffffffffffffffffffffffffffff16815260200182815260200192505050600060405180830381600087803b15801561371457600080fd5b505af1158015613728573d6000803e3d6000fd5b50505050505050565b6040805190810160405280601481526020017f657865637574655f64656c656761746563616c6c000000000000000000000000815250600115156137753383610f48565b151514151561378357600080fd5b60001515600560019054906101000a900460ff1615151415156137a557600080fd5b6001600560016101000a81548160ff0219169083151502179055508473ffffffffffffffffffffffffffffffffffffffff16848484604051808383808284378201915050925050506000604051808303818686f492505050506000600560016101000a81548160ff0219169083151502179055508473ffffffffffffffffffffffffffffffffffffffff167ffd9a51b5876c403362d350caaea2a99618ed2c0b3eb601e0ab04606616e671888585856040518083838082843782019150509250505060405180910390206040518083815260200182600019166000191681526020019250505060405180910390a25050505050565b60008073ffffffffffffffffffffffffffffffffffffffff168273ffffffffffffffffffffffffffffffffffffffff16141515156138d757600080fd5b600760008373ffffffffffffffffffffffffffffffffffffffff1673ffffffffffffffffffffffffffffffffffffffff16815260200190815260200160002060009054906101000a900460ff169050919050565b6139336129a5565b73ffffffffffffffffffffffffffffffffffffffff163373ffffffffffffffffffffffffffffffffffffffff1614151561396c57600080fd5b80600073ffffffffffffffffffffffffffffffffffffffff168173ffffffffffffffffffffffffffffffffffffffff16141515156139a957600080fd5b60011515600360008473ffffffffffffffffffffffffffffffffffffffff1673ffffffffffffffffffffffffffffffffffffffff16815260200190815260200160002060009054906101000a900460ff161515141515613a0857600080fd5b6000600360008473ffffffffffffffffffffffffffffffffffffffff1673ffffffffffffffffffffffffffffffffffffffff16815260200190815260200160002060006101000a81548160ff0219169083151502179055508173ffffffffffffffffffffffffffffffffffffffff167f91975e22df3ba360814d3153e8eaef17954cf47d52a42840fc9747ad1086b35160405160405180910390a25050565b60008160008151111515613aba57600080fd5b600073ffffffffffffffffffffffffffffffffffffffff166006846040518082805190602001908083835b602083101515613b0a5780518252602082019150602081019050602083039250613ae5565b6001836020036101000a038019825116818451168082178552505050505050905001915050908152602001604051809103902060009054906101000a900473ffffffffffffffffffffffffffffffffffffffff1673ffffffffffffffffffffffffffffffffffffffff161415915050919050565b60011515613b8a61304d565b73ffffffffffffffffffffffffffffffffffffffff1663b08bbff0856040518263ffffffff167c0100000000000000000000000000000000000000000000000000000000028152600401808273ffffffffffffffffffffffffffffffffffffffff1673ffffffffffffffffffffffffffffffffffffffff168152602001806020018281038252600e8152602001807f6772616e745f617070726f76616c00000000000000000000000000000000000081525060200192505050602060405180830381600087803b158015613c5d57600080fd5b505af1158015613c71573d6000803e3d6000fd5b505050506040513d6020811015613c8757600080fd5b81019080805190602001909291905050501515141515613ca657600080fd5b60011515613cb261304d565b73ffffffffffffffffffffffffffffffffffffffff1663b08bbff0846040518263ffffffff167c0100000000000000000000000000000000000000000000000000000000028152600401808273ffffffffffffffffffffffffffffffffffffffff1673ffffffffffffffffffffffffffffffffffffffff168152602001806020018281038252600c8152602001807f6765745f617070726f76616c000000000000000000000000000000000000000081525060200192505050602060405180830381600087803b158015613d8557600080fd5b505af1158015613d99573d6000803e3d6000fd5b505050506040513d6020811015613daf57600080fd5b81019080805190602001909291905050501515141515613dce57600080fd5b613dd9838383614c69565b505050565b6000808460011515613def82614697565b1515141515613dfd57600080fd5b84848080601f01602080910402602001604051908101604052809392919081815260200183838082843782019150505050505060008151111515613e4057600080fd5b6040805190810160405280600e81526020017f7365745f63727964725f7669657700000000000000000000000000000000000081525060011515613e843383610f48565b1515141515613e9257600080fd5b60011515613e9e611fbe565b1515141515613eac57600080fd5b3073ffffffffffffffffffffffffffffffffffffffff168873ffffffffffffffffffffffffffffffffffffffff1614151515613ee757600080fd5b600073ffffffffffffffffffffffffffffffffffffffff166006888860405180838380828437820191505092505050908152602001604051809103902060009054906101000a900473ffffffffffffffffffffffffffffffffffffffff1673ffffffffffffffffffffffffffffffffffffffff16141515613f6757600080fd5b8794508473ffffffffffffffffffffffffffffffffffffffff1663230f6e836040518163ffffffff167c0100000000000000000000000000000000000000000000000000000000028152600401602060405180830381600087803b158015613fce57600080fd5b505af1158015613fe2573d6000803e3d6000fd5b505050506040513d6020811015613ff857600080fd5b81019080805190602001909291905050509350868660405180838380828437820191505092505050604051809103902060001916846000191614151561403d57600080fd5b876006888860405180838380828437820191505092505050908152602001604051809103902060006101000a81548173ffffffffffffffffffffffffffffffffffffffff021916908373ffffffffffffffffffffffffffffffffffffffff1602179055506001600760008a73ffffffffffffffffffffffffffffffffffffffff1673ffffffffffffffffffffffffffffffffffffffff16815260200190815260200160002060006101000a81548160ff0219169083151502179055508773ffffffffffffffffffffffffffffffffffffffff167fc5a10da5d84dc2a879ce04afc23740db6e9203195d833111485d0d6a47ee2df6888860405180838380828437820191505092505050604051809103902060405180826000191660001916815260200191505060405180910390a25050505050505050565b6000600260009054906101000a900473ffffffffffffffffffffffffffffffffffffffff16905090565b60008073ffffffffffffffffffffffffffffffffffffffff16600260009054906101000a900473ffffffffffffffffffffffffffffffffffffffff1673ffffffffffffffffffffffffffffffffffffffff16141515156141fe57600080fd5b600260009054906101000a900473ffffffffffffffffffffffffffffffffffffffff1673ffffffffffffffffffffffffffffffffffffffff163373ffffffffffffffffffffffffffffffffffffffff1614151561425a57600080fd5b600160009054906101000a900473ffffffffffffffffffffffffffffffffffffffff169050600260009054906101000a900473ffffffffffffffffffffffffffffffffffffffff16600160006101000a81548173ffffffffffffffffffffffffffffffffffffffff021916908373ffffffffffffffffffffffffffffffffffffffff1602179055506000600260006101000a81548173ffffffffffffffffffffffffffffffffffffffff021916908373ffffffffffffffffffffffffffffffffffffffff160217905550600160009054906101000a900473ffffffffffffffffffffffffffffffffffffffff1673ffffffffffffffffffffffffffffffffffffffff167f8d2a41ca5ff551a8f68510de75177b7d56e6019c8579b5509d2be1bb41a0d0af60405160405180910390a2600160009054906101000a900473ffffffffffffffffffffffffffffffffffffffff1673ffffffffffffffffffffffffffffffffffffffff168173ffffffffffffffffffffffffffffffffffffffff167f3912b3f6ff73ee5d4cd2894666c349dec2d3d2ed7dc6d35c28c5eabf105a88d860405160405180910390a350565b6000614412612b44565b73ffffffffffffffffffffffffffffffffffffffff1663f8b2cb4f836040518263ffffffff167c0100000000000000000000000000000000000000000000000000000000028152600401808273ffffffffffffffffffffffffffffffffffffffff1673ffffffffffffffffffffffffffffffffffffffff168152602001915050602060405180830381600087803b1580156144ac57600080fd5b505af11580156144c0573d6000803e3d6000fd5b505050506040513d60208110156144d657600080fd5b81019080805190602001909291905050509050919050565b80600115156144fc82614697565b151514151561450a57600080fd5b6040805190810160405280601481526020017f7365745f6c6963656e73655f72656769737472790000000000000000000000008152506001151561454e3383610f48565b151514151561455c57600080fd5b60011515614568611fbe565b151514151561457657600080fd5b3073ffffffffffffffffffffffffffffffffffffffff168373ffffffffffffffffffffffffffffffffffffffff16141515156145b157600080fd5b600860009054906101000a900473ffffffffffffffffffffffffffffffffffffffff1673ffffffffffffffffffffffffffffffffffffffff168373ffffffffffffffffffffffffffffffffffffffff161415151561460e57600080fd5b82600860006101000a81548173ffffffffffffffffffffffffffffffffffffffff021916908373ffffffffffffffffffffffffffffffffffffffff1602179055508273ffffffffffffffffffffffffffffffffffffffff167fc5be812e2a89f8b60936fb7931b8d468a0f88b2c1c8d9d0e9aef86da8b61239d60405160405180910390a2505050565b600080600073ffffffffffffffffffffffffffffffffffffffff168373ffffffffffffffffffffffffffffffffffffffff16141515156146d657600080fd5b823b905060008111915050919050565b600115156146f33361389a565b151514151561470157600080fd5b6000151561470d611fbe565b151514151561471b57600080fd5b614723612b44565b73ffffffffffffffffffffffffffffffffffffffff166315dacbea858585856040518563ffffffff167c0100000000000000000000000000000000000000000000000000000000028152600401808573ffffffffffffffffffffffffffffffffffffffff1673ffffffffffffffffffffffffffffffffffffffff1681526020018473ffffffffffffffffffffffffffffffffffffffff1673ffffffffffffffffffffffffffffffffffffffff1681526020018373ffffffffffffffffffffffffffffffffffffffff1673ffffffffffffffffffffffffffffffffffffffff168152602001828152602001945050505050600060405180830381600087803b15801561482d57600080fd5b505af1158015614841573d6000803e3d6000fd5b50505050600115156148876040805190810160405280600581526020017f6572633230000000000000000000000000000000000000000000000000000000815250613aa7565b151514156149bc576148cd6040805190810160405280600581526020017f657263323000000000000000000000000000000000000000000000000000000081525061319d565b73ffffffffffffffffffffffffffffffffffffffff1663a6d49dca8484846040518463ffffffff167c0100000000000000000000000000000000000000000000000000000000028152600401808473ffffffffffffffffffffffffffffffffffffffff1673ffffffffffffffffffffffffffffffffffffffff1681526020018373ffffffffffffffffffffffffffffffffffffffff1673ffffffffffffffffffffffffffffffffffffffff1681526020018281526020019350505050600060405180830381600087803b1580156149a357600080fd5b505af11580156149b7573d6000803e3d6000fd5b505050505b50505050565b600115156149cf3361389a565b15151415156149dd57600080fd5b600015156149e9611fbe565b15151415156149f757600080fd5b6149ff612b44565b73ffffffffffffffffffffffffffffffffffffffff1663beabacc88484846040518463ffffffff167c0100000000000000000000000000000000000000000000000000000000028152600401808473ffffffffffffffffffffffffffffffffffffffff1673ffffffffffffffffffffffffffffffffffffffff1681526020018373ffffffffffffffffffffffffffffffffffffffff1673ffffffffffffffffffffffffffffffffffffffff1681526020018281526020019350505050600060405180830381600087803b158015614ad557600080fd5b505af1158015614ae9573d6000803e3d6000fd5b5050505060011515614b2f6040805190810160405280600581526020017f6572633230000000000000000000000000000000000000000000000000000000815250613aa7565b15151415614c6457614b756040805190810160405280600581526020017f657263323000000000000000000000000000000000000000000000000000000081525061319d565b73ffffffffffffffffffffffffffffffffffffffff1663a6d49dca8484846040518463ffffffff167c0100000000000000000000000000000000000000000000000000000000028152600401808473ffffffffffffffffffffffffffffffffffffffff1673ffffffffffffffffffffffffffffffffffffffff1681526020018373ffffffffffffffffffffffffffffffffffffffff1673ffffffffffffffffffffffffffffffffffffffff1681526020018281526020019350505050600060405180830381600087803b158015614c4b57600080fd5b505af1158015614c5f573d6000803e3d6000fd5b505050505b505050565b600060011515614c783361389a565b1515141515614c8657600080fd5b60001515614c92611fbe565b1515141515614ca057600080fd5b614ca8612b44565b73ffffffffffffffffffffffffffffffffffffffff16630af4187d85856040518363ffffffff167c0100000000000000000000000000000000000000000000000000000000028152600401808373ffffffffffffffffffffffffffffffffffffffff1673ffffffffffffffffffffffffffffffffffffffff1681526020018273ffffffffffffffffffffffffffffffffffffffff1673ffffffffffffffffffffffffffffffffffffffff16815260200192505050602060405180830381600087803b158015614d7657600080fd5b505af1158015614d8a573d6000803e3d6000fd5b505050506040513d6020811015614da057600080fd5b81019080805190602001909291905050509050600081118015614dc35750600082145b80614dda5750600081148015614dd95750600082115b5b1515614de557600080fd5b614ded612b44565b73ffffffffffffffffffffffffffffffffffffffff1663e1f21c678585856040518463ffffffff167c0100000000000000000000000000000000000000000000000000000000028152600401808473ffffffffffffffffffffffffffffffffffffffff1673ffffffffffffffffffffffffffffffffffffffff1681526020018373ffffffffffffffffffffffffffffffffffffffff1673ffffffffffffffffffffffffffffffffffffffff1681526020018281526020019350505050600060405180830381600087803b158015614ec357600080fd5b505af1158015614ed7573d6000803e3d6000fd5b5050505060011515614f1d6040805190810160405280600581526020017f6572633230000000000000000000000000000000000000000000000000000000815250613aa7565b1515141561505257614f636040805190810160405280600581526020017f657263323000000000000000000000000000000000000000000000000000000081525061319d565b73ffffffffffffffffffffffffffffffffffffffff1663f23b6fa28585856040518463ffffffff167c0100000000000000000000000000000000000000000000000000000000028152600401808473ffffffffffffffffffffffffffffffffffffffff1673ffffffffffffffffffffffffffffffffffffffff1681526020018373ffffffffffffffffffffffffffffffffffffffff1673ffffffffffffffffffffffffffffffffffffffff1681526020018281526020019350505050600060405180830381600087803b15801561503957600080fd5b505af115801561504d573d6000803e3d6000fd5b505050505b505050505600a165627a7a72305820d2a78cd91da121a3a1532e6c4915ba8242f200a52bcc7353e28a900fc9321c7a0029",
  "source": "/* Author: Victor Mezrin  victor@mezrin.com */\n\npragma solidity ^0.4.24;\n\n\nimport '../../assetbase/JCashCrydrControllerLicensed.sol';\n\n\ncontract JEURController is JCashCrydrControllerLicensed {\n  constructor () public JCashCrydrControllerLicensed('JEUR') {}\n}\n",
  "sourcePath": "/home/user/dev/project/jibrel/jibrel-contracts/contracts/jcash/asset/JEUR/JEURController.sol",
  "compiler": {
    "name": "solc",
    "version": "0.4.24+commit.e67f0147.Emscripten.clang"
  },
  "schemaVersion": "2.0.1",
  "updatedAt": "2018-08-13T14:02:45.648Z"
}