{
  "contractName": "JGBPController",
  "abi": [
    {
      "constant": true,
      "inputs": [
        {
          "name": "_manager",
          "type": "address"
        },
        {
          "name": "_permissionName",
          "type": "string"
        }
      ],
      "name": "isManagerAllowed",
      "outputs": [
        {
          "name": "",
          "type": "bool"
        }
      ],
      "payable": false,
      "stateMutability": "view",
      "type": "function"
    },
    {
      "constant": true,
      "inputs": [
        {
          "name": "_owner",
          "type": "address"
        },
        {
          "name": "_spender",
          "type": "address"
        }
      ],
      "name": "getAllowance",
      "outputs": [
        {
          "name": "",
          "type": "uint256"
        }
      ],
      "payable": false,
      "stateMutability": "view",
      "type": "function"
    },
    {
      "constant": false,
      "inputs": [
        {
          "name": "_crydrStorage",
          "type": "address"
        }
      ],
      "name": "setCrydrStorage",
      "outputs": [],
      "payable": false,
      "stateMutability": "nonpayable",
      "type": "function"
    },
    {
      "constant": false,
      "inputs": [
        {
          "name": "_msgsender",
          "type": "address"
        },
        {
          "name": "_from",
          "type": "address"
        },
        {
          "name": "_to",
          "type": "address"
        },
        {
          "name": "_value",
          "type": "uint256"
        }
      ],
      "name": "transferFrom",
      "outputs": [],
      "payable": false,
      "stateMutability": "nonpayable",
      "type": "function"
    },
    {
      "constant": false,
      "inputs": [],
      "name": "cancelOwnershipOffer",
      "outputs": [],
      "payable": false,
      "stateMutability": "nonpayable",
      "type": "function"
    },
    {
      "constant": true,
      "inputs": [
        {
          "name": "_manager",
          "type": "address"
        },
        {
          "name": "_permissionName",
          "type": "string"
        }
      ],
      "name": "isPermissionGranted",
      "outputs": [
        {
          "name": "",
          "type": "bool"
        }
      ],
      "payable": false,
      "stateMutability": "view",
      "type": "function"
    },
    {
      "constant": false,
      "inputs": [
        {
          "name": "_account",
          "type": "address"
        },
        {
          "name": "_value",
          "type": "uint256"
        }
      ],
      "name": "mint",
      "outputs": [],
      "payable": false,
      "stateMutability": "nonpayable",
      "type": "function"
    },
    {
      "constant": false,
      "inputs": [],
      "name": "pauseContract",
      "outputs": [],
      "payable": false,
      "stateMutability": "nonpayable",
      "type": "function"
    },
    {
      "constant": false,
      "inputs": [
        {
          "name": "_account",
          "type": "address"
        }
      ],
      "name": "unblockAccount",
      "outputs": [],
      "payable": false,
      "stateMutability": "nonpayable",
      "type": "function"
    },
    {
      "constant": false,
      "inputs": [
        {
          "name": "_manager",
          "type": "address"
        }
      ],
      "name": "enableManager",
      "outputs": [],
      "payable": false,
      "stateMutability": "nonpayable",
      "type": "function"
    },
    {
      "constant": true,
      "inputs": [],
      "name": "getPaused",
      "outputs": [
        {
          "name": "",
          "type": "bool"
        }
      ],
      "payable": false,
      "stateMutability": "view",
      "type": "function"
    },
    {
      "constant": true,
      "inputs": [],
      "name": "getAssetID",
      "outputs": [
        {
          "name": "",
          "type": "string"
        }
      ],
      "payable": false,
      "stateMutability": "view",
      "type": "function"
    },
    {
      "constant": false,
      "inputs": [
        {
          "name": "_viewApiStandardName",
          "type": "string"
        }
      ],
      "name": "removeCrydrView",
      "outputs": [],
      "payable": false,
      "stateMutability": "nonpayable",
      "type": "function"
    },
    {
      "constant": false,
      "inputs": [
        {
          "name": "_account",
          "type": "address"
        }
      ],
      "name": "blockAccount",
      "outputs": [],
      "payable": false,
      "stateMutability": "nonpayable",
      "type": "function"
    },
    {
      "constant": false,
      "inputs": [
        {
          "name": "_manager",
          "type": "address"
        },
        {
          "name": "_permissionName",
          "type": "string"
        }
      ],
      "name": "revokeManagerPermission",
      "outputs": [],
      "payable": false,
      "stateMutability": "nonpayable",
      "type": "function"
    },
    {
      "constant": false,
      "inputs": [
        {
          "name": "_account",
          "type": "address"
        },
        {
          "name": "_value",
          "type": "uint256"
        }
      ],
      "name": "unblockAccountFunds",
      "outputs": [],
      "payable": false,
      "stateMutability": "nonpayable",
      "type": "function"
    },
    {
      "constant": false,
      "inputs": [
        {
          "name": "_manager",
          "type": "address"
        },
        {
          "name": "_permissionName",
          "type": "string"
        }
      ],
      "name": "grantManagerPermission",
      "outputs": [],
      "payable": false,
      "stateMutability": "nonpayable",
      "type": "function"
    },
    {
      "constant": true,
      "inputs": [],
      "name": "getOwner",
      "outputs": [
        {
          "name": "",
          "type": "address"
        }
      ],
      "payable": false,
      "stateMutability": "view",
      "type": "function"
    },
    {
      "constant": false,
      "inputs": [
        {
          "name": "_target",
          "type": "address"
        },
        {
          "name": "_suppliedGas",
          "type": "uint256"
        },
        {
          "name": "_ethValue",
          "type": "uint256"
        },
        {
          "name": "_transactionBytecode",
          "type": "bytes"
        }
      ],
      "name": "executeCall",
      "outputs": [],
      "payable": false,
      "stateMutability": "nonpayable",
      "type": "function"
    },
    {
      "constant": true,
      "inputs": [],
      "name": "getCrydrStorageAddress",
      "outputs": [
        {
          "name": "",
          "type": "address"
        }
      ],
      "payable": false,
      "stateMutability": "view",
      "type": "function"
    },
    {
      "constant": false,
      "inputs": [
        {
          "name": "_proposedOwner",
          "type": "address"
        }
      ],
      "name": "createOwnershipOffer",
      "outputs": [],
      "payable": false,
      "stateMutability": "nonpayable",
      "type": "function"
    },
    {
      "constant": true,
      "inputs": [
        {
          "name": "_manager",
          "type": "address"
        }
      ],
      "name": "isManagerEnabled",
      "outputs": [
        {
          "name": "",
          "type": "bool"
        }
      ],
      "payable": false,
      "stateMutability": "view",
      "type": "function"
    },
    {
      "constant": false,
      "inputs": [
        {
          "name": "_account",
          "type": "address"
        },
        {
          "name": "_value",
          "type": "uint256"
        }
      ],
      "name": "burn",
      "outputs": [],
      "payable": false,
      "stateMutability": "nonpayable",
      "type": "function"
    },
    {
      "constant": false,
      "inputs": [
        {
          "name": "_from",
          "type": "address"
        },
        {
          "name": "_to",
          "type": "address"
        },
        {
          "name": "_value",
          "type": "uint256"
        }
      ],
      "name": "forcedTransfer",
      "outputs": [],
      "payable": false,
      "stateMutability": "nonpayable",
      "type": "function"
    },
    {
      "constant": true,
      "inputs": [],
      "name": "getLicenseRegistryAddress",
      "outputs": [
        {
          "name": "",
          "type": "address"
        }
      ],
      "payable": false,
      "stateMutability": "view",
      "type": "function"
    },
    {
      "constant": true,
      "inputs": [],
      "name": "getAssetIDHash",
      "outputs": [
        {
          "name": "",
          "type": "bytes32"
        }
      ],
      "payable": false,
      "stateMutability": "view",
      "type": "function"
    },
    {
      "constant": false,
      "inputs": [],
      "name": "unpauseContract",
      "outputs": [],
      "payable": false,
      "stateMutability": "nonpayable",
      "type": "function"
    },
    {
      "constant": true,
      "inputs": [
        {
          "name": "_viewApiStandardName",
          "type": "string"
        }
      ],
      "name": "getCrydrViewAddress",
      "outputs": [
        {
          "name": "",
          "type": "address"
        }
      ],
      "payable": false,
      "stateMutability": "view",
      "type": "function"
    },
    {
      "constant": false,
      "inputs": [
        {
          "name": "_msgsender",
          "type": "address"
        },
        {
          "name": "_to",
          "type": "address"
        },
        {
          "name": "_value",
          "type": "uint256"
        }
      ],
      "name": "transfer",
      "outputs": [],
      "payable": false,
      "stateMutability": "nonpayable",
      "type": "function"
    },
    {
      "constant": true,
      "inputs": [],
      "name": "getTotalSupply",
      "outputs": [
        {
          "name": "",
          "type": "uint256"
        }
      ],
      "payable": false,
      "stateMutability": "view",
      "type": "function"
    },
    {
      "constant": false,
      "inputs": [
        {
          "name": "_account",
          "type": "address"
        },
        {
          "name": "_value",
          "type": "uint256"
        }
      ],
      "name": "blockAccountFunds",
      "outputs": [],
      "payable": false,
      "stateMutability": "nonpayable",
      "type": "function"
    },
    {
      "constant": false,
      "inputs": [
        {
          "name": "_target",
          "type": "address"
        },
        {
          "name": "_suppliedGas",
          "type": "uint256"
        },
        {
          "name": "_transactionBytecode",
          "type": "bytes"
        }
      ],
      "name": "executeDelegatecall",
      "outputs": [],
      "payable": false,
      "stateMutability": "nonpayable",
      "type": "function"
    },
    {
      "constant": true,
      "inputs": [
        {
          "name": "_crydrViewAddress",
          "type": "address"
        }
      ],
      "name": "isCrydrViewAddress",
      "outputs": [
        {
          "name": "",
          "type": "bool"
        }
      ],
      "payable": false,
      "stateMutability": "view",
      "type": "function"
    },
    {
      "constant": false,
      "inputs": [
        {
          "name": "_manager",
          "type": "address"
        }
      ],
      "name": "disableManager",
      "outputs": [],
      "payable": false,
      "stateMutability": "nonpayable",
      "type": "function"
    },
    {
      "constant": true,
      "inputs": [
        {
          "name": "_viewApiStandardName",
          "type": "string"
        }
      ],
      "name": "isCrydrViewRegistered",
      "outputs": [
        {
          "name": "",
          "type": "bool"
        }
      ],
      "payable": false,
      "stateMutability": "view",
      "type": "function"
    },
    {
      "constant": false,
      "inputs": [
        {
          "name": "_msgsender",
          "type": "address"
        },
        {
          "name": "_spender",
          "type": "address"
        },
        {
          "name": "_value",
          "type": "uint256"
        }
      ],
      "name": "approve",
      "outputs": [],
      "payable": false,
      "stateMutability": "nonpayable",
      "type": "function"
    },
    {
      "constant": false,
      "inputs": [
        {
          "name": "_newCrydrView",
          "type": "address"
        },
        {
          "name": "_viewApiStandardName",
          "type": "string"
        }
      ],
      "name": "setCrydrView",
      "outputs": [],
      "payable": false,
      "stateMutability": "nonpayable",
      "type": "function"
    },
    {
      "constant": true,
      "inputs": [],
      "name": "getProposedOwner",
      "outputs": [
        {
          "name": "",
          "type": "address"
        }
      ],
      "payable": false,
      "stateMutability": "view",
      "type": "function"
    },
    {
      "constant": false,
      "inputs": [],
      "name": "acceptOwnershipOffer",
      "outputs": [],
      "payable": false,
      "stateMutability": "nonpayable",
      "type": "function"
    },
    {
      "constant": true,
      "inputs": [
        {
          "name": "_owner",
          "type": "address"
        }
      ],
      "name": "getBalance",
      "outputs": [
        {
          "name": "",
          "type": "uint256"
        }
      ],
      "payable": false,
      "stateMutability": "view",
      "type": "function"
    },
    {
      "constant": false,
      "inputs": [
        {
          "name": "_from",
          "type": "address"
        },
        {
          "name": "_to",
          "type": "address"
        }
      ],
      "name": "forcedTransferAll",
      "outputs": [],
      "payable": false,
      "stateMutability": "nonpayable",
      "type": "function"
    },
    {
      "constant": false,
      "inputs": [
        {
          "name": "_newLicenseRegistry",
          "type": "address"
        }
      ],
      "name": "setLicenseRegistry",
      "outputs": [],
      "payable": false,
      "stateMutability": "nonpayable",
      "type": "function"
    },
    {
      "inputs": [],
      "payable": false,
      "stateMutability": "nonpayable",
      "type": "constructor"
    },
    {
      "anonymous": false,
      "inputs": [
        {
          "indexed": true,
          "name": "licenseregistry",
          "type": "address"
        }
      ],
      "name": "LicenseRegistryChangedEvent",
      "type": "event"
    },
    {
      "anonymous": false,
      "inputs": [
        {
          "indexed": true,
          "name": "from",
          "type": "address"
        },
        {
          "indexed": true,
          "name": "to",
          "type": "address"
        },
        {
          "indexed": false,
          "name": "value",
          "type": "uint256"
        }
      ],
      "name": "ForcedTransferEvent",
      "type": "event"
    },
    {
      "anonymous": false,
      "inputs": [
        {
          "indexed": true,
          "name": "owner",
          "type": "address"
        },
        {
          "indexed": false,
          "name": "value",
          "type": "uint256"
        }
      ],
      "name": "MintEvent",
      "type": "event"
    },
    {
      "anonymous": false,
      "inputs": [
        {
          "indexed": true,
          "name": "owner",
          "type": "address"
        },
        {
          "indexed": false,
          "name": "value",
          "type": "uint256"
        }
      ],
      "name": "BurnEvent",
      "type": "event"
    },
    {
      "anonymous": false,
      "inputs": [
        {
          "indexed": true,
          "name": "crydrstorage",
          "type": "address"
        }
      ],
      "name": "CrydrStorageChangedEvent",
      "type": "event"
    },
    {
      "anonymous": false,
      "inputs": [
        {
          "indexed": true,
          "name": "crydrview",
          "type": "address"
        },
        {
          "indexed": false,
          "name": "standardname",
          "type": "bytes32"
        }
      ],
      "name": "CrydrViewAddedEvent",
      "type": "event"
    },
    {
      "anonymous": false,
      "inputs": [
        {
          "indexed": true,
          "name": "crydrview",
          "type": "address"
        },
        {
          "indexed": false,
          "name": "standardname",
          "type": "bytes32"
        }
      ],
      "name": "CrydrViewRemovedEvent",
      "type": "event"
    },
    {
      "anonymous": false,
      "inputs": [
        {
          "indexed": true,
          "name": "target",
          "type": "address"
        },
        {
          "indexed": false,
          "name": "suppliedGas",
          "type": "uint256"
        },
        {
          "indexed": false,
          "name": "ethValue",
          "type": "uint256"
        },
        {
          "indexed": false,
          "name": "transactionBytecodeHash",
          "type": "bytes32"
        }
      ],
      "name": "CallExecutedEvent",
      "type": "event"
    },
    {
      "anonymous": false,
      "inputs": [
        {
          "indexed": true,
          "name": "target",
          "type": "address"
        },
        {
          "indexed": false,
          "name": "suppliedGas",
          "type": "uint256"
        },
        {
          "indexed": false,
          "name": "transactionBytecodeHash",
          "type": "bytes32"
        }
      ],
      "name": "DelegatecallExecutedEvent",
      "type": "event"
    },
    {
      "anonymous": false,
      "inputs": [],
      "name": "PauseEvent",
      "type": "event"
    },
    {
      "anonymous": false,
      "inputs": [],
      "name": "UnpauseEvent",
      "type": "event"
    },
    {
      "anonymous": false,
      "inputs": [
        {
          "indexed": true,
          "name": "manager",
          "type": "address"
        }
      ],
      "name": "ManagerEnabledEvent",
      "type": "event"
    },
    {
      "anonymous": false,
      "inputs": [
        {
          "indexed": true,
          "name": "manager",
          "type": "address"
        }
      ],
      "name": "ManagerDisabledEvent",
      "type": "event"
    },
    {
      "anonymous": false,
      "inputs": [
        {
          "indexed": true,
          "name": "manager",
          "type": "address"
        },
        {
          "indexed": false,
          "name": "permission",
          "type": "bytes32"
        }
      ],
      "name": "ManagerPermissionGrantedEvent",
      "type": "event"
    },
    {
      "anonymous": false,
      "inputs": [
        {
          "indexed": true,
          "name": "manager",
          "type": "address"
        },
        {
          "indexed": false,
          "name": "permission",
          "type": "bytes32"
        }
      ],
      "name": "ManagerPermissionRevokedEvent",
      "type": "event"
    },
    {
      "anonymous": false,
      "inputs": [
        {
          "indexed": true,
          "name": "newowner",
          "type": "address"
        }
      ],
      "name": "OwnerAssignedEvent",
      "type": "event"
    },
    {
      "anonymous": false,
      "inputs": [
        {
          "indexed": true,
          "name": "currentowner",
          "type": "address"
        },
        {
          "indexed": true,
          "name": "proposedowner",
          "type": "address"
        }
      ],
      "name": "OwnershipOfferCreatedEvent",
      "type": "event"
    },
    {
      "anonymous": false,
      "inputs": [
        {
          "indexed": true,
          "name": "currentowner",
          "type": "address"
        },
        {
          "indexed": true,
          "name": "proposedowner",
          "type": "address"
        }
      ],
      "name": "OwnershipOfferAcceptedEvent",
      "type": "event"
    },
    {
      "anonymous": false,
      "inputs": [
        {
          "indexed": true,
          "name": "currentowner",
          "type": "address"
        },
        {
          "indexed": true,
          "name": "proposedowner",
          "type": "address"
        }
      ],
      "name": "OwnershipOfferCancelledEvent",
      "type": "event"
    }
  ],
  "bytecode": "0x60806040526000600160006101000a81548173ffffffffffffffffffffffffffffffffffffffff021916908373ffffffffffffffffffffffffffffffffffffffff1602179055506000600260006101000a81548173ffffffffffffffffffffffffffffffffffffffff021916908373ffffffffffffffffffffffffffffffffffffffff1602179055506001600560006101000a81548160ff0219169083151502179055506000600560016101000a81548160ff0219169083151502179055506000600560026101000a81548173ffffffffffffffffffffffffffffffffffffffff021916908373ffffffffffffffffffffffffffffffffffffffff1602179055506000600860006101000a81548173ffffffffffffffffffffffffffffffffffffffff021916908373ffffffffffffffffffffffffffffffffffffffff1602179055503480156200014f57600080fd5b506040805190810160405280600481526020017f4a4742500000000000000000000000000000000000000000000000000000000081525080600081511115156200019857600080fd5b8060009080519060200190620001b09291906200025f565b505033600160006101000a81548173ffffffffffffffffffffffffffffffffffffffff021916908373ffffffffffffffffffffffffffffffffffffffff160217905550600160009054906101000a900473ffffffffffffffffffffffffffffffffffffffff1673ffffffffffffffffffffffffffffffffffffffff167f8d2a41ca5ff551a8f68510de75177b7d56e6019c8579b5509d2be1bb41a0d0af60405160405180910390a2506200030e565b828054600181600116156101000203166002900490600052602060002090601f016020900481019282601f10620002a257805160ff1916838001178555620002d3565b82800160010185558215620002d3579182015b82811115620002d2578251825591602001919060010190620002b5565b5b509050620002e29190620002e6565b5090565b6200030b91905b8082111562000307576000816000905550600101620002ed565b5090565b90565b615ce4806200031e6000396000f300608060405260043610610204576000357c0100000000000000000000000000000000000000000000000000000000900463ffffffff1680630392d2b4146102095780630af4187d146102aa5780630c79e3e61461032157806315dacbea146103645780631eb96a5c146103f157806332a2fda71461040857806340c10f19146104a9578063439766ce146104f65780634d78fdc61461050d5780635ca5b334146105505780636805b84b14610593578063696b5fb7146105c25780636ec03f7a146106525780637c0a893d1461068d5780637c0efb8b146106d05780637fa879491461072b578063822b08d014610778578063893d20e8146107d35780638ba7e5701461082a5780639554c8e5146108995780639739db9d146108f05780639b53d87c146109335780639dc29fac1461098e5780639fc1d0e7146109db578063a38101cc14610a48578063a773d98a14610a9f578063b33712c514610ad2578063bc40bac614610ae9578063beabacc814610b92578063c4e41b2214610bff578063c60c13a314610c2a578063d2b7d95714610c77578063d372e3a014610cdc578063d4859dc514610d37578063d98de8a514610d7a578063e1f21c6714610dfb578063e3a861a414610e68578063eae5a62d14610ec3578063f538534514610f1a578063f8b2cb4f14610f31578063fa8a975d14610f88578063fd89e22314610feb575b600080fd5b34801561021557600080fd5b50610290600480360381019080803573ffffffffffffffffffffffffffffffffffffffff169060200190929190803590602001908201803590602001908080601f016020809104026020016040519081016040528093929190818152602001838380828437820191505050505050919291929050505061102e565b604051808215151515815260200191505060405180910390f35b3480156102b657600080fd5b5061030b600480360381019080803573ffffffffffffffffffffffffffffffffffffffff169060200190929190803573ffffffffffffffffffffffffffffffffffffffff169060200190929190505050611194565b6040518082815260200191505060405180910390f35b34801561032d57600080fd5b50610362600480360381019080803573ffffffffffffffffffffffffffffffffffffffff1690602001909291905050506112af565b005b34801561037057600080fd5b506103ef600480360381019080803573ffffffffffffffffffffffffffffffffffffffff169060200190929190803573ffffffffffffffffffffffffffffffffffffffff169060200190929190803573ffffffffffffffffffffffffffffffffffffffff16906020019092919080359060200190929190505050611458565b005b3480156103fd57600080fd5b506104066117e2565b005b34801561041457600080fd5b5061048f600480360381019080803573ffffffffffffffffffffffffffffffffffffffff169060200190929190803590602001908201803590602001908080601f01602080910402602001604051908101604052809392919081815260200183838082843782019150505050505091929192905050506119db565b604051808215151515815260200191505060405180910390f35b3480156104b557600080fd5b506104f4600480360381019080803573ffffffffffffffffffffffffffffffffffffffff16906020019092919080359060200190929190505050611aec565b005b34801561050257600080fd5b5061050b611edd565b005b34801561051957600080fd5b5061054e600480360381019080803573ffffffffffffffffffffffffffffffffffffffff169060200190929190505050611f93565b005b34801561055c57600080fd5b50610591600480360381019080803573ffffffffffffffffffffffffffffffffffffffff1690602001909291905050506120a3565b005b34801561059f57600080fd5b506105a861221f565b604051808215151515815260200191505060405180910390f35b3480156105ce57600080fd5b506105d7612236565b6040518080602001828103825283818151815260200191508051906020019080838360005b838110156106175780820151818401526020810190506105fc565b50505050905090810190601f1680156106445780820380516001836020036101000a031916815260200191505b509250505060405180910390f35b34801561065e57600080fd5b5061068b6004803603810190808035906020019082018035906020019190919293919293905050506122d8565b005b34801561069957600080fd5b506106ce600480360381019080803573ffffffffffffffffffffffffffffffffffffffff16906020019092919050505061256d565b005b3480156106dc57600080fd5b50610729600480360381019080803573ffffffffffffffffffffffffffffffffffffffff16906020019092919080359060200190820180359060200191909192939192939050505061267d565b005b34801561073757600080fd5b50610776600480360381019080803573ffffffffffffffffffffffffffffffffffffffff169060200190929190803590602001909291905050506128b5565b005b34801561078457600080fd5b506107d1600480360381019080803573ffffffffffffffffffffffffffffffffffffffff1690602001909291908035906020019082018035906020019190919293919293905050506129ce565b005b3480156107df57600080fd5b506107e8612c06565b604051808273ffffffffffffffffffffffffffffffffffffffff1673ffffffffffffffffffffffffffffffffffffffff16815260200191505060405180910390f35b34801561083657600080fd5b50610897600480360381019080803573ffffffffffffffffffffffffffffffffffffffff1690602001909291908035906020019092919080359060200190929190803590602001908201803590602001919091929391929390505050612c30565b005b3480156108a557600080fd5b506108ae612da5565b604051808273ffffffffffffffffffffffffffffffffffffffff1673ffffffffffffffffffffffffffffffffffffffff16815260200191505060405180910390f35b3480156108fc57600080fd5b50610931600480360381019080803573ffffffffffffffffffffffffffffffffffffffff169060200190929190505050612dcf565b005b34801561093f57600080fd5b50610974600480360381019080803573ffffffffffffffffffffffffffffffffffffffff169060200190929190505050612fa4565b604051808215151515815260200191505060405180910390f35b34801561099a57600080fd5b506109d9600480360381019080803573ffffffffffffffffffffffffffffffffffffffff16906020019092919080359060200190929190505050613038565b005b3480156109e757600080fd5b50610a46600480360381019080803573ffffffffffffffffffffffffffffffffffffffff169060200190929190803573ffffffffffffffffffffffffffffffffffffffff16906020019092919080359060200190929190505050613429565b005b348015610a5457600080fd5b50610a5d6137fb565b604051808273ffffffffffffffffffffffffffffffffffffffff1673ffffffffffffffffffffffffffffffffffffffff16815260200191505060405180910390f35b348015610aab57600080fd5b50610ab4613825565b60405180826000191660001916815260200191505060405180910390f35b348015610ade57600080fd5b50610ae7613895565b005b348015610af557600080fd5b50610b50600480360381019080803590602001908201803590602001908080601f016020809104026020016040519081016040528093929190818152602001838380828437820191505050505050919291929050505061394b565b604051808273ffffffffffffffffffffffffffffffffffffffff1673ffffffffffffffffffffffffffffffffffffffff16815260200191505060405180910390f35b348015610b9e57600080fd5b50610bfd600480360381019080803573ffffffffffffffffffffffffffffffffffffffff169060200190929190803573ffffffffffffffffffffffffffffffffffffffff16906020019092919080359060200190929190505050613ab9565b005b348015610c0b57600080fd5b50610c14613d19565b6040518082815260200191505060405180910390f35b348015610c3657600080fd5b50610c75600480360381019080803573ffffffffffffffffffffffffffffffffffffffff16906020019092919080359060200190929190505050613dc6565b005b348015610c8357600080fd5b50610cda600480360381019080803573ffffffffffffffffffffffffffffffffffffffff16906020019092919080359060200190929190803590602001908201803590602001919091929391929390505050613edf565b005b348015610ce857600080fd5b50610d1d600480360381019080803573ffffffffffffffffffffffffffffffffffffffff169060200190929190505050614048565b604051808215151515815260200191505060405180910390f35b348015610d4357600080fd5b50610d78600480360381019080803573ffffffffffffffffffffffffffffffffffffffff1690602001909291905050506140d9565b005b348015610d8657600080fd5b50610de1600480360381019080803590602001908201803590602001908080601f0160208091040260200160405190810160405280939291908181526020018383808284378201915050505050509192919290505050614255565b604051808215151515815260200191505060405180910390f35b348015610e0757600080fd5b50610e66600480360381019080803573ffffffffffffffffffffffffffffffffffffffff169060200190929190803573ffffffffffffffffffffffffffffffffffffffff1690602001909291908035906020019092919050505061432c565b005b348015610e7457600080fd5b50610ec1600480360381019080803573ffffffffffffffffffffffffffffffffffffffff16906020019092919080359060200190820180359060200191909192939192939050505061458c565b005b348015610ecf57600080fd5b50610ed8614923565b604051808273ffffffffffffffffffffffffffffffffffffffff1673ffffffffffffffffffffffffffffffffffffffff16815260200191505060405180910390f35b348015610f2657600080fd5b50610f2f61494d565b005b348015610f3d57600080fd5b50610f72600480360381019080803573ffffffffffffffffffffffffffffffffffffffff169060200190929190505050614bb6565b6040518082815260200191505060405180910390f35b348015610f9457600080fd5b50610fe9600480360381019080803573ffffffffffffffffffffffffffffffffffffffff169060200190929190803573ffffffffffffffffffffffffffffffffffffffff169060200190929190505050614c9c565b005b348015610ff757600080fd5b5061102c600480360381019080803573ffffffffffffffffffffffffffffffffffffffff16906020019092919050505061514e565b005b600082600073ffffffffffffffffffffffffffffffffffffffff168173ffffffffffffffffffffffffffffffffffffffff161415151561106d57600080fd5b82600081511415151561107f57600080fd5b600360008673ffffffffffffffffffffffffffffffffffffffff1673ffffffffffffffffffffffffffffffffffffffff16815260200190815260200160002060009054906101000a900460ff16801561118a5750600460008673ffffffffffffffffffffffffffffffffffffffff1673ffffffffffffffffffffffffffffffffffffffff168152602001908152602001600020846040518082805190602001908083835b6020831015156111485780518252602082019150602081019050602083039250611123565b6001836020036101000a038019825116818451168082178552505050505050905001915050908152602001604051809103902060009054906101000a900460ff165b9250505092915050565b600061119e612da5565b73ffffffffffffffffffffffffffffffffffffffff16630af4187d84846040518363ffffffff167c0100000000000000000000000000000000000000000000000000000000028152600401808373ffffffffffffffffffffffffffffffffffffffff1673ffffffffffffffffffffffffffffffffffffffff1681526020018273ffffffffffffffffffffffffffffffffffffffff1673ffffffffffffffffffffffffffffffffffffffff16815260200192505050602060405180830381600087803b15801561126c57600080fd5b505af1158015611280573d6000803e3d6000fd5b505050506040513d602081101561129657600080fd5b8101908080519060200190929190505050905092915050565b80600115156112bd826152f7565b15151415156112cb57600080fd5b6040805190810160405280601181526020017f7365745f63727964725f73746f726167650000000000000000000000000000008152506001151561130f338361102e565b151514151561131d57600080fd5b6001151561132961221f565b151514151561133757600080fd5b3073ffffffffffffffffffffffffffffffffffffffff168373ffffffffffffffffffffffffffffffffffffffff161415151561137257600080fd5b600560029054906101000a900473ffffffffffffffffffffffffffffffffffffffff1673ffffffffffffffffffffffffffffffffffffffff168373ffffffffffffffffffffffffffffffffffffffff16141515156113cf57600080fd5b82600560026101000a81548173ffffffffffffffffffffffffffffffffffffffff021916908373ffffffffffffffffffffffffffffffffffffffff1602179055508273ffffffffffffffffffffffffffffffffffffffff167f252da09c88b02fec1dd57c3183573d05d69ae5da5ca0ce6e6eff3e35e9662fdf60405160405180910390a2505050565b600115156114646137fb565b73ffffffffffffffffffffffffffffffffffffffff1663b08bbff0866040518263ffffffff167c0100000000000000000000000000000000000000000000000000000000028152600401808273ffffffffffffffffffffffffffffffffffffffff1673ffffffffffffffffffffffffffffffffffffffff168152602001806020018281038252600b8152602001807f7370656e645f66756e647300000000000000000000000000000000000000000081525060200192505050602060405180830381600087803b15801561153757600080fd5b505af115801561154b573d6000803e3d6000fd5b505050506040513d602081101561156157600080fd5b8101908080519060200190929190505050151514151561158057600080fd5b6001151561158c6137fb565b73ffffffffffffffffffffffffffffffffffffffff1663b08bbff0856040518263ffffffff167c0100000000000000000000000000000000000000000000000000000000028152600401808273ffffffffffffffffffffffffffffffffffffffff1673ffffffffffffffffffffffffffffffffffffffff168152602001806020018281038252600e8152602001807f7472616e736665725f66756e647300000000000000000000000000000000000081525060200192505050602060405180830381600087803b15801561165f57600080fd5b505af1158015611673573d6000803e3d6000fd5b505050506040513d602081101561168957600080fd5b810190808051906020019092919050505015151415156116a857600080fd5b600115156116b46137fb565b73ffffffffffffffffffffffffffffffffffffffff1663b08bbff0846040518263ffffffff167c0100000000000000000000000000000000000000000000000000000000028152600401808273ffffffffffffffffffffffffffffffffffffffff1673ffffffffffffffffffffffffffffffffffffffff168152602001806020018281038252600d8152602001807f726563656976655f66756e64730000000000000000000000000000000000000081525060200192505050602060405180830381600087803b15801561178757600080fd5b505af115801561179b573d6000803e3d6000fd5b505050506040513d60208110156117b157600080fd5b810190808051906020019092919050505015151415156117d057600080fd5b6117dc84848484615346565b50505050565b60008073ffffffffffffffffffffffffffffffffffffffff16600260009054906101000a900473ffffffffffffffffffffffffffffffffffffffff1673ffffffffffffffffffffffffffffffffffffffff161415151561184157600080fd5b600160009054906101000a900473ffffffffffffffffffffffffffffffffffffffff1673ffffffffffffffffffffffffffffffffffffffff163373ffffffffffffffffffffffffffffffffffffffff1614806118ea5750600260009054906101000a900473ffffffffffffffffffffffffffffffffffffffff1673ffffffffffffffffffffffffffffffffffffffff163373ffffffffffffffffffffffffffffffffffffffff16145b15156118f557600080fd5b600260009054906101000a900473ffffffffffffffffffffffffffffffffffffffff1690506000600260006101000a81548173ffffffffffffffffffffffffffffffffffffffff021916908373ffffffffffffffffffffffffffffffffffffffff1602179055508073ffffffffffffffffffffffffffffffffffffffff16600160009054906101000a900473ffffffffffffffffffffffffffffffffffffffff1673ffffffffffffffffffffffffffffffffffffffff167f223225995c0c0965e8752fd93ca10aba4bafcbca26f31b1565955adb68e76bda60405160405180910390a350565b600082600073ffffffffffffffffffffffffffffffffffffffff168173ffffffffffffffffffffffffffffffffffffffff1614151515611a1a57600080fd5b826000815114151515611a2c57600080fd5b600460008673ffffffffffffffffffffffffffffffffffffffff1673ffffffffffffffffffffffffffffffffffffffff168152602001908152602001600020846040518082805190602001908083835b602083101515611aa15780518252602082019150602081019050602083039250611a7c565b6001836020036101000a038019825116818451168082178552505050505050905001915050908152602001604051809103902060009054906101000a900460ff169250505092915050565b60001515611af861221f565b1515141515611b0657600080fd5b6040805190810160405280600a81526020017f6d696e745f63727964720000000000000000000000000000000000000000000081525060011515611b4a338361102e565b1515141515611b5857600080fd5b611b60612da5565b73ffffffffffffffffffffffffffffffffffffffff16635b86f59984846040518363ffffffff167c0100000000000000000000000000000000000000000000000000000000028152600401808373ffffffffffffffffffffffffffffffffffffffff1673ffffffffffffffffffffffffffffffffffffffff16815260200182815260200192505050600060405180830381600087803b158015611c0257600080fd5b505af1158015611c16573d6000803e3d6000fd5b505050508273ffffffffffffffffffffffffffffffffffffffff167f3fffaa5804a26fcec0d70b1d0fb0a2d0031df3a5f9c8af2127c2f4360e97b463836040518082815260200191505060405180910390a260011515611caa6040805190810160405280600581526020017f6572633230000000000000000000000000000000000000000000000000000000815250614255565b15151415611ed857611cf06040805190810160405280600581526020017f657263323000000000000000000000000000000000000000000000000000000081525061394b565b73ffffffffffffffffffffffffffffffffffffffff1663958689d784846040518363ffffffff167c0100000000000000000000000000000000000000000000000000000000028152600401808373ffffffffffffffffffffffffffffffffffffffff1673ffffffffffffffffffffffffffffffffffffffff16815260200182815260200192505050600060405180830381600087803b158015611d9257600080fd5b505af1158015611da6573d6000803e3d6000fd5b50505050611de86040805190810160405280600581526020017f657263323000000000000000000000000000000000000000000000000000000081525061394b565b73ffffffffffffffffffffffffffffffffffffffff1663a6d49dca600085856040518463ffffffff167c0100000000000000000000000000000000000000000000000000000000028152600401808473ffffffffffffffffffffffffffffffffffffffff1673ffffffffffffffffffffffffffffffffffffffff1681526020018373ffffffffffffffffffffffffffffffffffffffff1673ffffffffffffffffffffffffffffffffffffffff1681526020018281526020019350505050600060405180830381600087803b158015611ebf57600080fd5b505af1158015611ed3573d6000803e3d6000fd5b505050505b505050565b6040805190810160405280600e81526020017f70617573655f636f6e747261637400000000000000000000000000000000000081525060011515611f21338361102e565b1515141515611f2f57600080fd5b60001515611f3b61221f565b1515141515611f4957600080fd5b6001600560006101000a81548160ff0219169083151502179055507f14cc32b2b0edca88201ca20553c392d108a2feb2c750a0ee14c707b4f34fbee260405160405180910390a150565b6040805190810160405280600f81526020017f756e626c6f636b5f6163636f756e74000000000000000000000000000000000081525060011515611fd7338361102e565b1515141515611fe557600080fd5b611fed612da5565b73ffffffffffffffffffffffffffffffffffffffff16634d78fdc6836040518263ffffffff167c0100000000000000000000000000000000000000000000000000000000028152600401808273ffffffffffffffffffffffffffffffffffffffff1673ffffffffffffffffffffffffffffffffffffffff168152602001915050600060405180830381600087803b15801561208757600080fd5b505af115801561209b573d6000803e3d6000fd5b505050505050565b6120ab612c06565b73ffffffffffffffffffffffffffffffffffffffff163373ffffffffffffffffffffffffffffffffffffffff161415156120e457600080fd5b80600073ffffffffffffffffffffffffffffffffffffffff168173ffffffffffffffffffffffffffffffffffffffff161415151561212157600080fd5b60001515600360008473ffffffffffffffffffffffffffffffffffffffff1673ffffffffffffffffffffffffffffffffffffffff16815260200190815260200160002060009054906101000a900460ff16151514151561218057600080fd5b6001600360008473ffffffffffffffffffffffffffffffffffffffff1673ffffffffffffffffffffffffffffffffffffffff16815260200190815260200160002060006101000a81548160ff0219169083151502179055508173ffffffffffffffffffffffffffffffffffffffff167f7f0b61f78ab0b549b68ce61404f4ee01a26ffdf8d421d099d271d789aaea3a8e60405160405180910390a25050565b6000600560009054906101000a900460ff16905090565b606060008054600181600116156101000203166002900480601f0160208091040260200160405190810160405280929190818152602001828054600181600116156101000203166002900480156122ce5780601f106122a3576101008083540402835291602001916122ce565b820191906000526020600020905b8154815290600101906020018083116122b157829003601f168201915b5050505050905090565b600082828080601f0160208091040260200160405190810160405280939291908181526020018383808284378201915050505050506000815111151561231d57600080fd5b6040805190810160405280601181526020017f72656d6f76655f63727964725f7669657700000000000000000000000000000081525060011515612361338361102e565b151514151561236f57600080fd5b6001151561237b61221f565b151514151561238957600080fd5b600073ffffffffffffffffffffffffffffffffffffffff166006868660405180838380828437820191505092505050908152602001604051809103902060009054906101000a900473ffffffffffffffffffffffffffffffffffffffff1673ffffffffffffffffffffffffffffffffffffffff161415151561240a57600080fd5b6006858560405180838380828437820191505092505050908152602001604051809103902060009054906101000a900473ffffffffffffffffffffffffffffffffffffffff169250600073ffffffffffffffffffffffffffffffffffffffff166006868660405180838380828437820191505092505050908152602001604051809103902060009054906101000a905050506000600760008573ffffffffffffffffffffffffffffffffffffffff1673ffffffffffffffffffffffffffffffffffffffff16815260200190815260200160002060006101000a81548160ff0219169083151502179055508273ffffffffffffffffffffffffffffffffffffffff167f334317094b161d745f7febc896c88d1973f98db8cd2941436406bbd432a6055f868660405180838380828437820191505092505050604051809103902060405180826000191660001916815260200191505060405180910390a25050505050565b6040805190810160405280600d81526020017f626c6f636b5f6163636f756e7400000000000000000000000000000000000000815250600115156125b1338361102e565b15151415156125bf57600080fd5b6125c7612da5565b73ffffffffffffffffffffffffffffffffffffffff16637c0a893d836040518263ffffffff167c0100000000000000000000000000000000000000000000000000000000028152600401808273ffffffffffffffffffffffffffffffffffffffff1673ffffffffffffffffffffffffffffffffffffffff168152602001915050600060405180830381600087803b15801561266157600080fd5b505af1158015612675573d6000803e3d6000fd5b505050505050565b612685612c06565b73ffffffffffffffffffffffffffffffffffffffff163373ffffffffffffffffffffffffffffffffffffffff161415156126be57600080fd5b82600073ffffffffffffffffffffffffffffffffffffffff168173ffffffffffffffffffffffffffffffffffffffff16141515156126fb57600080fd5b82828080601f016020809104026020016040519081016040528093929190818152602001838380828437820191505050505050600081511415151561273f57600080fd5b60011515600460008773ffffffffffffffffffffffffffffffffffffffff1673ffffffffffffffffffffffffffffffffffffffff168152602001908152602001600020858560405180838380828437820191505092505050908152602001604051809103902060009054906101000a900460ff1615151415156127c157600080fd5b6000600460008773ffffffffffffffffffffffffffffffffffffffff1673ffffffffffffffffffffffffffffffffffffffff168152602001908152602001600020858560405180838380828437820191505092505050908152602001604051809103902060006101000a81548160ff0219169083151502179055508473ffffffffffffffffffffffffffffffffffffffff167ffef063ea41a1d4d73bca77475bd8fc3c81a1145b2f3afa879a1530bb6a8401e3858560405180838380828437820191505092505050604051809103902060405180826000191660001916815260200191505060405180910390a25050505050565b6040805190810160405280601581526020017f756e626c6f636b5f6163636f756e745f66756e64730000000000000000000000815250600115156128f9338361102e565b151514151561290757600080fd5b61290f612da5565b73ffffffffffffffffffffffffffffffffffffffff16637fa8794984846040518363ffffffff167c0100000000000000000000000000000000000000000000000000000000028152600401808373ffffffffffffffffffffffffffffffffffffffff1673ffffffffffffffffffffffffffffffffffffffff16815260200182815260200192505050600060405180830381600087803b1580156129b157600080fd5b505af11580156129c5573d6000803e3d6000fd5b50505050505050565b6129d6612c06565b73ffffffffffffffffffffffffffffffffffffffff163373ffffffffffffffffffffffffffffffffffffffff16141515612a0f57600080fd5b82600073ffffffffffffffffffffffffffffffffffffffff168173ffffffffffffffffffffffffffffffffffffffff1614151515612a4c57600080fd5b82828080601f0160208091040260200160405190810160405280939291908181526020018383808284378201915050505050506000815114151515612a9057600080fd5b60001515600460008773ffffffffffffffffffffffffffffffffffffffff1673ffffffffffffffffffffffffffffffffffffffff168152602001908152602001600020858560405180838380828437820191505092505050908152602001604051809103902060009054906101000a900460ff161515141515612b1257600080fd5b6001600460008773ffffffffffffffffffffffffffffffffffffffff1673ffffffffffffffffffffffffffffffffffffffff168152602001908152602001600020858560405180838380828437820191505092505050908152602001604051809103902060006101000a81548160ff0219169083151502179055508473ffffffffffffffffffffffffffffffffffffffff167fc1b43c9c4075dfc74444e2d220aecef01cd89d63abb613d28f1f727c973f1f50858560405180838380828437820191505092505050604051809103902060405180826000191660001916815260200191505060405180910390a25050505050565b6000600160009054906101000a900473ffffffffffffffffffffffffffffffffffffffff16905090565b6040805190810160405280600c81526020017f657865637574655f63616c6c000000000000000000000000000000000000000081525060011515612c74338361102e565b1515141515612c8257600080fd5b60001515600560019054906101000a900460ff161515141515612ca457600080fd5b6001600560016101000a81548160ff0219169083151502179055508573ffffffffffffffffffffffffffffffffffffffff168585858560405180838380828437820191505092505050600060405180830381858888f19350505050506000600560016101000a81548160ff0219169083151502179055508573ffffffffffffffffffffffffffffffffffffffff167f376185a1f1832ecd7ffd6a421a54d437594db00f80f6122e8534d19d978b65b686868686604051808383808284378201915050925050506040518091039020604051808481526020018381526020018260001916600019168152602001935050505060405180910390a2505050505050565b6000600560029054906101000a900473ffffffffffffffffffffffffffffffffffffffff16905090565b612dd7612c06565b73ffffffffffffffffffffffffffffffffffffffff163373ffffffffffffffffffffffffffffffffffffffff16141515612e1057600080fd5b600073ffffffffffffffffffffffffffffffffffffffff16600260009054906101000a900473ffffffffffffffffffffffffffffffffffffffff1673ffffffffffffffffffffffffffffffffffffffff16141515612e6d57600080fd5b600073ffffffffffffffffffffffffffffffffffffffff168173ffffffffffffffffffffffffffffffffffffffff1614151515612ea957600080fd5b3073ffffffffffffffffffffffffffffffffffffffff168173ffffffffffffffffffffffffffffffffffffffff1614151515612ee457600080fd5b80600260006101000a81548173ffffffffffffffffffffffffffffffffffffffff021916908373ffffffffffffffffffffffffffffffffffffffff1602179055508073ffffffffffffffffffffffffffffffffffffffff16600160009054906101000a900473ffffffffffffffffffffffffffffffffffffffff1673ffffffffffffffffffffffffffffffffffffffff167f0c5d18b25c2665dfeec8ea7956663ec48f079fdd04799ddd335f2fdce1a9fceb60405160405180910390a350565b600081600073ffffffffffffffffffffffffffffffffffffffff168173ffffffffffffffffffffffffffffffffffffffff1614151515612fe357600080fd5b600360008473ffffffffffffffffffffffffffffffffffffffff1673ffffffffffffffffffffffffffffffffffffffff16815260200190815260200160002060009054906101000a900460ff16915050919050565b6000151561304461221f565b151514151561305257600080fd5b6040805190810160405280600a81526020017f6275726e5f63727964720000000000000000000000000000000000000000000081525060011515613096338361102e565b15151415156130a457600080fd5b6130ac612da5565b73ffffffffffffffffffffffffffffffffffffffff1663ff05694984846040518363ffffffff167c0100000000000000000000000000000000000000000000000000000000028152600401808373ffffffffffffffffffffffffffffffffffffffff1673ffffffffffffffffffffffffffffffffffffffff16815260200182815260200192505050600060405180830381600087803b15801561314e57600080fd5b505af1158015613162573d6000803e3d6000fd5b505050508273ffffffffffffffffffffffffffffffffffffffff167f512586160ebd4dc6945ba9ec5d21a1f723f26f3c7aa36cdffb6818d4e7b88030836040518082815260200191505060405180910390a2600115156131f66040805190810160405280600581526020017f6572633230000000000000000000000000000000000000000000000000000000815250614255565b151514156134245761323c6040805190810160405280600581526020017f657263323000000000000000000000000000000000000000000000000000000081525061394b565b73ffffffffffffffffffffffffffffffffffffffff1663ed810cfa84846040518363ffffffff167c0100000000000000000000000000000000000000000000000000000000028152600401808373ffffffffffffffffffffffffffffffffffffffff1673ffffffffffffffffffffffffffffffffffffffff16815260200182815260200192505050600060405180830381600087803b1580156132de57600080fd5b505af11580156132f2573d6000803e3d6000fd5b505050506133346040805190810160405280600581526020017f657263323000000000000000000000000000000000000000000000000000000081525061394b565b73ffffffffffffffffffffffffffffffffffffffff1663a6d49dca846000856040518463ffffffff167c0100000000000000000000000000000000000000000000000000000000028152600401808473ffffffffffffffffffffffffffffffffffffffff1673ffffffffffffffffffffffffffffffffffffffff1681526020018373ffffffffffffffffffffffffffffffffffffffff1673ffffffffffffffffffffffffffffffffffffffff1681526020018281526020019350505050600060405180830381600087803b15801561340b57600080fd5b505af115801561341f573d6000803e3d6000fd5b505050505b505050565b6000151561343561221f565b151514151561344357600080fd5b6040805190810160405280600f81526020017f666f726365645f7472616e73666572000000000000000000000000000000000081525060011515613487338361102e565b151514151561349557600080fd5b61349d612da5565b73ffffffffffffffffffffffffffffffffffffffff1663ff05694985846040518363ffffffff167c0100000000000000000000000000000000000000000000000000000000028152600401808373ffffffffffffffffffffffffffffffffffffffff1673ffffffffffffffffffffffffffffffffffffffff16815260200182815260200192505050600060405180830381600087803b15801561353f57600080fd5b505af1158015613553573d6000803e3d6000fd5b5050505061355f612da5565b73ffffffffffffffffffffffffffffffffffffffff16635b86f59984846040518363ffffffff167c0100000000000000000000000000000000000000000000000000000000028152600401808373ffffffffffffffffffffffffffffffffffffffff1673ffffffffffffffffffffffffffffffffffffffff16815260200182815260200192505050600060405180830381600087803b15801561360157600080fd5b505af1158015613615573d6000803e3d6000fd5b505050508273ffffffffffffffffffffffffffffffffffffffff168473ffffffffffffffffffffffffffffffffffffffff167f49ed9a888a528d93549a1107d36a898c70a461f4a906fa0d439ad78217e4b0d3846040518082815260200191505060405180910390a3600115156136c06040805190810160405280600581526020017f6572633230000000000000000000000000000000000000000000000000000000815250614255565b151514156137f5576137066040805190810160405280600581526020017f657263323000000000000000000000000000000000000000000000000000000081525061394b565b73ffffffffffffffffffffffffffffffffffffffff1663a6d49dca8585856040518463ffffffff167c0100000000000000000000000000000000000000000000000000000000028152600401808473ffffffffffffffffffffffffffffffffffffffff1673ffffffffffffffffffffffffffffffffffffffff1681526020018373ffffffffffffffffffffffffffffffffffffffff1673ffffffffffffffffffffffffffffffffffffffff1681526020018281526020019350505050600060405180830381600087803b1580156137dc57600080fd5b505af11580156137f0573d6000803e3d6000fd5b505050505b50505050565b6000600860009054906101000a900473ffffffffffffffffffffffffffffffffffffffff16905090565b60008060405180828054600181600116156101000203166002900480156138835780601f10613861576101008083540402835291820191613883565b820191906000526020600020905b81548152906001019060200180831161386f575b50509150506040518091039020905090565b6040805190810160405280601081526020017f756e70617573655f636f6e747261637400000000000000000000000000000000815250600115156138d9338361102e565b15151415156138e757600080fd5b600115156138f361221f565b151514151561390157600080fd5b6000600560006101000a81548160ff0219169083151502179055507f6249a5c797c884cbf33e63e8cfc250816032db24e22051de68a388315e64afc660405160405180910390a150565b6000816000815111151561395e57600080fd5b600073ffffffffffffffffffffffffffffffffffffffff166006846040518082805190602001908083835b6020831015156139ae5780518252602082019150602081019050602083039250613989565b6001836020036101000a038019825116818451168082178552505050505050905001915050908152602001604051809103902060009054906101000a900473ffffffffffffffffffffffffffffffffffffffff1673ffffffffffffffffffffffffffffffffffffffff1614151515613a2557600080fd5b6006836040518082805190602001908083835b602083101515613a5d5780518252602082019150602081019050602083039250613a38565b6001836020036101000a038019825116818451168082178552505050505050905001915050908152602001604051809103902060009054906101000a900473ffffffffffffffffffffffffffffffffffffffff16915050919050565b60011515613ac56137fb565b73ffffffffffffffffffffffffffffffffffffffff1663b08bbff0856040518263ffffffff167c0100000000000000000000000000000000000000000000000000000000028152600401808273ffffffffffffffffffffffffffffffffffffffff1673ffffffffffffffffffffffffffffffffffffffff168152602001806020018281038252600e8152602001807f7472616e736665725f66756e647300000000000000000000000000000000000081525060200192505050602060405180830381600087803b158015613b9857600080fd5b505af1158015613bac573d6000803e3d6000fd5b505050506040513d6020811015613bc257600080fd5b81019080805190602001909291905050501515141515613be157600080fd5b60011515613bed6137fb565b73ffffffffffffffffffffffffffffffffffffffff1663b08bbff0846040518263ffffffff167c0100000000000000000000000000000000000000000000000000000000028152600401808273ffffffffffffffffffffffffffffffffffffffff1673ffffffffffffffffffffffffffffffffffffffff168152602001806020018281038252600d8152602001807f726563656976655f66756e64730000000000000000000000000000000000000081525060200192505050602060405180830381600087803b158015613cc057600080fd5b505af1158015613cd4573d6000803e3d6000fd5b505050506040513d6020811015613cea57600080fd5b81019080805190602001909291905050501515141515613d0957600080fd5b613d14838383615622565b505050565b6000613d23612da5565b73ffffffffffffffffffffffffffffffffffffffff1663c4e41b226040518163ffffffff167c0100000000000000000000000000000000000000000000000000000000028152600401602060405180830381600087803b158015613d8657600080fd5b505af1158015613d9a573d6000803e3d6000fd5b505050506040513d6020811015613db057600080fd5b8101908080519060200190929190505050905090565b6040805190810160405280601381526020017f626c6f636b5f6163636f756e745f66756e64730000000000000000000000000081525060011515613e0a338361102e565b1515141515613e1857600080fd5b613e20612da5565b73ffffffffffffffffffffffffffffffffffffffff1663c60c13a384846040518363ffffffff167c0100000000000000000000000000000000000000000000000000000000028152600401808373ffffffffffffffffffffffffffffffffffffffff1673ffffffffffffffffffffffffffffffffffffffff16815260200182815260200192505050600060405180830381600087803b158015613ec257600080fd5b505af1158015613ed6573d6000803e3d6000fd5b50505050505050565b6040805190810160405280601481526020017f657865637574655f64656c656761746563616c6c00000000000000000000000081525060011515613f23338361102e565b1515141515613f3157600080fd5b60001515600560019054906101000a900460ff161515141515613f5357600080fd5b6001600560016101000a81548160ff0219169083151502179055508473ffffffffffffffffffffffffffffffffffffffff16848484604051808383808284378201915050925050506000604051808303818686f492505050506000600560016101000a81548160ff0219169083151502179055508473ffffffffffffffffffffffffffffffffffffffff167ffd9a51b5876c403362d350caaea2a99618ed2c0b3eb601e0ab04606616e671888585856040518083838082843782019150509250505060405180910390206040518083815260200182600019166000191681526020019250505060405180910390a25050505050565b60008073ffffffffffffffffffffffffffffffffffffffff168273ffffffffffffffffffffffffffffffffffffffff161415151561408557600080fd5b600760008373ffffffffffffffffffffffffffffffffffffffff1673ffffffffffffffffffffffffffffffffffffffff16815260200190815260200160002060009054906101000a900460ff169050919050565b6140e1612c06565b73ffffffffffffffffffffffffffffffffffffffff163373ffffffffffffffffffffffffffffffffffffffff1614151561411a57600080fd5b80600073ffffffffffffffffffffffffffffffffffffffff168173ffffffffffffffffffffffffffffffffffffffff161415151561415757600080fd5b60011515600360008473ffffffffffffffffffffffffffffffffffffffff1673ffffffffffffffffffffffffffffffffffffffff16815260200190815260200160002060009054906101000a900460ff1615151415156141b657600080fd5b6000600360008473ffffffffffffffffffffffffffffffffffffffff1673ffffffffffffffffffffffffffffffffffffffff16815260200190815260200160002060006101000a81548160ff0219169083151502179055508173ffffffffffffffffffffffffffffffffffffffff167f91975e22df3ba360814d3153e8eaef17954cf47d52a42840fc9747ad1086b35160405160405180910390a25050565b6000816000815111151561426857600080fd5b600073ffffffffffffffffffffffffffffffffffffffff166006846040518082805190602001908083835b6020831015156142b85780518252602082019150602081019050602083039250614293565b6001836020036101000a038019825116818451168082178552505050505050905001915050908152602001604051809103902060009054906101000a900473ffffffffffffffffffffffffffffffffffffffff1673ffffffffffffffffffffffffffffffffffffffff161415915050919050565b600115156143386137fb565b73ffffffffffffffffffffffffffffffffffffffff1663b08bbff0856040518263ffffffff167c0100000000000000000000000000000000000000000000000000000000028152600401808273ffffffffffffffffffffffffffffffffffffffff1673ffffffffffffffffffffffffffffffffffffffff168152602001806020018281038252600e8152602001807f6772616e745f617070726f76616c00000000000000000000000000000000000081525060200192505050602060405180830381600087803b15801561440b57600080fd5b505af115801561441f573d6000803e3d6000fd5b505050506040513d602081101561443557600080fd5b8101908080519060200190929190505050151514151561445457600080fd5b600115156144606137fb565b73ffffffffffffffffffffffffffffffffffffffff1663b08bbff0846040518263ffffffff167c0100000000000000000000000000000000000000000000000000000000028152600401808273ffffffffffffffffffffffffffffffffffffffff1673ffffffffffffffffffffffffffffffffffffffff168152602001806020018281038252600c8152602001807f6765745f617070726f76616c000000000000000000000000000000000000000081525060200192505050602060405180830381600087803b15801561453357600080fd5b505af1158015614547573d6000803e3d6000fd5b505050506040513d602081101561455d57600080fd5b8101908080519060200190929190505050151514151561457c57600080fd5b6145878383836158c9565b505050565b600080846001151561459d826152f7565b15151415156145ab57600080fd5b84848080601f016020809104026020016040519081016040528093929190818152602001838380828437820191505050505050600081511115156145ee57600080fd5b6040805190810160405280600e81526020017f7365745f63727964725f7669657700000000000000000000000000000000000081525060011515614632338361102e565b151514151561464057600080fd5b6001151561464c61221f565b151514151561465a57600080fd5b3073ffffffffffffffffffffffffffffffffffffffff168873ffffffffffffffffffffffffffffffffffffffff161415151561469557600080fd5b600073ffffffffffffffffffffffffffffffffffffffff166006888860405180838380828437820191505092505050908152602001604051809103902060009054906101000a900473ffffffffffffffffffffffffffffffffffffffff1673ffffffffffffffffffffffffffffffffffffffff1614151561471557600080fd5b8794508473ffffffffffffffffffffffffffffffffffffffff1663230f6e836040518163ffffffff167c0100000000000000000000000000000000000000000000000000000000028152600401602060405180830381600087803b15801561477c57600080fd5b505af1158015614790573d6000803e3d6000fd5b505050506040513d60208110156147a657600080fd5b8101908080519060200190929190505050935086866040518083838082843782019150509250505060405180910390206000191684600019161415156147eb57600080fd5b876006888860405180838380828437820191505092505050908152602001604051809103902060006101000a81548173ffffffffffffffffffffffffffffffffffffffff021916908373ffffffffffffffffffffffffffffffffffffffff1602179055506001600760008a73ffffffffffffffffffffffffffffffffffffffff1673ffffffffffffffffffffffffffffffffffffffff16815260200190815260200160002060006101000a81548160ff0219169083151502179055508773ffffffffffffffffffffffffffffffffffffffff167fc5a10da5d84dc2a879ce04afc23740db6e9203195d833111485d0d6a47ee2df6888860405180838380828437820191505092505050604051809103902060405180826000191660001916815260200191505060405180910390a25050505050505050565b6000600260009054906101000a900473ffffffffffffffffffffffffffffffffffffffff16905090565b60008073ffffffffffffffffffffffffffffffffffffffff16600260009054906101000a900473ffffffffffffffffffffffffffffffffffffffff1673ffffffffffffffffffffffffffffffffffffffff16141515156149ac57600080fd5b600260009054906101000a900473ffffffffffffffffffffffffffffffffffffffff1673ffffffffffffffffffffffffffffffffffffffff163373ffffffffffffffffffffffffffffffffffffffff16141515614a0857600080fd5b600160009054906101000a900473ffffffffffffffffffffffffffffffffffffffff169050600260009054906101000a900473ffffffffffffffffffffffffffffffffffffffff16600160006101000a81548173ffffffffffffffffffffffffffffffffffffffff021916908373ffffffffffffffffffffffffffffffffffffffff1602179055506000600260006101000a81548173ffffffffffffffffffffffffffffffffffffffff021916908373ffffffffffffffffffffffffffffffffffffffff160217905550600160009054906101000a900473ffffffffffffffffffffffffffffffffffffffff1673ffffffffffffffffffffffffffffffffffffffff167f8d2a41ca5ff551a8f68510de75177b7d56e6019c8579b5509d2be1bb41a0d0af60405160405180910390a2600160009054906101000a900473ffffffffffffffffffffffffffffffffffffffff1673ffffffffffffffffffffffffffffffffffffffff168173ffffffffffffffffffffffffffffffffffffffff167f3912b3f6ff73ee5d4cd2894666c349dec2d3d2ed7dc6d35c28c5eabf105a88d860405160405180910390a350565b6000614bc0612da5565b73ffffffffffffffffffffffffffffffffffffffff1663f8b2cb4f836040518263ffffffff167c0100000000000000000000000000000000000000000000000000000000028152600401808273ffffffffffffffffffffffffffffffffffffffff1673ffffffffffffffffffffffffffffffffffffffff168152602001915050602060405180830381600087803b158015614c5a57600080fd5b505af1158015614c6e573d6000803e3d6000fd5b505050506040513d6020811015614c8457600080fd5b81019080805190602001909291905050509050919050565b6000801515614ca961221f565b1515141515614cb757600080fd5b6040805190810160405280600f81526020017f666f726365645f7472616e73666572000000000000000000000000000000000081525060011515614cfb338361102e565b1515141515614d0957600080fd5b614d11612da5565b73ffffffffffffffffffffffffffffffffffffffff1663f8b2cb4f856040518263ffffffff167c0100000000000000000000000000000000000000000000000000000000028152600401808273ffffffffffffffffffffffffffffffffffffffff1673ffffffffffffffffffffffffffffffffffffffff168152602001915050602060405180830381600087803b158015614dab57600080fd5b505af1158015614dbf573d6000803e3d6000fd5b505050506040513d6020811015614dd557600080fd5b81019080805190602001909291905050509150614df0612da5565b73ffffffffffffffffffffffffffffffffffffffff1663ff05694985846040518363ffffffff167c0100000000000000000000000000000000000000000000000000000000028152600401808373ffffffffffffffffffffffffffffffffffffffff1673ffffffffffffffffffffffffffffffffffffffff16815260200182815260200192505050600060405180830381600087803b158015614e9257600080fd5b505af1158015614ea6573d6000803e3d6000fd5b50505050614eb2612da5565b73ffffffffffffffffffffffffffffffffffffffff16635b86f59984846040518363ffffffff167c0100000000000000000000000000000000000000000000000000000000028152600401808373ffffffffffffffffffffffffffffffffffffffff1673ffffffffffffffffffffffffffffffffffffffff16815260200182815260200192505050600060405180830381600087803b158015614f5457600080fd5b505af1158015614f68573d6000803e3d6000fd5b505050508273ffffffffffffffffffffffffffffffffffffffff168473ffffffffffffffffffffffffffffffffffffffff167f49ed9a888a528d93549a1107d36a898c70a461f4a906fa0d439ad78217e4b0d3846040518082815260200191505060405180910390a3600115156150136040805190810160405280600581526020017f6572633230000000000000000000000000000000000000000000000000000000815250614255565b15151415615148576150596040805190810160405280600581526020017f657263323000000000000000000000000000000000000000000000000000000081525061394b565b73ffffffffffffffffffffffffffffffffffffffff1663a6d49dca8585856040518463ffffffff167c0100000000000000000000000000000000000000000000000000000000028152600401808473ffffffffffffffffffffffffffffffffffffffff1673ffffffffffffffffffffffffffffffffffffffff1681526020018373ffffffffffffffffffffffffffffffffffffffff1673ffffffffffffffffffffffffffffffffffffffff1681526020018281526020019350505050600060405180830381600087803b15801561512f57600080fd5b505af1158015615143573d6000803e3d6000fd5b505050505b50505050565b806001151561515c826152f7565b151514151561516a57600080fd5b6040805190810160405280601481526020017f7365745f6c6963656e73655f7265676973747279000000000000000000000000815250600115156151ae338361102e565b15151415156151bc57600080fd5b600115156151c861221f565b15151415156151d657600080fd5b3073ffffffffffffffffffffffffffffffffffffffff168373ffffffffffffffffffffffffffffffffffffffff161415151561521157600080fd5b600860009054906101000a900473ffffffffffffffffffffffffffffffffffffffff1673ffffffffffffffffffffffffffffffffffffffff168373ffffffffffffffffffffffffffffffffffffffff161415151561526e57600080fd5b82600860006101000a81548173ffffffffffffffffffffffffffffffffffffffff021916908373ffffffffffffffffffffffffffffffffffffffff1602179055508273ffffffffffffffffffffffffffffffffffffffff167fc5be812e2a89f8b60936fb7931b8d468a0f88b2c1c8d9d0e9aef86da8b61239d60405160405180910390a2505050565b600080600073ffffffffffffffffffffffffffffffffffffffff168373ffffffffffffffffffffffffffffffffffffffff161415151561533657600080fd5b823b905060008111915050919050565b6001151561535333614048565b151514151561536157600080fd5b6000151561536d61221f565b151514151561537b57600080fd5b615383612da5565b73ffffffffffffffffffffffffffffffffffffffff166315dacbea858585856040518563ffffffff167c0100000000000000000000000000000000000000000000000000000000028152600401808573ffffffffffffffffffffffffffffffffffffffff1673ffffffffffffffffffffffffffffffffffffffff1681526020018473ffffffffffffffffffffffffffffffffffffffff1673ffffffffffffffffffffffffffffffffffffffff1681526020018373ffffffffffffffffffffffffffffffffffffffff1673ffffffffffffffffffffffffffffffffffffffff168152602001828152602001945050505050600060405180830381600087803b15801561548d57600080fd5b505af11580156154a1573d6000803e3d6000fd5b50505050600115156154e76040805190810160405280600581526020017f6572633230000000000000000000000000000000000000000000000000000000815250614255565b1515141561561c5761552d6040805190810160405280600581526020017f657263323000000000000000000000000000000000000000000000000000000081525061394b565b73ffffffffffffffffffffffffffffffffffffffff1663a6d49dca8484846040518463ffffffff167c0100000000000000000000000000000000000000000000000000000000028152600401808473ffffffffffffffffffffffffffffffffffffffff1673ffffffffffffffffffffffffffffffffffffffff1681526020018373ffffffffffffffffffffffffffffffffffffffff1673ffffffffffffffffffffffffffffffffffffffff1681526020018281526020019350505050600060405180830381600087803b15801561560357600080fd5b505af1158015615617573d6000803e3d6000fd5b505050505b50505050565b6001151561562f33614048565b151514151561563d57600080fd5b6000151561564961221f565b151514151561565757600080fd5b61565f612da5565b73ffffffffffffffffffffffffffffffffffffffff1663beabacc88484846040518463ffffffff167c0100000000000000000000000000000000000000000000000000000000028152600401808473ffffffffffffffffffffffffffffffffffffffff1673ffffffffffffffffffffffffffffffffffffffff1681526020018373ffffffffffffffffffffffffffffffffffffffff1673ffffffffffffffffffffffffffffffffffffffff1681526020018281526020019350505050600060405180830381600087803b15801561573557600080fd5b505af1158015615749573d6000803e3d6000fd5b505050506001151561578f6040805190810160405280600581526020017f6572633230000000000000000000000000000000000000000000000000000000815250614255565b151514156158c4576157d56040805190810160405280600581526020017f657263323000000000000000000000000000000000000000000000000000000081525061394b565b73ffffffffffffffffffffffffffffffffffffffff1663a6d49dca8484846040518463ffffffff167c0100000000000000000000000000000000000000000000000000000000028152600401808473ffffffffffffffffffffffffffffffffffffffff1673ffffffffffffffffffffffffffffffffffffffff1681526020018373ffffffffffffffffffffffffffffffffffffffff1673ffffffffffffffffffffffffffffffffffffffff1681526020018281526020019350505050600060405180830381600087803b1580156158ab57600080fd5b505af11580156158bf573d6000803e3d6000fd5b505050505b505050565b6000600115156158d833614048565b15151415156158e657600080fd5b600015156158f261221f565b151514151561590057600080fd5b615908612da5565b73ffffffffffffffffffffffffffffffffffffffff16630af4187d85856040518363ffffffff167c0100000000000000000000000000000000000000000000000000000000028152600401808373ffffffffffffffffffffffffffffffffffffffff1673ffffffffffffffffffffffffffffffffffffffff1681526020018273ffffffffffffffffffffffffffffffffffffffff1673ffffffffffffffffffffffffffffffffffffffff16815260200192505050602060405180830381600087803b1580156159d657600080fd5b505af11580156159ea573d6000803e3d6000fd5b505050506040513d6020811015615a0057600080fd5b81019080805190602001909291905050509050600081118015615a235750600082145b80615a3a5750600081148015615a395750600082115b5b1515615a4557600080fd5b615a4d612da5565b73ffffffffffffffffffffffffffffffffffffffff1663e1f21c678585856040518463ffffffff167c0100000000000000000000000000000000000000000000000000000000028152600401808473ffffffffffffffffffffffffffffffffffffffff1673ffffffffffffffffffffffffffffffffffffffff1681526020018373ffffffffffffffffffffffffffffffffffffffff1673ffffffffffffffffffffffffffffffffffffffff1681526020018281526020019350505050600060405180830381600087803b158015615b2357600080fd5b505af1158015615b37573d6000803e3d6000fd5b5050505060011515615b7d6040805190810160405280600581526020017f6572633230000000000000000000000000000000000000000000000000000000815250614255565b15151415615cb257615bc36040805190810160405280600581526020017f657263323000000000000000000000000000000000000000000000000000000081525061394b565b73ffffffffffffffffffffffffffffffffffffffff1663f23b6fa28585856040518463ffffffff167c0100000000000000000000000000000000000000000000000000000000028152600401808473ffffffffffffffffffffffffffffffffffffffff1673ffffffffffffffffffffffffffffffffffffffff1681526020018373ffffffffffffffffffffffffffffffffffffffff1673ffffffffffffffffffffffffffffffffffffffff1681526020018281526020019350505050600060405180830381600087803b158015615c9957600080fd5b505af1158015615cad573d6000803e3d6000fd5b505050505b505050505600a165627a7a72305820e60674d6500df027aab32df7d61a253a9aae6227183bcab60637c21182dffd050029",
  "source": "/* Author: Victor Mezrin  victor@mezrin.com */\n\npragma solidity ^0.4.24;\n\n\nimport '../../assetbase/JCashCrydrControllerLicensed.sol';\n\n\ncontract JGBPController is JCashCrydrControllerLicensed {\n  constructor () public JCashCrydrControllerLicensed('JGBP') {}\n}\n",
  "sourcePath": "/home/user/dev/project/jibrel/jibrel-contracts/contracts/jcash/asset/JGBP/JGBPController.sol",
  "compiler": {
    "name": "solc",
    "version": "0.4.24+commit.e67f0147.Emscripten.clang"
  },
  "schemaVersion": "2.0.1",
  "updatedAt": "2018-08-28T00:06:20.811Z"
}