{
  "contractName": "JJODViewERC20",
  "abi": [
    {
      "constant": true,
      "inputs": [
        {
          "name": "_manager",
          "type": "address"
        },
        {
          "name": "_permissionName",
          "type": "string"
        }
      ],
      "name": "isManagerAllowed",
      "outputs": [
        {
          "name": "",
          "type": "bool"
        }
      ],
      "payable": false,
      "stateMutability": "view",
      "type": "function"
    },
    {
      "constant": true,
      "inputs": [],
      "name": "name",
      "outputs": [
        {
          "name": "",
          "type": "string"
        }
      ],
      "payable": false,
      "stateMutability": "view",
      "type": "function"
    },
    {
      "constant": false,
      "inputs": [
        {
          "name": "_spender",
          "type": "address"
        },
        {
          "name": "_value",
          "type": "uint256"
        }
      ],
      "name": "approve",
      "outputs": [
        {
          "name": "",
          "type": "bool"
        }
      ],
      "payable": false,
      "stateMutability": "nonpayable",
      "type": "function"
    },
    {
      "constant": true,
      "inputs": [],
      "name": "totalSupply",
      "outputs": [
        {
          "name": "",
          "type": "uint256"
        }
      ],
      "payable": false,
      "stateMutability": "view",
      "type": "function"
    },
    {
      "constant": false,
      "inputs": [],
      "name": "cancelOwnershipOffer",
      "outputs": [],
      "payable": false,
      "stateMutability": "nonpayable",
      "type": "function"
    },
    {
      "constant": true,
      "inputs": [],
      "name": "getCrydrViewStandardNameHash",
      "outputs": [
        {
          "name": "",
          "type": "bytes32"
        }
      ],
      "payable": false,
      "stateMutability": "view",
      "type": "function"
    },
    {
      "constant": false,
      "inputs": [
        {
          "name": "_from",
          "type": "address"
        },
        {
          "name": "_to",
          "type": "address"
        },
        {
          "name": "_value",
          "type": "uint256"
        }
      ],
      "name": "transferFrom",
      "outputs": [
        {
          "name": "",
          "type": "bool"
        }
      ],
      "payable": false,
      "stateMutability": "nonpayable",
      "type": "function"
    },
    {
      "constant": false,
      "inputs": [
        {
          "name": "_crydrController",
          "type": "address"
        }
      ],
      "name": "setCrydrController",
      "outputs": [],
      "payable": false,
      "stateMutability": "nonpayable",
      "type": "function"
    },
    {
      "constant": true,
      "inputs": [],
      "name": "decimals",
      "outputs": [
        {
          "name": "",
          "type": "uint8"
        }
      ],
      "payable": false,
      "stateMutability": "view",
      "type": "function"
    },
    {
      "constant": true,
      "inputs": [
        {
          "name": "_manager",
          "type": "address"
        },
        {
          "name": "_permissionName",
          "type": "string"
        }
      ],
      "name": "isPermissionGranted",
      "outputs": [
        {
          "name": "",
          "type": "bool"
        }
      ],
      "payable": false,
      "stateMutability": "view",
      "type": "function"
    },
    {
      "constant": false,
      "inputs": [],
      "name": "pauseContract",
      "outputs": [],
      "payable": false,
      "stateMutability": "nonpayable",
      "type": "function"
    },
    {
      "constant": false,
      "inputs": [
        {
          "name": "_manager",
          "type": "address"
        }
      ],
      "name": "enableManager",
      "outputs": [],
      "payable": false,
      "stateMutability": "nonpayable",
      "type": "function"
    },
    {
      "constant": true,
      "inputs": [],
      "name": "getPaused",
      "outputs": [
        {
          "name": "",
          "type": "bool"
        }
      ],
      "payable": false,
      "stateMutability": "view",
      "type": "function"
    },
    {
      "constant": true,
      "inputs": [],
      "name": "getAssetID",
      "outputs": [
        {
          "name": "",
          "type": "string"
        }
      ],
      "payable": false,
      "stateMutability": "view",
      "type": "function"
    },
    {
      "constant": true,
      "inputs": [],
      "name": "getSymbolHash",
      "outputs": [
        {
          "name": "",
          "type": "bytes32"
        }
      ],
      "payable": false,
      "stateMutability": "view",
      "type": "function"
    },
    {
      "constant": true,
      "inputs": [
        {
          "name": "_owner",
          "type": "address"
        }
      ],
      "name": "balanceOf",
      "outputs": [
        {
          "name": "",
          "type": "uint256"
        }
      ],
      "payable": false,
      "stateMutability": "view",
      "type": "function"
    },
    {
      "constant": false,
      "inputs": [
        {
          "name": "_decimals",
          "type": "uint8"
        }
      ],
      "name": "setDecimals",
      "outputs": [],
      "payable": false,
      "stateMutability": "nonpayable",
      "type": "function"
    },
    {
      "constant": false,
      "inputs": [
        {
          "name": "_manager",
          "type": "address"
        },
        {
          "name": "_permissionName",
          "type": "string"
        }
      ],
      "name": "revokeManagerPermission",
      "outputs": [],
      "payable": false,
      "stateMutability": "nonpayable",
      "type": "function"
    },
    {
      "constant": true,
      "inputs": [],
      "name": "getCrydrViewStandardName",
      "outputs": [
        {
          "name": "",
          "type": "string"
        }
      ],
      "payable": false,
      "stateMutability": "view",
      "type": "function"
    },
    {
      "constant": false,
      "inputs": [
        {
          "name": "_manager",
          "type": "address"
        },
        {
          "name": "_permissionName",
          "type": "string"
        }
      ],
      "name": "grantManagerPermission",
      "outputs": [],
      "payable": false,
      "stateMutability": "nonpayable",
      "type": "function"
    },
    {
      "constant": true,
      "inputs": [],
      "name": "getOwner",
      "outputs": [
        {
          "name": "",
          "type": "address"
        }
      ],
      "payable": false,
      "stateMutability": "view",
      "type": "function"
    },
    {
      "constant": false,
      "inputs": [
        {
          "name": "_target",
          "type": "address"
        },
        {
          "name": "_suppliedGas",
          "type": "uint256"
        },
        {
          "name": "_ethValue",
          "type": "uint256"
        },
        {
          "name": "_transactionBytecode",
          "type": "bytes"
        }
      ],
      "name": "executeCall",
      "outputs": [],
      "payable": false,
      "stateMutability": "nonpayable",
      "type": "function"
    },
    {
      "constant": false,
      "inputs": [
        {
          "name": "_owner",
          "type": "address"
        },
        {
          "name": "_value",
          "type": "uint256"
        }
      ],
      "name": "emitMintEvent",
      "outputs": [],
      "payable": false,
      "stateMutability": "nonpayable",
      "type": "function"
    },
    {
      "constant": true,
      "inputs": [],
      "name": "symbol",
      "outputs": [
        {
          "name": "",
          "type": "string"
        }
      ],
      "payable": false,
      "stateMutability": "view",
      "type": "function"
    },
    {
      "constant": false,
      "inputs": [
        {
          "name": "_proposedOwner",
          "type": "address"
        }
      ],
      "name": "createOwnershipOffer",
      "outputs": [],
      "payable": false,
      "stateMutability": "nonpayable",
      "type": "function"
    },
    {
      "constant": true,
      "inputs": [
        {
          "name": "_manager",
          "type": "address"
        }
      ],
      "name": "isManagerEnabled",
      "outputs": [
        {
          "name": "",
          "type": "bool"
        }
      ],
      "payable": false,
      "stateMutability": "view",
      "type": "function"
    },
    {
      "constant": false,
      "inputs": [
        {
          "name": "_from",
          "type": "address"
        },
        {
          "name": "_to",
          "type": "address"
        },
        {
          "name": "_value",
          "type": "uint256"
        }
      ],
      "name": "emitTransferEvent",
      "outputs": [],
      "payable": false,
      "stateMutability": "nonpayable",
      "type": "function"
    },
    {
      "constant": true,
      "inputs": [],
      "name": "getAssetIDHash",
      "outputs": [
        {
          "name": "",
          "type": "bytes32"
        }
      ],
      "payable": false,
      "stateMutability": "view",
      "type": "function"
    },
    {
      "constant": false,
      "inputs": [
        {
          "name": "_to",
          "type": "address"
        },
        {
          "name": "_value",
          "type": "uint256"
        }
      ],
      "name": "transfer",
      "outputs": [
        {
          "name": "",
          "type": "bool"
        }
      ],
      "payable": false,
      "stateMutability": "nonpayable",
      "type": "function"
    },
    {
      "constant": false,
      "inputs": [],
      "name": "unpauseContract",
      "outputs": [],
      "payable": false,
      "stateMutability": "nonpayable",
      "type": "function"
    },
    {
      "constant": false,
      "inputs": [
        {
          "name": "_symbol",
          "type": "string"
        }
      ],
      "name": "setSymbol",
      "outputs": [],
      "payable": false,
      "stateMutability": "nonpayable",
      "type": "function"
    },
    {
      "constant": false,
      "inputs": [
        {
          "name": "_name",
          "type": "string"
        }
      ],
      "name": "setName",
      "outputs": [],
      "payable": false,
      "stateMutability": "nonpayable",
      "type": "function"
    },
    {
      "constant": true,
      "inputs": [],
      "name": "getCrydrController",
      "outputs": [
        {
          "name": "",
          "type": "address"
        }
      ],
      "payable": false,
      "stateMutability": "view",
      "type": "function"
    },
    {
      "constant": false,
      "inputs": [
        {
          "name": "_target",
          "type": "address"
        },
        {
          "name": "_suppliedGas",
          "type": "uint256"
        },
        {
          "name": "_transactionBytecode",
          "type": "bytes"
        }
      ],
      "name": "executeDelegatecall",
      "outputs": [],
      "payable": false,
      "stateMutability": "nonpayable",
      "type": "function"
    },
    {
      "constant": false,
      "inputs": [
        {
          "name": "_manager",
          "type": "address"
        }
      ],
      "name": "disableManager",
      "outputs": [],
      "payable": false,
      "stateMutability": "nonpayable",
      "type": "function"
    },
    {
      "constant": true,
      "inputs": [
        {
          "name": "_owner",
          "type": "address"
        },
        {
          "name": "_spender",
          "type": "address"
        }
      ],
      "name": "allowance",
      "outputs": [
        {
          "name": "",
          "type": "uint256"
        }
      ],
      "payable": false,
      "stateMutability": "view",
      "type": "function"
    },
    {
      "constant": true,
      "inputs": [],
      "name": "getNameHash",
      "outputs": [
        {
          "name": "",
          "type": "bytes32"
        }
      ],
      "payable": false,
      "stateMutability": "view",
      "type": "function"
    },
    {
      "constant": true,
      "inputs": [],
      "name": "getProposedOwner",
      "outputs": [
        {
          "name": "",
          "type": "address"
        }
      ],
      "payable": false,
      "stateMutability": "view",
      "type": "function"
    },
    {
      "constant": false,
      "inputs": [
        {
          "name": "_owner",
          "type": "address"
        },
        {
          "name": "_value",
          "type": "uint256"
        }
      ],
      "name": "emitBurnEvent",
      "outputs": [],
      "payable": false,
      "stateMutability": "nonpayable",
      "type": "function"
    },
    {
      "constant": false,
      "inputs": [
        {
          "name": "_owner",
          "type": "address"
        },
        {
          "name": "_spender",
          "type": "address"
        },
        {
          "name": "_value",
          "type": "uint256"
        }
      ],
      "name": "emitApprovalEvent",
      "outputs": [],
      "payable": false,
      "stateMutability": "nonpayable",
      "type": "function"
    },
    {
      "constant": false,
      "inputs": [],
      "name": "acceptOwnershipOffer",
      "outputs": [],
      "payable": false,
      "stateMutability": "nonpayable",
      "type": "function"
    },
    {
      "inputs": [],
      "payable": false,
      "stateMutability": "nonpayable",
      "type": "constructor"
    },
    {
      "anonymous": false,
      "inputs": [
        {
          "indexed": true,
          "name": "owner",
          "type": "address"
        },
        {
          "indexed": false,
          "name": "value",
          "type": "uint256"
        }
      ],
      "name": "MintEvent",
      "type": "event"
    },
    {
      "anonymous": false,
      "inputs": [
        {
          "indexed": true,
          "name": "owner",
          "type": "address"
        },
        {
          "indexed": false,
          "name": "value",
          "type": "uint256"
        }
      ],
      "name": "BurnEvent",
      "type": "event"
    },
    {
      "anonymous": false,
      "inputs": [
        {
          "indexed": true,
          "name": "from",
          "type": "address"
        },
        {
          "indexed": true,
          "name": "to",
          "type": "address"
        },
        {
          "indexed": false,
          "name": "value",
          "type": "uint256"
        }
      ],
      "name": "Transfer",
      "type": "event"
    },
    {
      "anonymous": false,
      "inputs": [
        {
          "indexed": true,
          "name": "owner",
          "type": "address"
        },
        {
          "indexed": true,
          "name": "spender",
          "type": "address"
        },
        {
          "indexed": false,
          "name": "value",
          "type": "uint256"
        }
      ],
      "name": "Approval",
      "type": "event"
    },
    {
      "anonymous": false,
      "inputs": [
        {
          "indexed": true,
          "name": "crydrcontroller",
          "type": "address"
        }
      ],
      "name": "CrydrControllerChangedEvent",
      "type": "event"
    },
    {
      "anonymous": false,
      "inputs": [
        {
          "indexed": true,
          "name": "target",
          "type": "address"
        },
        {
          "indexed": false,
          "name": "suppliedGas",
          "type": "uint256"
        },
        {
          "indexed": false,
          "name": "ethValue",
          "type": "uint256"
        },
        {
          "indexed": false,
          "name": "transactionBytecodeHash",
          "type": "bytes32"
        }
      ],
      "name": "CallExecutedEvent",
      "type": "event"
    },
    {
      "anonymous": false,
      "inputs": [
        {
          "indexed": true,
          "name": "target",
          "type": "address"
        },
        {
          "indexed": false,
          "name": "suppliedGas",
          "type": "uint256"
        },
        {
          "indexed": false,
          "name": "transactionBytecodeHash",
          "type": "bytes32"
        }
      ],
      "name": "DelegatecallExecutedEvent",
      "type": "event"
    },
    {
      "anonymous": false,
      "inputs": [],
      "name": "PauseEvent",
      "type": "event"
    },
    {
      "anonymous": false,
      "inputs": [],
      "name": "UnpauseEvent",
      "type": "event"
    },
    {
      "anonymous": false,
      "inputs": [
        {
          "indexed": true,
          "name": "manager",
          "type": "address"
        }
      ],
      "name": "ManagerEnabledEvent",
      "type": "event"
    },
    {
      "anonymous": false,
      "inputs": [
        {
          "indexed": true,
          "name": "manager",
          "type": "address"
        }
      ],
      "name": "ManagerDisabledEvent",
      "type": "event"
    },
    {
      "anonymous": false,
      "inputs": [
        {
          "indexed": true,
          "name": "manager",
          "type": "address"
        },
        {
          "indexed": false,
          "name": "permission",
          "type": "bytes32"
        }
      ],
      "name": "ManagerPermissionGrantedEvent",
      "type": "event"
    },
    {
      "anonymous": false,
      "inputs": [
        {
          "indexed": true,
          "name": "manager",
          "type": "address"
        },
        {
          "indexed": false,
          "name": "permission",
          "type": "bytes32"
        }
      ],
      "name": "ManagerPermissionRevokedEvent",
      "type": "event"
    },
    {
      "anonymous": false,
      "inputs": [
        {
          "indexed": true,
          "name": "newowner",
          "type": "address"
        }
      ],
      "name": "OwnerAssignedEvent",
      "type": "event"
    },
    {
      "anonymous": false,
      "inputs": [
        {
          "indexed": true,
          "name": "currentowner",
          "type": "address"
        },
        {
          "indexed": true,
          "name": "proposedowner",
          "type": "address"
        }
      ],
      "name": "OwnershipOfferCreatedEvent",
      "type": "event"
    },
    {
      "anonymous": false,
      "inputs": [
        {
          "indexed": true,
          "name": "currentowner",
          "type": "address"
        },
        {
          "indexed": true,
          "name": "proposedowner",
          "type": "address"
        }
      ],
      "name": "OwnershipOfferAcceptedEvent",
      "type": "event"
    },
    {
      "anonymous": false,
      "inputs": [
        {
          "indexed": true,
          "name": "currentowner",
          "type": "address"
        },
        {
          "indexed": true,
          "name": "proposedowner",
          "type": "address"
        }
      ],
      "name": "OwnershipOfferCancelledEvent",
      "type": "event"
    }
  ],
  "bytecode": "0x60806040526000600160006101000a81548173ffffffffffffffffffffffffffffffffffffffff021916908373ffffffffffffffffffffffffffffffffffffffff1602179055506000600260006101000a81548173ffffffffffffffffffffffffffffffffffffffff021916908373ffffffffffffffffffffffffffffffffffffffff1602179055506001600560006101000a81548160ff0219169083151502179055506000600560016101000a81548160ff0219169083151502179055506000600560026101000a81548173ffffffffffffffffffffffffffffffffffffffff021916908373ffffffffffffffffffffffffffffffffffffffff16021790555060206040519081016040528060008152506006908051906020019062000128929190620003fb565b5060206040519081016040528060008152506007908051906020019062000151929190620003fb565b506020604051908101604052806000815250600890805190602001906200017a929190620003fb565b506000600960006101000a81548160ff021916908360ff160217905550348015620001a457600080fd5b506040805190810160405280600481526020017f4a4a4f44000000000000000000000000000000000000000000000000000000008152506040805190810160405280600f81526020017f4a6f7264616e69616e2044696e617200000000000000000000000000000000008152506040805190810160405280600481526020017f4a4a4f440000000000000000000000000000000000000000000000000000000081525060128282826040805190810160405280600581526020017f657263323000000000000000000000000000000000000000000000000000000081525087600081511115156200029457600080fd5b8060009080519060200190620002ac929190620003fb565b505033600160006101000a81548173ffffffffffffffffffffffffffffffffffffffff021916908373ffffffffffffffffffffffffffffffffffffffff160217905550600160009054906101000a900473ffffffffffffffffffffffffffffffffffffffff1673ffffffffffffffffffffffffffffffffffffffff167f8d2a41ca5ff551a8f68510de75177b7d56e6019c8579b5509d2be1bb41a0d0af60405160405180910390a2600081511115156200036557600080fd5b80600690805190602001906200037d929190620003fb565b5050600083511115156200039057600080fd5b60008251111515620003a157600080fd5b8260079080519060200190620003b9929190620003fb565b508160089080519060200190620003d2929190620003fb565b5080600960006101000a81548160ff021916908360ff16021790555050505050505050620004aa565b828054600181600116156101000203166002900490600052602060002090601f016020900481019282601f106200043e57805160ff19168380011785556200046f565b828001600101855582156200046f579182015b828111156200046e57825182559160200191906001019062000451565b5b5090506200047e919062000482565b5090565b620004a791905b80821115620004a357600081600090555060010162000489565b5090565b90565b61378c80620004ba6000396000f3006080604052600436106101f9576000357c0100000000000000000000000000000000000000000000000000000000900463ffffffff1680630392d2b4146101fe57806306fdde031461029f578063095ea7b31461032f57806318160ddd146103945780631eb96a5c146103bf578063230f6e83146103d657806323b872dd14610409578063305f17d51461048e578063313ce567146104d157806332a2fda714610502578063439766ce146105a35780635ca5b334146105ba5780636805b84b146105fd578063696b5fb71461062c5780636ea928d9146106bc57806370a08231146106ef5780637a1395aa146107465780637c0efb8b146107765780637c6fb02a146107d1578063822b08d014610861578063893d20e8146108bc5780638ba7e57014610913578063958689d71461098257806395d89b41146109cf5780639739db9d14610a5f5780639b53d87c14610aa2578063a6d49dca14610afd578063a773d98a14610b6a578063a9059cbb14610b9d578063b33712c514610c02578063b84c824614610c19578063c47f002714610c54578063ca9c286214610c8f578063d2b7d95714610ce6578063d4859dc514610d4b578063dd62ed3e14610d8e578063e102d95014610e05578063eae5a62d14610e38578063ed810cfa14610e8f578063f23b6fa214610edc578063f538534514610f49575b600080fd5b34801561020a57600080fd5b50610285600480360381019080803573ffffffffffffffffffffffffffffffffffffffff169060200190929190803590602001908201803590602001908080601f0160208091040260200160405190810160405280939291908181526020018383808284378201915050505050509192919290505050610f60565b604051808215151515815260200191505060405180910390f35b3480156102ab57600080fd5b506102b46110c6565b6040518080602001828103825283818151815260200191508051906020019080838360005b838110156102f45780820151818401526020810190506102d9565b50505050905090810190601f1680156103215780820380516001836020036101000a031916815260200191505b509250505060405180910390f35b34801561033b57600080fd5b5061037a600480360381019080803573ffffffffffffffffffffffffffffffffffffffff16906020019092919080359060200190929190505050611168565b604051808215151515815260200191505060405180910390f35b3480156103a057600080fd5b506103a961129b565b6040518082815260200191505060405180910390f35b3480156103cb57600080fd5b506103d4611348565b005b3480156103e257600080fd5b506103eb611541565b60405180826000191660001916815260200191505060405180910390f35b34801561041557600080fd5b50610474600480360381019080803573ffffffffffffffffffffffffffffffffffffffff169060200190929190803573ffffffffffffffffffffffffffffffffffffffff169060200190929190803590602001909291905050506115b2565b604051808215151515815260200191505060405180910390f35b34801561049a57600080fd5b506104cf600480360381019080803573ffffffffffffffffffffffffffffffffffffffff16906020019092919050505061171a565b005b3480156104dd57600080fd5b506104e6611888565b604051808260ff1660ff16815260200191505060405180910390f35b34801561050e57600080fd5b50610589600480360381019080803573ffffffffffffffffffffffffffffffffffffffff169060200190929190803590602001908201803590602001908080601f016020809104026020016040519081016040528093929190818152602001838380828437820191505050505050919291929050505061189f565b604051808215151515815260200191505060405180910390f35b3480156105af57600080fd5b506105b86119b0565b005b3480156105c657600080fd5b506105fb600480360381019080803573ffffffffffffffffffffffffffffffffffffffff169060200190929190505050611a66565b005b34801561060957600080fd5b50610612611be2565b604051808215151515815260200191505060405180910390f35b34801561063857600080fd5b50610641611bf9565b6040518080602001828103825283818151815260200191508051906020019080838360005b83811015610681578082015181840152602081019050610666565b50505050905090810190601f1680156106ae5780820380516001836020036101000a031916815260200191505b509250505060405180910390f35b3480156106c857600080fd5b506106d1611c9b565b60405180826000191660001916815260200191505060405180910390f35b3480156106fb57600080fd5b50610730600480360381019080803573ffffffffffffffffffffffffffffffffffffffff169060200190929190505050611d0c565b6040518082815260200191505060405180910390f35b34801561075257600080fd5b50610774600480360381019080803560ff169060200190929190505050611e0a565b005b34801561078257600080fd5b506107cf600480360381019080803573ffffffffffffffffffffffffffffffffffffffff169060200190929190803590602001908201803590602001919091929391929390505050611e7b565b005b3480156107dd57600080fd5b506107e66120b3565b6040518080602001828103825283818151815260200191508051906020019080838360005b8381101561082657808201518184015260208101905061080b565b50505050905090810190601f1680156108535780820380516001836020036101000a031916815260200191505b509250505060405180910390f35b34801561086d57600080fd5b506108ba600480360381019080803573ffffffffffffffffffffffffffffffffffffffff169060200190929190803590602001908201803590602001919091929391929390505050612155565b005b3480156108c857600080fd5b506108d161238d565b604051808273ffffffffffffffffffffffffffffffffffffffff1673ffffffffffffffffffffffffffffffffffffffff16815260200191505060405180910390f35b34801561091f57600080fd5b50610980600480360381019080803573ffffffffffffffffffffffffffffffffffffffff16906020019092919080359060200190929190803590602001909291908035906020019082018035906020019190919293919293905050506123b7565b005b34801561098e57600080fd5b506109cd600480360381019080803573ffffffffffffffffffffffffffffffffffffffff1690602001909291908035906020019092919050505061252c565b005b3480156109db57600080fd5b506109e46125bf565b6040518080602001828103825283818151815260200191508051906020019080838360005b83811015610a24578082015181840152602081019050610a09565b50505050905090810190601f168015610a515780820380516001836020036101000a031916815260200191505b509250505060405180910390f35b348015610a6b57600080fd5b50610aa0600480360381019080803573ffffffffffffffffffffffffffffffffffffffff169060200190929190505050612661565b005b348015610aae57600080fd5b50610ae3600480360381019080803573ffffffffffffffffffffffffffffffffffffffff169060200190929190505050612836565b604051808215151515815260200191505060405180910390f35b348015610b0957600080fd5b50610b68600480360381019080803573ffffffffffffffffffffffffffffffffffffffff169060200190929190803573ffffffffffffffffffffffffffffffffffffffff169060200190929190803590602001909291905050506128ca565b005b348015610b7657600080fd5b50610b7f612975565b60405180826000191660001916815260200191505060405180910390f35b348015610ba957600080fd5b50610be8600480360381019080803573ffffffffffffffffffffffffffffffffffffffff169060200190929190803590602001909291905050506129e5565b604051808215151515815260200191505060405180910390f35b348015610c0e57600080fd5b50610c17612b18565b005b348015610c2557600080fd5b50610c52600480360381019080803590602001908201803590602001919091929391929390505050612c3c565b005b348015610c6057600080fd5b50610c8d600480360381019080803590602001908201803590602001919091929391929390505050612cb7565b005b348015610c9b57600080fd5b50610ca4612d32565b604051808273ffffffffffffffffffffffffffffffffffffffff1673ffffffffffffffffffffffffffffffffffffffff16815260200191505060405180910390f35b348015610cf257600080fd5b50610d49600480360381019080803573ffffffffffffffffffffffffffffffffffffffff16906020019092919080359060200190929190803590602001908201803590602001919091929391929390505050612d5c565b005b348015610d5757600080fd5b50610d8c600480360381019080803573ffffffffffffffffffffffffffffffffffffffff169060200190929190505050612ec5565b005b348015610d9a57600080fd5b50610def600480360381019080803573ffffffffffffffffffffffffffffffffffffffff169060200190929190803573ffffffffffffffffffffffffffffffffffffffff169060200190929190505050613041565b6040518082815260200191505060405180910390f35b348015610e1157600080fd5b50610e1a613174565b60405180826000191660001916815260200191505060405180910390f35b348015610e4457600080fd5b50610e4d6131e5565b604051808273ffffffffffffffffffffffffffffffffffffffff1673ffffffffffffffffffffffffffffffffffffffff16815260200191505060405180910390f35b348015610e9b57600080fd5b50610eda600480360381019080803573ffffffffffffffffffffffffffffffffffffffff1690602001909291908035906020019092919050505061320f565b005b348015610ee857600080fd5b50610f47600480360381019080803573ffffffffffffffffffffffffffffffffffffffff169060200190929190803573ffffffffffffffffffffffffffffffffffffffff169060200190929190803590602001909291905050506132a2565b005b348015610f5557600080fd5b50610f5e61334d565b005b600082600073ffffffffffffffffffffffffffffffffffffffff168173ffffffffffffffffffffffffffffffffffffffff1614151515610f9f57600080fd5b826000815114151515610fb157600080fd5b600360008673ffffffffffffffffffffffffffffffffffffffff1673ffffffffffffffffffffffffffffffffffffffff16815260200190815260200160002060009054906101000a900460ff1680156110bc5750600460008673ffffffffffffffffffffffffffffffffffffffff1673ffffffffffffffffffffffffffffffffffffffff168152602001908152602001600020846040518082805190602001908083835b60208310151561107a5780518252602082019150602081019050602083039250611055565b6001836020036101000a038019825116818451168082178552505050505050905001915050908152602001604051809103902060009054906101000a900460ff165b9250505092915050565b606060078054600181600116156101000203166002900480601f01602080910402602001604051908101604052809291908181526020018280546001816001161561010002031660029004801561115e5780601f106111335761010080835404028352916020019161115e565b820191906000526020600020905b81548152906001019060200180831161114157829003601f168201915b5050505050905090565b6000801515611175611be2565b151514151561118357600080fd5b604060048101600036905014151561119a57600080fd5b6111a2612d32565b73ffffffffffffffffffffffffffffffffffffffff1663e1f21c673386866040518463ffffffff167c0100000000000000000000000000000000000000000000000000000000028152600401808473ffffffffffffffffffffffffffffffffffffffff1673ffffffffffffffffffffffffffffffffffffffff1681526020018373ffffffffffffffffffffffffffffffffffffffff1673ffffffffffffffffffffffffffffffffffffffff1681526020018281526020019350505050600060405180830381600087803b15801561127857600080fd5b505af115801561128c573d6000803e3d6000fd5b50505050600191505092915050565b60006112a5612d32565b73ffffffffffffffffffffffffffffffffffffffff1663c4e41b226040518163ffffffff167c0100000000000000000000000000000000000000000000000000000000028152600401602060405180830381600087803b15801561130857600080fd5b505af115801561131c573d6000803e3d6000fd5b505050506040513d602081101561133257600080fd5b8101908080519060200190929190505050905090565b60008073ffffffffffffffffffffffffffffffffffffffff16600260009054906101000a900473ffffffffffffffffffffffffffffffffffffffff1673ffffffffffffffffffffffffffffffffffffffff16141515156113a757600080fd5b600160009054906101000a900473ffffffffffffffffffffffffffffffffffffffff1673ffffffffffffffffffffffffffffffffffffffff163373ffffffffffffffffffffffffffffffffffffffff1614806114505750600260009054906101000a900473ffffffffffffffffffffffffffffffffffffffff1673ffffffffffffffffffffffffffffffffffffffff163373ffffffffffffffffffffffffffffffffffffffff16145b151561145b57600080fd5b600260009054906101000a900473ffffffffffffffffffffffffffffffffffffffff1690506000600260006101000a81548173ffffffffffffffffffffffffffffffffffffffff021916908373ffffffffffffffffffffffffffffffffffffffff1602179055508073ffffffffffffffffffffffffffffffffffffffff16600160009054906101000a900473ffffffffffffffffffffffffffffffffffffffff1673ffffffffffffffffffffffffffffffffffffffff167f223225995c0c0965e8752fd93ca10aba4bafcbca26f31b1565955adb68e76bda60405160405180910390a350565b6000600660405180828054600181600116156101000203166002900480156115a05780601f1061157e5761010080835404028352918201916115a0565b820191906000526020600020905b81548152906001019060200180831161158c575b50509150506040518091039020905090565b60008015156115bf611be2565b15151415156115cd57600080fd5b60606004810160003690501415156115e457600080fd5b6115ec612d32565b73ffffffffffffffffffffffffffffffffffffffff166315dacbea338787876040518563ffffffff167c0100000000000000000000000000000000000000000000000000000000028152600401808573ffffffffffffffffffffffffffffffffffffffff1673ffffffffffffffffffffffffffffffffffffffff1681526020018473ffffffffffffffffffffffffffffffffffffffff1673ffffffffffffffffffffffffffffffffffffffff1681526020018373ffffffffffffffffffffffffffffffffffffffff1673ffffffffffffffffffffffffffffffffffffffff168152602001828152602001945050505050600060405180830381600087803b1580156116f657600080fd5b505af115801561170a573d6000803e3d6000fd5b5050505060019150509392505050565b8060011515611728826135b6565b151514151561173657600080fd5b6040805190810160405280601481526020017f7365745f63727964725f636f6e74726f6c6c65720000000000000000000000008152506001151561177a3383610f60565b151514151561178857600080fd5b60011515611794611be2565b15151415156117a257600080fd5b8273ffffffffffffffffffffffffffffffffffffffff16600560029054906101000a900473ffffffffffffffffffffffffffffffffffffffff1673ffffffffffffffffffffffffffffffffffffffff16141515156117ff57600080fd5b82600560026101000a81548173ffffffffffffffffffffffffffffffffffffffff021916908373ffffffffffffffffffffffffffffffffffffffff1602179055508273ffffffffffffffffffffffffffffffffffffffff167f95e43e6707a0436b5cc3af93d12042ce56df5ec4fe857d77836fe6316dc8457060405160405180910390a2505050565b6000600960009054906101000a900460ff16905090565b600082600073ffffffffffffffffffffffffffffffffffffffff168173ffffffffffffffffffffffffffffffffffffffff16141515156118de57600080fd5b8260008151141515156118f057600080fd5b600460008673ffffffffffffffffffffffffffffffffffffffff1673ffffffffffffffffffffffffffffffffffffffff168152602001908152602001600020846040518082805190602001908083835b6020831015156119655780518252602082019150602081019050602083039250611940565b6001836020036101000a038019825116818451168082178552505050505050905001915050908152602001604051809103902060009054906101000a900460ff169250505092915050565b6040805190810160405280600e81526020017f70617573655f636f6e7472616374000000000000000000000000000000000000815250600115156119f43383610f60565b1515141515611a0257600080fd5b60001515611a0e611be2565b1515141515611a1c57600080fd5b6001600560006101000a81548160ff0219169083151502179055507f14cc32b2b0edca88201ca20553c392d108a2feb2c750a0ee14c707b4f34fbee260405160405180910390a150565b611a6e61238d565b73ffffffffffffffffffffffffffffffffffffffff163373ffffffffffffffffffffffffffffffffffffffff16141515611aa757600080fd5b80600073ffffffffffffffffffffffffffffffffffffffff168173ffffffffffffffffffffffffffffffffffffffff1614151515611ae457600080fd5b60001515600360008473ffffffffffffffffffffffffffffffffffffffff1673ffffffffffffffffffffffffffffffffffffffff16815260200190815260200160002060009054906101000a900460ff161515141515611b4357600080fd5b6001600360008473ffffffffffffffffffffffffffffffffffffffff1673ffffffffffffffffffffffffffffffffffffffff16815260200190815260200160002060006101000a81548160ff0219169083151502179055508173ffffffffffffffffffffffffffffffffffffffff167f7f0b61f78ab0b549b68ce61404f4ee01a26ffdf8d421d099d271d789aaea3a8e60405160405180910390a25050565b6000600560009054906101000a900460ff16905090565b606060008054600181600116156101000203166002900480601f016020809104026020016040519081016040528092919081815260200182805460018160011615610100020316600290048015611c915780601f10611c6657610100808354040283529160200191611c91565b820191906000526020600020905b815481529060010190602001808311611c7457829003601f168201915b5050505050905090565b600060086040518082805460018160011615610100020316600290048015611cfa5780601f10611cd8576101008083540402835291820191611cfa565b820191906000526020600020905b815481529060010190602001808311611ce6575b50509150506040518091039020905090565b60006020600481016000369050141515611d2557600080fd5b611d2d612d32565b73ffffffffffffffffffffffffffffffffffffffff1663f8b2cb4f846040518263ffffffff167c0100000000000000000000000000000000000000000000000000000000028152600401808273ffffffffffffffffffffffffffffffffffffffff1673ffffffffffffffffffffffffffffffffffffffff168152602001915050602060405180830381600087803b158015611dc757600080fd5b505af1158015611ddb573d6000803e3d6000fd5b505050506040513d6020811015611df157600080fd5b8101908080519060200190929190505050915050919050565b6040805190810160405280601281526020017f7365745f63727964725f646563696d616c73000000000000000000000000000081525060011515611e4e3383610f60565b1515141515611e5c57600080fd5b81600960006101000a81548160ff021916908360ff1602179055505050565b611e8361238d565b73ffffffffffffffffffffffffffffffffffffffff163373ffffffffffffffffffffffffffffffffffffffff16141515611ebc57600080fd5b82600073ffffffffffffffffffffffffffffffffffffffff168173ffffffffffffffffffffffffffffffffffffffff1614151515611ef957600080fd5b82828080601f0160208091040260200160405190810160405280939291908181526020018383808284378201915050505050506000815114151515611f3d57600080fd5b60011515600460008773ffffffffffffffffffffffffffffffffffffffff1673ffffffffffffffffffffffffffffffffffffffff168152602001908152602001600020858560405180838380828437820191505092505050908152602001604051809103902060009054906101000a900460ff161515141515611fbf57600080fd5b6000600460008773ffffffffffffffffffffffffffffffffffffffff1673ffffffffffffffffffffffffffffffffffffffff168152602001908152602001600020858560405180838380828437820191505092505050908152602001604051809103902060006101000a81548160ff0219169083151502179055508473ffffffffffffffffffffffffffffffffffffffff167ffef063ea41a1d4d73bca77475bd8fc3c81a1145b2f3afa879a1530bb6a8401e3858560405180838380828437820191505092505050604051809103902060405180826000191660001916815260200191505060405180910390a25050505050565b606060068054600181600116156101000203166002900480601f01602080910402602001604051908101604052809291908181526020018280546001816001161561010002031660029004801561214b5780601f106121205761010080835404028352916020019161214b565b820191906000526020600020905b81548152906001019060200180831161212e57829003601f168201915b5050505050905090565b61215d61238d565b73ffffffffffffffffffffffffffffffffffffffff163373ffffffffffffffffffffffffffffffffffffffff1614151561219657600080fd5b82600073ffffffffffffffffffffffffffffffffffffffff168173ffffffffffffffffffffffffffffffffffffffff16141515156121d357600080fd5b82828080601f016020809104026020016040519081016040528093929190818152602001838380828437820191505050505050600081511415151561221757600080fd5b60001515600460008773ffffffffffffffffffffffffffffffffffffffff1673ffffffffffffffffffffffffffffffffffffffff168152602001908152602001600020858560405180838380828437820191505092505050908152602001604051809103902060009054906101000a900460ff16151514151561229957600080fd5b6001600460008773ffffffffffffffffffffffffffffffffffffffff1673ffffffffffffffffffffffffffffffffffffffff168152602001908152602001600020858560405180838380828437820191505092505050908152602001604051809103902060006101000a81548160ff0219169083151502179055508473ffffffffffffffffffffffffffffffffffffffff167fc1b43c9c4075dfc74444e2d220aecef01cd89d63abb613d28f1f727c973f1f50858560405180838380828437820191505092505050604051809103902060405180826000191660001916815260200191505060405180910390a25050505050565b6000600160009054906101000a900473ffffffffffffffffffffffffffffffffffffffff16905090565b6040805190810160405280600c81526020017f657865637574655f63616c6c0000000000000000000000000000000000000000815250600115156123fb3383610f60565b151514151561240957600080fd5b60001515600560019054906101000a900460ff16151514151561242b57600080fd5b6001600560016101000a81548160ff0219169083151502179055508573ffffffffffffffffffffffffffffffffffffffff168585858560405180838380828437820191505092505050600060405180830381858888f19350505050506000600560016101000a81548160ff0219169083151502179055508573ffffffffffffffffffffffffffffffffffffffff167f376185a1f1832ecd7ffd6a421a54d437594db00f80f6122e8534d19d978b65b686868686604051808383808284378201915050925050506040518091039020604051808481526020018381526020018260001916600019168152602001935050505060405180910390a2505050505050565b612534612d32565b73ffffffffffffffffffffffffffffffffffffffff163373ffffffffffffffffffffffffffffffffffffffff1614151561256d57600080fd5b8173ffffffffffffffffffffffffffffffffffffffff167f3fffaa5804a26fcec0d70b1d0fb0a2d0031df3a5f9c8af2127c2f4360e97b463826040518082815260200191505060405180910390a25050565b606060088054600181600116156101000203166002900480601f0160208091040260200160405190810160405280929190818152602001828054600181600116156101000203166002900480156126575780601f1061262c57610100808354040283529160200191612657565b820191906000526020600020905b81548152906001019060200180831161263a57829003601f168201915b5050505050905090565b61266961238d565b73ffffffffffffffffffffffffffffffffffffffff163373ffffffffffffffffffffffffffffffffffffffff161415156126a257600080fd5b600073ffffffffffffffffffffffffffffffffffffffff16600260009054906101000a900473ffffffffffffffffffffffffffffffffffffffff1673ffffffffffffffffffffffffffffffffffffffff161415156126ff57600080fd5b600073ffffffffffffffffffffffffffffffffffffffff168173ffffffffffffffffffffffffffffffffffffffff161415151561273b57600080fd5b3073ffffffffffffffffffffffffffffffffffffffff168173ffffffffffffffffffffffffffffffffffffffff161415151561277657600080fd5b80600260006101000a81548173ffffffffffffffffffffffffffffffffffffffff021916908373ffffffffffffffffffffffffffffffffffffffff1602179055508073ffffffffffffffffffffffffffffffffffffffff16600160009054906101000a900473ffffffffffffffffffffffffffffffffffffffff1673ffffffffffffffffffffffffffffffffffffffff167f0c5d18b25c2665dfeec8ea7956663ec48f079fdd04799ddd335f2fdce1a9fceb60405160405180910390a350565b600081600073ffffffffffffffffffffffffffffffffffffffff168173ffffffffffffffffffffffffffffffffffffffff161415151561287557600080fd5b600360008473ffffffffffffffffffffffffffffffffffffffff1673ffffffffffffffffffffffffffffffffffffffff16815260200190815260200160002060009054906101000a900460ff16915050919050565b6128d2612d32565b73ffffffffffffffffffffffffffffffffffffffff163373ffffffffffffffffffffffffffffffffffffffff1614151561290b57600080fd5b8173ffffffffffffffffffffffffffffffffffffffff168373ffffffffffffffffffffffffffffffffffffffff167fddf252ad1be2c89b69c2b068fc378daa952ba7f163c4a11628f55a4df523b3ef836040518082815260200191505060405180910390a3505050565b60008060405180828054600181600116156101000203166002900480156129d35780601f106129b15761010080835404028352918201916129d3565b820191906000526020600020905b8154815290600101906020018083116129bf575b50509150506040518091039020905090565b60008015156129f2611be2565b1515141515612a0057600080fd5b6040600481016000369050141515612a1757600080fd5b612a1f612d32565b73ffffffffffffffffffffffffffffffffffffffff1663beabacc83386866040518463ffffffff167c0100000000000000000000000000000000000000000000000000000000028152600401808473ffffffffffffffffffffffffffffffffffffffff1673ffffffffffffffffffffffffffffffffffffffff1681526020018373ffffffffffffffffffffffffffffffffffffffff1673ffffffffffffffffffffffffffffffffffffffff1681526020018281526020019350505050600060405180830381600087803b158015612af557600080fd5b505af1158015612b09573d6000803e3d6000fd5b50505050600191505092915050565b60011515612b47600560029054906101000a900473ffffffffffffffffffffffffffffffffffffffff166135b6565b1515141515612b5557600080fd5b600560029054906101000a900473ffffffffffffffffffffffffffffffffffffffff1673ffffffffffffffffffffffffffffffffffffffff1663a773d98a6040518163ffffffff167c0100000000000000000000000000000000000000000000000000000000028152600401602060405180830381600087803b158015612bdb57600080fd5b505af1158015612bef573d6000803e3d6000fd5b505050506040513d6020811015612c0557600080fd5b810190808051906020019092919050505060001916612c22612975565b60001916141515612c3257600080fd5b612c3a613605565b565b6040805190810160405280601081526020017f7365745f63727964725f73796d626f6c0000000000000000000000000000000081525060011515612c803383610f60565b1515141515612c8e57600080fd5b600083839050111515612ca057600080fd5b828260089190612cb19291906136bb565b50505050565b6040805190810160405280600e81526020017f7365745f63727964725f6e616d6500000000000000000000000000000000000081525060011515612cfb3383610f60565b1515141515612d0957600080fd5b600083839050111515612d1b57600080fd5b828260079190612d2c9291906136bb565b50505050565b6000600560029054906101000a900473ffffffffffffffffffffffffffffffffffffffff16905090565b6040805190810160405280601481526020017f657865637574655f64656c656761746563616c6c00000000000000000000000081525060011515612da03383610f60565b1515141515612dae57600080fd5b60001515600560019054906101000a900460ff161515141515612dd057600080fd5b6001600560016101000a81548160ff0219169083151502179055508473ffffffffffffffffffffffffffffffffffffffff16848484604051808383808284378201915050925050506000604051808303818686f492505050506000600560016101000a81548160ff0219169083151502179055508473ffffffffffffffffffffffffffffffffffffffff167ffd9a51b5876c403362d350caaea2a99618ed2c0b3eb601e0ab04606616e671888585856040518083838082843782019150509250505060405180910390206040518083815260200182600019166000191681526020019250505060405180910390a25050505050565b612ecd61238d565b73ffffffffffffffffffffffffffffffffffffffff163373ffffffffffffffffffffffffffffffffffffffff16141515612f0657600080fd5b80600073ffffffffffffffffffffffffffffffffffffffff168173ffffffffffffffffffffffffffffffffffffffff1614151515612f4357600080fd5b60011515600360008473ffffffffffffffffffffffffffffffffffffffff1673ffffffffffffffffffffffffffffffffffffffff16815260200190815260200160002060009054906101000a900460ff161515141515612fa257600080fd5b6000600360008473ffffffffffffffffffffffffffffffffffffffff1673ffffffffffffffffffffffffffffffffffffffff16815260200190815260200160002060006101000a81548160ff0219169083151502179055508173ffffffffffffffffffffffffffffffffffffffff167f91975e22df3ba360814d3153e8eaef17954cf47d52a42840fc9747ad1086b35160405160405180910390a25050565b6000604060048101600036905014151561305a57600080fd5b613062612d32565b73ffffffffffffffffffffffffffffffffffffffff16630af4187d85856040518363ffffffff167c0100000000000000000000000000000000000000000000000000000000028152600401808373ffffffffffffffffffffffffffffffffffffffff1673ffffffffffffffffffffffffffffffffffffffff1681526020018273ffffffffffffffffffffffffffffffffffffffff1673ffffffffffffffffffffffffffffffffffffffff16815260200192505050602060405180830381600087803b15801561313057600080fd5b505af1158015613144573d6000803e3d6000fd5b505050506040513d602081101561315a57600080fd5b810190808051906020019092919050505091505092915050565b6000600760405180828054600181600116156101000203166002900480156131d35780601f106131b15761010080835404028352918201916131d3565b820191906000526020600020905b8154815290600101906020018083116131bf575b50509150506040518091039020905090565b6000600260009054906101000a900473ffffffffffffffffffffffffffffffffffffffff16905090565b613217612d32565b73ffffffffffffffffffffffffffffffffffffffff163373ffffffffffffffffffffffffffffffffffffffff1614151561325057600080fd5b8173ffffffffffffffffffffffffffffffffffffffff167f512586160ebd4dc6945ba9ec5d21a1f723f26f3c7aa36cdffb6818d4e7b88030826040518082815260200191505060405180910390a25050565b6132aa612d32565b73ffffffffffffffffffffffffffffffffffffffff163373ffffffffffffffffffffffffffffffffffffffff161415156132e357600080fd5b8173ffffffffffffffffffffffffffffffffffffffff168373ffffffffffffffffffffffffffffffffffffffff167f8c5be1e5ebec7d5bd14f71427d1e84f3dd0314c0f7b2291e5b200ac8c7c3b925836040518082815260200191505060405180910390a3505050565b60008073ffffffffffffffffffffffffffffffffffffffff16600260009054906101000a900473ffffffffffffffffffffffffffffffffffffffff1673ffffffffffffffffffffffffffffffffffffffff16141515156133ac57600080fd5b600260009054906101000a900473ffffffffffffffffffffffffffffffffffffffff1673ffffffffffffffffffffffffffffffffffffffff163373ffffffffffffffffffffffffffffffffffffffff1614151561340857600080fd5b600160009054906101000a900473ffffffffffffffffffffffffffffffffffffffff169050600260009054906101000a900473ffffffffffffffffffffffffffffffffffffffff16600160006101000a81548173ffffffffffffffffffffffffffffffffffffffff021916908373ffffffffffffffffffffffffffffffffffffffff1602179055506000600260006101000a81548173ffffffffffffffffffffffffffffffffffffffff021916908373ffffffffffffffffffffffffffffffffffffffff160217905550600160009054906101000a900473ffffffffffffffffffffffffffffffffffffffff1673ffffffffffffffffffffffffffffffffffffffff167f8d2a41ca5ff551a8f68510de75177b7d56e6019c8579b5509d2be1bb41a0d0af60405160405180910390a2600160009054906101000a900473ffffffffffffffffffffffffffffffffffffffff1673ffffffffffffffffffffffffffffffffffffffff168173ffffffffffffffffffffffffffffffffffffffff167f3912b3f6ff73ee5d4cd2894666c349dec2d3d2ed7dc6d35c28c5eabf105a88d860405160405180910390a350565b600080600073ffffffffffffffffffffffffffffffffffffffff168373ffffffffffffffffffffffffffffffffffffffff16141515156135f557600080fd5b823b905060008111915050919050565b6040805190810160405280601081526020017f756e70617573655f636f6e747261637400000000000000000000000000000000815250600115156136493383610f60565b151514151561365757600080fd5b60011515613663611be2565b151514151561367157600080fd5b6000600560006101000a81548160ff0219169083151502179055507f6249a5c797c884cbf33e63e8cfc250816032db24e22051de68a388315e64afc660405160405180910390a150565b828054600181600116156101000203166002900490600052602060002090601f016020900481019282601f106136fc57803560ff191683800117855561372a565b8280016001018555821561372a579182015b8281111561372957823582559160200191906001019061370e565b5b509050613737919061373b565b5090565b61375d91905b80821115613759576000816000905550600101613741565b5090565b905600a165627a7a72305820710cb530bb674b7e85956ecae4bdaa3ebc3991137ea06351fa0c5513977595170029",
  "source": "/* Author: Victor Mezrin  victor@mezrin.com */\n\npragma solidity ^0.4.24;\n\n\nimport '../../assetbase/JCashCrydrViewERC20.sol';\n\n\ncontract JJODViewERC20 is JCashCrydrViewERC20 {\n  constructor () public JCashCrydrViewERC20('JJOD', 'Jordanian Dinar', 'JJOD', 18) {}\n}\n",
  "sourcePath": "/home/user/dev/project/jibrel/jibrel-contracts/contracts/jcash/asset/JJOD/JJODViewERC20.sol",
  "compiler": {
    "name": "solc",
    "version": "0.4.24+commit.e67f0147.Emscripten.clang"
  },
  "schemaVersion": "2.0.1",
  "updatedAt": "2018-08-13T14:02:45.665Z"
}