{
  "contractName": "jKRWStorage",
  "abi": [
    {
      "constant": true,
      "inputs": [
        {
          "name": "_manager",
          "type": "address"
        },
        {
          "name": "_permissionName",
          "type": "string"
        }
      ],
      "name": "isManagerAllowed",
      "outputs": [
        {
          "name": "",
          "type": "bool"
        }
      ],
      "payable": false,
      "stateMutability": "view",
      "type": "function"
    },
    {
      "constant": true,
      "inputs": [
        {
          "name": "_owner",
          "type": "address"
        },
        {
          "name": "_spender",
          "type": "address"
        }
      ],
      "name": "getAllowance",
      "outputs": [
        {
          "name": "",
          "type": "uint256"
        }
      ],
      "payable": false,
      "stateMutability": "view",
      "type": "function"
    },
    {
      "constant": false,
      "inputs": [
        {
          "name": "_msgsender",
          "type": "address"
        },
        {
          "name": "_from",
          "type": "address"
        },
        {
          "name": "_to",
          "type": "address"
        },
        {
          "name": "_value",
          "type": "uint256"
        }
      ],
      "name": "transferFrom",
      "outputs": [],
      "payable": false,
      "stateMutability": "nonpayable",
      "type": "function"
    },
    {
      "constant": false,
      "inputs": [],
      "name": "cancelOwnershipOffer",
      "outputs": [],
      "payable": false,
      "stateMutability": "nonpayable",
      "type": "function"
    },
    {
      "constant": false,
      "inputs": [
        {
          "name": "_crydrController",
          "type": "address"
        }
      ],
      "name": "setCrydrController",
      "outputs": [],
      "payable": false,
      "stateMutability": "nonpayable",
      "type": "function"
    },
    {
      "constant": true,
      "inputs": [
        {
          "name": "_manager",
          "type": "address"
        },
        {
          "name": "_permissionName",
          "type": "string"
        }
      ],
      "name": "isPermissionGranted",
      "outputs": [
        {
          "name": "",
          "type": "bool"
        }
      ],
      "payable": false,
      "stateMutability": "view",
      "type": "function"
    },
    {
      "constant": false,
      "inputs": [],
      "name": "pauseContract",
      "outputs": [],
      "payable": false,
      "stateMutability": "nonpayable",
      "type": "function"
    },
    {
      "constant": false,
      "inputs": [
        {
          "name": "_account",
          "type": "address"
        }
      ],
      "name": "unblockAccount",
      "outputs": [],
      "payable": false,
      "stateMutability": "nonpayable",
      "type": "function"
    },
    {
      "constant": false,
      "inputs": [
        {
          "name": "_account",
          "type": "address"
        },
        {
          "name": "_value",
          "type": "uint256"
        }
      ],
      "name": "increaseBalance",
      "outputs": [],
      "payable": false,
      "stateMutability": "nonpayable",
      "type": "function"
    },
    {
      "constant": false,
      "inputs": [
        {
          "name": "_manager",
          "type": "address"
        }
      ],
      "name": "enableManager",
      "outputs": [],
      "payable": false,
      "stateMutability": "nonpayable",
      "type": "function"
    },
    {
      "constant": true,
      "inputs": [],
      "name": "getPaused",
      "outputs": [
        {
          "name": "",
          "type": "bool"
        }
      ],
      "payable": false,
      "stateMutability": "view",
      "type": "function"
    },
    {
      "constant": true,
      "inputs": [],
      "name": "getAssetID",
      "outputs": [
        {
          "name": "",
          "type": "string"
        }
      ],
      "payable": false,
      "stateMutability": "view",
      "type": "function"
    },
    {
      "constant": false,
      "inputs": [
        {
          "name": "_owner",
          "type": "address"
        },
        {
          "name": "_spender",
          "type": "address"
        },
        {
          "name": "_value",
          "type": "uint256"
        }
      ],
      "name": "increaseAllowance",
      "outputs": [],
      "payable": false,
      "stateMutability": "nonpayable",
      "type": "function"
    },
    {
      "constant": false,
      "inputs": [
        {
          "name": "_account",
          "type": "address"
        }
      ],
      "name": "blockAccount",
      "outputs": [],
      "payable": false,
      "stateMutability": "nonpayable",
      "type": "function"
    },
    {
      "constant": false,
      "inputs": [
        {
          "name": "_manager",
          "type": "address"
        },
        {
          "name": "_permissionName",
          "type": "string"
        }
      ],
      "name": "revokeManagerPermission",
      "outputs": [],
      "payable": false,
      "stateMutability": "nonpayable",
      "type": "function"
    },
    {
      "constant": false,
      "inputs": [
        {
          "name": "_account",
          "type": "address"
        },
        {
          "name": "_value",
          "type": "uint256"
        }
      ],
      "name": "unblockAccountFunds",
      "outputs": [],
      "payable": false,
      "stateMutability": "nonpayable",
      "type": "function"
    },
    {
      "constant": false,
      "inputs": [
        {
          "name": "_manager",
          "type": "address"
        },
        {
          "name": "_permissionName",
          "type": "string"
        }
      ],
      "name": "grantManagerPermission",
      "outputs": [],
      "payable": false,
      "stateMutability": "nonpayable",
      "type": "function"
    },
    {
      "constant": true,
      "inputs": [],
      "name": "getOwner",
      "outputs": [
        {
          "name": "",
          "type": "address"
        }
      ],
      "payable": false,
      "stateMutability": "view",
      "type": "function"
    },
    {
      "constant": false,
      "inputs": [
        {
          "name": "_target",
          "type": "address"
        },
        {
          "name": "_suppliedGas",
          "type": "uint256"
        },
        {
          "name": "_ethValue",
          "type": "uint256"
        },
        {
          "name": "_transactionBytecode",
          "type": "bytes"
        }
      ],
      "name": "executeCall",
      "outputs": [],
      "payable": false,
      "stateMutability": "nonpayable",
      "type": "function"
    },
    {
      "constant": true,
      "inputs": [
        {
          "name": "_account",
          "type": "address"
        }
      ],
      "name": "getAccountBlocks",
      "outputs": [
        {
          "name": "",
          "type": "uint256"
        }
      ],
      "payable": false,
      "stateMutability": "view",
      "type": "function"
    },
    {
      "constant": false,
      "inputs": [
        {
          "name": "_proposedOwner",
          "type": "address"
        }
      ],
      "name": "createOwnershipOffer",
      "outputs": [],
      "payable": false,
      "stateMutability": "nonpayable",
      "type": "function"
    },
    {
      "constant": true,
      "inputs": [
        {
          "name": "_manager",
          "type": "address"
        }
      ],
      "name": "isManagerEnabled",
      "outputs": [
        {
          "name": "",
          "type": "bool"
        }
      ],
      "payable": false,
      "stateMutability": "view",
      "type": "function"
    },
    {
      "constant": true,
      "inputs": [],
      "name": "getAssetIDHash",
      "outputs": [
        {
          "name": "",
          "type": "bytes32"
        }
      ],
      "payable": false,
      "stateMutability": "view",
      "type": "function"
    },
    {
      "constant": false,
      "inputs": [],
      "name": "unpauseContract",
      "outputs": [],
      "payable": false,
      "stateMutability": "nonpayable",
      "type": "function"
    },
    {
      "constant": true,
      "inputs": [
        {
          "name": "_account",
          "type": "address"
        }
      ],
      "name": "getAccountBlockedFunds",
      "outputs": [
        {
          "name": "",
          "type": "uint256"
        }
      ],
      "payable": false,
      "stateMutability": "view",
      "type": "function"
    },
    {
      "constant": false,
      "inputs": [
        {
          "name": "_msgsender",
          "type": "address"
        },
        {
          "name": "_to",
          "type": "address"
        },
        {
          "name": "_value",
          "type": "uint256"
        }
      ],
      "name": "transfer",
      "outputs": [],
      "payable": false,
      "stateMutability": "nonpayable",
      "type": "function"
    },
    {
      "constant": true,
      "inputs": [],
      "name": "getTotalSupply",
      "outputs": [
        {
          "name": "",
          "type": "uint256"
        }
      ],
      "payable": false,
      "stateMutability": "view",
      "type": "function"
    },
    {
      "constant": false,
      "inputs": [
        {
          "name": "_account",
          "type": "address"
        },
        {
          "name": "_value",
          "type": "uint256"
        }
      ],
      "name": "blockAccountFunds",
      "outputs": [],
      "payable": false,
      "stateMutability": "nonpayable",
      "type": "function"
    },
    {
      "constant": true,
      "inputs": [],
      "name": "getCrydrController",
      "outputs": [
        {
          "name": "",
          "type": "address"
        }
      ],
      "payable": false,
      "stateMutability": "view",
      "type": "function"
    },
    {
      "constant": false,
      "inputs": [
        {
          "name": "_target",
          "type": "address"
        },
        {
          "name": "_suppliedGas",
          "type": "uint256"
        },
        {
          "name": "_transactionBytecode",
          "type": "bytes"
        }
      ],
      "name": "executeDelegatecall",
      "outputs": [],
      "payable": false,
      "stateMutability": "nonpayable",
      "type": "function"
    },
    {
      "constant": false,
      "inputs": [
        {
          "name": "_manager",
          "type": "address"
        }
      ],
      "name": "disableManager",
      "outputs": [],
      "payable": false,
      "stateMutability": "nonpayable",
      "type": "function"
    },
    {
      "constant": false,
      "inputs": [
        {
          "name": "_owner",
          "type": "address"
        },
        {
          "name": "_spender",
          "type": "address"
        },
        {
          "name": "_value",
          "type": "uint256"
        }
      ],
      "name": "decreaseAllowance",
      "outputs": [],
      "payable": false,
      "stateMutability": "nonpayable",
      "type": "function"
    },
    {
      "constant": false,
      "inputs": [
        {
          "name": "_msgsender",
          "type": "address"
        },
        {
          "name": "_spender",
          "type": "address"
        },
        {
          "name": "_value",
          "type": "uint256"
        }
      ],
      "name": "approve",
      "outputs": [],
      "payable": false,
      "stateMutability": "nonpayable",
      "type": "function"
    },
    {
      "constant": true,
      "inputs": [],
      "name": "getProposedOwner",
      "outputs": [
        {
          "name": "",
          "type": "address"
        }
      ],
      "payable": false,
      "stateMutability": "view",
      "type": "function"
    },
    {
      "constant": false,
      "inputs": [],
      "name": "acceptOwnershipOffer",
      "outputs": [],
      "payable": false,
      "stateMutability": "nonpayable",
      "type": "function"
    },
    {
      "constant": true,
      "inputs": [
        {
          "name": "_account",
          "type": "address"
        }
      ],
      "name": "getBalance",
      "outputs": [
        {
          "name": "",
          "type": "uint256"
        }
      ],
      "payable": false,
      "stateMutability": "view",
      "type": "function"
    },
    {
      "constant": false,
      "inputs": [
        {
          "name": "_account",
          "type": "address"
        },
        {
          "name": "_value",
          "type": "uint256"
        }
      ],
      "name": "decreaseBalance",
      "outputs": [],
      "payable": false,
      "stateMutability": "nonpayable",
      "type": "function"
    },
    {
      "inputs": [],
      "payable": false,
      "stateMutability": "nonpayable",
      "type": "constructor"
    },
    {
      "anonymous": false,
      "inputs": [
        {
          "indexed": true,
          "name": "from",
          "type": "address"
        },
        {
          "indexed": true,
          "name": "to",
          "type": "address"
        },
        {
          "indexed": false,
          "name": "value",
          "type": "uint256"
        }
      ],
      "name": "CrydrTransferredEvent",
      "type": "event"
    },
    {
      "anonymous": false,
      "inputs": [
        {
          "indexed": true,
          "name": "spender",
          "type": "address"
        },
        {
          "indexed": true,
          "name": "from",
          "type": "address"
        },
        {
          "indexed": true,
          "name": "to",
          "type": "address"
        },
        {
          "indexed": false,
          "name": "value",
          "type": "uint256"
        }
      ],
      "name": "CrydrTransferredFromEvent",
      "type": "event"
    },
    {
      "anonymous": false,
      "inputs": [
        {
          "indexed": true,
          "name": "owner",
          "type": "address"
        },
        {
          "indexed": true,
          "name": "spender",
          "type": "address"
        },
        {
          "indexed": false,
          "name": "value",
          "type": "uint256"
        }
      ],
      "name": "CrydrSpendingApprovedEvent",
      "type": "event"
    },
    {
      "anonymous": false,
      "inputs": [
        {
          "indexed": true,
          "name": "account",
          "type": "address"
        }
      ],
      "name": "AccountBlockedEvent",
      "type": "event"
    },
    {
      "anonymous": false,
      "inputs": [
        {
          "indexed": true,
          "name": "account",
          "type": "address"
        }
      ],
      "name": "AccountUnblockedEvent",
      "type": "event"
    },
    {
      "anonymous": false,
      "inputs": [
        {
          "indexed": true,
          "name": "account",
          "type": "address"
        },
        {
          "indexed": false,
          "name": "value",
          "type": "uint256"
        }
      ],
      "name": "AccountFundsBlockedEvent",
      "type": "event"
    },
    {
      "anonymous": false,
      "inputs": [
        {
          "indexed": true,
          "name": "account",
          "type": "address"
        },
        {
          "indexed": false,
          "name": "value",
          "type": "uint256"
        }
      ],
      "name": "AccountFundsUnblockedEvent",
      "type": "event"
    },
    {
      "anonymous": false,
      "inputs": [
        {
          "indexed": true,
          "name": "owner",
          "type": "address"
        },
        {
          "indexed": true,
          "name": "spender",
          "type": "address"
        },
        {
          "indexed": false,
          "name": "value",
          "type": "uint256"
        }
      ],
      "name": "AccountAllowanceIncreasedEvent",
      "type": "event"
    },
    {
      "anonymous": false,
      "inputs": [
        {
          "indexed": true,
          "name": "owner",
          "type": "address"
        },
        {
          "indexed": true,
          "name": "spender",
          "type": "address"
        },
        {
          "indexed": false,
          "name": "value",
          "type": "uint256"
        }
      ],
      "name": "AccountAllowanceDecreasedEvent",
      "type": "event"
    },
    {
      "anonymous": false,
      "inputs": [
        {
          "indexed": true,
          "name": "account",
          "type": "address"
        },
        {
          "indexed": false,
          "name": "value",
          "type": "uint256"
        }
      ],
      "name": "AccountBalanceIncreasedEvent",
      "type": "event"
    },
    {
      "anonymous": false,
      "inputs": [
        {
          "indexed": true,
          "name": "account",
          "type": "address"
        },
        {
          "indexed": false,
          "name": "value",
          "type": "uint256"
        }
      ],
      "name": "AccountBalanceDecreasedEvent",
      "type": "event"
    },
    {
      "anonymous": false,
      "inputs": [
        {
          "indexed": true,
          "name": "crydrcontroller",
          "type": "address"
        }
      ],
      "name": "CrydrControllerChangedEvent",
      "type": "event"
    },
    {
      "anonymous": false,
      "inputs": [
        {
          "indexed": true,
          "name": "target",
          "type": "address"
        },
        {
          "indexed": false,
          "name": "suppliedGas",
          "type": "uint256"
        },
        {
          "indexed": false,
          "name": "ethValue",
          "type": "uint256"
        },
        {
          "indexed": false,
          "name": "transactionBytecodeHash",
          "type": "bytes32"
        }
      ],
      "name": "CallExecutedEvent",
      "type": "event"
    },
    {
      "anonymous": false,
      "inputs": [
        {
          "indexed": true,
          "name": "target",
          "type": "address"
        },
        {
          "indexed": false,
          "name": "suppliedGas",
          "type": "uint256"
        },
        {
          "indexed": false,
          "name": "transactionBytecodeHash",
          "type": "bytes32"
        }
      ],
      "name": "DelegatecallExecutedEvent",
      "type": "event"
    },
    {
      "anonymous": false,
      "inputs": [],
      "name": "PauseEvent",
      "type": "event"
    },
    {
      "anonymous": false,
      "inputs": [],
      "name": "UnpauseEvent",
      "type": "event"
    },
    {
      "anonymous": false,
      "inputs": [
        {
          "indexed": true,
          "name": "manager",
          "type": "address"
        }
      ],
      "name": "ManagerEnabledEvent",
      "type": "event"
    },
    {
      "anonymous": false,
      "inputs": [
        {
          "indexed": true,
          "name": "manager",
          "type": "address"
        }
      ],
      "name": "ManagerDisabledEvent",
      "type": "event"
    },
    {
      "anonymous": false,
      "inputs": [
        {
          "indexed": true,
          "name": "manager",
          "type": "address"
        },
        {
          "indexed": false,
          "name": "permission",
          "type": "string"
        }
      ],
      "name": "ManagerPermissionGrantedEvent",
      "type": "event"
    },
    {
      "anonymous": false,
      "inputs": [
        {
          "indexed": true,
          "name": "manager",
          "type": "address"
        },
        {
          "indexed": false,
          "name": "permission",
          "type": "string"
        }
      ],
      "name": "ManagerPermissionRevokedEvent",
      "type": "event"
    },
    {
      "anonymous": false,
      "inputs": [
        {
          "indexed": true,
          "name": "newowner",
          "type": "address"
        }
      ],
      "name": "OwnerAssignedEvent",
      "type": "event"
    },
    {
      "anonymous": false,
      "inputs": [
        {
          "indexed": true,
          "name": "currentowner",
          "type": "address"
        },
        {
          "indexed": true,
          "name": "proposedowner",
          "type": "address"
        }
      ],
      "name": "OwnershipOfferCreatedEvent",
      "type": "event"
    },
    {
      "anonymous": false,
      "inputs": [
        {
          "indexed": true,
          "name": "currentowner",
          "type": "address"
        },
        {
          "indexed": true,
          "name": "proposedowner",
          "type": "address"
        }
      ],
      "name": "OwnershipOfferAcceptedEvent",
      "type": "event"
    },
    {
      "anonymous": false,
      "inputs": [
        {
          "indexed": true,
          "name": "currentowner",
          "type": "address"
        },
        {
          "indexed": true,
          "name": "proposedowner",
          "type": "address"
        }
      ],
      "name": "OwnershipOfferCancelledEvent",
      "type": "event"
    }
  ],
  "bytecode": "0x606060405260018054600160a060020a031990811682556002805490911690556005805460ff191690911761010060b060020a0319169055600060075534156200004857600080fd5b60408051908101604052600481527f6a4b52570000000000000000000000000000000000000000000000000000000060208201528060008151116200008c57600080fd5b6000818051620000a192916020019062000127565b505060018054600160a060020a03191633600160a060020a039081169190911791829055167f8d2a41ca5ff551a8f68510de75177b7d56e6019c8579b5509d2be1bb41a0d0af60405160405180910390a2506000805260096020526000197fec8156718a8372b1db44bb411437d0870f3e3790d4a08526d024ce1b0b668f6b55620001cc565b828054600181600116156101000203166002900490600052602060002090601f016020900481019282601f106200016a57805160ff19168380011785556200019a565b828001600101855582156200019a579182015b828111156200019a5782518255916020019190600101906200017d565b50620001a8929150620001ac565b5090565b620001c991905b80821115620001a85760008155600101620001b3565b90565b6121e380620001dc6000396000f3006060604052600436106101cc5763ffffffff7c01000000000000000000000000000000000000000000000000000000006000350416630392d2b481146101d15780630af4187d1461024457806315dacbea1461027b5780631eb96a5c146102ab578063305f17d5146102be57806332a2fda7146102dd578063439766ce1461033c5780634d78fdc61461034f5780635b86f5991461036e5780635ca5b334146103905780636805b84b146103af578063696b5fb7146103c25780636c43a2ca1461044c5780637c0a893d146104745780637c0efb8b146104935780637fa87949146104be578063822b08d0146104e0578063893d20e81461050b5780638ba7e5701461053a57806395534e001461056d5780639739db9d1461058c5780639b53d87c146105ab578063a773d98a146105ca578063b33712c5146105dd578063be2a2ff2146105f0578063beabacc81461060f578063c4e41b2214610637578063c60c13a31461064a578063ca9c28621461066c578063d2b7d9571461067f578063d4859dc5146106ae578063d73b1dc9146106cd578063e1f21c67146106f5578063eae5a62d1461071d578063f538534514610730578063f8b2cb4f14610743578063ff05694914610762575b600080fd5b34156101dc57600080fd5b61023060048035600160a060020a03169060446024803590810190830135806020601f8201819004810201604051908101604052818152929190602084018383808284375094965061078495505050505050565b604051901515815260200160405180910390f35b341561024f57600080fd5b610269600160a060020a0360043581169060243516610859565b60405190815260200160405180910390f35b341561028657600080fd5b6102a9600160a060020a03600435811690602435811690604435166064356108ca565b005b34156102b657600080fd5b6102a96109de565b34156102c957600080fd5b6102a9600160a060020a0360043516610a8f565b34156102e857600080fd5b61023060048035600160a060020a03169060446024803590810190830135806020601f82018190048102016040519081016040528181529291906020840183838082843750949650610bb195505050505050565b341561034757600080fd5b6102a9610c20565b341561035a57600080fd5b6102a9600160a060020a0360043516610cba565b341561037957600080fd5b6102a9600160a060020a0360043516602435610d67565b341561039b57600080fd5b6102a9600160a060020a0360043516610e4f565b34156103ba57600080fd5b610230610f06565b34156103cd57600080fd5b6103d5610f0f565b60405160208082528190810183818151815260200191508051906020019080838360005b838110156104115780820151838201526020016103f9565b50505050905090810190601f16801561043e5780820380516001836020036101000a031916815260200191505b509250505060405180910390f35b341561045757600080fd5b6102a9600160a060020a0360043581169060243516604435610fb7565b341561047f57600080fd5b6102a9600160a060020a03600435166110d8565b341561049e57600080fd5b6102a960048035600160a060020a03169060248035908101910135611185565b34156104c957600080fd5b6102a9600160a060020a03600435166024356112fb565b34156104eb57600080fd5b6102a960048035600160a060020a031690602480359081019101356113bd565b341561051657600080fd5b61051e611532565b604051600160a060020a03909116815260200160405180910390f35b341561054557600080fd5b6102a960048035600160a060020a031690602480359160443591606435908101910135611541565b341561057857600080fd5b610269600160a060020a0360043516611664565b341561059757600080fd5b6102a9600160a060020a0360043516611697565b34156105b657600080fd5b610230600160a060020a036004351661176b565b34156105d557600080fd5b6102696117a3565b34156105e857600080fd5b6102a9611813565b34156105fb57600080fd5b610269600160a060020a03600435166118da565b341561061a57600080fd5b6102a9600160a060020a036004358116906024351660443561190d565b341561064257600080fd5b6102696119f2565b341561065557600080fd5b6102a9600160a060020a03600435166024356119f8565b341561067757600080fd5b61051e611aba565b341561068a57600080fd5b6102a960048035600160a060020a0316906024803591604435918201910135611acf565b34156106b957600080fd5b6102a9600160a060020a0360043516611be1565b34156106d857600080fd5b6102a9600160a060020a0360043581169060243516604435611c99565b341561070057600080fd5b6102a9600160a060020a0360043581169060243516604435611dba565b341561072857600080fd5b61051e611eb6565b341561073b57600080fd5b6102a9611ec5565b341561074e57600080fd5b610269600160a060020a0360043516611fa5565b341561076d57600080fd5b6102a9600160a060020a0360043516602435611fd8565b600082600160a060020a038116151561079c57600080fd5b82805115156107aa57600080fd5b600160a060020a03851660009081526003602052604090205460ff1680156108505750600160a060020a03851660009081526004602052604090819020908590518082805190602001908083835b602083106108175780518252601f1990920191602091820191016107f8565b6001836020036101000a0380198251168184511680821785525050505050509050019150509081526020016040519081900390205460ff165b95945050505050565b6000600160a060020a038316151561087057600080fd5b600160a060020a038216151561088557600080fd5b600160a060020a03838116908316141561089e57600080fd5b50600160a060020a03918216600090815260086020908152604080832093909416825291909152205490565b6108d2610f06565b156108dc57600080fd5b6108e4611aba565b600160a060020a031633600160a060020a031614151561090357600080fd5b61090c84611664565b1561091657600080fd5b61091f83611664565b1561092957600080fd5b610932836118da565b61094461093e85611fa5565b836120c0565b101561094f57600080fd5b600160a060020a03838116908316141561096857600080fd5b610973838583611c99565b61097d8382611fd8565b6109878282610d67565b81600160a060020a031683600160a060020a031685600160a060020a03167fe3d776cf1ef825c35dbb8811a66dc929631899ddcfa44ed20af30a2ada2872198460405190815260200160405180910390a450505050565b600254600090600160a060020a031615156109f857600080fd5b60015433600160a060020a0390811691161480610a23575060025433600160a060020a039081169116145b1515610a2e57600080fd5b506002805473ffffffffffffffffffffffffffffffffffffffff198116909155600154600160a060020a03918216918291167f223225995c0c0965e8752fd93ca10aba4bafcbca26f31b1565955adb68e76bda60405160405180910390a350565b610a97610f06565b1515600114610aa557600080fd5b80610aaf816120d2565b1515600114610abd57600080fd5b60408051908101604052601481527f7365745f63727964725f636f6e74726f6c6c65720000000000000000000000006020820152610afb3382610784565b1515600114610b0957600080fd5b600554600160a060020a0384811662010000909204161415610b2a57600080fd5b30600160a060020a031683600160a060020a031614151515610b4b57600080fd5b6005805475ffffffffffffffffffffffffffffffffffffffff0000191662010000600160a060020a038616908102919091179091557f95e43e6707a0436b5cc3af93d12042ce56df5ec4fe857d77836fe6316dc8457060405160405180910390a2505050565b600082600160a060020a0381161515610bc957600080fd5b8280511515610bd757600080fd5b600160a060020a0385166000908152600460205260409081902090859051808280519060200190808383602083106108175780518252601f1990920191602091820191016107f8565b60408051908101604052600e81527f70617573655f636f6e74726163740000000000000000000000000000000000006020820152610c5e3382610784565b1515600114610c6c57600080fd5b610c74610f06565b15610c7e57600080fd5b6005805460ff191660011790557f14cc32b2b0edca88201ca20553c392d108a2feb2c750a0ee14c707b4f34fbee260405160405180910390a150565b610cc2611aba565b600160a060020a031633600160a060020a0316141515610ce157600080fd5b600160a060020a0381161515610cf657600080fd5b600160a060020a038116600090815260096020526040902054610d1a9060016120c0565b600160a060020a0382166000818152600960205260409081902092909255907f81b9c84fba2126e059adb9872626ddf7b49e111cff0c1115f2e5366c808f1c37905160405180910390a250565b610d6f610f06565b15610d7957600080fd5b610d81611aba565b600160a060020a031633600160a060020a0316141515610da057600080fd5b600160a060020a0382161515610db557600080fd5b60008111610dc257600080fd5b600160a060020a038216600090815260066020526040902054610de590826120f4565b600160a060020a038316600090815260066020526040902055600754610e0b90826120f4565b600755600160a060020a0382167f83c6d1dfd5f048a40d7fadd573780e453d8ff8fd61ea222d7e643a3d1c779c2d8260405190815260200160405180910390a25050565b610e57611532565b600160a060020a031633600160a060020a0316141515610e7657600080fd5b80600160a060020a0381161515610e8c57600080fd5b600160a060020a03821660009081526003602052604090205460ff1615610eb257600080fd5b600160a060020a03821660008181526003602052604090819020805460ff191660011790557f7f0b61f78ab0b549b68ce61404f4ee01a26ffdf8d421d099d271d789aaea3a8e905160405180910390a25050565b60055460ff1690565b610f176121a5565b60008054600181600116156101000203166002900480601f016020809104026020016040519081016040528092919081815260200182805460018160011615610100020316600290048015610fad5780601f10610f8257610100808354040283529160200191610fad565b820191906000526020600020905b815481529060010190602001808311610f9057829003601f168201915b5050505050905090565b610fbf610f06565b15610fc957600080fd5b610fd1611aba565b600160a060020a031633600160a060020a0316141515610ff057600080fd5b600160a060020a038316151561100557600080fd5b600160a060020a038216151561101a57600080fd5b600160a060020a03838116908316141561103357600080fd5b6000811161104057600080fd5b600160a060020a0380841660009081526008602090815260408083209386168352929052205461107090826120f4565b600160a060020a03808516600081815260086020908152604080832094881680845294909152908190209390935590917f32e1b5603904861a1165c337e368b5c657f1fc8008aa19c0c790ca77397f47e49084905190815260200160405180910390a3505050565b6110e0611aba565b600160a060020a031633600160a060020a03161415156110ff57600080fd5b600160a060020a038116151561111457600080fd5b600160a060020a0381166000908152600960205260409020546111389060016120f4565b600160a060020a0382166000818152600960205260409081902092909255907f2dc7c28266c3cbe06a9326adac266f3d4f5996dc8f70deb57730ed02bfeb87f7905160405180910390a250565b61118d611532565b600160a060020a031633600160a060020a03161415156111ac57600080fd5b82600160a060020a03811615156111c257600080fd5b82828080601f016020809104026020016040519081016040528181529291906020840183838082843750859450505050505115156111ff57600080fd5b600160a060020a03851660009081526004602052604090819020908590859051808383808284378201915050925050509081526020016040519081900390205460ff16151560011461125057600080fd5b600160a060020a03851660009081526004602052604080822090869086905180838380828437820191505092505050908152602001604051908190039020805460ff1916911515919091179055600160a060020a0385167fe2b13fa06e3428fe0e43b2e517d25708ba477cafdff4fbcd06e3e93864517ddc85856040516020808252810182905280604081018484808284378201915050935050505060405180910390a25050505050565b611303611aba565b600160a060020a031633600160a060020a031614151561132257600080fd5b600160a060020a038216151561133757600080fd5b6000811161134457600080fd5b600160a060020a0382166000908152600a602052604090205461136790826120c0565b600160a060020a0383166000818152600a60205260409081902092909255907fdadab30385c25eca982350a1f6a5fe622a0d5fcac8f49d9fabba36d56273bc0a9083905190815260200160405180910390a25050565b6113c5611532565b600160a060020a031633600160a060020a03161415156113e457600080fd5b82600160a060020a03811615156113fa57600080fd5b82828080601f0160208091040260200160405190810160405281815292919060208401838380828437508594505050505051151561143757600080fd5b600160a060020a03851660009081526004602052604090819020908590859051808383808284378201915050925050509081526020016040519081900390205460ff161561148457600080fd5b600160a060020a03851660009081526004602052604090819020600191869086905180838380828437820191505092505050908152602001604051908190039020805460ff1916911515919091179055600160a060020a0385167fb76b4ee2621e0744da93fa797bdc4851a3b9e303b2950f2f234a449e5f36d35e85856040516020808252810182905280604081018484808284378201915050935050505060405180910390a25050505050565b600154600160a060020a031690565b60408051908101604052600c81527f657865637574655f63616c6c0000000000000000000000000000000000000000602082015261157f3382610784565b151560011461158d57600080fd5b600554610100900460ff16156115a257600080fd5b6005805461ff001916610100179055600160a060020a0386168585858560405180838380828437820191505092505050600060405180830381858888f150506005805461ff0019169055505050600160a060020a0386167f376185a1f1832ecd7ffd6a421a54d437594db00f80f6122e8534d19d978b65b68686868660405180838380828437820191505092505050604051809103902060405192835260208301919091526040808301919091526060909101905180910390a2505050505050565b6000600160a060020a038216151561167b57600080fd5b50600160a060020a031660009081526009602052604090205490565b61169f611532565b600160a060020a031633600160a060020a03161415156116be57600080fd5b600254600160a060020a0316156116d457600080fd5b600160a060020a03811615156116e957600080fd5b30600160a060020a031681600160a060020a03161415151561170a57600080fd5b6002805473ffffffffffffffffffffffffffffffffffffffff1916600160a060020a038381169182179092556001549091167f0c5d18b25c2665dfeec8ea7956663ec48f079fdd04799ddd335f2fdce1a9fceb60405160405180910390a350565b600081600160a060020a038116151561178357600080fd5b5050600160a060020a031660009081526003602052604090205460ff1690565b60008060405180828054600181600116156101000203166002900480156118015780601f106117df576101008083540402835291820191611801565b820191906000526020600020905b8154815290600101906020018083116117ed575b50509150506040518091039020905090565b60055461182e90620100009004600160a060020a03166120d2565b151560011461183c57600080fd5b600554620100009004600160a060020a031663a773d98a6000604051602001526040518163ffffffff167c0100000000000000000000000000000000000000000000000000000000028152600401602060405180830381600087803b15156118a357600080fd5b6102c65a03f115156118b457600080fd5b505050604051805190506118c66117a3565b146118d057600080fd5b6118d861210a565b565b6000600160a060020a03821615156118f157600080fd5b50600160a060020a03166000908152600a602052604090205490565b611915610f06565b1561191f57600080fd5b611927611aba565b600160a060020a031633600160a060020a031614151561194657600080fd5b600160a060020a03838116908316141561195f57600080fd5b61196883611664565b1561197257600080fd5b61197b836118da565b61198761093e85611fa5565b101561199257600080fd5b61199c8382611fd8565b6119a68282610d67565b81600160a060020a031683600160a060020a03167f785f57e51f803d3d6a09af16f87ff848450fc54f2d0b531a2a08117e18a5ff218360405190815260200160405180910390a3505050565b60075490565b611a00611aba565b600160a060020a031633600160a060020a0316141515611a1f57600080fd5b600160a060020a0382161515611a3457600080fd5b60008111611a4157600080fd5b600160a060020a0382166000908152600a6020526040902054611a6490826120f4565b600160a060020a0383166000818152600a60205260409081902092909255907f45a0d7ac95749f67b40af5e7c66e83b9408196958b3e134a644a9f44bb552de19083905190815260200160405180910390a25050565b600554620100009004600160a060020a031690565b60408051908101604052601481527f657865637574655f64656c656761746563616c6c0000000000000000000000006020820152611b0d3382610784565b1515600114611b1b57600080fd5b600554610100900460ff1615611b3057600080fd5b6005805461ff001916610100179055600160a060020a038516848484604051808383808284378201915050925050506000604051808303818686f450506005805461ff00191690555050600160a060020a0385167ffd9a51b5876c403362d350caaea2a99618ed2c0b3eb601e0ab04606616e6718885858560405180838380828437820191505092505050604051809103902060405191825260208201526040908101905180910390a25050505050565b611be9611532565b600160a060020a031633600160a060020a0316141515611c0857600080fd5b80600160a060020a0381161515611c1e57600080fd5b600160a060020a03821660009081526003602052604090205460ff161515600114611c4857600080fd5b600160a060020a03821660008181526003602052604090819020805460ff191690557f91975e22df3ba360814d3153e8eaef17954cf47d52a42840fc9747ad1086b351905160405180910390a25050565b611ca1610f06565b15611cab57600080fd5b611cb3611aba565b600160a060020a031633600160a060020a0316141515611cd257600080fd5b600160a060020a0383161515611ce757600080fd5b600160a060020a0382161515611cfc57600080fd5b600160a060020a038381169083161415611d1557600080fd5b60008111611d2257600080fd5b600160a060020a03808416600090815260086020908152604080832093861683529290522054611d5290826120c0565b600160a060020a03808516600081815260086020908152604080832094881680845294909152908190209390935590917fb7956d03ae366cf172b1a1bd47b217105992bad229e73d5ba758678431dea82c9084905190815260200160405180910390a3505050565b6000611dc4610f06565b15611dce57600080fd5b611dd6611aba565b600160a060020a031633600160a060020a0316141515611df557600080fd5b611dfe84611664565b15611e0857600080fd5b611e1183611664565b15611e1b57600080fd5b611e258484610859565b905081811415611e3457600080fd5b81811115611e5557611e508484611e4b84866120c0565b611c99565b611e69565b611e698484611e6485856120c0565b610fb7565b82600160a060020a031684600160a060020a03167fa8be8e87e8fbceab291eb42413d9c78ee7b7898e718d2d16fe6958a3faeb1c8e8460405190815260200160405180910390a350505050565b600254600160a060020a031690565b600254600090600160a060020a03161515611edf57600080fd5b60025433600160a060020a03908116911614611efa57600080fd5b50600180546002805473ffffffffffffffffffffffffffffffffffffffff19808416600160a060020a038381169190911795869055911690915590811691167f8d2a41ca5ff551a8f68510de75177b7d56e6019c8579b5509d2be1bb41a0d0af60405160405180910390a2600154600160a060020a039081169082167f3912b3f6ff73ee5d4cd2894666c349dec2d3d2ed7dc6d35c28c5eabf105a88d860405160405180910390a350565b6000600160a060020a0382161515611fbc57600080fd5b50600160a060020a031660009081526006602052604090205490565b611fe0610f06565b15611fea57600080fd5b611ff2611aba565b600160a060020a031633600160a060020a031614151561201157600080fd5b600160a060020a038216151561202657600080fd5b6000811161203357600080fd5b600160a060020a03821660009081526006602052604090205461205690826120c0565b600160a060020a03831660009081526006602052604090205560075461207c90826120c0565b600755600160a060020a0382167f276bbd423424ce251a4cee26b903235278ab7970a230885c80d3a75b058072568260405190815260200160405180910390a25050565b6000828211156120cc57fe5b50900390565b600080600160a060020a03831615156120ea57600080fd5b50506000903b1190565b60008282018381101561210357fe5b9392505050565b60408051908101604052601081527f756e70617573655f636f6e74726163740000000000000000000000000000000060208201526121483382610784565b151560011461215657600080fd5b61215e610f06565b151560011461216c57600080fd5b6005805460ff191690557f6249a5c797c884cbf33e63e8cfc250816032db24e22051de68a388315e64afc660405160405180910390a150565b602060405190810160405260008152905600a165627a7a7230582089ab6845e72d1c3824b6e8ec84c647f8c195b0b84e3016ae3320ccd7edae943c0029",
  "source": "/* Author: Victor Mezrin  victor@mezrin.com */\n\npragma solidity ^0.4.18;\n\nimport '../../crydr/asset/JCashCrydrStorage.sol';\n\n\ncontract jKRWStorage is JCashCrydrStorage {\n  function jKRWStorage() public JCashCrydrStorage('jKRW') {}\n}\n",
  "sourcePath": "/home/user/dev/project/jibrel/jibrel-contracts/contracts/asset/jKRW/jKRWStorage.sol",
  "compiler": {
    "name": "solc",
    "version": "0.4.18+commit.9cf6e910.Emscripten.clang"
  },
  "schemaVersion": "1.0.1",
  "updatedAt": "2017-12-17T22:37:02.347Z"
}