{
  "contractName": "jKRWController",
  "abi": [
    {
      "constant": true,
      "inputs": [
        {
          "name": "_manager",
          "type": "address"
        },
        {
          "name": "_permissionName",
          "type": "string"
        }
      ],
      "name": "isManagerAllowed",
      "outputs": [
        {
          "name": "",
          "type": "bool"
        }
      ],
      "payable": false,
      "stateMutability": "view",
      "type": "function"
    },
    {
      "constant": true,
      "inputs": [
        {
          "name": "_owner",
          "type": "address"
        },
        {
          "name": "_spender",
          "type": "address"
        }
      ],
      "name": "getAllowance",
      "outputs": [
        {
          "name": "",
          "type": "uint256"
        }
      ],
      "payable": false,
      "stateMutability": "view",
      "type": "function"
    },
    {
      "constant": false,
      "inputs": [
        {
          "name": "_crydrStorage",
          "type": "address"
        }
      ],
      "name": "setCrydrStorage",
      "outputs": [],
      "payable": false,
      "stateMutability": "nonpayable",
      "type": "function"
    },
    {
      "constant": false,
      "inputs": [
        {
          "name": "_msgsender",
          "type": "address"
        },
        {
          "name": "_from",
          "type": "address"
        },
        {
          "name": "_to",
          "type": "address"
        },
        {
          "name": "_value",
          "type": "uint256"
        }
      ],
      "name": "transferFrom",
      "outputs": [],
      "payable": false,
      "stateMutability": "nonpayable",
      "type": "function"
    },
    {
      "constant": false,
      "inputs": [],
      "name": "cancelOwnershipOffer",
      "outputs": [],
      "payable": false,
      "stateMutability": "nonpayable",
      "type": "function"
    },
    {
      "constant": true,
      "inputs": [],
      "name": "getJntController",
      "outputs": [
        {
          "name": "",
          "type": "address"
        }
      ],
      "payable": false,
      "stateMutability": "view",
      "type": "function"
    },
    {
      "constant": true,
      "inputs": [],
      "name": "getJntPriceForTransfer",
      "outputs": [
        {
          "name": "",
          "type": "uint256"
        }
      ],
      "payable": false,
      "stateMutability": "view",
      "type": "function"
    },
    {
      "constant": true,
      "inputs": [
        {
          "name": "_manager",
          "type": "address"
        },
        {
          "name": "_permissionName",
          "type": "string"
        }
      ],
      "name": "isPermissionGranted",
      "outputs": [
        {
          "name": "",
          "type": "bool"
        }
      ],
      "payable": false,
      "stateMutability": "view",
      "type": "function"
    },
    {
      "constant": false,
      "inputs": [
        {
          "name": "_jntPriceTransfer",
          "type": "uint256"
        },
        {
          "name": "_jntPriceTransferFrom",
          "type": "uint256"
        },
        {
          "name": "_jntPriceApprove",
          "type": "uint256"
        }
      ],
      "name": "setJntPrice",
      "outputs": [],
      "payable": false,
      "stateMutability": "nonpayable",
      "type": "function"
    },
    {
      "constant": false,
      "inputs": [
        {
          "name": "_account",
          "type": "address"
        },
        {
          "name": "_value",
          "type": "uint256"
        }
      ],
      "name": "mint",
      "outputs": [],
      "payable": false,
      "stateMutability": "nonpayable",
      "type": "function"
    },
    {
      "constant": false,
      "inputs": [],
      "name": "pauseContract",
      "outputs": [],
      "payable": false,
      "stateMutability": "nonpayable",
      "type": "function"
    },
    {
      "constant": false,
      "inputs": [
        {
          "name": "_account",
          "type": "address"
        }
      ],
      "name": "unblockAccount",
      "outputs": [],
      "payable": false,
      "stateMutability": "nonpayable",
      "type": "function"
    },
    {
      "constant": false,
      "inputs": [
        {
          "name": "_manager",
          "type": "address"
        }
      ],
      "name": "enableManager",
      "outputs": [],
      "payable": false,
      "stateMutability": "nonpayable",
      "type": "function"
    },
    {
      "constant": true,
      "inputs": [],
      "name": "getPaused",
      "outputs": [
        {
          "name": "",
          "type": "bool"
        }
      ],
      "payable": false,
      "stateMutability": "view",
      "type": "function"
    },
    {
      "constant": true,
      "inputs": [],
      "name": "getAssetID",
      "outputs": [
        {
          "name": "",
          "type": "string"
        }
      ],
      "payable": false,
      "stateMutability": "view",
      "type": "function"
    },
    {
      "constant": false,
      "inputs": [
        {
          "name": "_viewApiStandardName",
          "type": "string"
        }
      ],
      "name": "removeCrydrView",
      "outputs": [],
      "payable": false,
      "stateMutability": "nonpayable",
      "type": "function"
    },
    {
      "constant": false,
      "inputs": [
        {
          "name": "_account",
          "type": "address"
        }
      ],
      "name": "blockAccount",
      "outputs": [],
      "payable": false,
      "stateMutability": "nonpayable",
      "type": "function"
    },
    {
      "constant": false,
      "inputs": [
        {
          "name": "_manager",
          "type": "address"
        },
        {
          "name": "_permissionName",
          "type": "string"
        }
      ],
      "name": "revokeManagerPermission",
      "outputs": [],
      "payable": false,
      "stateMutability": "nonpayable",
      "type": "function"
    },
    {
      "constant": false,
      "inputs": [
        {
          "name": "_jntController",
          "type": "address"
        }
      ],
      "name": "setJntController",
      "outputs": [],
      "payable": false,
      "stateMutability": "nonpayable",
      "type": "function"
    },
    {
      "constant": false,
      "inputs": [
        {
          "name": "_account",
          "type": "address"
        },
        {
          "name": "_value",
          "type": "uint256"
        }
      ],
      "name": "unblockAccountFunds",
      "outputs": [],
      "payable": false,
      "stateMutability": "nonpayable",
      "type": "function"
    },
    {
      "constant": false,
      "inputs": [
        {
          "name": "_manager",
          "type": "address"
        },
        {
          "name": "_permissionName",
          "type": "string"
        }
      ],
      "name": "grantManagerPermission",
      "outputs": [],
      "payable": false,
      "stateMutability": "nonpayable",
      "type": "function"
    },
    {
      "constant": true,
      "inputs": [],
      "name": "getOwner",
      "outputs": [
        {
          "name": "",
          "type": "address"
        }
      ],
      "payable": false,
      "stateMutability": "view",
      "type": "function"
    },
    {
      "constant": false,
      "inputs": [
        {
          "name": "_target",
          "type": "address"
        },
        {
          "name": "_suppliedGas",
          "type": "uint256"
        },
        {
          "name": "_ethValue",
          "type": "uint256"
        },
        {
          "name": "_transactionBytecode",
          "type": "bytes"
        }
      ],
      "name": "executeCall",
      "outputs": [],
      "payable": false,
      "stateMutability": "nonpayable",
      "type": "function"
    },
    {
      "constant": true,
      "inputs": [],
      "name": "getCrydrStorageAddress",
      "outputs": [
        {
          "name": "",
          "type": "address"
        }
      ],
      "payable": false,
      "stateMutability": "view",
      "type": "function"
    },
    {
      "constant": false,
      "inputs": [
        {
          "name": "_proposedOwner",
          "type": "address"
        }
      ],
      "name": "createOwnershipOffer",
      "outputs": [],
      "payable": false,
      "stateMutability": "nonpayable",
      "type": "function"
    },
    {
      "constant": true,
      "inputs": [
        {
          "name": "_manager",
          "type": "address"
        }
      ],
      "name": "isManagerEnabled",
      "outputs": [
        {
          "name": "",
          "type": "bool"
        }
      ],
      "payable": false,
      "stateMutability": "view",
      "type": "function"
    },
    {
      "constant": false,
      "inputs": [
        {
          "name": "_account",
          "type": "address"
        },
        {
          "name": "_value",
          "type": "uint256"
        }
      ],
      "name": "burn",
      "outputs": [],
      "payable": false,
      "stateMutability": "nonpayable",
      "type": "function"
    },
    {
      "constant": true,
      "inputs": [],
      "name": "getJntPriceForTransferFrom",
      "outputs": [
        {
          "name": "",
          "type": "uint256"
        }
      ],
      "payable": false,
      "stateMutability": "view",
      "type": "function"
    },
    {
      "constant": true,
      "inputs": [],
      "name": "getAssetIDHash",
      "outputs": [
        {
          "name": "",
          "type": "bytes32"
        }
      ],
      "payable": false,
      "stateMutability": "view",
      "type": "function"
    },
    {
      "constant": true,
      "inputs": [],
      "name": "getJntPriceForApprove",
      "outputs": [
        {
          "name": "",
          "type": "uint256"
        }
      ],
      "payable": false,
      "stateMutability": "view",
      "type": "function"
    },
    {
      "constant": false,
      "inputs": [],
      "name": "unpauseContract",
      "outputs": [],
      "payable": false,
      "stateMutability": "nonpayable",
      "type": "function"
    },
    {
      "constant": true,
      "inputs": [
        {
          "name": "_viewApiStandardName",
          "type": "string"
        }
      ],
      "name": "getCrydrViewAddress",
      "outputs": [
        {
          "name": "",
          "type": "address"
        }
      ],
      "payable": false,
      "stateMutability": "view",
      "type": "function"
    },
    {
      "constant": false,
      "inputs": [
        {
          "name": "_msgsender",
          "type": "address"
        },
        {
          "name": "_to",
          "type": "address"
        },
        {
          "name": "_value",
          "type": "uint256"
        }
      ],
      "name": "transfer",
      "outputs": [],
      "payable": false,
      "stateMutability": "nonpayable",
      "type": "function"
    },
    {
      "constant": true,
      "inputs": [],
      "name": "getJntBeneficiary",
      "outputs": [
        {
          "name": "",
          "type": "address"
        }
      ],
      "payable": false,
      "stateMutability": "view",
      "type": "function"
    },
    {
      "constant": true,
      "inputs": [],
      "name": "getTotalSupply",
      "outputs": [
        {
          "name": "",
          "type": "uint256"
        }
      ],
      "payable": false,
      "stateMutability": "view",
      "type": "function"
    },
    {
      "constant": false,
      "inputs": [
        {
          "name": "_jntBeneficiary",
          "type": "address"
        }
      ],
      "name": "setJntBeneficiary",
      "outputs": [],
      "payable": false,
      "stateMutability": "nonpayable",
      "type": "function"
    },
    {
      "constant": false,
      "inputs": [
        {
          "name": "_account",
          "type": "address"
        },
        {
          "name": "_value",
          "type": "uint256"
        }
      ],
      "name": "blockAccountFunds",
      "outputs": [],
      "payable": false,
      "stateMutability": "nonpayable",
      "type": "function"
    },
    {
      "constant": false,
      "inputs": [
        {
          "name": "_target",
          "type": "address"
        },
        {
          "name": "_suppliedGas",
          "type": "uint256"
        },
        {
          "name": "_transactionBytecode",
          "type": "bytes"
        }
      ],
      "name": "executeDelegatecall",
      "outputs": [],
      "payable": false,
      "stateMutability": "nonpayable",
      "type": "function"
    },
    {
      "constant": true,
      "inputs": [
        {
          "name": "_crydrViewAddress",
          "type": "address"
        }
      ],
      "name": "isCrydrViewAddress",
      "outputs": [
        {
          "name": "",
          "type": "bool"
        }
      ],
      "payable": false,
      "stateMutability": "view",
      "type": "function"
    },
    {
      "constant": false,
      "inputs": [
        {
          "name": "_manager",
          "type": "address"
        }
      ],
      "name": "disableManager",
      "outputs": [],
      "payable": false,
      "stateMutability": "nonpayable",
      "type": "function"
    },
    {
      "constant": true,
      "inputs": [
        {
          "name": "_viewApiStandardName",
          "type": "string"
        }
      ],
      "name": "isCrydrViewRegistered",
      "outputs": [
        {
          "name": "",
          "type": "bool"
        }
      ],
      "payable": false,
      "stateMutability": "view",
      "type": "function"
    },
    {
      "constant": false,
      "inputs": [
        {
          "name": "_msgsender",
          "type": "address"
        },
        {
          "name": "_spender",
          "type": "address"
        },
        {
          "name": "_value",
          "type": "uint256"
        }
      ],
      "name": "approve",
      "outputs": [],
      "payable": false,
      "stateMutability": "nonpayable",
      "type": "function"
    },
    {
      "constant": false,
      "inputs": [
        {
          "name": "_newCrydrView",
          "type": "address"
        },
        {
          "name": "_viewApiStandardName",
          "type": "string"
        }
      ],
      "name": "setCrydrView",
      "outputs": [],
      "payable": false,
      "stateMutability": "nonpayable",
      "type": "function"
    },
    {
      "constant": true,
      "inputs": [],
      "name": "getProposedOwner",
      "outputs": [
        {
          "name": "",
          "type": "address"
        }
      ],
      "payable": false,
      "stateMutability": "view",
      "type": "function"
    },
    {
      "constant": false,
      "inputs": [],
      "name": "acceptOwnershipOffer",
      "outputs": [],
      "payable": false,
      "stateMutability": "nonpayable",
      "type": "function"
    },
    {
      "constant": true,
      "inputs": [
        {
          "name": "_owner",
          "type": "address"
        }
      ],
      "name": "getBalance",
      "outputs": [
        {
          "name": "",
          "type": "uint256"
        }
      ],
      "payable": false,
      "stateMutability": "view",
      "type": "function"
    },
    {
      "inputs": [],
      "payable": false,
      "stateMutability": "nonpayable",
      "type": "constructor"
    },
    {
      "anonymous": false,
      "inputs": [
        {
          "indexed": false,
          "name": "value",
          "type": "uint256"
        }
      ],
      "name": "JNTPriceTransferChangedEvent",
      "type": "event"
    },
    {
      "anonymous": false,
      "inputs": [
        {
          "indexed": false,
          "name": "value",
          "type": "uint256"
        }
      ],
      "name": "JNTPriceTransferFromChangedEvent",
      "type": "event"
    },
    {
      "anonymous": false,
      "inputs": [
        {
          "indexed": false,
          "name": "value",
          "type": "uint256"
        }
      ],
      "name": "JNTPriceApproveChangedEvent",
      "type": "event"
    },
    {
      "anonymous": false,
      "inputs": [
        {
          "indexed": false,
          "name": "jntcontroller",
          "type": "address"
        }
      ],
      "name": "JNTControllerChangedEvent",
      "type": "event"
    },
    {
      "anonymous": false,
      "inputs": [
        {
          "indexed": false,
          "name": "jntbeneficiary",
          "type": "address"
        }
      ],
      "name": "JNTBeneficiaryChangedEvent",
      "type": "event"
    },
    {
      "anonymous": false,
      "inputs": [
        {
          "indexed": true,
          "name": "from",
          "type": "address"
        },
        {
          "indexed": true,
          "name": "to",
          "type": "address"
        },
        {
          "indexed": false,
          "name": "value",
          "type": "uint256"
        }
      ],
      "name": "JNTChargedEvent",
      "type": "event"
    },
    {
      "anonymous": false,
      "inputs": [
        {
          "indexed": true,
          "name": "crydrstorage",
          "type": "address"
        }
      ],
      "name": "CrydrStorageChangedEvent",
      "type": "event"
    },
    {
      "anonymous": false,
      "inputs": [
        {
          "indexed": true,
          "name": "crydrview",
          "type": "address"
        },
        {
          "indexed": false,
          "name": "standardname",
          "type": "string"
        }
      ],
      "name": "CrydrViewAddedEvent",
      "type": "event"
    },
    {
      "anonymous": false,
      "inputs": [
        {
          "indexed": true,
          "name": "crydrview",
          "type": "address"
        },
        {
          "indexed": false,
          "name": "standardname",
          "type": "string"
        }
      ],
      "name": "CrydrViewRemovedEvent",
      "type": "event"
    },
    {
      "anonymous": false,
      "inputs": [
        {
          "indexed": true,
          "name": "target",
          "type": "address"
        },
        {
          "indexed": false,
          "name": "suppliedGas",
          "type": "uint256"
        },
        {
          "indexed": false,
          "name": "ethValue",
          "type": "uint256"
        },
        {
          "indexed": false,
          "name": "transactionBytecodeHash",
          "type": "bytes32"
        }
      ],
      "name": "CallExecutedEvent",
      "type": "event"
    },
    {
      "anonymous": false,
      "inputs": [
        {
          "indexed": true,
          "name": "target",
          "type": "address"
        },
        {
          "indexed": false,
          "name": "suppliedGas",
          "type": "uint256"
        },
        {
          "indexed": false,
          "name": "transactionBytecodeHash",
          "type": "bytes32"
        }
      ],
      "name": "DelegatecallExecutedEvent",
      "type": "event"
    },
    {
      "anonymous": false,
      "inputs": [],
      "name": "PauseEvent",
      "type": "event"
    },
    {
      "anonymous": false,
      "inputs": [],
      "name": "UnpauseEvent",
      "type": "event"
    },
    {
      "anonymous": false,
      "inputs": [
        {
          "indexed": true,
          "name": "manager",
          "type": "address"
        }
      ],
      "name": "ManagerEnabledEvent",
      "type": "event"
    },
    {
      "anonymous": false,
      "inputs": [
        {
          "indexed": true,
          "name": "manager",
          "type": "address"
        }
      ],
      "name": "ManagerDisabledEvent",
      "type": "event"
    },
    {
      "anonymous": false,
      "inputs": [
        {
          "indexed": true,
          "name": "manager",
          "type": "address"
        },
        {
          "indexed": false,
          "name": "permission",
          "type": "string"
        }
      ],
      "name": "ManagerPermissionGrantedEvent",
      "type": "event"
    },
    {
      "anonymous": false,
      "inputs": [
        {
          "indexed": true,
          "name": "manager",
          "type": "address"
        },
        {
          "indexed": false,
          "name": "permission",
          "type": "string"
        }
      ],
      "name": "ManagerPermissionRevokedEvent",
      "type": "event"
    },
    {
      "anonymous": false,
      "inputs": [
        {
          "indexed": true,
          "name": "newowner",
          "type": "address"
        }
      ],
      "name": "OwnerAssignedEvent",
      "type": "event"
    },
    {
      "anonymous": false,
      "inputs": [
        {
          "indexed": true,
          "name": "currentowner",
          "type": "address"
        },
        {
          "indexed": true,
          "name": "proposedowner",
          "type": "address"
        }
      ],
      "name": "OwnershipOfferCreatedEvent",
      "type": "event"
    },
    {
      "anonymous": false,
      "inputs": [
        {
          "indexed": true,
          "name": "currentowner",
          "type": "address"
        },
        {
          "indexed": true,
          "name": "proposedowner",
          "type": "address"
        }
      ],
      "name": "OwnershipOfferAcceptedEvent",
      "type": "event"
    },
    {
      "anonymous": false,
      "inputs": [
        {
          "indexed": true,
          "name": "currentowner",
          "type": "address"
        },
        {
          "indexed": true,
          "name": "proposedowner",
          "type": "address"
        }
      ],
      "name": "OwnershipOfferCancelledEvent",
      "type": "event"
    }
  ],
  "bytecode": "0x606060405260018054600160a060020a031990811682556002805490911690556005805460ff191690911761010060b060020a031916905534156200004357600080fd5b60408051908101604052600481527f6a4b5257000000000000000000000000000000000000000000000000000000006020820152601880808360008151116200008b57600080fd5b6000818051620000a092916020019062000104565b505060018054600160a060020a03191633600160a060020a039081169190911791829055167f8d2a41ca5ff551a8f68510de75177b7d56e6019c8579b5509d2be1bb41a0d0af60405160405180910390a2600a92909255600b55600c5550620001a9565b828054600181600116156101000203166002900490600052602060002090601f016020900481019282601f106200014757805160ff191683800117855562000177565b8280016001018555821562000177579182015b82811115620001775782518255916020019190600101906200015a565b506200018592915062000189565b5090565b620001a691905b8082111562000185576000815560010162000190565b90565b612e7c80620001b96000396000f3006060604052600436106102165763ffffffff60e060020a6000350416630392d2b4811461021b5780630af4187d1461028e5780630c79e3e6146102c557806315dacbea146102e65780631eb96a5c14610314578063270f7219146103275780632a4a65721461035657806332a2fda714610369578063392ab949146103c857806340c10f19146103e4578063439766ce146104065780634d78fdc6146104195780635ca5b334146104385780636805b84b14610457578063696b5fb71461046a5780636ec03f7a146104f45780637c0a893d146105125780637c0efb8b146105315780637de5ad891461055c5780637fa879491461057b578063822b08d01461059d578063893d20e8146105c85780638ba7e570146105db5780639554c8e51461060e5780639739db9d146106215780639b53d87c146106405780639dc29fac1461065f578063a237b99a14610681578063a773d98a14610694578063af099aea146106a7578063b33712c5146106ba578063bc40bac6146106cd578063beabacc81461071e578063c260831414610746578063c4e41b2214610759578063c5af38081461076c578063c60c13a31461078b578063d2b7d957146107ad578063d372e3a0146107dc578063d4859dc5146107fb578063d98de8a51461081a578063e1f21c671461086b578063e3a861a414610893578063eae5a62d146108be578063f5385345146108d1578063f8b2cb4f146108e4575b600080fd5b341561022657600080fd5b61027a60048035600160a060020a03169060446024803590810190830135806020601f8201819004810201604051908101604052818152929190602084018383808284375094965061090395505050505050565b604051901515815260200160405180910390f35b341561029957600080fd5b6102b3600160a060020a03600435811690602435166109d8565b60405190815260200160405180910390f35b34156102d057600080fd5b6102e4600160a060020a0360043516610a61565b005b34156102f157600080fd5b6102e4600160a060020a0360043581169060243581169060443516606435610b83565b341561031f57600080fd5b6102e4610ba6565b341561033257600080fd5b61033a610c4a565b604051600160a060020a03909116815260200160405180910390f35b341561036157600080fd5b6102b3610c59565b341561037457600080fd5b61027a60048035600160a060020a03169060446024803590810190830135806020601f82018190048102016040519081016040528181529291906020840183838082843750949650610c5f95505050505050565b34156103d357600080fd5b6102e4600435602435604435610cce565b34156103ef57600080fd5b6102e4600160a060020a0360043516602435610e26565b341561041157600080fd5b6102e4610fb8565b341561042457600080fd5b6102e4600160a060020a0360043516611052565b341561044357600080fd5b6102e4600160a060020a036004351661110b565b341561046257600080fd5b61027a6111c2565b341561047557600080fd5b61047d6111cb565b60405160208082528190810183818151815260200191508051906020019080838360005b838110156104b95780820151838201526020016104a1565b50505050905090810190601f1680156104e65780820380516001836020036101000a031916815260200191505b509250505060405180910390f35b34156104ff57600080fd5b6102e46004803560248101910135611273565b341561051d57600080fd5b6102e4600160a060020a0360043516611421565b341561053c57600080fd5b6102e460048035600160a060020a031690602480359081019101356114c2565b341561056757600080fd5b6102e4600160a060020a0360043516611638565b341561058657600080fd5b6102e4600160a060020a036004351660243561172a565b34156105a857600080fd5b6102e460048035600160a060020a031690602480359081019101356117d1565b34156105d357600080fd5b61033a611946565b34156105e657600080fd5b6102e460048035600160a060020a031690602480359160443591606435908101910135611955565b341561061957600080fd5b61033a611a78565b341561062c57600080fd5b6102e4600160a060020a0360043516611a8d565b341561064b57600080fd5b61027a600160a060020a0360043516611b54565b341561066a57600080fd5b6102e4600160a060020a0360043516602435611b8c565b341561068c57600080fd5b6102b3611d04565b341561069f57600080fd5b6102b3611d0a565b34156106b257600080fd5b6102b3611d7a565b34156106c557600080fd5b6102e4611d80565b34156106d857600080fd5b61033a60046024813581810190830135806020601f82018190048102016040519081016040528181529291906020840183838082843750949650611dc795505050505050565b341561072957600080fd5b6102e4600160a060020a0360043581169060243516604435611ecc565b341561075157600080fd5b61033a611ee3565b341561076457600080fd5b6102b3611ef2565b341561077757600080fd5b6102e4600160a060020a0360043516611f60565b341561079657600080fd5b6102e4600160a060020a0360043516602435612078565b34156107b857600080fd5b6102e460048035600160a060020a031690602480359160443591820191013561211f565b34156107e757600080fd5b61027a600160a060020a0360043516612231565b341561080657600080fd5b6102e4600160a060020a0360043516612267565b341561082557600080fd5b61027a60046024813581810190830135806020601f8201819004810201604051908101604052818152929190602084018383808284375094965061231f95505050505050565b341561087657600080fd5b6102e4600160a060020a03600435811690602435166044356123ab565b341561089e57600080fd5b6102e460048035600160a060020a031690602480359081019101356123c2565b34156108c957600080fd5b61033a612620565b34156108dc57600080fd5b6102e461262f565b34156108ef57600080fd5b6102b3600160a060020a0360043516612702565b600082600160a060020a038116151561091b57600080fd5b828051151561092957600080fd5b600160a060020a03851660009081526003602052604090205460ff1680156109cf5750600160a060020a03851660009081526004602052604090819020908590518082805190602001908083835b602083106109965780518252601f199092019160209182019101610977565b6001836020036101000a0380198251168184511680821785525050505050509050019150509081526020016040519081900390205460ff165b95945050505050565b60006109e2611a78565b600160a060020a0316630af4187d848460006040516020015260405160e060020a63ffffffff8516028152600160a060020a03928316600482015291166024820152604401602060405180830381600087803b1515610a4057600080fd5b6102c65a03f11515610a5157600080fd5b5050506040518051949350505050565b80610a6b81612782565b1515600114610a7957600080fd5b60408051908101604052601181527f7365745f63727964725f73746f726167650000000000000000000000000000006020820152610ab73382610903565b1515600114610ac557600080fd5b610acd6111c2565b1515600114610adb57600080fd5b30600160a060020a031683600160a060020a031614151515610afc57600080fd5b600554600160a060020a0384811662010000909204161415610b1d57600080fd5b6005805475ffffffffffffffffffffffffffffffffffffffff0000191662010000600160a060020a038616908102919091179091557f252da09c88b02fec1dd57c3183573d05d69ae5da5ca0ce6e6eff3e35e9662fdf60405160405180910390a2505050565b610b8f848484846127a4565b610ba084610b9b611d04565b612922565b50505050565b600254600090600160a060020a03161515610bc057600080fd5b60015433600160a060020a0390811691161480610beb575060025433600160a060020a039081169116145b1515610bf657600080fd5b5060028054600160a060020a03198116909155600154600160a060020a03918216918291167f223225995c0c0965e8752fd93ca10aba4bafcbca26f31b1565955adb68e76bda60405160405180910390a350565b600854600160a060020a031690565b600a5490565b600082600160a060020a0381161515610c7757600080fd5b8280511515610c8557600080fd5b600160a060020a0385166000908152600460205260409081902090859051808280519060200190808383602083106109965780518252601f199092019160209182019101610977565b60408051908101604052600d81527f7365745f6a6e745f7072696365000000000000000000000000000000000000006020820152610d0c3382610903565b1515600114610d1a57600080fd5b610d226111c2565b1515600114610d3057600080fd5b600a5484141580610d435750600b548314155b80610d505750600c548214155b1515610d5b57600080fd5b600a548414610d9d57600a8490557facfb62a1138daae35c9492ac3ef729101cf4fc23491ca68eb1887c3931f5323e8460405190815260200160405180910390a15b600b548314610ddf57600b8390557fbc2dfd4700f869377d69b53ab3da073c4389aef7f9c835c220b0b57006ba00768360405190815260200160405180910390a15b600c548214610ba057600c8290557fee5d5e281939a079b5afd6733520d582237255542213fbe8af7b053037ddff918260405190815260200160405180910390a150505050565b610e2e6111c2565b15610e3857600080fd5b60408051908101604052600a81527f6d696e745f6372796472000000000000000000000000000000000000000000006020820152610e763382610903565b1515600114610e8457600080fd5b610e8c611a78565b600160a060020a0316635b86f599848460405160e060020a63ffffffff8516028152600160a060020a0390921660048301526024820152604401600060405180830381600087803b1515610edf57600080fd5b6102c65a03f11515610ef057600080fd5b505050610f1a604080519081016040526005815260dc60020a64065726332302602082015261231f565b151560011415610fb357610f4b604080519081016040526005815260dc60020a640657263323026020820152611dc7565b600160a060020a031663958689d7848460405160e060020a63ffffffff8516028152600160a060020a0390921660048301526024820152604401600060405180830381600087803b1515610f9e57600080fd5b6102c65a03f11515610faf57600080fd5b5050505b505050565b60408051908101604052600e81527f70617573655f636f6e74726163740000000000000000000000000000000000006020820152610ff63382610903565b151560011461100457600080fd5b61100c6111c2565b1561101657600080fd5b6005805460ff191660011790557f14cc32b2b0edca88201ca20553c392d108a2feb2c750a0ee14c707b4f34fbee260405160405180910390a150565b60408051908101604052600f81527f756e626c6f636b5f6163636f756e74000000000000000000000000000000000060208201526110903382610903565b151560011461109e57600080fd5b6110a6611a78565b600160a060020a0316634d78fdc68360405160e060020a63ffffffff8416028152600160a060020a039091166004820152602401600060405180830381600087803b15156110f357600080fd5b6102c65a03f1151561110457600080fd5b5050505050565b611113611946565b600160a060020a031633600160a060020a031614151561113257600080fd5b80600160a060020a038116151561114857600080fd5b600160a060020a03821660009081526003602052604090205460ff161561116e57600080fd5b600160a060020a03821660008181526003602052604090819020805460ff191660011790557f7f0b61f78ab0b549b68ce61404f4ee01a26ffdf8d421d099d271d789aaea3a8e905160405180910390a25050565b60055460ff1690565b6111d3612e3e565b60008054600181600116156101000203166002900480601f0160208091040260200160405190810160405280929190818152602001828054600181600116156101000203166002900480156112695780601f1061123e57610100808354040283529160200191611269565b820191906000526020600020905b81548152906001019060200180831161124c57829003601f168201915b5050505050905090565b600082828080601f0160208091040260200160405190810160405281815292919060208401838380828437506000945085935050505051116112b457600080fd5b60408051908101604052601181527f72656d6f76655f63727964725f7669657700000000000000000000000000000060208201526112f23382610903565b151560011461130057600080fd5b6113086111c2565b151560011461131657600080fd5b6000600686866040518083838082843782019150509250505090815260200160405190819003902054600160a060020a0316141561135357600080fd5b600685856040518083838082843782019150509250505090815260200160405190819003902054600160a060020a0316925060006006868660405180838380828437820191505092505050908152602001604051505050600160a060020a03831660008181526007602052604090819020805460ff191690557f8b2ac9cdd5b81bdcecfa184f5383be60526a8213b64246dfa5024a3a3632f7359087908790516020808252810182905280604081018484808284378201915050935050505060405180910390a25050505050565b60408051908101604052600d81527f626c6f636b5f6163636f756e7400000000000000000000000000000000000000602082015261145f3382610903565b151560011461146d57600080fd5b611475611a78565b600160a060020a0316637c0a893d8360405160e060020a63ffffffff8416028152600160a060020a039091166004820152602401600060405180830381600087803b15156110f357600080fd5b6114ca611946565b600160a060020a031633600160a060020a03161415156114e957600080fd5b82600160a060020a03811615156114ff57600080fd5b82828080601f0160208091040260200160405190810160405281815292919060208401838380828437508594505050505051151561153c57600080fd5b600160a060020a03851660009081526004602052604090819020908590859051808383808284378201915050925050509081526020016040519081900390205460ff16151560011461158d57600080fd5b600160a060020a03851660009081526004602052604080822090869086905180838380828437820191505092505050908152602001604051908190039020805460ff1916911515919091179055600160a060020a0385167fe2b13fa06e3428fe0e43b2e517d25708ba477cafdff4fbcd06e3e93864517ddc85856040516020808252810182905280604081018484808284378201915050935050505060405180910390a25050505050565b8061164281612782565b151560011461165057600080fd5b60408051908101604052601281527f7365745f6a6e745f636f6e74726f6c6c65720000000000000000000000000000602082015261168e3382610903565b151560011461169c57600080fd5b6116a46111c2565b15156001146116b257600080fd5b600854600160a060020a03848116911614156116cd57600080fd5b60088054600160a060020a031916600160a060020a0385161790557fbc0c9683f9532136692cf8da566bb4c95e7181f306a5071816b35fb2fbb6234883604051600160a060020a03909116815260200160405180910390a1505050565b60408051908101604052601581527f756e626c6f636b5f6163636f756e745f66756e6473000000000000000000000060208201526117683382610903565b151560011461177657600080fd5b61177e611a78565b600160a060020a0316637fa87949848460405160e060020a63ffffffff8516028152600160a060020a0390921660048301526024820152604401600060405180830381600087803b1515610f9e57600080fd5b6117d9611946565b600160a060020a031633600160a060020a03161415156117f857600080fd5b82600160a060020a038116151561180e57600080fd5b82828080601f0160208091040260200160405190810160405281815292919060208401838380828437508594505050505051151561184b57600080fd5b600160a060020a03851660009081526004602052604090819020908590859051808383808284378201915050925050509081526020016040519081900390205460ff161561189857600080fd5b600160a060020a03851660009081526004602052604090819020600191869086905180838380828437820191505092505050908152602001604051908190039020805460ff1916911515919091179055600160a060020a0385167fb76b4ee2621e0744da93fa797bdc4851a3b9e303b2950f2f234a449e5f36d35e85856040516020808252810182905280604081018484808284378201915050935050505060405180910390a25050505050565b600154600160a060020a031690565b60408051908101604052600c81527f657865637574655f63616c6c000000000000000000000000000000000000000060208201526119933382610903565b15156001146119a157600080fd5b600554610100900460ff16156119b657600080fd5b6005805461ff001916610100179055600160a060020a0386168585858560405180838380828437820191505092505050600060405180830381858888f150506005805461ff0019169055505050600160a060020a0386167f376185a1f1832ecd7ffd6a421a54d437594db00f80f6122e8534d19d978b65b68686868660405180838380828437820191505092505050604051809103902060405192835260208301919091526040808301919091526060909101905180910390a2505050505050565b600554620100009004600160a060020a031690565b611a95611946565b600160a060020a031633600160a060020a0316141515611ab457600080fd5b600254600160a060020a031615611aca57600080fd5b600160a060020a0381161515611adf57600080fd5b30600160a060020a031681600160a060020a031614151515611b0057600080fd5b60028054600160a060020a031916600160a060020a038381169182179092556001549091167f0c5d18b25c2665dfeec8ea7956663ec48f079fdd04799ddd335f2fdce1a9fceb60405160405180910390a350565b600081600160a060020a0381161515611b6c57600080fd5b5050600160a060020a031660009081526003602052604090205460ff1690565b611b946111c2565b15611b9e57600080fd5b60408051908101604052600a81527f6275726e5f6372796472000000000000000000000000000000000000000000006020820152611bdc3382610903565b1515600114611bea57600080fd5b611bf2611a78565b600160a060020a031663ff056949848460405160e060020a63ffffffff8516028152600160a060020a0390921660048301526024820152604401600060405180830381600087803b1515611c4557600080fd5b6102c65a03f11515611c5657600080fd5b505050611c80604080519081016040526005815260dc60020a64065726332302602082015261231f565b151560011415610fb357611cb1604080519081016040526005815260dc60020a640657263323026020820152611dc7565b600160a060020a031663ed810cfa848460405160e060020a63ffffffff8516028152600160a060020a0390921660048301526024820152604401600060405180830381600087803b1515610f9e57600080fd5b600b5490565b6000806040518082805460018160011615610100020316600290048015611d685780601f10611d46576101008083540402835291820191611d68565b820191906000526020600020905b815481529060010190602001808311611d54575b50509150506040518091039020905090565b600c5490565b600854600160a060020a0316611d9581612782565b1515600114611da357600080fd5b600954600160a060020a0316801515611dbb57600080fd5b611dc3612a38565b5050565b6000816000815111611dd857600080fd5b60006006846040518082805190602001908083835b60208310611e0c5780518252601f199092019160209182019101611ded565b6001836020036101000a03801982511681845116808217855250505050505090500191505090815260200160405190819003902054600160a060020a03161415611e5557600080fd5b6006836040518082805190602001908083835b60208310611e875780518252601f199092019160209182019101611e68565b6001836020036101000a03801982511681845116808217855250505050505090500191505090815260200160405190819003902054600160a060020a03169392505050565b611ed7838383612ad3565b610fb383610b9b610c59565b600954600160a060020a031690565b6000611efc611a78565b600160a060020a031663c4e41b226000604051602001526040518163ffffffff1660e060020a028152600401602060405180830381600087803b1515611f4157600080fd5b6102c65a03f11515611f5257600080fd5b505050604051805191505090565b80600160a060020a0381161515611f7657600080fd5b60408051908101604052601381527f7365745f6a6e745f62656e6566696369617279000000000000000000000000006020820152611fb43382610903565b1515600114611fc257600080fd5b611fca6111c2565b1515600114611fd857600080fd5b600954600160a060020a0384811691161415611ff357600080fd5b30600160a060020a031683600160a060020a03161415151561201457600080fd5b60098054600160a060020a031916600160a060020a0385811691909117918290557f1ece313ac7706e8e41d52a3383f0415fe3f3062b92b49d194dcd1f1d15f3b1f39116604051600160a060020a03909116815260200160405180910390a1505050565b60408051908101604052601381527f626c6f636b5f6163636f756e745f66756e64730000000000000000000000000060208201526120b63382610903565b15156001146120c457600080fd5b6120cc611a78565b600160a060020a031663c60c13a3848460405160e060020a63ffffffff8516028152600160a060020a0390921660048301526024820152604401600060405180830381600087803b1515610f9e57600080fd5b60408051908101604052601481527f657865637574655f64656c656761746563616c6c000000000000000000000000602082015261215d3382610903565b151560011461216b57600080fd5b600554610100900460ff161561218057600080fd5b6005805461ff001916610100179055600160a060020a038516848484604051808383808284378201915050925050506000604051808303818686f450506005805461ff00191690555050600160a060020a0385167ffd9a51b5876c403362d350caaea2a99618ed2c0b3eb601e0ab04606616e6718885858560405180838380828437820191505092505050604051809103902060405191825260208201526040908101905180910390a25050505050565b6000600160a060020a038216151561224857600080fd5b50600160a060020a031660009081526007602052604090205460ff1690565b61226f611946565b600160a060020a031633600160a060020a031614151561228e57600080fd5b80600160a060020a03811615156122a457600080fd5b600160a060020a03821660009081526003602052604090205460ff1615156001146122ce57600080fd5b600160a060020a03821660008181526003602052604090819020805460ff191690557f91975e22df3ba360814d3153e8eaef17954cf47d52a42840fc9747ad1086b351905160405180910390a25050565b600081600081511161233057600080fd5b60006006846040518082805190602001908083835b602083106123645780518252601f199092019160209182019101612345565b6001836020036101000a03801982511681845116808217855250505050505090500191505090815260200160405190819003902054600160a060020a031614159392505050565b6123b6838383612c30565b610fb383610b9b611d7a565b600080846123cf81612782565b15156001146123dd57600080fd5b84848080601f01602080910402602001604051908101604052818152929190602084018383808284375060009450859350505050511161241c57600080fd5b60408051908101604052600e81527f7365745f63727964725f76696577000000000000000000000000000000000000602082015261245a3382610903565b151560011461246857600080fd5b6124706111c2565b151560011461247e57600080fd5b30600160a060020a031688600160a060020a03161415151561249f57600080fd5b6000600688886040518083838082843782019150509250505090815260200160405190819003902054600160a060020a0316146124db57600080fd5b87945084600160a060020a031663230f6e836000604051602001526040518163ffffffff1660e060020a028152600401602060405180830381600087803b151561252457600080fd5b6102c65a03f1151561253557600080fd5b505050604051805190509350868660405180838380828437820191505092505050604051908190039020841461256a57600080fd5b8760068888604051808383808284378201915050925050509081526020016040519081900390208054600160a060020a031916600160a060020a03928316179055881660008181526007602052604090819020805460ff191660011790557fcfadacbf7f27f22ba1af1974054b57d5f84c1081016cd355ada40f80c27d75249089908990516020808252810182905280604081018484808284378201915050935050505060405180910390a25050505050505050565b600254600160a060020a031690565b600254600090600160a060020a0316151561264957600080fd5b60025433600160a060020a0390811691161461266457600080fd5b506001805460028054600160a060020a0319808416600160a060020a038381169190911795869055911690915590811691167f8d2a41ca5ff551a8f68510de75177b7d56e6019c8579b5509d2be1bb41a0d0af60405160405180910390a2600154600160a060020a039081169082167f3912b3f6ff73ee5d4cd2894666c349dec2d3d2ed7dc6d35c28c5eabf105a88d860405160405180910390a350565b600061270c611a78565b600160a060020a031663f8b2cb4f8360006040516020015260405160e060020a63ffffffff8416028152600160a060020a039091166004820152602401602060405180830381600087803b151561276257600080fd5b6102c65a03f1151561277357600080fd5b50505060405180519392505050565b600080600160a060020a038316151561279a57600080fd5b50506000903b1190565b6127ad33612231565b15156001146127bb57600080fd5b6127c36111c2565b156127cd57600080fd5b6127d5611a78565b600160a060020a03166315dacbea8585858560405160e060020a63ffffffff8716028152600160a060020a0394851660048201529284166024840152921660448201526064810191909152608401600060405180830381600087803b151561283c57600080fd5b6102c65a03f1151561284d57600080fd5b505050612877604080519081016040526005815260dc60020a64065726332302602082015261231f565b151560011415610ba0576128a8604080519081016040526005815260dc60020a640657263323026020820152611dc7565b600160a060020a031663a6d49dca84848460405160e060020a63ffffffff8616028152600160a060020a0393841660048201529190921660248201526044810191909152606401600060405180830381600087803b151561290857600080fd5b6102c65a03f1151561291957600080fd5b50505050505050565b61292a6111c2565b1561293457600080fd5b600160a060020a038216151561294957600080fd5b600954600160a060020a038381169116141561296457600080fd5b6000811161297157600080fd5b600854600954600160a060020a039182169163bed9d712918591168460405160e060020a63ffffffff8616028152600160a060020a0393841660048201529190921660248201526044810191909152606401600060405180830381600087803b15156129dc57600080fd5b6102c65a03f115156129ed57600080fd5b5050600954600160a060020a03908116915083167f7cf51d4b7f8c7cb0ee87b634a4d318a5588c17a702c690753155cc0a8231e09b8360405190815260200160405180910390a35050565b60408051908101604052601081527f756e70617573655f636f6e7472616374000000000000000000000000000000006020820152612a763382610903565b1515600114612a8457600080fd5b612a8c6111c2565b1515600114612a9a57600080fd5b6005805460ff191690557f6249a5c797c884cbf33e63e8cfc250816032db24e22051de68a388315e64afc660405160405180910390a150565b612adc33612231565b1515600114612aea57600080fd5b612af26111c2565b15612afc57600080fd5b612b04611a78565b600160a060020a031663beabacc884848460405160e060020a63ffffffff8616028152600160a060020a0393841660048201529190921660248201526044810191909152606401600060405180830381600087803b1515612b6457600080fd5b6102c65a03f11515612b7557600080fd5b505050612b9f604080519081016040526005815260dc60020a64065726332302602082015261231f565b151560011415610fb357612bd0604080519081016040526005815260dc60020a640657263323026020820152611dc7565b600160a060020a031663a6d49dca84848460405160e060020a63ffffffff8616028152600160a060020a0393841660048201529190921660248201526044810191909152606401600060405180830381600087803b1515610f9e57600080fd5b6000612c3b33612231565b1515600114612c4957600080fd5b612c516111c2565b15612c5b57600080fd5b612c63611a78565b600160a060020a0316630af4187d858560006040516020015260405160e060020a63ffffffff8516028152600160a060020a03928316600482015291166024820152604401602060405180830381600087803b1515612cc157600080fd5b6102c65a03f11515612cd257600080fd5b5050506040518051915050600081118015612ceb575081155b80612cff575080158015612cff5750600082115b1515612d0a57600080fd5b612d12611a78565b600160a060020a031663e1f21c6785858560405160e060020a63ffffffff8616028152600160a060020a0393841660048201529190921660248201526044810191909152606401600060405180830381600087803b1515612d7257600080fd5b6102c65a03f11515612d8357600080fd5b505050612dad604080519081016040526005815260dc60020a64065726332302602082015261231f565b151560011415610ba057612dde604080519081016040526005815260dc60020a640657263323026020820152611dc7565b600160a060020a031663f23b6fa285858560405160e060020a63ffffffff8616028152600160a060020a0393841660048201529190921660248201526044810191909152606401600060405180830381600087803b151561290857600080fd5b602060405190810160405260008152905600a165627a7a7230582025c79d5ac262a1610b68dd1c9fe9165fe3f9e290c8d13510991f81066cb686e90029",
  "source": "/* Author: Victor Mezrin  victor@mezrin.com */\n\npragma solidity ^0.4.18;\n\n\nimport '../../crydr/asset/JCashCrydrController.sol';\n\n\ncontract jKRWController is JCashCrydrController {\n  function jKRWController() public JCashCrydrController('jKRW') {}\n}\n",
  "sourcePath": "/home/user/dev/project/jibrel/jibrel-contracts/contracts/asset/jKRW/jKRWController.sol",
  "compiler": {
    "name": "solc",
    "version": "0.4.18+commit.9cf6e910.Emscripten.clang"
  },
  "schemaVersion": "1.0.1",
  "updatedAt": "2017-12-17T22:37:02.364Z"
}