{
  "contractName": "JNTControllerStub",
  "abi": [
    {
      "constant": true,
      "inputs": [],
      "name": "counter",
      "outputs": [
        {
          "name": "",
          "type": "uint256"
        }
      ],
      "payable": false,
      "stateMutability": "view",
      "type": "function"
    },
    {
      "constant": false,
      "inputs": [
        {
          "name": "_from",
          "type": "address"
        },
        {
          "name": "_to",
          "type": "address"
        },
        {
          "name": "_value",
          "type": "uint256"
        }
      ],
      "name": "chargeJNT",
      "outputs": [],
      "payable": false,
      "stateMutability": "nonpayable",
      "type": "function"
    },
    {
      "anonymous": false,
      "inputs": [
        {
          "indexed": true,
          "name": "payableservice",
          "type": "address"
        },
        {
          "indexed": true,
          "name": "from",
          "type": "address"
        },
        {
          "indexed": true,
          "name": "to",
          "type": "address"
        },
        {
          "indexed": false,
          "name": "value",
          "type": "uint256"
        }
      ],
      "name": "JNTChargedEvent",
      "type": "event"
    }
  ],
  "bytecode": "0x606060405260008055341561001357600080fd5b61013e806100226000396000f30060606040526004361061004b5763ffffffff7c010000000000000000000000000000000000000000000000000000000060003504166361bc221a8114610050578063bed9d71214610075575b600080fd5b341561005b57600080fd5b6100636100ac565b60405190815260200160405180910390f35b341561008057600080fd5b6100aa73ffffffffffffffffffffffffffffffffffffffff600435811690602435166044356100b2565b005b60005481565b60008054600101905573ffffffffffffffffffffffffffffffffffffffff808316908481169033167fb71482cb7739fe9a589e820da7988553ab68ced0bac4da6c9c05bb45bba95e9f8460405190815260200160405180910390a45050505600a165627a7a7230582091fb26466f20aa55f605aec4124f640e70385b49774df43f3c7ba3149300f00d0029",
  "source": "/* Author: Victor Mezrin  victor@mezrin.com */\n\npragma solidity ^0.4.18;\n\n\nimport '../crydr/jnt/JNTControllerInterface.sol';\n\n\n/**\n * @title JNTControllerStub\n */\ncontract JNTControllerStub is JNTControllerInterface {\n\n  /* Storage */\n\n  uint256 public counter = 0;\n\n\n  /* JNTControllerInterface */\n\n  function chargeJNT(address _from, address _to, uint256 _value) public {\n    counter += 1;\n    JNTChargedEvent(msg.sender, _from, _to, _value);\n  }\n}\n",
  "sourcePath": "/home/user/dev/project/jibrel/jibrel-contracts_ropsten/contracts/unittest/JNTControllerStub.sol",
  "compiler": {
    "name": "solc",
    "version": "0.4.18+commit.9cf6e910.Emscripten.clang"
  },
  "schemaVersion": "1.0.1",
  "updatedAt": "2017-12-15T09:35:42.158Z"
}