{
  "contractName": "JNTPayableServiceMock",
  "abi": [
    {
      "constant": true,
      "inputs": [
        {
          "name": "_manager",
          "type": "address"
        },
        {
          "name": "_permissionName",
          "type": "string"
        }
      ],
      "name": "isManagerAllowed",
      "outputs": [
        {
          "name": "",
          "type": "bool"
        }
      ],
      "payable": false,
      "stateMutability": "view",
      "type": "function"
    },
    {
      "constant": false,
      "inputs": [],
      "name": "cancelOwnershipOffer",
      "outputs": [],
      "payable": false,
      "stateMutability": "nonpayable",
      "type": "function"
    },
    {
      "constant": true,
      "inputs": [],
      "name": "getJntController",
      "outputs": [
        {
          "name": "",
          "type": "address"
        }
      ],
      "payable": false,
      "stateMutability": "view",
      "type": "function"
    },
    {
      "constant": true,
      "inputs": [
        {
          "name": "_manager",
          "type": "address"
        },
        {
          "name": "_permissionName",
          "type": "string"
        }
      ],
      "name": "isPermissionGranted",
      "outputs": [
        {
          "name": "",
          "type": "bool"
        }
      ],
      "payable": false,
      "stateMutability": "view",
      "type": "function"
    },
    {
      "constant": false,
      "inputs": [],
      "name": "pauseContract",
      "outputs": [],
      "payable": false,
      "stateMutability": "nonpayable",
      "type": "function"
    },
    {
      "constant": false,
      "inputs": [
        {
          "name": "_manager",
          "type": "address"
        }
      ],
      "name": "enableManager",
      "outputs": [],
      "payable": false,
      "stateMutability": "nonpayable",
      "type": "function"
    },
    {
      "constant": true,
      "inputs": [],
      "name": "getPaused",
      "outputs": [
        {
          "name": "",
          "type": "bool"
        }
      ],
      "payable": false,
      "stateMutability": "view",
      "type": "function"
    },
    {
      "constant": false,
      "inputs": [
        {
          "name": "_manager",
          "type": "address"
        },
        {
          "name": "_permissionName",
          "type": "string"
        }
      ],
      "name": "revokeManagerPermission",
      "outputs": [],
      "payable": false,
      "stateMutability": "nonpayable",
      "type": "function"
    },
    {
      "constant": false,
      "inputs": [
        {
          "name": "_jntController",
          "type": "address"
        }
      ],
      "name": "setJntController",
      "outputs": [],
      "payable": false,
      "stateMutability": "nonpayable",
      "type": "function"
    },
    {
      "constant": false,
      "inputs": [
        {
          "name": "_manager",
          "type": "address"
        },
        {
          "name": "_permissionName",
          "type": "string"
        }
      ],
      "name": "grantManagerPermission",
      "outputs": [],
      "payable": false,
      "stateMutability": "nonpayable",
      "type": "function"
    },
    {
      "constant": true,
      "inputs": [],
      "name": "getOwner",
      "outputs": [
        {
          "name": "",
          "type": "address"
        }
      ],
      "payable": false,
      "stateMutability": "view",
      "type": "function"
    },
    {
      "constant": false,
      "inputs": [
        {
          "name": "_proposedOwner",
          "type": "address"
        }
      ],
      "name": "createOwnershipOffer",
      "outputs": [],
      "payable": false,
      "stateMutability": "nonpayable",
      "type": "function"
    },
    {
      "constant": true,
      "inputs": [
        {
          "name": "_manager",
          "type": "address"
        }
      ],
      "name": "isManagerEnabled",
      "outputs": [
        {
          "name": "",
          "type": "bool"
        }
      ],
      "payable": false,
      "stateMutability": "view",
      "type": "function"
    },
    {
      "constant": false,
      "inputs": [],
      "name": "unpauseContract",
      "outputs": [],
      "payable": false,
      "stateMutability": "nonpayable",
      "type": "function"
    },
    {
      "constant": true,
      "inputs": [],
      "name": "getJntBeneficiary",
      "outputs": [
        {
          "name": "",
          "type": "address"
        }
      ],
      "payable": false,
      "stateMutability": "view",
      "type": "function"
    },
    {
      "constant": false,
      "inputs": [
        {
          "name": "_jntBeneficiary",
          "type": "address"
        }
      ],
      "name": "setJntBeneficiary",
      "outputs": [],
      "payable": false,
      "stateMutability": "nonpayable",
      "type": "function"
    },
    {
      "constant": false,
      "inputs": [
        {
          "name": "_manager",
          "type": "address"
        }
      ],
      "name": "disableManager",
      "outputs": [],
      "payable": false,
      "stateMutability": "nonpayable",
      "type": "function"
    },
    {
      "constant": true,
      "inputs": [],
      "name": "getProposedOwner",
      "outputs": [
        {
          "name": "",
          "type": "address"
        }
      ],
      "payable": false,
      "stateMutability": "view",
      "type": "function"
    },
    {
      "constant": false,
      "inputs": [],
      "name": "acceptOwnershipOffer",
      "outputs": [],
      "payable": false,
      "stateMutability": "nonpayable",
      "type": "function"
    },
    {
      "anonymous": false,
      "inputs": [
        {
          "indexed": false,
          "name": "jntcontroller",
          "type": "address"
        }
      ],
      "name": "JNTControllerChangedEvent",
      "type": "event"
    },
    {
      "anonymous": false,
      "inputs": [
        {
          "indexed": false,
          "name": "jntbeneficiary",
          "type": "address"
        }
      ],
      "name": "JNTBeneficiaryChangedEvent",
      "type": "event"
    },
    {
      "anonymous": false,
      "inputs": [
        {
          "indexed": true,
          "name": "from",
          "type": "address"
        },
        {
          "indexed": true,
          "name": "to",
          "type": "address"
        },
        {
          "indexed": false,
          "name": "value",
          "type": "uint256"
        }
      ],
      "name": "JNTChargedEvent",
      "type": "event"
    },
    {
      "anonymous": false,
      "inputs": [],
      "name": "PauseEvent",
      "type": "event"
    },
    {
      "anonymous": false,
      "inputs": [],
      "name": "UnpauseEvent",
      "type": "event"
    },
    {
      "anonymous": false,
      "inputs": [
        {
          "indexed": true,
          "name": "manager",
          "type": "address"
        }
      ],
      "name": "ManagerEnabledEvent",
      "type": "event"
    },
    {
      "anonymous": false,
      "inputs": [
        {
          "indexed": true,
          "name": "manager",
          "type": "address"
        }
      ],
      "name": "ManagerDisabledEvent",
      "type": "event"
    },
    {
      "anonymous": false,
      "inputs": [
        {
          "indexed": true,
          "name": "manager",
          "type": "address"
        },
        {
          "indexed": false,
          "name": "permission",
          "type": "string"
        }
      ],
      "name": "ManagerPermissionGrantedEvent",
      "type": "event"
    },
    {
      "anonymous": false,
      "inputs": [
        {
          "indexed": true,
          "name": "manager",
          "type": "address"
        },
        {
          "indexed": false,
          "name": "permission",
          "type": "string"
        }
      ],
      "name": "ManagerPermissionRevokedEvent",
      "type": "event"
    },
    {
      "anonymous": false,
      "inputs": [
        {
          "indexed": true,
          "name": "newowner",
          "type": "address"
        }
      ],
      "name": "OwnerAssignedEvent",
      "type": "event"
    },
    {
      "anonymous": false,
      "inputs": [
        {
          "indexed": true,
          "name": "currentowner",
          "type": "address"
        },
        {
          "indexed": true,
          "name": "proposedowner",
          "type": "address"
        }
      ],
      "name": "OwnershipOfferCreatedEvent",
      "type": "event"
    },
    {
      "anonymous": false,
      "inputs": [
        {
          "indexed": true,
          "name": "currentowner",
          "type": "address"
        },
        {
          "indexed": true,
          "name": "proposedowner",
          "type": "address"
        }
      ],
      "name": "OwnershipOfferAcceptedEvent",
      "type": "event"
    },
    {
      "anonymous": false,
      "inputs": [
        {
          "indexed": true,
          "name": "currentowner",
          "type": "address"
        },
        {
          "indexed": true,
          "name": "proposedowner",
          "type": "address"
        }
      ],
      "name": "OwnershipOfferCancelledEvent",
      "type": "event"
    }
  ],
  "bytecode": "0x606060409081526000805460018054600160a060020a031990811682556004805460ff191690921790915516600160a060020a03338116919091179182905516907f8d2a41ca5ff551a8f68510de75177b7d56e6019c8579b5509d2be1bb41a0d0af905160405180910390a26110388061007a6000396000f3006060604052600436106101065763ffffffff7c01000000000000000000000000000000000000000000000000000000006000350416630392d2b4811461010b5780631eb96a5c1461017e578063270f72191461019357806332a2fda7146101c2578063439766ce146102215780635ca5b334146102345780636805b84b146102535780637c0efb8b146102665780637de5ad8914610291578063822b08d0146102b0578063893d20e8146102db5780639739db9d146102ee5780639b53d87c1461030d578063b33712c51461032c578063c26083141461033f578063c5af380814610352578063d4859dc514610371578063eae5a62d14610390578063f5385345146103a3575b600080fd5b341561011657600080fd5b61016a60048035600160a060020a03169060446024803590810190830135806020601f820181900481020160405190810160405281815292919060208401838380828437509496506103b695505050505050565b604051901515815260200160405180910390f35b341561018957600080fd5b61019161048b565b005b341561019e57600080fd5b6101a661053c565b604051600160a060020a03909116815260200160405180910390f35b34156101cd57600080fd5b61016a60048035600160a060020a03169060446024803590810190830135806020601f8201819004810201604051908101604052818152929190602084018383808284375094965061055095505050505050565b341561022c57600080fd5b6101916105bf565b341561023f57600080fd5b610191600160a060020a0360043516610659565b341561025e57600080fd5b61016a610710565b341561027157600080fd5b61019160048035600160a060020a03169060248035908101910135610719565b341561029c57600080fd5b610191600160a060020a036004351661088f565b34156102bb57600080fd5b61019160048035600160a060020a03169060248035908101910135610998565b34156102e657600080fd5b6101a6610b0d565b34156102f957600080fd5b610191600160a060020a0360043516610b1c565b341561031857600080fd5b61016a600160a060020a0360043516610bf0565b341561033757600080fd5b610191610c28565b341561034a57600080fd5b6101a6610c74565b341561035d57600080fd5b610191600160a060020a0360043516610c83565b341561037c57600080fd5b610191600160a060020a0360043516610da8565b341561039b57600080fd5b6101a6610e60565b34156103ae57600080fd5b610191610e6f565b600082600160a060020a03811615156103ce57600080fd5b82805115156103dc57600080fd5b600160a060020a03851660009081526002602052604090205460ff1680156104825750600160a060020a03851660009081526003602052604090819020908590518082805190602001908083835b602083106104495780518252601f19909201916020918201910161042a565b6001836020036101000a0380198251168184511680821785525050505050509050019150509081526020016040519081900390205460ff165b95945050505050565b600154600090600160a060020a031615156104a557600080fd5b60005433600160a060020a03908116911614806104d0575060015433600160a060020a039081169116145b15156104db57600080fd5b506001805473ffffffffffffffffffffffffffffffffffffffff198116909155600054600160a060020a03918216918291167f223225995c0c0965e8752fd93ca10aba4bafcbca26f31b1565955adb68e76bda60405160405180910390a350565b6004546101009004600160a060020a031690565b600082600160a060020a038116151561056857600080fd5b828051151561057657600080fd5b600160a060020a0385166000908152600360205260409081902090859051808280519060200190808383602083106104495780518252601f19909201916020918201910161042a565b60408051908101604052600e81527f70617573655f636f6e747261637400000000000000000000000000000000000060208201526105fd33826103b6565b151560011461060b57600080fd5b610613610710565b1561061d57600080fd5b6004805460ff191660011790557f14cc32b2b0edca88201ca20553c392d108a2feb2c750a0ee14c707b4f34fbee260405160405180910390a150565b610661610b0d565b600160a060020a031633600160a060020a031614151561068057600080fd5b80600160a060020a038116151561069657600080fd5b600160a060020a03821660009081526002602052604090205460ff16156106bc57600080fd5b600160a060020a03821660008181526002602052604090819020805460ff191660011790557f7f0b61f78ab0b549b68ce61404f4ee01a26ffdf8d421d099d271d789aaea3a8e905160405180910390a25050565b60045460ff1690565b610721610b0d565b600160a060020a031633600160a060020a031614151561074057600080fd5b82600160a060020a038116151561075657600080fd5b82828080601f0160208091040260200160405190810160405281815292919060208401838380828437508594505050505051151561079357600080fd5b600160a060020a03851660009081526003602052604090819020908590859051808383808284378201915050925050509081526020016040519081900390205460ff1615156001146107e457600080fd5b600160a060020a03851660009081526003602052604080822090869086905180838380828437820191505092505050908152602001604051908190039020805460ff1916911515919091179055600160a060020a0385167fe2b13fa06e3428fe0e43b2e517d25708ba477cafdff4fbcd06e3e93864517ddc85856040516020808252810182905280604081018484808284378201915050935050505060405180910390a25050505050565b8061089981610f4f565b15156001146108a757600080fd5b60408051908101604052601281527f7365745f6a6e745f636f6e74726f6c6c6572000000000000000000000000000060208201526108e533826103b6565b15156001146108f357600080fd5b6108fb610710565b151560011461090957600080fd5b600454600160a060020a0384811661010090920416141561092957600080fd5b6004805474ffffffffffffffffffffffffffffffffffffffff001916610100600160a060020a038616021790557fbc0c9683f9532136692cf8da566bb4c95e7181f306a5071816b35fb2fbb6234883604051600160a060020a03909116815260200160405180910390a1505050565b6109a0610b0d565b600160a060020a031633600160a060020a03161415156109bf57600080fd5b82600160a060020a03811615156109d557600080fd5b82828080601f01602080910402602001604051908101604052818152929190602084018383808284375085945050505050511515610a1257600080fd5b600160a060020a03851660009081526003602052604090819020908590859051808383808284378201915050925050509081526020016040519081900390205460ff1615610a5f57600080fd5b600160a060020a03851660009081526003602052604090819020600191869086905180838380828437820191505092505050908152602001604051908190039020805460ff1916911515919091179055600160a060020a0385167fb76b4ee2621e0744da93fa797bdc4851a3b9e303b2950f2f234a449e5f36d35e85856040516020808252810182905280604081018484808284378201915050935050505060405180910390a25050505050565b600054600160a060020a031690565b610b24610b0d565b600160a060020a031633600160a060020a0316141515610b4357600080fd5b600154600160a060020a031615610b5957600080fd5b600160a060020a0381161515610b6e57600080fd5b30600160a060020a031681600160a060020a031614151515610b8f57600080fd5b6001805473ffffffffffffffffffffffffffffffffffffffff1916600160a060020a038381169182179092556000549091167f0c5d18b25c2665dfeec8ea7956663ec48f079fdd04799ddd335f2fdce1a9fceb60405160405180910390a350565b600081600160a060020a0381161515610c0857600080fd5b5050600160a060020a031660009081526002602052604090205460ff1690565b6004546101009004600160a060020a0316610c4281610f4f565b1515600114610c5057600080fd5b600554600160a060020a0316801515610c6857600080fd5b610c70610f71565b5050565b600554600160a060020a031690565b80600160a060020a0381161515610c9957600080fd5b60408051908101604052601381527f7365745f6a6e745f62656e6566696369617279000000000000000000000000006020820152610cd733826103b6565b1515600114610ce557600080fd5b610ced610710565b1515600114610cfb57600080fd5b600554600160a060020a0384811691161415610d1657600080fd5b30600160a060020a031683600160a060020a031614151515610d3757600080fd5b6005805473ffffffffffffffffffffffffffffffffffffffff1916600160a060020a0385811691909117918290557f1ece313ac7706e8e41d52a3383f0415fe3f3062b92b49d194dcd1f1d15f3b1f39116604051600160a060020a03909116815260200160405180910390a1505050565b610db0610b0d565b600160a060020a031633600160a060020a0316141515610dcf57600080fd5b80600160a060020a0381161515610de557600080fd5b600160a060020a03821660009081526002602052604090205460ff161515600114610e0f57600080fd5b600160a060020a03821660008181526002602052604090819020805460ff191690557f91975e22df3ba360814d3153e8eaef17954cf47d52a42840fc9747ad1086b351905160405180910390a25050565b600154600160a060020a031690565b600154600090600160a060020a03161515610e8957600080fd5b60015433600160a060020a03908116911614610ea457600080fd5b50600080546001805473ffffffffffffffffffffffffffffffffffffffff19808416600160a060020a038381169190911795869055911690915590811691167f8d2a41ca5ff551a8f68510de75177b7d56e6019c8579b5509d2be1bb41a0d0af60405160405180910390a2600054600160a060020a039081169082167f3912b3f6ff73ee5d4cd2894666c349dec2d3d2ed7dc6d35c28c5eabf105a88d860405160405180910390a350565b600080600160a060020a0383161515610f6757600080fd5b50506000903b1190565b60408051908101604052601081527f756e70617573655f636f6e7472616374000000000000000000000000000000006020820152610faf33826103b6565b1515600114610fbd57600080fd5b610fc5610710565b1515600114610fd357600080fd5b6004805460ff191690557f6249a5c797c884cbf33e63e8cfc250816032db24e22051de68a388315e64afc660405160405180910390a1505600a165627a7a7230582005269d2421e56ffab21d981c99d5dbb7642a6b0387c124764f065540a72316050029",
  "source": "/* Author: Victor Mezrin  victor@mezrin.com */\n\npragma solidity ^0.4.18;\n\n\nimport '../util/CommonModifiers.sol';\nimport '../lifecycle/Ownable.sol';\nimport '../lifecycle/Manageable.sol';\nimport '../lifecycle/Pausable.sol';\nimport '../crydr/jnt/JNTPayableService.sol';\n\n\ncontract JNTPayableServiceMock is CommonModifiers,\n                                  Ownable,\n                                  Manageable,\n                                  Pausable,\n                                  JNTPayableService { }\n",
  "sourcePath": "/home/user/dev/project/jibrel/jibrel-contracts_ropsten/contracts/unittest/JNTPayableServiceMock.sol",
  "compiler": {
    "name": "solc",
    "version": "0.4.18+commit.9cf6e910.Emscripten.clang"
  },
  "schemaVersion": "1.0.1",
  "updatedAt": "2017-12-15T09:35:42.160Z"
}