{
  "contractName": "JNTViewERC20",
  "abi": [
    {
      "constant": true,
      "inputs": [
        {
          "name": "_manager",
          "type": "address"
        },
        {
          "name": "_permissionName",
          "type": "string"
        }
      ],
      "name": "isManagerAllowed",
      "outputs": [
        {
          "name": "",
          "type": "bool"
        }
      ],
      "payable": false,
      "stateMutability": "view",
      "type": "function"
    },
    {
      "constant": true,
      "inputs": [],
      "name": "name",
      "outputs": [
        {
          "name": "",
          "type": "string"
        }
      ],
      "payable": false,
      "stateMutability": "view",
      "type": "function"
    },
    {
      "constant": false,
      "inputs": [
        {
          "name": "_spender",
          "type": "address"
        },
        {
          "name": "_value",
          "type": "uint256"
        }
      ],
      "name": "approve",
      "outputs": [
        {
          "name": "",
          "type": "bool"
        }
      ],
      "payable": false,
      "stateMutability": "nonpayable",
      "type": "function"
    },
    {
      "constant": true,
      "inputs": [],
      "name": "totalSupply",
      "outputs": [
        {
          "name": "",
          "type": "uint256"
        }
      ],
      "payable": false,
      "stateMutability": "view",
      "type": "function"
    },
    {
      "constant": false,
      "inputs": [],
      "name": "cancelOwnershipOffer",
      "outputs": [],
      "payable": false,
      "stateMutability": "nonpayable",
      "type": "function"
    },
    {
      "constant": true,
      "inputs": [],
      "name": "getCrydrViewStandardNameHash",
      "outputs": [
        {
          "name": "",
          "type": "bytes32"
        }
      ],
      "payable": false,
      "stateMutability": "view",
      "type": "function"
    },
    {
      "constant": false,
      "inputs": [
        {
          "name": "_from",
          "type": "address"
        },
        {
          "name": "_to",
          "type": "address"
        },
        {
          "name": "_value",
          "type": "uint256"
        }
      ],
      "name": "transferFrom",
      "outputs": [
        {
          "name": "",
          "type": "bool"
        }
      ],
      "payable": false,
      "stateMutability": "nonpayable",
      "type": "function"
    },
    {
      "constant": false,
      "inputs": [
        {
          "name": "_crydrController",
          "type": "address"
        }
      ],
      "name": "setCrydrController",
      "outputs": [],
      "payable": false,
      "stateMutability": "nonpayable",
      "type": "function"
    },
    {
      "constant": true,
      "inputs": [],
      "name": "decimals",
      "outputs": [
        {
          "name": "",
          "type": "uint8"
        }
      ],
      "payable": false,
      "stateMutability": "view",
      "type": "function"
    },
    {
      "constant": true,
      "inputs": [
        {
          "name": "_manager",
          "type": "address"
        },
        {
          "name": "_permissionName",
          "type": "string"
        }
      ],
      "name": "isPermissionGranted",
      "outputs": [
        {
          "name": "",
          "type": "bool"
        }
      ],
      "payable": false,
      "stateMutability": "view",
      "type": "function"
    },
    {
      "constant": false,
      "inputs": [],
      "name": "pauseContract",
      "outputs": [],
      "payable": false,
      "stateMutability": "nonpayable",
      "type": "function"
    },
    {
      "constant": false,
      "inputs": [
        {
          "name": "_manager",
          "type": "address"
        }
      ],
      "name": "enableManager",
      "outputs": [],
      "payable": false,
      "stateMutability": "nonpayable",
      "type": "function"
    },
    {
      "constant": true,
      "inputs": [],
      "name": "getPaused",
      "outputs": [
        {
          "name": "",
          "type": "bool"
        }
      ],
      "payable": false,
      "stateMutability": "view",
      "type": "function"
    },
    {
      "constant": true,
      "inputs": [],
      "name": "getAssetID",
      "outputs": [
        {
          "name": "",
          "type": "string"
        }
      ],
      "payable": false,
      "stateMutability": "view",
      "type": "function"
    },
    {
      "constant": true,
      "inputs": [],
      "name": "getSymbolHash",
      "outputs": [
        {
          "name": "",
          "type": "bytes32"
        }
      ],
      "payable": false,
      "stateMutability": "view",
      "type": "function"
    },
    {
      "constant": true,
      "inputs": [
        {
          "name": "_owner",
          "type": "address"
        }
      ],
      "name": "balanceOf",
      "outputs": [
        {
          "name": "",
          "type": "uint256"
        }
      ],
      "payable": false,
      "stateMutability": "view",
      "type": "function"
    },
    {
      "constant": false,
      "inputs": [
        {
          "name": "_decimals",
          "type": "uint8"
        }
      ],
      "name": "setDecimals",
      "outputs": [],
      "payable": false,
      "stateMutability": "nonpayable",
      "type": "function"
    },
    {
      "constant": false,
      "inputs": [
        {
          "name": "_manager",
          "type": "address"
        },
        {
          "name": "_permissionName",
          "type": "string"
        }
      ],
      "name": "revokeManagerPermission",
      "outputs": [],
      "payable": false,
      "stateMutability": "nonpayable",
      "type": "function"
    },
    {
      "constant": true,
      "inputs": [],
      "name": "getCrydrViewStandardName",
      "outputs": [
        {
          "name": "",
          "type": "string"
        }
      ],
      "payable": false,
      "stateMutability": "view",
      "type": "function"
    },
    {
      "constant": false,
      "inputs": [
        {
          "name": "_manager",
          "type": "address"
        },
        {
          "name": "_permissionName",
          "type": "string"
        }
      ],
      "name": "grantManagerPermission",
      "outputs": [],
      "payable": false,
      "stateMutability": "nonpayable",
      "type": "function"
    },
    {
      "constant": true,
      "inputs": [],
      "name": "getOwner",
      "outputs": [
        {
          "name": "",
          "type": "address"
        }
      ],
      "payable": false,
      "stateMutability": "view",
      "type": "function"
    },
    {
      "constant": false,
      "inputs": [
        {
          "name": "_target",
          "type": "address"
        },
        {
          "name": "_suppliedGas",
          "type": "uint256"
        },
        {
          "name": "_ethValue",
          "type": "uint256"
        },
        {
          "name": "_transactionBytecode",
          "type": "bytes"
        }
      ],
      "name": "executeCall",
      "outputs": [],
      "payable": false,
      "stateMutability": "nonpayable",
      "type": "function"
    },
    {
      "constant": false,
      "inputs": [
        {
          "name": "_owner",
          "type": "address"
        },
        {
          "name": "_value",
          "type": "uint256"
        }
      ],
      "name": "emitMintEvent",
      "outputs": [],
      "payable": false,
      "stateMutability": "nonpayable",
      "type": "function"
    },
    {
      "constant": true,
      "inputs": [],
      "name": "symbol",
      "outputs": [
        {
          "name": "",
          "type": "string"
        }
      ],
      "payable": false,
      "stateMutability": "view",
      "type": "function"
    },
    {
      "constant": false,
      "inputs": [
        {
          "name": "_proposedOwner",
          "type": "address"
        }
      ],
      "name": "createOwnershipOffer",
      "outputs": [],
      "payable": false,
      "stateMutability": "nonpayable",
      "type": "function"
    },
    {
      "constant": true,
      "inputs": [
        {
          "name": "_manager",
          "type": "address"
        }
      ],
      "name": "isManagerEnabled",
      "outputs": [
        {
          "name": "",
          "type": "bool"
        }
      ],
      "payable": false,
      "stateMutability": "view",
      "type": "function"
    },
    {
      "constant": false,
      "inputs": [
        {
          "name": "_from",
          "type": "address"
        },
        {
          "name": "_to",
          "type": "address"
        },
        {
          "name": "_value",
          "type": "uint256"
        }
      ],
      "name": "emitTransferEvent",
      "outputs": [],
      "payable": false,
      "stateMutability": "nonpayable",
      "type": "function"
    },
    {
      "constant": true,
      "inputs": [],
      "name": "getAssetIDHash",
      "outputs": [
        {
          "name": "",
          "type": "bytes32"
        }
      ],
      "payable": false,
      "stateMutability": "view",
      "type": "function"
    },
    {
      "constant": false,
      "inputs": [
        {
          "name": "_to",
          "type": "address"
        },
        {
          "name": "_value",
          "type": "uint256"
        }
      ],
      "name": "transfer",
      "outputs": [
        {
          "name": "",
          "type": "bool"
        }
      ],
      "payable": false,
      "stateMutability": "nonpayable",
      "type": "function"
    },
    {
      "constant": false,
      "inputs": [],
      "name": "unpauseContract",
      "outputs": [],
      "payable": false,
      "stateMutability": "nonpayable",
      "type": "function"
    },
    {
      "constant": false,
      "inputs": [
        {
          "name": "_symbol",
          "type": "string"
        }
      ],
      "name": "setSymbol",
      "outputs": [],
      "payable": false,
      "stateMutability": "nonpayable",
      "type": "function"
    },
    {
      "constant": false,
      "inputs": [
        {
          "name": "_name",
          "type": "string"
        }
      ],
      "name": "setName",
      "outputs": [],
      "payable": false,
      "stateMutability": "nonpayable",
      "type": "function"
    },
    {
      "constant": true,
      "inputs": [],
      "name": "getCrydrController",
      "outputs": [
        {
          "name": "",
          "type": "address"
        }
      ],
      "payable": false,
      "stateMutability": "view",
      "type": "function"
    },
    {
      "constant": false,
      "inputs": [
        {
          "name": "_target",
          "type": "address"
        },
        {
          "name": "_suppliedGas",
          "type": "uint256"
        },
        {
          "name": "_transactionBytecode",
          "type": "bytes"
        }
      ],
      "name": "executeDelegatecall",
      "outputs": [],
      "payable": false,
      "stateMutability": "nonpayable",
      "type": "function"
    },
    {
      "constant": false,
      "inputs": [
        {
          "name": "_manager",
          "type": "address"
        }
      ],
      "name": "disableManager",
      "outputs": [],
      "payable": false,
      "stateMutability": "nonpayable",
      "type": "function"
    },
    {
      "constant": true,
      "inputs": [
        {
          "name": "_owner",
          "type": "address"
        },
        {
          "name": "_spender",
          "type": "address"
        }
      ],
      "name": "allowance",
      "outputs": [
        {
          "name": "",
          "type": "uint256"
        }
      ],
      "payable": false,
      "stateMutability": "view",
      "type": "function"
    },
    {
      "constant": true,
      "inputs": [],
      "name": "getNameHash",
      "outputs": [
        {
          "name": "",
          "type": "bytes32"
        }
      ],
      "payable": false,
      "stateMutability": "view",
      "type": "function"
    },
    {
      "constant": true,
      "inputs": [],
      "name": "getProposedOwner",
      "outputs": [
        {
          "name": "",
          "type": "address"
        }
      ],
      "payable": false,
      "stateMutability": "view",
      "type": "function"
    },
    {
      "constant": false,
      "inputs": [
        {
          "name": "_owner",
          "type": "address"
        },
        {
          "name": "_value",
          "type": "uint256"
        }
      ],
      "name": "emitBurnEvent",
      "outputs": [],
      "payable": false,
      "stateMutability": "nonpayable",
      "type": "function"
    },
    {
      "constant": false,
      "inputs": [
        {
          "name": "_owner",
          "type": "address"
        },
        {
          "name": "_spender",
          "type": "address"
        },
        {
          "name": "_value",
          "type": "uint256"
        }
      ],
      "name": "emitApprovalEvent",
      "outputs": [],
      "payable": false,
      "stateMutability": "nonpayable",
      "type": "function"
    },
    {
      "constant": false,
      "inputs": [],
      "name": "acceptOwnershipOffer",
      "outputs": [],
      "payable": false,
      "stateMutability": "nonpayable",
      "type": "function"
    },
    {
      "inputs": [],
      "payable": false,
      "stateMutability": "nonpayable",
      "type": "constructor"
    },
    {
      "anonymous": false,
      "inputs": [
        {
          "indexed": true,
          "name": "owner",
          "type": "address"
        },
        {
          "indexed": false,
          "name": "value",
          "type": "uint256"
        }
      ],
      "name": "MintEvent",
      "type": "event"
    },
    {
      "anonymous": false,
      "inputs": [
        {
          "indexed": true,
          "name": "owner",
          "type": "address"
        },
        {
          "indexed": false,
          "name": "value",
          "type": "uint256"
        }
      ],
      "name": "BurnEvent",
      "type": "event"
    },
    {
      "anonymous": false,
      "inputs": [
        {
          "indexed": true,
          "name": "from",
          "type": "address"
        },
        {
          "indexed": true,
          "name": "to",
          "type": "address"
        },
        {
          "indexed": false,
          "name": "value",
          "type": "uint256"
        }
      ],
      "name": "Transfer",
      "type": "event"
    },
    {
      "anonymous": false,
      "inputs": [
        {
          "indexed": true,
          "name": "owner",
          "type": "address"
        },
        {
          "indexed": true,
          "name": "spender",
          "type": "address"
        },
        {
          "indexed": false,
          "name": "value",
          "type": "uint256"
        }
      ],
      "name": "Approval",
      "type": "event"
    },
    {
      "anonymous": false,
      "inputs": [
        {
          "indexed": true,
          "name": "crydrcontroller",
          "type": "address"
        }
      ],
      "name": "CrydrControllerChangedEvent",
      "type": "event"
    },
    {
      "anonymous": false,
      "inputs": [
        {
          "indexed": true,
          "name": "target",
          "type": "address"
        },
        {
          "indexed": false,
          "name": "suppliedGas",
          "type": "uint256"
        },
        {
          "indexed": false,
          "name": "ethValue",
          "type": "uint256"
        },
        {
          "indexed": false,
          "name": "transactionBytecodeHash",
          "type": "bytes32"
        }
      ],
      "name": "CallExecutedEvent",
      "type": "event"
    },
    {
      "anonymous": false,
      "inputs": [
        {
          "indexed": true,
          "name": "target",
          "type": "address"
        },
        {
          "indexed": false,
          "name": "suppliedGas",
          "type": "uint256"
        },
        {
          "indexed": false,
          "name": "transactionBytecodeHash",
          "type": "bytes32"
        }
      ],
      "name": "DelegatecallExecutedEvent",
      "type": "event"
    },
    {
      "anonymous": false,
      "inputs": [],
      "name": "PauseEvent",
      "type": "event"
    },
    {
      "anonymous": false,
      "inputs": [],
      "name": "UnpauseEvent",
      "type": "event"
    },
    {
      "anonymous": false,
      "inputs": [
        {
          "indexed": true,
          "name": "manager",
          "type": "address"
        }
      ],
      "name": "ManagerEnabledEvent",
      "type": "event"
    },
    {
      "anonymous": false,
      "inputs": [
        {
          "indexed": true,
          "name": "manager",
          "type": "address"
        }
      ],
      "name": "ManagerDisabledEvent",
      "type": "event"
    },
    {
      "anonymous": false,
      "inputs": [
        {
          "indexed": true,
          "name": "manager",
          "type": "address"
        },
        {
          "indexed": false,
          "name": "permission",
          "type": "string"
        }
      ],
      "name": "ManagerPermissionGrantedEvent",
      "type": "event"
    },
    {
      "anonymous": false,
      "inputs": [
        {
          "indexed": true,
          "name": "manager",
          "type": "address"
        },
        {
          "indexed": false,
          "name": "permission",
          "type": "string"
        }
      ],
      "name": "ManagerPermissionRevokedEvent",
      "type": "event"
    },
    {
      "anonymous": false,
      "inputs": [
        {
          "indexed": true,
          "name": "newowner",
          "type": "address"
        }
      ],
      "name": "OwnerAssignedEvent",
      "type": "event"
    },
    {
      "anonymous": false,
      "inputs": [
        {
          "indexed": true,
          "name": "currentowner",
          "type": "address"
        },
        {
          "indexed": true,
          "name": "proposedowner",
          "type": "address"
        }
      ],
      "name": "OwnershipOfferCreatedEvent",
      "type": "event"
    },
    {
      "anonymous": false,
      "inputs": [
        {
          "indexed": true,
          "name": "currentowner",
          "type": "address"
        },
        {
          "indexed": true,
          "name": "proposedowner",
          "type": "address"
        }
      ],
      "name": "OwnershipOfferAcceptedEvent",
      "type": "event"
    },
    {
      "anonymous": false,
      "inputs": [
        {
          "indexed": true,
          "name": "currentowner",
          "type": "address"
        },
        {
          "indexed": true,
          "name": "proposedowner",
          "type": "address"
        }
      ],
      "name": "OwnershipOfferCancelledEvent",
      "type": "event"
    }
  ],
  "bytecode": "0x6060604090815260018054600160a060020a031990811682556002805490911690556005805460ff191690911761010060b060020a0319169055602090519081016040526000815260069080516200005c9291602001906200029b565b506020604051908101604052600081526007908051620000819291602001906200029b565b506020604051908101604052600081526008908051620000a69291602001906200029b565b506009805460ff191690553415620000bd57600080fd5b604080519081016040908152600382527f4a4e540000000000000000000000000000000000000000000000000000000000602083015280519081016040908152601482527f4a696272656c204e6574776f726b20546f6b656e0000000000000000000000006020830152805190810160405280600381526020017f4a4e540000000000000000000000000000000000000000000000000000000000815250601282828260408051908101604052600581527f65726332300000000000000000000000000000000000000000000000000000006020820152876000815111620001a457600080fd5b6000818051620001b99291602001906200029b565b505060018054600160a060020a03191633600160a060020a039081169190911791829055167f8d2a41ca5ff551a8f68510de75177b7d56e6019c8579b5509d2be1bb41a0d0af60405160405180910390a260008151116200021957600080fd5b60068180516200022e9291602001906200029b565b505060008351116200023f57600080fd5b60008251116200024e57600080fd5b6007838051620002639291602001906200029b565b506008828051620002799291602001906200029b565b506009805460ff191660ff929092169190911790555062000340945050505050565b828054600181600116156101000203166002900490600052602060002090601f016020900481019282601f10620002de57805160ff19168380011785556200030e565b828001600101855582156200030e579182015b828111156200030e578251825591602001919060010190620002f1565b506200031c92915062000320565b5090565b6200033d91905b808211156200031c576000815560010162000327565b90565b61201680620003506000396000f3006060604052600436106101df5763ffffffff60e060020a6000350416630392d2b481146101e457806306fdde0314610257578063095ea7b3146102e157806318160ddd146103035780631eb96a5c14610328578063230f6e831461033d57806323b872dd14610350578063305f17d514610378578063313ce5671461039757806332a2fda7146103c0578063439766ce1461041f5780635ca5b334146104325780636805b84b14610451578063696b5fb7146104645780636ea928d91461047757806370a082311461048a5780637a1395aa146104a95780637c0efb8b146104c25780637c6fb02a146104ed578063822b08d014610500578063893d20e81461052b5780638ba7e5701461055a578063958689d71461058d57806395d89b41146105af5780639739db9d146105c25780639b53d87c146105e1578063a6d49dca14610600578063a773d98a14610628578063a9059cbb1461063b578063b33712c51461065d578063b84c824614610670578063c47f00271461068e578063ca9c2862146106ac578063d2b7d957146106bf578063d4859dc5146106ee578063dd62ed3e1461070d578063e102d95014610732578063eae5a62d14610745578063ed810cfa14610758578063f23b6fa21461077a578063f5385345146107a2575b600080fd5b34156101ef57600080fd5b61024360048035600160a060020a03169060446024803590810190830135806020601f820181900481020160405190810160405281815292919060208401838380828437509496506107b595505050505050565b604051901515815260200160405180910390f35b341561026257600080fd5b61026a61088a565b60405160208082528190810183818151815260200191508051906020019080838360005b838110156102a657808201518382015260200161028e565b50505050905090810190601f1680156102d35780820380516001836020036101000a031916815260200191505b509250505060405180910390f35b34156102ec57600080fd5b610243600160a060020a0360043516602435610933565b341561030e57600080fd5b6103166109dc565b60405190815260200160405180910390f35b341561033357600080fd5b61033b610a4a565b005b341561034857600080fd5b610316610afb565b341561035b57600080fd5b610243600160a060020a0360043581169060243516604435610b6c565b341561038357600080fd5b61033b600160a060020a0360043516610c1d565b34156103a257600080fd5b6103aa610d1e565b60405160ff909116815260200160405180910390f35b34156103cb57600080fd5b61024360048035600160a060020a03169060446024803590810190830135806020601f82018190048102016040519081016040528181529291906020840183838082843750949650610d2795505050505050565b341561042a57600080fd5b61033b610d96565b341561043d57600080fd5b61033b600160a060020a0360043516610e30565b341561045c57600080fd5b610243610ee7565b341561046f57600080fd5b61026a610ef0565b341561048257600080fd5b610316610f63565b341561049557600080fd5b610316600160a060020a0360043516610fa0565b34156104b457600080fd5b61033b60ff60043516611030565b34156104cd57600080fd5b61033b60048035600160a060020a031690602480359081019101356110a9565b34156104f857600080fd5b61026a61121f565b341561050b57600080fd5b61033b60048035600160a060020a03169060248035908101910135611292565b341561053657600080fd5b61053e611407565b604051600160a060020a03909116815260200160405180910390f35b341561056557600080fd5b61033b60048035600160a060020a031690602480359160443591606435908101910135611416565b341561059857600080fd5b61033b600160a060020a0360043516602435611539565b34156105ba57600080fd5b61026a6115a1565b34156105cd57600080fd5b61033b600160a060020a0360043516611614565b34156105ec57600080fd5b610243600160a060020a03600435166116e8565b341561060b57600080fd5b61033b600160a060020a0360043581169060243516604435611720565b341561063357600080fd5b610316611793565b341561064657600080fd5b610243600160a060020a03600435166024356117cf565b341561066857600080fd5b61033b61185a565b341561067b57600080fd5b61033b6004803560248101910135611908565b341561069957600080fd5b61033b6004803560248101910135611989565b34156106b757600080fd5b61053e611a04565b34156106ca57600080fd5b61033b60048035600160a060020a0316906024803591604435918201910135611a19565b34156106f957600080fd5b61033b600160a060020a0360043516611b2b565b341561071857600080fd5b610316600160a060020a0360043581169060243516611be3565b341561073d57600080fd5b610316611c7c565b341561075057600080fd5b61053e611cb9565b341561076357600080fd5b61033b600160a060020a0360043516602435611cc8565b341561078557600080fd5b61033b600160a060020a0360043581169060243516604435611d30565b34156107ad57600080fd5b61033b611da3565b600082600160a060020a03811615156107cd57600080fd5b82805115156107db57600080fd5b600160a060020a03851660009081526003602052604090205460ff1680156108815750600160a060020a03851660009081526004602052604090819020908590518082805190602001908083835b602083106108485780518252601f199092019160209182019101610829565b6001836020036101000a0380198251168184511680821785525050505050509050019150509081526020016040519081900390205460ff165b95945050505050565b610892611f40565b60078054600181600116156101000203166002900480601f0160208091040260200160405190810160405280929190818152602001828054600181600116156101000203166002900480156109285780601f106108fd57610100808354040283529160200191610928565b820191906000526020600020905b81548152906001019060200180831161090b57829003601f168201915b505050505090505b90565b600061093d610ee7565b1561094757600080fd5b60403660441461095657600080fd5b61095e611a04565b600160a060020a031663e1f21c6733868660405160e060020a63ffffffff8616028152600160a060020a0393841660048201529190921660248201526044810191909152606401600060405180830381600087803b15156109be57600080fd5b6102c65a03f115156109cf57600080fd5b5060019695505050505050565b60006109e6611a04565b600160a060020a031663c4e41b226000604051602001526040518163ffffffff1660e060020a028152600401602060405180830381600087803b1515610a2b57600080fd5b6102c65a03f11515610a3c57600080fd5b505050604051805191505090565b600254600090600160a060020a03161515610a6457600080fd5b60015433600160a060020a0390811691161480610a8f575060025433600160a060020a039081169116145b1515610a9a57600080fd5b506002805473ffffffffffffffffffffffffffffffffffffffff198116909155600154600160a060020a03918216918291167f223225995c0c0965e8752fd93ca10aba4bafcbca26f31b1565955adb68e76bda60405160405180910390a350565b600060066040518082805460018160011615610100020316600290048015610b5a5780601f10610b38576101008083540402835291820191610b5a565b820191906000526020600020905b815481529060010190602001808311610b46575b50509150506040518091039020905090565b6000610b76610ee7565b15610b8057600080fd5b606036606414610b8f57600080fd5b610b97611a04565b600160a060020a03166315dacbea3387878760405160e060020a63ffffffff8716028152600160a060020a0394851660048201529284166024840152921660448201526064810191909152608401600060405180830381600087803b1515610bfe57600080fd5b6102c65a03f11515610c0f57600080fd5b506001979650505050505050565b80610c2781611e83565b1515600114610c3557600080fd5b60408051908101604052601481527f7365745f63727964725f636f6e74726f6c6c65720000000000000000000000006020820152610c7333826107b5565b1515600114610c8157600080fd5b610c89610ee7565b1515600114610c9757600080fd5b600554600160a060020a0384811662010000909204161415610cb857600080fd5b6005805475ffffffffffffffffffffffffffffffffffffffff0000191662010000600160a060020a038616908102919091179091557f95e43e6707a0436b5cc3af93d12042ce56df5ec4fe857d77836fe6316dc8457060405160405180910390a2505050565b60095460ff1690565b600082600160a060020a0381161515610d3f57600080fd5b8280511515610d4d57600080fd5b600160a060020a0385166000908152600460205260409081902090859051808280519060200190808383602083106108485780518252601f199092019160209182019101610829565b60408051908101604052600e81527f70617573655f636f6e74726163740000000000000000000000000000000000006020820152610dd433826107b5565b1515600114610de257600080fd5b610dea610ee7565b15610df457600080fd5b6005805460ff191660011790557f14cc32b2b0edca88201ca20553c392d108a2feb2c750a0ee14c707b4f34fbee260405160405180910390a150565b610e38611407565b600160a060020a031633600160a060020a0316141515610e5757600080fd5b80600160a060020a0381161515610e6d57600080fd5b600160a060020a03821660009081526003602052604090205460ff1615610e9357600080fd5b600160a060020a03821660008181526003602052604090819020805460ff191660011790557f7f0b61f78ab0b549b68ce61404f4ee01a26ffdf8d421d099d271d789aaea3a8e905160405180910390a25050565b60055460ff1690565b610ef8611f40565b60008054600181600116156101000203166002900480601f0160208091040260200160405190810160405280929190818152602001828054600181600116156101000203166002900480156109285780601f106108fd57610100808354040283529160200191610928565b600060086040518082805460018160011615610100020316600290048015610b5a5780601f10610b38576101008083540402835291820191610b5a565b6000602036602414610fb157600080fd5b610fb9611a04565b600160a060020a031663f8b2cb4f8460006040516020015260405160e060020a63ffffffff8416028152600160a060020a039091166004820152602401602060405180830381600087803b151561100f57600080fd5b6102c65a03f1151561102057600080fd5b5050506040518051949350505050565b611038610ee7565b151560011461104657600080fd5b60408051908101604052601281527f7365745f63727964725f646563696d616c730000000000000000000000000000602082015261108433826107b5565b151560011461109257600080fd5b506009805460ff191660ff92909216919091179055565b6110b1611407565b600160a060020a031633600160a060020a03161415156110d057600080fd5b82600160a060020a03811615156110e657600080fd5b82828080601f0160208091040260200160405190810160405281815292919060208401838380828437508594505050505051151561112357600080fd5b600160a060020a03851660009081526004602052604090819020908590859051808383808284378201915050925050509081526020016040519081900390205460ff16151560011461117457600080fd5b600160a060020a03851660009081526004602052604080822090869086905180838380828437820191505092505050908152602001604051908190039020805460ff1916911515919091179055600160a060020a0385167fe2b13fa06e3428fe0e43b2e517d25708ba477cafdff4fbcd06e3e93864517ddc85856040516020808252810182905280604081018484808284378201915050935050505060405180910390a25050505050565b611227611f40565b60068054600181600116156101000203166002900480601f0160208091040260200160405190810160405280929190818152602001828054600181600116156101000203166002900480156109285780601f106108fd57610100808354040283529160200191610928565b61129a611407565b600160a060020a031633600160a060020a03161415156112b957600080fd5b82600160a060020a03811615156112cf57600080fd5b82828080601f0160208091040260200160405190810160405281815292919060208401838380828437508594505050505051151561130c57600080fd5b600160a060020a03851660009081526004602052604090819020908590859051808383808284378201915050925050509081526020016040519081900390205460ff161561135957600080fd5b600160a060020a03851660009081526004602052604090819020600191869086905180838380828437820191505092505050908152602001604051908190039020805460ff1916911515919091179055600160a060020a0385167fb76b4ee2621e0744da93fa797bdc4851a3b9e303b2950f2f234a449e5f36d35e85856040516020808252810182905280604081018484808284378201915050935050505060405180910390a25050505050565b600154600160a060020a031690565b60408051908101604052600c81527f657865637574655f63616c6c0000000000000000000000000000000000000000602082015261145433826107b5565b151560011461146257600080fd5b600554610100900460ff161561147757600080fd5b6005805461ff001916610100179055600160a060020a0386168585858560405180838380828437820191505092505050600060405180830381858888f150506005805461ff0019169055505050600160a060020a0386167f376185a1f1832ecd7ffd6a421a54d437594db00f80f6122e8534d19d978b65b68686868660405180838380828437820191505092505050604051809103902060405192835260208301919091526040808301919091526060909101905180910390a2505050505050565b611541611a04565b600160a060020a031633600160a060020a031614151561156057600080fd5b81600160a060020a03167f3fffaa5804a26fcec0d70b1d0fb0a2d0031df3a5f9c8af2127c2f4360e97b4638260405190815260200160405180910390a25050565b6115a9611f40565b60088054600181600116156101000203166002900480601f0160208091040260200160405190810160405280929190818152602001828054600181600116156101000203166002900480156109285780601f106108fd57610100808354040283529160200191610928565b61161c611407565b600160a060020a031633600160a060020a031614151561163b57600080fd5b600254600160a060020a03161561165157600080fd5b600160a060020a038116151561166657600080fd5b30600160a060020a031681600160a060020a03161415151561168757600080fd5b6002805473ffffffffffffffffffffffffffffffffffffffff1916600160a060020a038381169182179092556001549091167f0c5d18b25c2665dfeec8ea7956663ec48f079fdd04799ddd335f2fdce1a9fceb60405160405180910390a350565b600081600160a060020a038116151561170057600080fd5b5050600160a060020a031660009081526003602052604090205460ff1690565b611728611a04565b600160a060020a031633600160a060020a031614151561174757600080fd5b81600160a060020a031683600160a060020a03167fddf252ad1be2c89b69c2b068fc378daa952ba7f163c4a11628f55a4df523b3ef8360405190815260200160405180910390a3505050565b6000806040518082805460018160011615610100020316600290048015610b5a5780601f10610b38576101008083540402835291820191610b5a565b60006117d9610ee7565b156117e357600080fd5b6040366044146117f257600080fd5b6117fa611a04565b600160a060020a031663beabacc833868660405160e060020a63ffffffff8616028152600160a060020a0393841660048201529190921660248201526044810191909152606401600060405180830381600087803b15156109be57600080fd5b60055461187590620100009004600160a060020a0316611e83565b151560011461188357600080fd5b600554620100009004600160a060020a031663a773d98a6000604051602001526040518163ffffffff1660e060020a028152600401602060405180830381600087803b15156118d157600080fd5b6102c65a03f115156118e257600080fd5b505050604051805190506118f4611793565b146118fe57600080fd5b611906611ea5565b565b611910610ee7565b151560011461191e57600080fd5b60408051908101604052601081527f7365745f63727964725f73796d626f6c00000000000000000000000000000000602082015261195c33826107b5565b151560011461196a57600080fd5b6000821161197757600080fd5b61198360088484611f52565b50505050565b611991610ee7565b151560011461199f57600080fd5b60408051908101604052600e81527f7365745f63727964725f6e616d6500000000000000000000000000000000000060208201526119dd33826107b5565b15156001146119eb57600080fd5b600082116119f857600080fd5b61198360078484611f52565b600554620100009004600160a060020a031690565b60408051908101604052601481527f657865637574655f64656c656761746563616c6c0000000000000000000000006020820152611a5733826107b5565b1515600114611a6557600080fd5b600554610100900460ff1615611a7a57600080fd5b6005805461ff001916610100179055600160a060020a038516848484604051808383808284378201915050925050506000604051808303818686f450506005805461ff00191690555050600160a060020a0385167ffd9a51b5876c403362d350caaea2a99618ed2c0b3eb601e0ab04606616e6718885858560405180838380828437820191505092505050604051809103902060405191825260208201526040908101905180910390a25050505050565b611b33611407565b600160a060020a031633600160a060020a0316141515611b5257600080fd5b80600160a060020a0381161515611b6857600080fd5b600160a060020a03821660009081526003602052604090205460ff161515600114611b9257600080fd5b600160a060020a03821660008181526003602052604090819020805460ff191690557f91975e22df3ba360814d3153e8eaef17954cf47d52a42840fc9747ad1086b351905160405180910390a25050565b6000604036604414611bf457600080fd5b611bfc611a04565b600160a060020a0316630af4187d858560006040516020015260405160e060020a63ffffffff8516028152600160a060020a03928316600482015291166024820152604401602060405180830381600087803b1515611c5a57600080fd5b6102c65a03f11515611c6b57600080fd5b505050604051805195945050505050565b600060076040518082805460018160011615610100020316600290048015610b5a5780601f10610b38576101008083540402835291820191610b5a565b600254600160a060020a031690565b611cd0611a04565b600160a060020a031633600160a060020a0316141515611cef57600080fd5b81600160a060020a03167f512586160ebd4dc6945ba9ec5d21a1f723f26f3c7aa36cdffb6818d4e7b880308260405190815260200160405180910390a25050565b611d38611a04565b600160a060020a031633600160a060020a0316141515611d5757600080fd5b81600160a060020a031683600160a060020a03167f8c5be1e5ebec7d5bd14f71427d1e84f3dd0314c0f7b2291e5b200ac8c7c3b9258360405190815260200160405180910390a3505050565b600254600090600160a060020a03161515611dbd57600080fd5b60025433600160a060020a03908116911614611dd857600080fd5b50600180546002805473ffffffffffffffffffffffffffffffffffffffff19808416600160a060020a038381169190911795869055911690915590811691167f8d2a41ca5ff551a8f68510de75177b7d56e6019c8579b5509d2be1bb41a0d0af60405160405180910390a2600154600160a060020a039081169082167f3912b3f6ff73ee5d4cd2894666c349dec2d3d2ed7dc6d35c28c5eabf105a88d860405160405180910390a350565b600080600160a060020a0383161515611e9b57600080fd5b50506000903b1190565b60408051908101604052601081527f756e70617573655f636f6e7472616374000000000000000000000000000000006020820152611ee333826107b5565b1515600114611ef157600080fd5b611ef9610ee7565b1515600114611f0757600080fd5b6005805460ff191690557f6249a5c797c884cbf33e63e8cfc250816032db24e22051de68a388315e64afc660405160405180910390a150565b60206040519081016040526000815290565b828054600181600116156101000203166002900490600052602060002090601f016020900481019282601f10611f935782800160ff19823516178555611fc0565b82800160010185558215611fc0579182015b82811115611fc0578235825591602001919060010190611fa5565b50611fcc929150611fd0565b5090565b61093091905b80821115611fcc5760008155600101611fd65600a165627a7a723058206ba712ce5ef075cc01af289b4c8dfb101e2feec1d549d8f6a5a91def8b01649b0029",
  "source": "/* Author: Victor Mezrin  victor@mezrin.com */\n\npragma solidity ^0.4.18;\n\nimport '../../crydr/asset/JCashCrydrViewERC20.sol';\n\n\ncontract JNTViewERC20 is JCashCrydrViewERC20 {\n  function JNTViewERC20() public JCashCrydrViewERC20('JNT', 'Jibrel Network Token', 'JNT', 18) {}\n}\n",
  "sourcePath": "/home/user/dev/project/jibrel/jibrel-contracts_ropsten/contracts/asset/JNT/JNTViewERC20.sol",
  "compiler": {
    "name": "solc",
    "version": "0.4.18+commit.9cf6e910.Emscripten.clang"
  },
  "schemaVersion": "1.0.1",
  "updatedAt": "2017-12-15T09:54:35.864Z"
}