{
  "contractName": "jUSDController",
  "abi": [
    {
      "constant": true,
      "inputs": [
        {
          "name": "_manager",
          "type": "address"
        },
        {
          "name": "_permissionName",
          "type": "string"
        }
      ],
      "name": "isManagerAllowed",
      "outputs": [
        {
          "name": "",
          "type": "bool"
        }
      ],
      "payable": false,
      "stateMutability": "view",
      "type": "function"
    },
    {
      "constant": true,
      "inputs": [
        {
          "name": "_owner",
          "type": "address"
        },
        {
          "name": "_spender",
          "type": "address"
        }
      ],
      "name": "getAllowance",
      "outputs": [
        {
          "name": "",
          "type": "uint256"
        }
      ],
      "payable": false,
      "stateMutability": "view",
      "type": "function"
    },
    {
      "constant": false,
      "inputs": [
        {
          "name": "_crydrStorage",
          "type": "address"
        }
      ],
      "name": "setCrydrStorage",
      "outputs": [],
      "payable": false,
      "stateMutability": "nonpayable",
      "type": "function"
    },
    {
      "constant": false,
      "inputs": [
        {
          "name": "_msgsender",
          "type": "address"
        },
        {
          "name": "_from",
          "type": "address"
        },
        {
          "name": "_to",
          "type": "address"
        },
        {
          "name": "_value",
          "type": "uint256"
        }
      ],
      "name": "transferFrom",
      "outputs": [],
      "payable": false,
      "stateMutability": "nonpayable",
      "type": "function"
    },
    {
      "constant": false,
      "inputs": [],
      "name": "cancelOwnershipOffer",
      "outputs": [],
      "payable": false,
      "stateMutability": "nonpayable",
      "type": "function"
    },
    {
      "constant": true,
      "inputs": [],
      "name": "getJntController",
      "outputs": [
        {
          "name": "",
          "type": "address"
        }
      ],
      "payable": false,
      "stateMutability": "view",
      "type": "function"
    },
    {
      "constant": true,
      "inputs": [],
      "name": "getJntPriceForTransfer",
      "outputs": [
        {
          "name": "",
          "type": "uint256"
        }
      ],
      "payable": false,
      "stateMutability": "view",
      "type": "function"
    },
    {
      "constant": true,
      "inputs": [
        {
          "name": "_manager",
          "type": "address"
        },
        {
          "name": "_permissionName",
          "type": "string"
        }
      ],
      "name": "isPermissionGranted",
      "outputs": [
        {
          "name": "",
          "type": "bool"
        }
      ],
      "payable": false,
      "stateMutability": "view",
      "type": "function"
    },
    {
      "constant": false,
      "inputs": [
        {
          "name": "_jntPriceTransfer",
          "type": "uint256"
        },
        {
          "name": "_jntPriceTransferFrom",
          "type": "uint256"
        },
        {
          "name": "_jntPriceApprove",
          "type": "uint256"
        }
      ],
      "name": "setJntPrice",
      "outputs": [],
      "payable": false,
      "stateMutability": "nonpayable",
      "type": "function"
    },
    {
      "constant": false,
      "inputs": [
        {
          "name": "_account",
          "type": "address"
        },
        {
          "name": "_value",
          "type": "uint256"
        }
      ],
      "name": "mint",
      "outputs": [],
      "payable": false,
      "stateMutability": "nonpayable",
      "type": "function"
    },
    {
      "constant": false,
      "inputs": [],
      "name": "pauseContract",
      "outputs": [],
      "payable": false,
      "stateMutability": "nonpayable",
      "type": "function"
    },
    {
      "constant": false,
      "inputs": [
        {
          "name": "_account",
          "type": "address"
        }
      ],
      "name": "unblockAccount",
      "outputs": [],
      "payable": false,
      "stateMutability": "nonpayable",
      "type": "function"
    },
    {
      "constant": false,
      "inputs": [
        {
          "name": "_manager",
          "type": "address"
        }
      ],
      "name": "enableManager",
      "outputs": [],
      "payable": false,
      "stateMutability": "nonpayable",
      "type": "function"
    },
    {
      "constant": true,
      "inputs": [],
      "name": "getPaused",
      "outputs": [
        {
          "name": "",
          "type": "bool"
        }
      ],
      "payable": false,
      "stateMutability": "view",
      "type": "function"
    },
    {
      "constant": true,
      "inputs": [],
      "name": "getAssetID",
      "outputs": [
        {
          "name": "",
          "type": "string"
        }
      ],
      "payable": false,
      "stateMutability": "view",
      "type": "function"
    },
    {
      "constant": false,
      "inputs": [
        {
          "name": "_viewApiStandardName",
          "type": "string"
        }
      ],
      "name": "removeCrydrView",
      "outputs": [],
      "payable": false,
      "stateMutability": "nonpayable",
      "type": "function"
    },
    {
      "constant": false,
      "inputs": [
        {
          "name": "_account",
          "type": "address"
        }
      ],
      "name": "blockAccount",
      "outputs": [],
      "payable": false,
      "stateMutability": "nonpayable",
      "type": "function"
    },
    {
      "constant": false,
      "inputs": [
        {
          "name": "_manager",
          "type": "address"
        },
        {
          "name": "_permissionName",
          "type": "string"
        }
      ],
      "name": "revokeManagerPermission",
      "outputs": [],
      "payable": false,
      "stateMutability": "nonpayable",
      "type": "function"
    },
    {
      "constant": false,
      "inputs": [
        {
          "name": "_jntController",
          "type": "address"
        }
      ],
      "name": "setJntController",
      "outputs": [],
      "payable": false,
      "stateMutability": "nonpayable",
      "type": "function"
    },
    {
      "constant": false,
      "inputs": [
        {
          "name": "_account",
          "type": "address"
        },
        {
          "name": "_value",
          "type": "uint256"
        }
      ],
      "name": "unblockAccountFunds",
      "outputs": [],
      "payable": false,
      "stateMutability": "nonpayable",
      "type": "function"
    },
    {
      "constant": false,
      "inputs": [
        {
          "name": "_manager",
          "type": "address"
        },
        {
          "name": "_permissionName",
          "type": "string"
        }
      ],
      "name": "grantManagerPermission",
      "outputs": [],
      "payable": false,
      "stateMutability": "nonpayable",
      "type": "function"
    },
    {
      "constant": true,
      "inputs": [],
      "name": "getOwner",
      "outputs": [
        {
          "name": "",
          "type": "address"
        }
      ],
      "payable": false,
      "stateMutability": "view",
      "type": "function"
    },
    {
      "constant": false,
      "inputs": [
        {
          "name": "_target",
          "type": "address"
        },
        {
          "name": "_suppliedGas",
          "type": "uint256"
        },
        {
          "name": "_ethValue",
          "type": "uint256"
        },
        {
          "name": "_transactionBytecode",
          "type": "bytes"
        }
      ],
      "name": "executeCall",
      "outputs": [],
      "payable": false,
      "stateMutability": "nonpayable",
      "type": "function"
    },
    {
      "constant": true,
      "inputs": [],
      "name": "getCrydrStorageAddress",
      "outputs": [
        {
          "name": "",
          "type": "address"
        }
      ],
      "payable": false,
      "stateMutability": "view",
      "type": "function"
    },
    {
      "constant": false,
      "inputs": [
        {
          "name": "_proposedOwner",
          "type": "address"
        }
      ],
      "name": "createOwnershipOffer",
      "outputs": [],
      "payable": false,
      "stateMutability": "nonpayable",
      "type": "function"
    },
    {
      "constant": true,
      "inputs": [
        {
          "name": "_manager",
          "type": "address"
        }
      ],
      "name": "isManagerEnabled",
      "outputs": [
        {
          "name": "",
          "type": "bool"
        }
      ],
      "payable": false,
      "stateMutability": "view",
      "type": "function"
    },
    {
      "constant": false,
      "inputs": [
        {
          "name": "_account",
          "type": "address"
        },
        {
          "name": "_value",
          "type": "uint256"
        }
      ],
      "name": "burn",
      "outputs": [],
      "payable": false,
      "stateMutability": "nonpayable",
      "type": "function"
    },
    {
      "constant": true,
      "inputs": [],
      "name": "getJntPriceForTransferFrom",
      "outputs": [
        {
          "name": "",
          "type": "uint256"
        }
      ],
      "payable": false,
      "stateMutability": "view",
      "type": "function"
    },
    {
      "constant": true,
      "inputs": [],
      "name": "getAssetIDHash",
      "outputs": [
        {
          "name": "",
          "type": "bytes32"
        }
      ],
      "payable": false,
      "stateMutability": "view",
      "type": "function"
    },
    {
      "constant": true,
      "inputs": [],
      "name": "getJntPriceForApprove",
      "outputs": [
        {
          "name": "",
          "type": "uint256"
        }
      ],
      "payable": false,
      "stateMutability": "view",
      "type": "function"
    },
    {
      "constant": false,
      "inputs": [],
      "name": "unpauseContract",
      "outputs": [],
      "payable": false,
      "stateMutability": "nonpayable",
      "type": "function"
    },
    {
      "constant": true,
      "inputs": [
        {
          "name": "_viewApiStandardName",
          "type": "string"
        }
      ],
      "name": "getCrydrViewAddress",
      "outputs": [
        {
          "name": "",
          "type": "address"
        }
      ],
      "payable": false,
      "stateMutability": "view",
      "type": "function"
    },
    {
      "constant": false,
      "inputs": [
        {
          "name": "_msgsender",
          "type": "address"
        },
        {
          "name": "_to",
          "type": "address"
        },
        {
          "name": "_value",
          "type": "uint256"
        }
      ],
      "name": "transfer",
      "outputs": [],
      "payable": false,
      "stateMutability": "nonpayable",
      "type": "function"
    },
    {
      "constant": true,
      "inputs": [],
      "name": "getJntBeneficiary",
      "outputs": [
        {
          "name": "",
          "type": "address"
        }
      ],
      "payable": false,
      "stateMutability": "view",
      "type": "function"
    },
    {
      "constant": true,
      "inputs": [],
      "name": "getTotalSupply",
      "outputs": [
        {
          "name": "",
          "type": "uint256"
        }
      ],
      "payable": false,
      "stateMutability": "view",
      "type": "function"
    },
    {
      "constant": false,
      "inputs": [
        {
          "name": "_jntBeneficiary",
          "type": "address"
        }
      ],
      "name": "setJntBeneficiary",
      "outputs": [],
      "payable": false,
      "stateMutability": "nonpayable",
      "type": "function"
    },
    {
      "constant": false,
      "inputs": [
        {
          "name": "_account",
          "type": "address"
        },
        {
          "name": "_value",
          "type": "uint256"
        }
      ],
      "name": "blockAccountFunds",
      "outputs": [],
      "payable": false,
      "stateMutability": "nonpayable",
      "type": "function"
    },
    {
      "constant": false,
      "inputs": [
        {
          "name": "_target",
          "type": "address"
        },
        {
          "name": "_suppliedGas",
          "type": "uint256"
        },
        {
          "name": "_transactionBytecode",
          "type": "bytes"
        }
      ],
      "name": "executeDelegatecall",
      "outputs": [],
      "payable": false,
      "stateMutability": "nonpayable",
      "type": "function"
    },
    {
      "constant": true,
      "inputs": [
        {
          "name": "_crydrViewAddress",
          "type": "address"
        }
      ],
      "name": "isCrydrViewAddress",
      "outputs": [
        {
          "name": "",
          "type": "bool"
        }
      ],
      "payable": false,
      "stateMutability": "view",
      "type": "function"
    },
    {
      "constant": false,
      "inputs": [
        {
          "name": "_manager",
          "type": "address"
        }
      ],
      "name": "disableManager",
      "outputs": [],
      "payable": false,
      "stateMutability": "nonpayable",
      "type": "function"
    },
    {
      "constant": true,
      "inputs": [
        {
          "name": "_viewApiStandardName",
          "type": "string"
        }
      ],
      "name": "isCrydrViewRegistered",
      "outputs": [
        {
          "name": "",
          "type": "bool"
        }
      ],
      "payable": false,
      "stateMutability": "view",
      "type": "function"
    },
    {
      "constant": false,
      "inputs": [
        {
          "name": "_msgsender",
          "type": "address"
        },
        {
          "name": "_spender",
          "type": "address"
        },
        {
          "name": "_value",
          "type": "uint256"
        }
      ],
      "name": "approve",
      "outputs": [],
      "payable": false,
      "stateMutability": "nonpayable",
      "type": "function"
    },
    {
      "constant": false,
      "inputs": [
        {
          "name": "_newCrydrView",
          "type": "address"
        },
        {
          "name": "_viewApiStandardName",
          "type": "string"
        }
      ],
      "name": "setCrydrView",
      "outputs": [],
      "payable": false,
      "stateMutability": "nonpayable",
      "type": "function"
    },
    {
      "constant": true,
      "inputs": [],
      "name": "getProposedOwner",
      "outputs": [
        {
          "name": "",
          "type": "address"
        }
      ],
      "payable": false,
      "stateMutability": "view",
      "type": "function"
    },
    {
      "constant": false,
      "inputs": [],
      "name": "acceptOwnershipOffer",
      "outputs": [],
      "payable": false,
      "stateMutability": "nonpayable",
      "type": "function"
    },
    {
      "constant": true,
      "inputs": [
        {
          "name": "_owner",
          "type": "address"
        }
      ],
      "name": "getBalance",
      "outputs": [
        {
          "name": "",
          "type": "uint256"
        }
      ],
      "payable": false,
      "stateMutability": "view",
      "type": "function"
    },
    {
      "inputs": [],
      "payable": false,
      "stateMutability": "nonpayable",
      "type": "constructor"
    },
    {
      "anonymous": false,
      "inputs": [
        {
          "indexed": false,
          "name": "value",
          "type": "uint256"
        }
      ],
      "name": "JNTPriceTransferChangedEvent",
      "type": "event"
    },
    {
      "anonymous": false,
      "inputs": [
        {
          "indexed": false,
          "name": "value",
          "type": "uint256"
        }
      ],
      "name": "JNTPriceTransferFromChangedEvent",
      "type": "event"
    },
    {
      "anonymous": false,
      "inputs": [
        {
          "indexed": false,
          "name": "value",
          "type": "uint256"
        }
      ],
      "name": "JNTPriceApproveChangedEvent",
      "type": "event"
    },
    {
      "anonymous": false,
      "inputs": [
        {
          "indexed": false,
          "name": "jntcontroller",
          "type": "address"
        }
      ],
      "name": "JNTControllerChangedEvent",
      "type": "event"
    },
    {
      "anonymous": false,
      "inputs": [
        {
          "indexed": false,
          "name": "jntbeneficiary",
          "type": "address"
        }
      ],
      "name": "JNTBeneficiaryChangedEvent",
      "type": "event"
    },
    {
      "anonymous": false,
      "inputs": [
        {
          "indexed": true,
          "name": "from",
          "type": "address"
        },
        {
          "indexed": true,
          "name": "to",
          "type": "address"
        },
        {
          "indexed": false,
          "name": "value",
          "type": "uint256"
        }
      ],
      "name": "JNTChargedEvent",
      "type": "event"
    },
    {
      "anonymous": false,
      "inputs": [
        {
          "indexed": true,
          "name": "crydrstorage",
          "type": "address"
        }
      ],
      "name": "CrydrStorageChangedEvent",
      "type": "event"
    },
    {
      "anonymous": false,
      "inputs": [
        {
          "indexed": true,
          "name": "crydrview",
          "type": "address"
        },
        {
          "indexed": false,
          "name": "standardname",
          "type": "string"
        }
      ],
      "name": "CrydrViewAddedEvent",
      "type": "event"
    },
    {
      "anonymous": false,
      "inputs": [
        {
          "indexed": true,
          "name": "crydrview",
          "type": "address"
        },
        {
          "indexed": false,
          "name": "standardname",
          "type": "string"
        }
      ],
      "name": "CrydrViewRemovedEvent",
      "type": "event"
    },
    {
      "anonymous": false,
      "inputs": [
        {
          "indexed": true,
          "name": "target",
          "type": "address"
        },
        {
          "indexed": false,
          "name": "suppliedGas",
          "type": "uint256"
        },
        {
          "indexed": false,
          "name": "ethValue",
          "type": "uint256"
        },
        {
          "indexed": false,
          "name": "transactionBytecodeHash",
          "type": "bytes32"
        }
      ],
      "name": "CallExecutedEvent",
      "type": "event"
    },
    {
      "anonymous": false,
      "inputs": [
        {
          "indexed": true,
          "name": "target",
          "type": "address"
        },
        {
          "indexed": false,
          "name": "suppliedGas",
          "type": "uint256"
        },
        {
          "indexed": false,
          "name": "transactionBytecodeHash",
          "type": "bytes32"
        }
      ],
      "name": "DelegatecallExecutedEvent",
      "type": "event"
    },
    {
      "anonymous": false,
      "inputs": [],
      "name": "PauseEvent",
      "type": "event"
    },
    {
      "anonymous": false,
      "inputs": [],
      "name": "UnpauseEvent",
      "type": "event"
    },
    {
      "anonymous": false,
      "inputs": [
        {
          "indexed": true,
          "name": "manager",
          "type": "address"
        }
      ],
      "name": "ManagerEnabledEvent",
      "type": "event"
    },
    {
      "anonymous": false,
      "inputs": [
        {
          "indexed": true,
          "name": "manager",
          "type": "address"
        }
      ],
      "name": "ManagerDisabledEvent",
      "type": "event"
    },
    {
      "anonymous": false,
      "inputs": [
        {
          "indexed": true,
          "name": "manager",
          "type": "address"
        },
        {
          "indexed": false,
          "name": "permission",
          "type": "string"
        }
      ],
      "name": "ManagerPermissionGrantedEvent",
      "type": "event"
    },
    {
      "anonymous": false,
      "inputs": [
        {
          "indexed": true,
          "name": "manager",
          "type": "address"
        },
        {
          "indexed": false,
          "name": "permission",
          "type": "string"
        }
      ],
      "name": "ManagerPermissionRevokedEvent",
      "type": "event"
    },
    {
      "anonymous": false,
      "inputs": [
        {
          "indexed": true,
          "name": "newowner",
          "type": "address"
        }
      ],
      "name": "OwnerAssignedEvent",
      "type": "event"
    },
    {
      "anonymous": false,
      "inputs": [
        {
          "indexed": true,
          "name": "currentowner",
          "type": "address"
        },
        {
          "indexed": true,
          "name": "proposedowner",
          "type": "address"
        }
      ],
      "name": "OwnershipOfferCreatedEvent",
      "type": "event"
    },
    {
      "anonymous": false,
      "inputs": [
        {
          "indexed": true,
          "name": "currentowner",
          "type": "address"
        },
        {
          "indexed": true,
          "name": "proposedowner",
          "type": "address"
        }
      ],
      "name": "OwnershipOfferAcceptedEvent",
      "type": "event"
    },
    {
      "anonymous": false,
      "inputs": [
        {
          "indexed": true,
          "name": "currentowner",
          "type": "address"
        },
        {
          "indexed": true,
          "name": "proposedowner",
          "type": "address"
        }
      ],
      "name": "OwnershipOfferCancelledEvent",
      "type": "event"
    }
  ],
  "bytecode": "0x60606040526000600160006101000a81548173ffffffffffffffffffffffffffffffffffffffff021916908373ffffffffffffffffffffffffffffffffffffffff1602179055506000600260006101000a81548173ffffffffffffffffffffffffffffffffffffffff021916908373ffffffffffffffffffffffffffffffffffffffff1602179055506001600560006101000a81548160ff0219169083151502179055506000600560016101000a81548160ff0219169083151502179055506000600560026101000a81548173ffffffffffffffffffffffffffffffffffffffff021916908373ffffffffffffffffffffffffffffffffffffffff16021790555034156200010c57600080fd5b6040805190810160405280600481526020017f6a55534400000000000000000000000000000000000000000000000000000000815250601880601883600081511115156200015957600080fd5b80600090805190602001906200017192919062000238565b505033600160006101000a81548173ffffffffffffffffffffffffffffffffffffffff021916908373ffffffffffffffffffffffffffffffffffffffff160217905550600160009054906101000a900473ffffffffffffffffffffffffffffffffffffffff1673ffffffffffffffffffffffffffffffffffffffff167f8d2a41ca5ff551a8f68510de75177b7d56e6019c8579b5509d2be1bb41a0d0af60405160405180910390a282600a8190555081600b8190555080600c8190555050505050620002e7565b828054600181600116156101000203166002900490600052602060002090601f016020900481019282601f106200027b57805160ff1916838001178555620002ac565b82800160010185558215620002ac579182015b82811115620002ab5782518255916020019190600101906200028e565b5b509050620002bb9190620002bf565b5090565b620002e491905b80821115620002e0576000816000905550600101620002c6565b5090565b90565b614ecb80620002f76000396000f300606060405260043610610230576000357c0100000000000000000000000000000000000000000000000000000000900463ffffffff1680630392d2b4146102355780630af4187d146102c95780630c79e3e61461033557806315dacbea1461036e5780631eb96a5c146103ee578063270f7219146104035780632a4a65721461045857806332a2fda714610481578063392ab9491461051557806340c10f191461054a578063439766ce1461058c5780634d78fdc6146105a15780635ca5b334146105da5780636805b84b14610613578063696b5fb7146106405780636ec03f7a146106ce5780637c0a893d146106fc5780637c0efb8b146107355780637de5ad89146107825780637fa87949146107bb578063822b08d0146107fd578063893d20e81461084a5780638ba7e5701461089f5780639554c8e5146108fe5780639739db9d146109535780639b53d87c1461098c5780639dc29fac146109dd578063a237b99a14610a1f578063a773d98a14610a48578063af099aea14610a79578063b33712c514610aa2578063bc40bac614610ab7578063beabacc814610b54578063c260831414610bb5578063c4e41b2214610c0a578063c5af380814610c33578063c60c13a314610c6c578063d2b7d95714610cae578063d372e3a014610d04578063d4859dc514610d55578063d98de8a514610d8e578063e1f21c6714610e03578063e3a861a414610e64578063eae5a62d14610eb1578063f538534514610f06578063f8b2cb4f14610f1b575b600080fd5b341561024057600080fd5b6102af600480803573ffffffffffffffffffffffffffffffffffffffff1690602001909190803590602001908201803590602001908080601f01602080910402602001604051908101604052809392919081815260200183838082843782019150505050505091905050610f68565b604051808215151515815260200191505060405180910390f35b34156102d457600080fd5b61031f600480803573ffffffffffffffffffffffffffffffffffffffff1690602001909190803573ffffffffffffffffffffffffffffffffffffffff169060200190919050506110ce565b6040518082815260200191505060405180910390f35b341561034057600080fd5b61036c600480803573ffffffffffffffffffffffffffffffffffffffff169060200190919050506111d1565b005b341561037957600080fd5b6103ec600480803573ffffffffffffffffffffffffffffffffffffffff1690602001909190803573ffffffffffffffffffffffffffffffffffffffff1690602001909190803573ffffffffffffffffffffffffffffffffffffffff1690602001909190803590602001909190505061137a565b005b34156103f957600080fd5b61040161139d565b005b341561040e57600080fd5b610416611596565b604051808273ffffffffffffffffffffffffffffffffffffffff1673ffffffffffffffffffffffffffffffffffffffff16815260200191505060405180910390f35b341561046357600080fd5b61046b6115c0565b6040518082815260200191505060405180910390f35b341561048c57600080fd5b6104fb600480803573ffffffffffffffffffffffffffffffffffffffff1690602001909190803590602001908201803590602001908080601f016020809104026020016040519081016040528093929190818152602001838380828437820191505050505050919050506115ca565b604051808215151515815260200191505060405180910390f35b341561052057600080fd5b61054860048080359060200190919080359060200190919080359060200190919050506116db565b005b341561055557600080fd5b61058a600480803573ffffffffffffffffffffffffffffffffffffffff16906020019091908035906020019091905050611856565b005b341561059757600080fd5b61059f611ac2565b005b34156105ac57600080fd5b6105d8600480803573ffffffffffffffffffffffffffffffffffffffff16906020019091905050611b78565b005b34156105e557600080fd5b610611600480803573ffffffffffffffffffffffffffffffffffffffff16906020019091905050611c83565b005b341561061e57600080fd5b610626611dff565b604051808215151515815260200191505060405180910390f35b341561064b57600080fd5b610653611e16565b6040518080602001828103825283818151815260200191508051906020019080838360005b83811015610693578082015181840152602081019050610678565b50505050905090810190601f1680156106c05780820380516001836020036101000a031916815260200191505b509250505060405180910390f35b34156106d957600080fd5b6106fa60048080359060200190820180359060200191909192905050611ebe565b005b341561070757600080fd5b610733600480803573ffffffffffffffffffffffffffffffffffffffff16906020019091905050612149565b005b341561074057600080fd5b610780600480803573ffffffffffffffffffffffffffffffffffffffff169060200190919080359060200190820180359060200191909192905050612254565b005b341561078d57600080fd5b6107b9600480803573ffffffffffffffffffffffffffffffffffffffff16906020019091905050612482565b005b34156107c657600080fd5b6107fb600480803573ffffffffffffffffffffffffffffffffffffffff16906020019091908035906020019091905050612610565b005b341561080857600080fd5b610848600480803573ffffffffffffffffffffffffffffffffffffffff169060200190919080359060200190820180359060200191909192905050612724565b005b341561085557600080fd5b61085d612952565b604051808273ffffffffffffffffffffffffffffffffffffffff1673ffffffffffffffffffffffffffffffffffffffff16815260200191505060405180910390f35b34156108aa57600080fd5b6108fc600480803573ffffffffffffffffffffffffffffffffffffffff16906020019091908035906020019091908035906020019091908035906020019082018035906020019190919290505061297c565b005b341561090957600080fd5b610911612af1565b604051808273ffffffffffffffffffffffffffffffffffffffff1673ffffffffffffffffffffffffffffffffffffffff16815260200191505060405180910390f35b341561095e57600080fd5b61098a600480803573ffffffffffffffffffffffffffffffffffffffff16906020019091905050612b1b565b005b341561099757600080fd5b6109c3600480803573ffffffffffffffffffffffffffffffffffffffff16906020019091905050612cf0565b604051808215151515815260200191505060405180910390f35b34156109e857600080fd5b610a1d600480803573ffffffffffffffffffffffffffffffffffffffff16906020019091908035906020019091905050612d84565b005b3415610a2a57600080fd5b610a32612ff0565b6040518082815260200191505060405180910390f35b3415610a5357600080fd5b610a5b612ffa565b60405180826000191660001916815260200191505060405180910390f35b3415610a8457600080fd5b610a8c61306a565b6040518082815260200191505060405180910390f35b3415610aad57600080fd5b610ab5613074565b005b3415610ac257600080fd5b610b12600480803590602001908201803590602001908080601f0160208091040260200160405190810160405280939291908181526020018383808284378201915050505050509190505061311d565b604051808273ffffffffffffffffffffffffffffffffffffffff1673ffffffffffffffffffffffffffffffffffffffff16815260200191505060405180910390f35b3415610b5f57600080fd5b610bb3600480803573ffffffffffffffffffffffffffffffffffffffff1690602001909190803573ffffffffffffffffffffffffffffffffffffffff1690602001909190803590602001909190505061328b565b005b3415610bc057600080fd5b610bc86132ac565b604051808273ffffffffffffffffffffffffffffffffffffffff1673ffffffffffffffffffffffffffffffffffffffff16815260200191505060405180910390f35b3415610c1557600080fd5b610c1d6132d6565b6040518082815260200191505060405180910390f35b3415610c3e57600080fd5b610c6a600480803573ffffffffffffffffffffffffffffffffffffffff1690602001909190505061336b565b005b3415610c7757600080fd5b610cac600480803573ffffffffffffffffffffffffffffffffffffffff16906020019091908035906020019091905050613577565b005b3415610cb957600080fd5b610d02600480803573ffffffffffffffffffffffffffffffffffffffff16906020019091908035906020019091908035906020019082018035906020019190919290505061368b565b005b3415610d0f57600080fd5b610d3b600480803573ffffffffffffffffffffffffffffffffffffffff169060200190919050506137f4565b604051808215151515815260200191505060405180910390f35b3415610d6057600080fd5b610d8c600480803573ffffffffffffffffffffffffffffffffffffffff16906020019091905050613885565b005b3415610d9957600080fd5b610de9600480803590602001908201803590602001908080601f01602080910402602001604051908101604052809392919081815260200183838082843782019150505050505091905050613a01565b604051808215151515815260200191505060405180910390f35b3415610e0e57600080fd5b610e62600480803573ffffffffffffffffffffffffffffffffffffffff1690602001909190803573ffffffffffffffffffffffffffffffffffffffff16906020019091908035906020019091905050613ad8565b005b3415610e6f57600080fd5b610eaf600480803573ffffffffffffffffffffffffffffffffffffffff169060200190919080359060200190820180359060200191909192905050613af9565b005b3415610ebc57600080fd5b610ec4613e6e565b604051808273ffffffffffffffffffffffffffffffffffffffff1673ffffffffffffffffffffffffffffffffffffffff16815260200191505060405180910390f35b3415610f1157600080fd5b610f19613e98565b005b3415610f2657600080fd5b610f52600480803573ffffffffffffffffffffffffffffffffffffffff16906020019091905050614101565b6040518082815260200191505060405180910390f35b600082600073ffffffffffffffffffffffffffffffffffffffff168173ffffffffffffffffffffffffffffffffffffffff1614151515610fa757600080fd5b826000815114151515610fb957600080fd5b600360008673ffffffffffffffffffffffffffffffffffffffff1673ffffffffffffffffffffffffffffffffffffffff16815260200190815260200160002060009054906101000a900460ff1680156110c45750600460008673ffffffffffffffffffffffffffffffffffffffff1673ffffffffffffffffffffffffffffffffffffffff168152602001908152602001600020846040518082805190602001908083835b602083101515611082578051825260208201915060208101905060208303925061105d565b6001836020036101000a038019825116818451168082178552505050505050905001915050908152602001604051809103902060009054906101000a900460ff165b9250505092915050565b60006110d8612af1565b73ffffffffffffffffffffffffffffffffffffffff16630af4187d84846000604051602001526040518363ffffffff167c0100000000000000000000000000000000000000000000000000000000028152600401808373ffffffffffffffffffffffffffffffffffffffff1673ffffffffffffffffffffffffffffffffffffffff1681526020018273ffffffffffffffffffffffffffffffffffffffff1673ffffffffffffffffffffffffffffffffffffffff16815260200192505050602060405180830381600087803b15156111ae57600080fd5b6102c65a03f115156111bf57600080fd5b50505060405180519050905092915050565b80600115156111df826141cf565b15151415156111ed57600080fd5b6040805190810160405280601181526020017f7365745f63727964725f73746f72616765000000000000000000000000000000815250600115156112313383610f68565b151514151561123f57600080fd5b6001151561124b611dff565b151514151561125957600080fd5b3073ffffffffffffffffffffffffffffffffffffffff168373ffffffffffffffffffffffffffffffffffffffff161415151561129457600080fd5b600560029054906101000a900473ffffffffffffffffffffffffffffffffffffffff1673ffffffffffffffffffffffffffffffffffffffff168373ffffffffffffffffffffffffffffffffffffffff16141515156112f157600080fd5b82600560026101000a81548173ffffffffffffffffffffffffffffffffffffffff021916908373ffffffffffffffffffffffffffffffffffffffff1602179055508273ffffffffffffffffffffffffffffffffffffffff167f252da09c88b02fec1dd57c3183573d05d69ae5da5ca0ce6e6eff3e35e9662fdf60405160405180910390a2505050565b6113868484848461421e565b61139784611392612ff0565b6144f0565b50505050565b60008073ffffffffffffffffffffffffffffffffffffffff16600260009054906101000a900473ffffffffffffffffffffffffffffffffffffffff1673ffffffffffffffffffffffffffffffffffffffff16141515156113fc57600080fd5b600160009054906101000a900473ffffffffffffffffffffffffffffffffffffffff1673ffffffffffffffffffffffffffffffffffffffff163373ffffffffffffffffffffffffffffffffffffffff1614806114a55750600260009054906101000a900473ffffffffffffffffffffffffffffffffffffffff1673ffffffffffffffffffffffffffffffffffffffff163373ffffffffffffffffffffffffffffffffffffffff16145b15156114b057600080fd5b600260009054906101000a900473ffffffffffffffffffffffffffffffffffffffff1690506000600260006101000a81548173ffffffffffffffffffffffffffffffffffffffff021916908373ffffffffffffffffffffffffffffffffffffffff1602179055508073ffffffffffffffffffffffffffffffffffffffff16600160009054906101000a900473ffffffffffffffffffffffffffffffffffffffff1673ffffffffffffffffffffffffffffffffffffffff167f223225995c0c0965e8752fd93ca10aba4bafcbca26f31b1565955adb68e76bda60405160405180910390a350565b6000600860009054906101000a900473ffffffffffffffffffffffffffffffffffffffff16905090565b6000600a54905090565b600082600073ffffffffffffffffffffffffffffffffffffffff168173ffffffffffffffffffffffffffffffffffffffff161415151561160957600080fd5b82600081511415151561161b57600080fd5b600460008673ffffffffffffffffffffffffffffffffffffffff1673ffffffffffffffffffffffffffffffffffffffff168152602001908152602001600020846040518082805190602001908083835b602083101515611690578051825260208201915060208101905060208303925061166b565b6001836020036101000a038019825116818451168082178552505050505050905001915050908152602001604051809103902060009054906101000a900460ff169250505092915050565b6040805190810160405280600d81526020017f7365745f6a6e745f7072696365000000000000000000000000000000000000008152506001151561171f3383610f68565b151514151561172d57600080fd5b60011515611739611dff565b151514151561174757600080fd5b600a548414158061175a5750600b548314155b806117675750600c548214155b151561177257600080fd5b83600a541415156117bc5783600a819055507facfb62a1138daae35c9492ac3ef729101cf4fc23491ca68eb1887c3931f5323e846040518082815260200191505060405180910390a15b82600b541415156118065782600b819055507fbc2dfd4700f869377d69b53ab3da073c4389aef7f9c835c220b0b57006ba0076836040518082815260200191505060405180910390a15b81600c541415156118505781600c819055507fee5d5e281939a079b5afd6733520d582237255542213fbe8af7b053037ddff91826040518082815260200191505060405180910390a15b50505050565b60001515611862611dff565b151514151561187057600080fd5b6040805190810160405280600a81526020017f6d696e745f637279647200000000000000000000000000000000000000000000815250600115156118b43383610f68565b15151415156118c257600080fd5b6118ca612af1565b73ffffffffffffffffffffffffffffffffffffffff16635b86f59984846040518363ffffffff167c0100000000000000000000000000000000000000000000000000000000028152600401808373ffffffffffffffffffffffffffffffffffffffff1673ffffffffffffffffffffffffffffffffffffffff16815260200182815260200192505050600060405180830381600087803b151561196b57600080fd5b6102c65a03f1151561197c57600080fd5b505050600115156119c16040805190810160405280600581526020017f6572633230000000000000000000000000000000000000000000000000000000815250613a01565b15151415611abd57611a076040805190810160405280600581526020017f657263323000000000000000000000000000000000000000000000000000000081525061311d565b73ffffffffffffffffffffffffffffffffffffffff1663958689d784846040518363ffffffff167c0100000000000000000000000000000000000000000000000000000000028152600401808373ffffffffffffffffffffffffffffffffffffffff1673ffffffffffffffffffffffffffffffffffffffff16815260200182815260200192505050600060405180830381600087803b1515611aa857600080fd5b6102c65a03f11515611ab957600080fd5b5050505b505050565b6040805190810160405280600e81526020017f70617573655f636f6e747261637400000000000000000000000000000000000081525060011515611b063383610f68565b1515141515611b1457600080fd5b60001515611b20611dff565b1515141515611b2e57600080fd5b6001600560006101000a81548160ff0219169083151502179055507f14cc32b2b0edca88201ca20553c392d108a2feb2c750a0ee14c707b4f34fbee260405160405180910390a150565b6040805190810160405280600f81526020017f756e626c6f636b5f6163636f756e74000000000000000000000000000000000081525060011515611bbc3383610f68565b1515141515611bca57600080fd5b611bd2612af1565b73ffffffffffffffffffffffffffffffffffffffff16634d78fdc6836040518263ffffffff167c0100000000000000000000000000000000000000000000000000000000028152600401808273ffffffffffffffffffffffffffffffffffffffff1673ffffffffffffffffffffffffffffffffffffffff168152602001915050600060405180830381600087803b1515611c6b57600080fd5b6102c65a03f11515611c7c57600080fd5b5050505050565b611c8b612952565b73ffffffffffffffffffffffffffffffffffffffff163373ffffffffffffffffffffffffffffffffffffffff16141515611cc457600080fd5b80600073ffffffffffffffffffffffffffffffffffffffff168173ffffffffffffffffffffffffffffffffffffffff1614151515611d0157600080fd5b60001515600360008473ffffffffffffffffffffffffffffffffffffffff1673ffffffffffffffffffffffffffffffffffffffff16815260200190815260200160002060009054906101000a900460ff161515141515611d6057600080fd5b6001600360008473ffffffffffffffffffffffffffffffffffffffff1673ffffffffffffffffffffffffffffffffffffffff16815260200190815260200160002060006101000a81548160ff0219169083151502179055508173ffffffffffffffffffffffffffffffffffffffff167f7f0b61f78ab0b549b68ce61404f4ee01a26ffdf8d421d099d271d789aaea3a8e60405160405180910390a25050565b6000600560009054906101000a900460ff16905090565b611e1e614e8b565b60008054600181600116156101000203166002900480601f016020809104026020016040519081016040528092919081815260200182805460018160011615610100020316600290048015611eb45780601f10611e8957610100808354040283529160200191611eb4565b820191906000526020600020905b815481529060010190602001808311611e9757829003601f168201915b5050505050905090565b600082828080601f01602080910402602001604051908101604052809392919081815260200183838082843782019150505050505060008151111515611f0357600080fd5b6040805190810160405280601181526020017f72656d6f76655f63727964725f7669657700000000000000000000000000000081525060011515611f473383610f68565b1515141515611f5557600080fd5b60011515611f61611dff565b1515141515611f6f57600080fd5b600073ffffffffffffffffffffffffffffffffffffffff166006868660405180838380828437820191505092505050908152602001604051809103902060009054906101000a900473ffffffffffffffffffffffffffffffffffffffff1673ffffffffffffffffffffffffffffffffffffffff1614151515611ff057600080fd5b6006858560405180838380828437820191505092505050908152602001604051809103902060009054906101000a900473ffffffffffffffffffffffffffffffffffffffff169250600073ffffffffffffffffffffffffffffffffffffffff166006868660405180838380828437820191505092505050908152602001604051809103902060009054906101000a905050506000600760008573ffffffffffffffffffffffffffffffffffffffff1673ffffffffffffffffffffffffffffffffffffffff16815260200190815260200160002060006101000a81548160ff0219169083151502179055508273ffffffffffffffffffffffffffffffffffffffff167f8b2ac9cdd5b81bdcecfa184f5383be60526a8213b64246dfa5024a3a3632f7358686604051808060200182810382528484828181526020019250808284378201915050935050505060405180910390a25050505050565b6040805190810160405280600d81526020017f626c6f636b5f6163636f756e74000000000000000000000000000000000000008152506001151561218d3383610f68565b151514151561219b57600080fd5b6121a3612af1565b73ffffffffffffffffffffffffffffffffffffffff16637c0a893d836040518263ffffffff167c0100000000000000000000000000000000000000000000000000000000028152600401808273ffffffffffffffffffffffffffffffffffffffff1673ffffffffffffffffffffffffffffffffffffffff168152602001915050600060405180830381600087803b151561223c57600080fd5b6102c65a03f1151561224d57600080fd5b5050505050565b61225c612952565b73ffffffffffffffffffffffffffffffffffffffff163373ffffffffffffffffffffffffffffffffffffffff1614151561229557600080fd5b82600073ffffffffffffffffffffffffffffffffffffffff168173ffffffffffffffffffffffffffffffffffffffff16141515156122d257600080fd5b82828080601f016020809104026020016040519081016040528093929190818152602001838380828437820191505050505050600081511415151561231657600080fd5b60011515600460008773ffffffffffffffffffffffffffffffffffffffff1673ffffffffffffffffffffffffffffffffffffffff168152602001908152602001600020858560405180838380828437820191505092505050908152602001604051809103902060009054906101000a900460ff16151514151561239857600080fd5b6000600460008773ffffffffffffffffffffffffffffffffffffffff1673ffffffffffffffffffffffffffffffffffffffff168152602001908152602001600020858560405180838380828437820191505092505050908152602001604051809103902060006101000a81548160ff0219169083151502179055508473ffffffffffffffffffffffffffffffffffffffff167fe2b13fa06e3428fe0e43b2e517d25708ba477cafdff4fbcd06e3e93864517ddc8585604051808060200182810382528484828181526020019250808284378201915050935050505060405180910390a25050505050565b8060011515612490826141cf565b151514151561249e57600080fd5b6040805190810160405280601281526020017f7365745f6a6e745f636f6e74726f6c6c65720000000000000000000000000000815250600115156124e23383610f68565b15151415156124f057600080fd5b600115156124fc611dff565b151514151561250a57600080fd5b600860009054906101000a900473ffffffffffffffffffffffffffffffffffffffff1673ffffffffffffffffffffffffffffffffffffffff168373ffffffffffffffffffffffffffffffffffffffff161415151561256757600080fd5b82600860006101000a81548173ffffffffffffffffffffffffffffffffffffffff021916908373ffffffffffffffffffffffffffffffffffffffff1602179055507fbc0c9683f9532136692cf8da566bb4c95e7181f306a5071816b35fb2fbb6234883604051808273ffffffffffffffffffffffffffffffffffffffff1673ffffffffffffffffffffffffffffffffffffffff16815260200191505060405180910390a1505050565b6040805190810160405280601581526020017f756e626c6f636b5f6163636f756e745f66756e64730000000000000000000000815250600115156126543383610f68565b151514151561266257600080fd5b61266a612af1565b73ffffffffffffffffffffffffffffffffffffffff16637fa8794984846040518363ffffffff167c0100000000000000000000000000000000000000000000000000000000028152600401808373ffffffffffffffffffffffffffffffffffffffff1673ffffffffffffffffffffffffffffffffffffffff16815260200182815260200192505050600060405180830381600087803b151561270b57600080fd5b6102c65a03f1151561271c57600080fd5b505050505050565b61272c612952565b73ffffffffffffffffffffffffffffffffffffffff163373ffffffffffffffffffffffffffffffffffffffff1614151561276557600080fd5b82600073ffffffffffffffffffffffffffffffffffffffff168173ffffffffffffffffffffffffffffffffffffffff16141515156127a257600080fd5b82828080601f01602080910402602001604051908101604052809392919081815260200183838082843782019150505050505060008151141515156127e657600080fd5b60001515600460008773ffffffffffffffffffffffffffffffffffffffff1673ffffffffffffffffffffffffffffffffffffffff168152602001908152602001600020858560405180838380828437820191505092505050908152602001604051809103902060009054906101000a900460ff16151514151561286857600080fd5b6001600460008773ffffffffffffffffffffffffffffffffffffffff1673ffffffffffffffffffffffffffffffffffffffff168152602001908152602001600020858560405180838380828437820191505092505050908152602001604051809103902060006101000a81548160ff0219169083151502179055508473ffffffffffffffffffffffffffffffffffffffff167fb76b4ee2621e0744da93fa797bdc4851a3b9e303b2950f2f234a449e5f36d35e8585604051808060200182810382528484828181526020019250808284378201915050935050505060405180910390a25050505050565b6000600160009054906101000a900473ffffffffffffffffffffffffffffffffffffffff16905090565b6040805190810160405280600c81526020017f657865637574655f63616c6c0000000000000000000000000000000000000000815250600115156129c03383610f68565b15151415156129ce57600080fd5b60001515600560019054906101000a900460ff1615151415156129f057600080fd5b6001600560016101000a81548160ff0219169083151502179055508573ffffffffffffffffffffffffffffffffffffffff168585858560405180838380828437820191505092505050600060405180830381858888f19350505050506000600560016101000a81548160ff0219169083151502179055508573ffffffffffffffffffffffffffffffffffffffff167f376185a1f1832ecd7ffd6a421a54d437594db00f80f6122e8534d19d978b65b686868686604051808383808284378201915050925050506040518091039020604051808481526020018381526020018260001916600019168152602001935050505060405180910390a2505050505050565b6000600560029054906101000a900473ffffffffffffffffffffffffffffffffffffffff16905090565b612b23612952565b73ffffffffffffffffffffffffffffffffffffffff163373ffffffffffffffffffffffffffffffffffffffff16141515612b5c57600080fd5b600073ffffffffffffffffffffffffffffffffffffffff16600260009054906101000a900473ffffffffffffffffffffffffffffffffffffffff1673ffffffffffffffffffffffffffffffffffffffff16141515612bb957600080fd5b600073ffffffffffffffffffffffffffffffffffffffff168173ffffffffffffffffffffffffffffffffffffffff1614151515612bf557600080fd5b3073ffffffffffffffffffffffffffffffffffffffff168173ffffffffffffffffffffffffffffffffffffffff1614151515612c3057600080fd5b80600260006101000a81548173ffffffffffffffffffffffffffffffffffffffff021916908373ffffffffffffffffffffffffffffffffffffffff1602179055508073ffffffffffffffffffffffffffffffffffffffff16600160009054906101000a900473ffffffffffffffffffffffffffffffffffffffff1673ffffffffffffffffffffffffffffffffffffffff167f0c5d18b25c2665dfeec8ea7956663ec48f079fdd04799ddd335f2fdce1a9fceb60405160405180910390a350565b600081600073ffffffffffffffffffffffffffffffffffffffff168173ffffffffffffffffffffffffffffffffffffffff1614151515612d2f57600080fd5b600360008473ffffffffffffffffffffffffffffffffffffffff1673ffffffffffffffffffffffffffffffffffffffff16815260200190815260200160002060009054906101000a900460ff16915050919050565b60001515612d90611dff565b1515141515612d9e57600080fd5b6040805190810160405280600a81526020017f6275726e5f63727964720000000000000000000000000000000000000000000081525060011515612de23383610f68565b1515141515612df057600080fd5b612df8612af1565b73ffffffffffffffffffffffffffffffffffffffff1663ff05694984846040518363ffffffff167c0100000000000000000000000000000000000000000000000000000000028152600401808373ffffffffffffffffffffffffffffffffffffffff1673ffffffffffffffffffffffffffffffffffffffff16815260200182815260200192505050600060405180830381600087803b1515612e9957600080fd5b6102c65a03f11515612eaa57600080fd5b50505060011515612eef6040805190810160405280600581526020017f6572633230000000000000000000000000000000000000000000000000000000815250613a01565b15151415612feb57612f356040805190810160405280600581526020017f657263323000000000000000000000000000000000000000000000000000000081525061311d565b73ffffffffffffffffffffffffffffffffffffffff1663ed810cfa84846040518363ffffffff167c0100000000000000000000000000000000000000000000000000000000028152600401808373ffffffffffffffffffffffffffffffffffffffff1673ffffffffffffffffffffffffffffffffffffffff16815260200182815260200192505050600060405180830381600087803b1515612fd657600080fd5b6102c65a03f11515612fe757600080fd5b5050505b505050565b6000600b54905090565b60008060405180828054600181600116156101000203166002900480156130585780601f10613036576101008083540402835291820191613058565b820191906000526020600020905b815481529060010190602001808311613044575b50509150506040518091039020905090565b6000600c54905090565b600860009054906101000a900473ffffffffffffffffffffffffffffffffffffffff16600115156130a4826141cf565b15151415156130b257600080fd5b600960009054906101000a900473ffffffffffffffffffffffffffffffffffffffff16600073ffffffffffffffffffffffffffffffffffffffff168173ffffffffffffffffffffffffffffffffffffffff161415151561311157600080fd5b61311961476b565b5050565b6000816000815111151561313057600080fd5b600073ffffffffffffffffffffffffffffffffffffffff166006846040518082805190602001908083835b602083101515613180578051825260208201915060208101905060208303925061315b565b6001836020036101000a038019825116818451168082178552505050505050905001915050908152602001604051809103902060009054906101000a900473ffffffffffffffffffffffffffffffffffffffff1673ffffffffffffffffffffffffffffffffffffffff16141515156131f757600080fd5b6006836040518082805190602001908083835b60208310151561322f578051825260208201915060208101905060208303925061320a565b6001836020036101000a038019825116818451168082178552505050505050905001915050908152602001604051809103902060009054906101000a900473ffffffffffffffffffffffffffffffffffffffff16915050919050565b613296838383614821565b6132a7836132a26115c0565b6144f0565b505050565b6000600960009054906101000a900473ffffffffffffffffffffffffffffffffffffffff16905090565b60006132e0612af1565b73ffffffffffffffffffffffffffffffffffffffff1663c4e41b226000604051602001526040518163ffffffff167c0100000000000000000000000000000000000000000000000000000000028152600401602060405180830381600087803b151561334b57600080fd5b6102c65a03f1151561335c57600080fd5b50505060405180519050905090565b80600073ffffffffffffffffffffffffffffffffffffffff168173ffffffffffffffffffffffffffffffffffffffff16141515156133a857600080fd5b6040805190810160405280601381526020017f7365745f6a6e745f62656e656669636961727900000000000000000000000000815250600115156133ec3383610f68565b15151415156133fa57600080fd5b60011515613406611dff565b151514151561341457600080fd5b600960009054906101000a900473ffffffffffffffffffffffffffffffffffffffff1673ffffffffffffffffffffffffffffffffffffffff168373ffffffffffffffffffffffffffffffffffffffff161415151561347157600080fd5b3073ffffffffffffffffffffffffffffffffffffffff168373ffffffffffffffffffffffffffffffffffffffff16141515156134ac57600080fd5b82600960006101000a81548173ffffffffffffffffffffffffffffffffffffffff021916908373ffffffffffffffffffffffffffffffffffffffff1602179055507f1ece313ac7706e8e41d52a3383f0415fe3f3062b92b49d194dcd1f1d15f3b1f3600960009054906101000a900473ffffffffffffffffffffffffffffffffffffffff16604051808273ffffffffffffffffffffffffffffffffffffffff1673ffffffffffffffffffffffffffffffffffffffff16815260200191505060405180910390a1505050565b6040805190810160405280601381526020017f626c6f636b5f6163636f756e745f66756e647300000000000000000000000000815250600115156135bb3383610f68565b15151415156135c957600080fd5b6135d1612af1565b73ffffffffffffffffffffffffffffffffffffffff1663c60c13a384846040518363ffffffff167c0100000000000000000000000000000000000000000000000000000000028152600401808373ffffffffffffffffffffffffffffffffffffffff1673ffffffffffffffffffffffffffffffffffffffff16815260200182815260200192505050600060405180830381600087803b151561367257600080fd5b6102c65a03f1151561368357600080fd5b505050505050565b6040805190810160405280601481526020017f657865637574655f64656c656761746563616c6c000000000000000000000000815250600115156136cf3383610f68565b15151415156136dd57600080fd5b60001515600560019054906101000a900460ff1615151415156136ff57600080fd5b6001600560016101000a81548160ff0219169083151502179055508473ffffffffffffffffffffffffffffffffffffffff16848484604051808383808284378201915050925050506000604051808303818686f492505050506000600560016101000a81548160ff0219169083151502179055508473ffffffffffffffffffffffffffffffffffffffff167ffd9a51b5876c403362d350caaea2a99618ed2c0b3eb601e0ab04606616e671888585856040518083838082843782019150509250505060405180910390206040518083815260200182600019166000191681526020019250505060405180910390a25050505050565b60008073ffffffffffffffffffffffffffffffffffffffff168273ffffffffffffffffffffffffffffffffffffffff161415151561383157600080fd5b600760008373ffffffffffffffffffffffffffffffffffffffff1673ffffffffffffffffffffffffffffffffffffffff16815260200190815260200160002060009054906101000a900460ff169050919050565b61388d612952565b73ffffffffffffffffffffffffffffffffffffffff163373ffffffffffffffffffffffffffffffffffffffff161415156138c657600080fd5b80600073ffffffffffffffffffffffffffffffffffffffff168173ffffffffffffffffffffffffffffffffffffffff161415151561390357600080fd5b60011515600360008473ffffffffffffffffffffffffffffffffffffffff1673ffffffffffffffffffffffffffffffffffffffff16815260200190815260200160002060009054906101000a900460ff16151514151561396257600080fd5b6000600360008473ffffffffffffffffffffffffffffffffffffffff1673ffffffffffffffffffffffffffffffffffffffff16815260200190815260200160002060006101000a81548160ff0219169083151502179055508173ffffffffffffffffffffffffffffffffffffffff167f91975e22df3ba360814d3153e8eaef17954cf47d52a42840fc9747ad1086b35160405160405180910390a25050565b60008160008151111515613a1457600080fd5b600073ffffffffffffffffffffffffffffffffffffffff166006846040518082805190602001908083835b602083101515613a645780518252602082019150602081019050602083039250613a3f565b6001836020036101000a038019825116818451168082178552505050505050905001915050908152602001604051809103902060009054906101000a900473ffffffffffffffffffffffffffffffffffffffff1673ffffffffffffffffffffffffffffffffffffffff161415915050919050565b613ae3838383614abe565b613af483613aef61306a565b6144f0565b505050565b6000808460011515613b0a826141cf565b1515141515613b1857600080fd5b84848080601f01602080910402602001604051908101604052809392919081815260200183838082843782019150505050505060008151111515613b5b57600080fd5b6040805190810160405280600e81526020017f7365745f63727964725f7669657700000000000000000000000000000000000081525060011515613b9f3383610f68565b1515141515613bad57600080fd5b60011515613bb9611dff565b1515141515613bc757600080fd5b3073ffffffffffffffffffffffffffffffffffffffff168873ffffffffffffffffffffffffffffffffffffffff1614151515613c0257600080fd5b600073ffffffffffffffffffffffffffffffffffffffff166006888860405180838380828437820191505092505050908152602001604051809103902060009054906101000a900473ffffffffffffffffffffffffffffffffffffffff1673ffffffffffffffffffffffffffffffffffffffff16141515613c8257600080fd5b8794508473ffffffffffffffffffffffffffffffffffffffff1663230f6e836000604051602001526040518163ffffffff167c0100000000000000000000000000000000000000000000000000000000028152600401602060405180830381600087803b1515613cf157600080fd5b6102c65a03f11515613d0257600080fd5b5050506040518051905093508686604051808383808284378201915050925050506040518091039020600019168460001916141515613d4057600080fd5b876006888860405180838380828437820191505092505050908152602001604051809103902060006101000a81548173ffffffffffffffffffffffffffffffffffffffff021916908373ffffffffffffffffffffffffffffffffffffffff1602179055506001600760008a73ffffffffffffffffffffffffffffffffffffffff1673ffffffffffffffffffffffffffffffffffffffff16815260200190815260200160002060006101000a81548160ff0219169083151502179055508773ffffffffffffffffffffffffffffffffffffffff167fcfadacbf7f27f22ba1af1974054b57d5f84c1081016cd355ada40f80c27d75248888604051808060200182810382528484828181526020019250808284378201915050935050505060405180910390a25050505050505050565b6000600260009054906101000a900473ffffffffffffffffffffffffffffffffffffffff16905090565b60008073ffffffffffffffffffffffffffffffffffffffff16600260009054906101000a900473ffffffffffffffffffffffffffffffffffffffff1673ffffffffffffffffffffffffffffffffffffffff1614151515613ef757600080fd5b600260009054906101000a900473ffffffffffffffffffffffffffffffffffffffff1673ffffffffffffffffffffffffffffffffffffffff163373ffffffffffffffffffffffffffffffffffffffff16141515613f5357600080fd5b600160009054906101000a900473ffffffffffffffffffffffffffffffffffffffff169050600260009054906101000a900473ffffffffffffffffffffffffffffffffffffffff16600160006101000a81548173ffffffffffffffffffffffffffffffffffffffff021916908373ffffffffffffffffffffffffffffffffffffffff1602179055506000600260006101000a81548173ffffffffffffffffffffffffffffffffffffffff021916908373ffffffffffffffffffffffffffffffffffffffff160217905550600160009054906101000a900473ffffffffffffffffffffffffffffffffffffffff1673ffffffffffffffffffffffffffffffffffffffff167f8d2a41ca5ff551a8f68510de75177b7d56e6019c8579b5509d2be1bb41a0d0af60405160405180910390a2600160009054906101000a900473ffffffffffffffffffffffffffffffffffffffff1673ffffffffffffffffffffffffffffffffffffffff168173ffffffffffffffffffffffffffffffffffffffff167f3912b3f6ff73ee5d4cd2894666c349dec2d3d2ed7dc6d35c28c5eabf105a88d860405160405180910390a350565b600061410b612af1565b73ffffffffffffffffffffffffffffffffffffffff1663f8b2cb4f836000604051602001526040518263ffffffff167c0100000000000000000000000000000000000000000000000000000000028152600401808273ffffffffffffffffffffffffffffffffffffffff1673ffffffffffffffffffffffffffffffffffffffff168152602001915050602060405180830381600087803b15156141ad57600080fd5b6102c65a03f115156141be57600080fd5b505050604051805190509050919050565b600080600073ffffffffffffffffffffffffffffffffffffffff168373ffffffffffffffffffffffffffffffffffffffff161415151561420e57600080fd5b823b905060008111915050919050565b6001151561422b336137f4565b151514151561423957600080fd5b60001515614245611dff565b151514151561425357600080fd5b61425b612af1565b73ffffffffffffffffffffffffffffffffffffffff166315dacbea858585856040518563ffffffff167c0100000000000000000000000000000000000000000000000000000000028152600401808573ffffffffffffffffffffffffffffffffffffffff1673ffffffffffffffffffffffffffffffffffffffff1681526020018473ffffffffffffffffffffffffffffffffffffffff1673ffffffffffffffffffffffffffffffffffffffff1681526020018373ffffffffffffffffffffffffffffffffffffffff1673ffffffffffffffffffffffffffffffffffffffff168152602001828152602001945050505050600060405180830381600087803b151561436457600080fd5b6102c65a03f1151561437557600080fd5b505050600115156143ba6040805190810160405280600581526020017f6572633230000000000000000000000000000000000000000000000000000000815250613a01565b151514156144ea576144006040805190810160405280600581526020017f657263323000000000000000000000000000000000000000000000000000000081525061311d565b73ffffffffffffffffffffffffffffffffffffffff1663a6d49dca8484846040518463ffffffff167c0100000000000000000000000000000000000000000000000000000000028152600401808473ffffffffffffffffffffffffffffffffffffffff1673ffffffffffffffffffffffffffffffffffffffff1681526020018373ffffffffffffffffffffffffffffffffffffffff1673ffffffffffffffffffffffffffffffffffffffff1681526020018281526020019350505050600060405180830381600087803b15156144d557600080fd5b6102c65a03f115156144e657600080fd5b5050505b50505050565b600015156144fc611dff565b151514151561450a57600080fd5b600073ffffffffffffffffffffffffffffffffffffffff168273ffffffffffffffffffffffffffffffffffffffff161415151561454657600080fd5b600960009054906101000a900473ffffffffffffffffffffffffffffffffffffffff1673ffffffffffffffffffffffffffffffffffffffff168273ffffffffffffffffffffffffffffffffffffffff16141515156145a357600080fd5b6000811115156145b257600080fd5b600860009054906101000a900473ffffffffffffffffffffffffffffffffffffffff1673ffffffffffffffffffffffffffffffffffffffff1663bed9d71283600960009054906101000a900473ffffffffffffffffffffffffffffffffffffffff16846040518463ffffffff167c0100000000000000000000000000000000000000000000000000000000028152600401808473ffffffffffffffffffffffffffffffffffffffff1673ffffffffffffffffffffffffffffffffffffffff1681526020018373ffffffffffffffffffffffffffffffffffffffff1673ffffffffffffffffffffffffffffffffffffffff1681526020018281526020019350505050600060405180830381600087803b15156146cc57600080fd5b6102c65a03f115156146dd57600080fd5b505050600960009054906101000a900473ffffffffffffffffffffffffffffffffffffffff1673ffffffffffffffffffffffffffffffffffffffff168273ffffffffffffffffffffffffffffffffffffffff167f7cf51d4b7f8c7cb0ee87b634a4d318a5588c17a702c690753155cc0a8231e09b836040518082815260200191505060405180910390a35050565b6040805190810160405280601081526020017f756e70617573655f636f6e747261637400000000000000000000000000000000815250600115156147af3383610f68565b15151415156147bd57600080fd5b600115156147c9611dff565b15151415156147d757600080fd5b6000600560006101000a81548160ff0219169083151502179055507f6249a5c797c884cbf33e63e8cfc250816032db24e22051de68a388315e64afc660405160405180910390a150565b6001151561482e336137f4565b151514151561483c57600080fd5b60001515614848611dff565b151514151561485657600080fd5b61485e612af1565b73ffffffffffffffffffffffffffffffffffffffff1663beabacc88484846040518463ffffffff167c0100000000000000000000000000000000000000000000000000000000028152600401808473ffffffffffffffffffffffffffffffffffffffff1673ffffffffffffffffffffffffffffffffffffffff1681526020018373ffffffffffffffffffffffffffffffffffffffff1673ffffffffffffffffffffffffffffffffffffffff1681526020018281526020019350505050600060405180830381600087803b151561493357600080fd5b6102c65a03f1151561494457600080fd5b505050600115156149896040805190810160405280600581526020017f6572633230000000000000000000000000000000000000000000000000000000815250613a01565b15151415614ab9576149cf6040805190810160405280600581526020017f657263323000000000000000000000000000000000000000000000000000000081525061311d565b73ffffffffffffffffffffffffffffffffffffffff1663a6d49dca8484846040518463ffffffff167c0100000000000000000000000000000000000000000000000000000000028152600401808473ffffffffffffffffffffffffffffffffffffffff1673ffffffffffffffffffffffffffffffffffffffff1681526020018373ffffffffffffffffffffffffffffffffffffffff1673ffffffffffffffffffffffffffffffffffffffff1681526020018281526020019350505050600060405180830381600087803b1515614aa457600080fd5b6102c65a03f11515614ab557600080fd5b5050505b505050565b600060011515614acd336137f4565b1515141515614adb57600080fd5b60001515614ae7611dff565b1515141515614af557600080fd5b614afd612af1565b73ffffffffffffffffffffffffffffffffffffffff16630af4187d85856000604051602001526040518363ffffffff167c0100000000000000000000000000000000000000000000000000000000028152600401808373ffffffffffffffffffffffffffffffffffffffff1673ffffffffffffffffffffffffffffffffffffffff1681526020018273ffffffffffffffffffffffffffffffffffffffff1673ffffffffffffffffffffffffffffffffffffffff16815260200192505050602060405180830381600087803b1515614bd357600080fd5b6102c65a03f11515614be457600080fd5b505050604051805190509050600081118015614c005750600082145b80614c175750600081148015614c165750600082115b5b1515614c2257600080fd5b614c2a612af1565b73ffffffffffffffffffffffffffffffffffffffff1663e1f21c678585856040518463ffffffff167c0100000000000000000000000000000000000000000000000000000000028152600401808473ffffffffffffffffffffffffffffffffffffffff1673ffffffffffffffffffffffffffffffffffffffff1681526020018373ffffffffffffffffffffffffffffffffffffffff1673ffffffffffffffffffffffffffffffffffffffff1681526020018281526020019350505050600060405180830381600087803b1515614cff57600080fd5b6102c65a03f11515614d1057600080fd5b50505060011515614d556040805190810160405280600581526020017f6572633230000000000000000000000000000000000000000000000000000000815250613a01565b15151415614e8557614d9b6040805190810160405280600581526020017f657263323000000000000000000000000000000000000000000000000000000081525061311d565b73ffffffffffffffffffffffffffffffffffffffff1663f23b6fa28585856040518463ffffffff167c0100000000000000000000000000000000000000000000000000000000028152600401808473ffffffffffffffffffffffffffffffffffffffff1673ffffffffffffffffffffffffffffffffffffffff1681526020018373ffffffffffffffffffffffffffffffffffffffff1673ffffffffffffffffffffffffffffffffffffffff1681526020018281526020019350505050600060405180830381600087803b1515614e7057600080fd5b6102c65a03f11515614e8157600080fd5b5050505b50505050565b6020604051908101604052806000815250905600a165627a7a7230582019d704d3ab70d57dd4c783df440ee5396c245fdda07c6df06224da3ffd429f9d0029",
  "source": "/* Author: Victor Mezrin  victor@mezrin.com */\n\npragma solidity ^0.4.18;\n\n\nimport '../../crydr/asset/JCashCrydrController.sol';\n\n\ncontract jUSDController is JCashCrydrController {\n  function jUSDController() public JCashCrydrController('jUSD') {}\n}\n",
  "sourcePath": "/home/user/dev/project/jibrel/jibrel-contracts/contracts/asset/jUSD/jUSDController.sol",
  "compiler": {
    "name": "solc",
    "version": "0.4.18+commit.9cf6e910.Emscripten.clang"
  },
  "schemaVersion": "1.0.1",
  "updatedAt": "2017-12-15T00:13:01.044Z"
}