{
  "contractName": "ManageableMock",
  "abi": [
    {
      "constant": true,
      "inputs": [
        {
          "name": "_manager",
          "type": "address"
        },
        {
          "name": "_permissionName",
          "type": "string"
        }
      ],
      "name": "isManagerAllowed",
      "outputs": [
        {
          "name": "",
          "type": "bool"
        }
      ],
      "payable": false,
      "stateMutability": "view",
      "type": "function"
    },
    {
      "constant": false,
      "inputs": [],
      "name": "cancelOwnershipOffer",
      "outputs": [],
      "payable": false,
      "stateMutability": "nonpayable",
      "type": "function"
    },
    {
      "constant": true,
      "inputs": [
        {
          "name": "_manager",
          "type": "address"
        },
        {
          "name": "_permissionName",
          "type": "string"
        }
      ],
      "name": "isPermissionGranted",
      "outputs": [
        {
          "name": "",
          "type": "bool"
        }
      ],
      "payable": false,
      "stateMutability": "view",
      "type": "function"
    },
    {
      "constant": false,
      "inputs": [
        {
          "name": "_manager",
          "type": "address"
        }
      ],
      "name": "enableManager",
      "outputs": [],
      "payable": false,
      "stateMutability": "nonpayable",
      "type": "function"
    },
    {
      "constant": false,
      "inputs": [
        {
          "name": "_manager",
          "type": "address"
        },
        {
          "name": "_permissionName",
          "type": "string"
        }
      ],
      "name": "revokeManagerPermission",
      "outputs": [],
      "payable": false,
      "stateMutability": "nonpayable",
      "type": "function"
    },
    {
      "constant": false,
      "inputs": [
        {
          "name": "_manager",
          "type": "address"
        },
        {
          "name": "_permissionName",
          "type": "string"
        }
      ],
      "name": "grantManagerPermission",
      "outputs": [],
      "payable": false,
      "stateMutability": "nonpayable",
      "type": "function"
    },
    {
      "constant": true,
      "inputs": [],
      "name": "getOwner",
      "outputs": [
        {
          "name": "",
          "type": "address"
        }
      ],
      "payable": false,
      "stateMutability": "view",
      "type": "function"
    },
    {
      "constant": false,
      "inputs": [
        {
          "name": "_proposedOwner",
          "type": "address"
        }
      ],
      "name": "createOwnershipOffer",
      "outputs": [],
      "payable": false,
      "stateMutability": "nonpayable",
      "type": "function"
    },
    {
      "constant": true,
      "inputs": [
        {
          "name": "_manager",
          "type": "address"
        }
      ],
      "name": "isManagerEnabled",
      "outputs": [
        {
          "name": "",
          "type": "bool"
        }
      ],
      "payable": false,
      "stateMutability": "view",
      "type": "function"
    },
    {
      "constant": false,
      "inputs": [
        {
          "name": "_manager",
          "type": "address"
        }
      ],
      "name": "disableManager",
      "outputs": [],
      "payable": false,
      "stateMutability": "nonpayable",
      "type": "function"
    },
    {
      "constant": true,
      "inputs": [],
      "name": "getProposedOwner",
      "outputs": [
        {
          "name": "",
          "type": "address"
        }
      ],
      "payable": false,
      "stateMutability": "view",
      "type": "function"
    },
    {
      "constant": false,
      "inputs": [],
      "name": "acceptOwnershipOffer",
      "outputs": [],
      "payable": false,
      "stateMutability": "nonpayable",
      "type": "function"
    },
    {
      "anonymous": false,
      "inputs": [
        {
          "indexed": true,
          "name": "manager",
          "type": "address"
        }
      ],
      "name": "ManagerEnabledEvent",
      "type": "event"
    },
    {
      "anonymous": false,
      "inputs": [
        {
          "indexed": true,
          "name": "manager",
          "type": "address"
        }
      ],
      "name": "ManagerDisabledEvent",
      "type": "event"
    },
    {
      "anonymous": false,
      "inputs": [
        {
          "indexed": true,
          "name": "manager",
          "type": "address"
        },
        {
          "indexed": false,
          "name": "permission",
          "type": "string"
        }
      ],
      "name": "ManagerPermissionGrantedEvent",
      "type": "event"
    },
    {
      "anonymous": false,
      "inputs": [
        {
          "indexed": true,
          "name": "manager",
          "type": "address"
        },
        {
          "indexed": false,
          "name": "permission",
          "type": "string"
        }
      ],
      "name": "ManagerPermissionRevokedEvent",
      "type": "event"
    },
    {
      "anonymous": false,
      "inputs": [
        {
          "indexed": true,
          "name": "newowner",
          "type": "address"
        }
      ],
      "name": "OwnerAssignedEvent",
      "type": "event"
    },
    {
      "anonymous": false,
      "inputs": [
        {
          "indexed": true,
          "name": "currentowner",
          "type": "address"
        },
        {
          "indexed": true,
          "name": "proposedowner",
          "type": "address"
        }
      ],
      "name": "OwnershipOfferCreatedEvent",
      "type": "event"
    },
    {
      "anonymous": false,
      "inputs": [
        {
          "indexed": true,
          "name": "currentowner",
          "type": "address"
        },
        {
          "indexed": true,
          "name": "proposedowner",
          "type": "address"
        }
      ],
      "name": "OwnershipOfferAcceptedEvent",
      "type": "event"
    },
    {
      "anonymous": false,
      "inputs": [
        {
          "indexed": true,
          "name": "currentowner",
          "type": "address"
        },
        {
          "indexed": true,
          "name": "proposedowner",
          "type": "address"
        }
      ],
      "name": "OwnershipOfferCancelledEvent",
      "type": "event"
    }
  ],
  "bytecode": "0x606060409081526000805460018054600160a060020a031990811690915516600160a060020a03338116919091179182905516907f8d2a41ca5ff551a8f68510de75177b7d56e6019c8579b5509d2be1bb41a0d0af905160405180910390a2610b518061006d6000396000f3006060604052600436106100b95763ffffffff7c01000000000000000000000000000000000000000000000000000000006000350416630392d2b481146100be5780631eb96a5c1461013157806332a2fda7146101465780635ca5b334146101a55780637c0efb8b146101c4578063822b08d0146101ef578063893d20e81461021a5780639739db9d146102495780639b53d87c14610268578063d4859dc514610287578063eae5a62d146102a6578063f5385345146102b9575b600080fd5b34156100c957600080fd5b61011d60048035600160a060020a03169060446024803590810190830135806020601f820181900481020160405190810160405281815292919060208401838380828437509496506102cc95505050505050565b604051901515815260200160405180910390f35b341561013c57600080fd5b6101446103a1565b005b341561015157600080fd5b61011d60048035600160a060020a03169060446024803590810190830135806020601f8201819004810201604051908101604052818152929190602084018383808284375094965061045295505050505050565b34156101b057600080fd5b610144600160a060020a03600435166104c1565b34156101cf57600080fd5b61014460048035600160a060020a03169060248035908101910135610578565b34156101fa57600080fd5b61014460048035600160a060020a031690602480359081019101356106ee565b341561022557600080fd5b61022d610863565b604051600160a060020a03909116815260200160405180910390f35b341561025457600080fd5b610144600160a060020a0360043516610872565b341561027357600080fd5b61011d600160a060020a0360043516610946565b341561029257600080fd5b610144600160a060020a036004351661097e565b34156102b157600080fd5b61022d610a36565b34156102c457600080fd5b610144610a45565b600082600160a060020a03811615156102e457600080fd5b82805115156102f257600080fd5b600160a060020a03851660009081526002602052604090205460ff1680156103985750600160a060020a03851660009081526003602052604090819020908590518082805190602001908083835b6020831061035f5780518252601f199092019160209182019101610340565b6001836020036101000a0380198251168184511680821785525050505050509050019150509081526020016040519081900390205460ff165b95945050505050565b600154600090600160a060020a031615156103bb57600080fd5b60005433600160a060020a03908116911614806103e6575060015433600160a060020a039081169116145b15156103f157600080fd5b506001805473ffffffffffffffffffffffffffffffffffffffff198116909155600054600160a060020a03918216918291167f223225995c0c0965e8752fd93ca10aba4bafcbca26f31b1565955adb68e76bda60405160405180910390a350565b600082600160a060020a038116151561046a57600080fd5b828051151561047857600080fd5b600160a060020a03851660009081526003602052604090819020908590518082805190602001908083836020831061035f5780518252601f199092019160209182019101610340565b6104c9610863565b600160a060020a031633600160a060020a03161415156104e857600080fd5b80600160a060020a03811615156104fe57600080fd5b600160a060020a03821660009081526002602052604090205460ff161561052457600080fd5b600160a060020a03821660008181526002602052604090819020805460ff191660011790557f7f0b61f78ab0b549b68ce61404f4ee01a26ffdf8d421d099d271d789aaea3a8e905160405180910390a25050565b610580610863565b600160a060020a031633600160a060020a031614151561059f57600080fd5b82600160a060020a03811615156105b557600080fd5b82828080601f016020809104026020016040519081016040528181529291906020840183838082843750859450505050505115156105f257600080fd5b600160a060020a03851660009081526003602052604090819020908590859051808383808284378201915050925050509081526020016040519081900390205460ff16151560011461064357600080fd5b600160a060020a03851660009081526003602052604080822090869086905180838380828437820191505092505050908152602001604051908190039020805460ff1916911515919091179055600160a060020a0385167fe2b13fa06e3428fe0e43b2e517d25708ba477cafdff4fbcd06e3e93864517ddc85856040516020808252810182905280604081018484808284378201915050935050505060405180910390a25050505050565b6106f6610863565b600160a060020a031633600160a060020a031614151561071557600080fd5b82600160a060020a038116151561072b57600080fd5b82828080601f0160208091040260200160405190810160405281815292919060208401838380828437508594505050505051151561076857600080fd5b600160a060020a03851660009081526003602052604090819020908590859051808383808284378201915050925050509081526020016040519081900390205460ff16156107b557600080fd5b600160a060020a03851660009081526003602052604090819020600191869086905180838380828437820191505092505050908152602001604051908190039020805460ff1916911515919091179055600160a060020a0385167fb76b4ee2621e0744da93fa797bdc4851a3b9e303b2950f2f234a449e5f36d35e85856040516020808252810182905280604081018484808284378201915050935050505060405180910390a25050505050565b600054600160a060020a031690565b61087a610863565b600160a060020a031633600160a060020a031614151561089957600080fd5b600154600160a060020a0316156108af57600080fd5b600160a060020a03811615156108c457600080fd5b30600160a060020a031681600160a060020a0316141515156108e557600080fd5b6001805473ffffffffffffffffffffffffffffffffffffffff1916600160a060020a038381169182179092556000549091167f0c5d18b25c2665dfeec8ea7956663ec48f079fdd04799ddd335f2fdce1a9fceb60405160405180910390a350565b600081600160a060020a038116151561095e57600080fd5b5050600160a060020a031660009081526002602052604090205460ff1690565b610986610863565b600160a060020a031633600160a060020a03161415156109a557600080fd5b80600160a060020a03811615156109bb57600080fd5b600160a060020a03821660009081526002602052604090205460ff1615156001146109e557600080fd5b600160a060020a03821660008181526002602052604090819020805460ff191690557f91975e22df3ba360814d3153e8eaef17954cf47d52a42840fc9747ad1086b351905160405180910390a25050565b600154600160a060020a031690565b600154600090600160a060020a03161515610a5f57600080fd5b60015433600160a060020a03908116911614610a7a57600080fd5b50600080546001805473ffffffffffffffffffffffffffffffffffffffff19808416600160a060020a038381169190911795869055911690915590811691167f8d2a41ca5ff551a8f68510de75177b7d56e6019c8579b5509d2be1bb41a0d0af60405160405180910390a2600054600160a060020a039081169082167f3912b3f6ff73ee5d4cd2894666c349dec2d3d2ed7dc6d35c28c5eabf105a88d860405160405180910390a3505600a165627a7a723058209f11114ca1f4518f5dcfdfc99f6892557c619649ff6eb331eba15df5854448de0029",
  "source": "/* Author: Victor Mezrin  victor@mezrin.com */\n\npragma solidity ^0.4.18;\n\n\nimport '../lifecycle/Ownable.sol';\nimport '../lifecycle/Manageable.sol';\n\n\ncontract ManageableMock is Ownable, Manageable { }\n",
  "sourcePath": "/home/user/dev/project/jibrel/jibrel-contracts_ropsten/contracts/unittest/ManageableMock.sol",
  "compiler": {
    "name": "solc",
    "version": "0.4.18+commit.9cf6e910.Emscripten.clang"
  },
  "schemaVersion": "1.0.1",
  "updatedAt": "2017-12-15T09:35:42.160Z"
}