{
  "contractName": "Migrations",
  "abi": [
    {
      "constant": false,
      "inputs": [
        {
          "name": "_newAddress",
          "type": "address"
        }
      ],
      "name": "upgrade",
      "outputs": [],
      "payable": false,
      "stateMutability": "nonpayable",
      "type": "function"
    },
    {
      "constant": true,
      "inputs": [],
      "name": "getLastCompletedMigration",
      "outputs": [
        {
          "name": "",
          "type": "uint256"
        }
      ],
      "payable": false,
      "stateMutability": "view",
      "type": "function"
    },
    {
      "constant": true,
      "inputs": [],
      "name": "getOwner",
      "outputs": [
        {
          "name": "",
          "type": "address"
        }
      ],
      "payable": false,
      "stateMutability": "view",
      "type": "function"
    },
    {
      "constant": false,
      "inputs": [
        {
          "name": "_completed",
          "type": "uint256"
        }
      ],
      "name": "setCompleted",
      "outputs": [],
      "payable": false,
      "stateMutability": "nonpayable",
      "type": "function"
    },
    {
      "inputs": [],
      "payable": false,
      "stateMutability": "nonpayable",
      "type": "constructor"
    }
  ],
  "bytecode": "0x6060604052341561000f57600080fd5b60008054600160a060020a033316600160a060020a03199091161790556101e78061003b6000396000f3006060604052600436106100615763ffffffff7c01000000000000000000000000000000000000000000000000000000006000350416630900f010811461006657806317921d5714610087578063893d20e8146100ac578063fdacd576146100db575b600080fd5b341561007157600080fd5b610085600160a060020a03600435166100f1565b005b341561009257600080fd5b61009a610186565b60405190815260200160405180910390f35b34156100b757600080fd5b6100bf61018c565b604051600160a060020a03909116815260200160405180910390f35b34156100e657600080fd5b61008560043561019b565b6000805433600160a060020a03908116911614156101825781905080600160a060020a031663fdacd5766001546040517c010000000000000000000000000000000000000000000000000000000063ffffffff84160281526004810191909152602401600060405180830381600087803b151561016d57600080fd5b6102c65a03f1151561017e57600080fd5b5050505b5050565b60015490565b600054600160a060020a031690565b60005433600160a060020a03908116911614156101b85760018190555b505600a165627a7a723058200f42361587e0e0c0cedfdc301e63221014bc679f2951268cb8c6622e7f26ab340029",
  "source": "pragma solidity ^0.4.18;\n\ncontract Migrations {\n  address owner;\n  uint256 last_completed_migration;\n\n  modifier restricted() {\n    if (msg.sender == owner) _;\n  }\n\n  function Migrations() public {\n    owner = msg.sender;\n  }\n\n  function setCompleted(uint256 _completed) public restricted {\n    last_completed_migration = _completed;\n  }\n\n  function upgrade(address _newAddress) public restricted {\n    Migrations upgraded = Migrations(_newAddress);\n    upgraded.setCompleted(last_completed_migration);\n  }\n\n  function getOwner() public constant returns (address) {\n    return owner;\n  }\n\n  function getLastCompletedMigration() public constant returns (uint256) {\n    return last_completed_migration;\n  }\n}\n",
  "sourcePath": "/home/user/dev/project/jibrel/jibrel-contracts/contracts/Migrations.sol",
  "compiler": {
    "name": "solc",
    "version": "0.4.18+commit.9cf6e910.Emscripten.clang"
  },
  "schemaVersion": "1.0.1",
  "updatedAt": "2017-12-17T22:16:40.546Z"
}