{
  "contractName": "Ownable",
  "abi": [
    {
      "constant": false,
      "inputs": [],
      "name": "cancelOwnershipOffer",
      "outputs": [],
      "payable": false,
      "stateMutability": "nonpayable",
      "type": "function"
    },
    {
      "constant": true,
      "inputs": [],
      "name": "getOwner",
      "outputs": [
        {
          "name": "",
          "type": "address"
        }
      ],
      "payable": false,
      "stateMutability": "view",
      "type": "function"
    },
    {
      "constant": false,
      "inputs": [
        {
          "name": "_proposedOwner",
          "type": "address"
        }
      ],
      "name": "createOwnershipOffer",
      "outputs": [],
      "payable": false,
      "stateMutability": "nonpayable",
      "type": "function"
    },
    {
      "constant": true,
      "inputs": [],
      "name": "getProposedOwner",
      "outputs": [
        {
          "name": "",
          "type": "address"
        }
      ],
      "payable": false,
      "stateMutability": "view",
      "type": "function"
    },
    {
      "constant": false,
      "inputs": [],
      "name": "acceptOwnershipOffer",
      "outputs": [],
      "payable": false,
      "stateMutability": "nonpayable",
      "type": "function"
    },
    {
      "inputs": [],
      "payable": false,
      "stateMutability": "nonpayable",
      "type": "constructor"
    },
    {
      "anonymous": false,
      "inputs": [
        {
          "indexed": true,
          "name": "newowner",
          "type": "address"
        }
      ],
      "name": "OwnerAssignedEvent",
      "type": "event"
    },
    {
      "anonymous": false,
      "inputs": [
        {
          "indexed": true,
          "name": "currentowner",
          "type": "address"
        },
        {
          "indexed": true,
          "name": "proposedowner",
          "type": "address"
        }
      ],
      "name": "OwnershipOfferCreatedEvent",
      "type": "event"
    },
    {
      "anonymous": false,
      "inputs": [
        {
          "indexed": true,
          "name": "currentowner",
          "type": "address"
        },
        {
          "indexed": true,
          "name": "proposedowner",
          "type": "address"
        }
      ],
      "name": "OwnershipOfferAcceptedEvent",
      "type": "event"
    },
    {
      "anonymous": false,
      "inputs": [
        {
          "indexed": true,
          "name": "currentowner",
          "type": "address"
        },
        {
          "indexed": true,
          "name": "proposedowner",
          "type": "address"
        }
      ],
      "name": "OwnershipOfferCancelledEvent",
      "type": "event"
    }
  ],
  "bytecode": "0x606060405260008054600160a060020a0319908116909155600180549091169055341561002b57600080fd5b60008054600160a060020a03191633600160a060020a039081169190911791829055167f8d2a41ca5ff551a8f68510de75177b7d56e6019c8579b5509d2be1bb41a0d0af60405160405180910390a26103a9806100896000396000f30060606040526004361061006c5763ffffffff7c01000000000000000000000000000000000000000000000000000000006000350416631eb96a5c8114610071578063893d20e8146100865780639739db9d146100b5578063eae5a62d146100d4578063f5385345146100e7575b600080fd5b341561007c57600080fd5b6100846100fa565b005b341561009157600080fd5b6100996101ab565b604051600160a060020a03909116815260200160405180910390f35b34156100c057600080fd5b610084600160a060020a03600435166101ba565b34156100df57600080fd5b61009961028e565b34156100f257600080fd5b61008461029d565b600154600090600160a060020a0316151561011457600080fd5b60005433600160a060020a039081169116148061013f575060015433600160a060020a039081169116145b151561014a57600080fd5b506001805473ffffffffffffffffffffffffffffffffffffffff198116909155600054600160a060020a03918216918291167f223225995c0c0965e8752fd93ca10aba4bafcbca26f31b1565955adb68e76bda60405160405180910390a350565b600054600160a060020a031690565b6101c26101ab565b600160a060020a031633600160a060020a03161415156101e157600080fd5b600154600160a060020a0316156101f757600080fd5b600160a060020a038116151561020c57600080fd5b30600160a060020a031681600160a060020a03161415151561022d57600080fd5b6001805473ffffffffffffffffffffffffffffffffffffffff1916600160a060020a038381169182179092556000549091167f0c5d18b25c2665dfeec8ea7956663ec48f079fdd04799ddd335f2fdce1a9fceb60405160405180910390a350565b600154600160a060020a031690565b600154600090600160a060020a031615156102b757600080fd5b60015433600160a060020a039081169116146102d257600080fd5b50600080546001805473ffffffffffffffffffffffffffffffffffffffff19808416600160a060020a038381169190911795869055911690915590811691167f8d2a41ca5ff551a8f68510de75177b7d56e6019c8579b5509d2be1bb41a0d0af60405160405180910390a2600054600160a060020a039081169082167f3912b3f6ff73ee5d4cd2894666c349dec2d3d2ed7dc6d35c28c5eabf105a88d860405160405180910390a3505600a165627a7a72305820c81f0002a2cd6dd1b3115fa4098c19285a092574ccd4dd3cdf5adaf0fa69ff710029",
  "source": "/* Author: Victor Mezrin  victor@mezrin.com */\n\npragma solidity ^0.4.18;\n\nimport './OwnableInterface.sol';\n\n\n/**\n * @title Ownable\n * @dev The Ownable contract has an owner address, and provides basic authorization control\n * functions, this simplifies the implementation of \"user permissions\".\n */\ncontract Ownable is OwnableInterface {\n\n  /* Storage */\n\n  address owner = address(0x0);\n  address proposedOwner = address(0x0);\n\n\n  /* Events */\n\n  event OwnerAssignedEvent(address indexed newowner);\n  event OwnershipOfferCreatedEvent(address indexed currentowner, address indexed proposedowner);\n  event OwnershipOfferAcceptedEvent(address indexed currentowner, address indexed proposedowner);\n  event OwnershipOfferCancelledEvent(address indexed currentowner, address indexed proposedowner);\n\n\n  /**\n   * @dev The constructor sets the initial `owner` to the passed account.\n   */\n  function Ownable() public {\n    owner = msg.sender;\n\n    OwnerAssignedEvent(owner);\n  }\n\n\n  /**\n   * @dev Old owner requests transfer ownership to the new owner.\n   * @param _proposedOwner The address to transfer ownership to.\n   */\n  function createOwnershipOffer(address _proposedOwner) external onlyOwner {\n    require (proposedOwner == address(0x0));\n    require (_proposedOwner != address(0x0));\n    require (_proposedOwner != address(this));\n\n    proposedOwner = _proposedOwner;\n\n    OwnershipOfferCreatedEvent(owner, _proposedOwner);\n  }\n\n\n  /**\n   * @dev Allows the new owner to accept an ownership offer to contract control.\n   */\n  //noinspection UnprotectedFunction\n  function acceptOwnershipOffer() external {\n    require (proposedOwner != address(0x0));\n    require (msg.sender == proposedOwner);\n\n    address _oldOwner = owner;\n    owner = proposedOwner;\n    proposedOwner = address(0x0);\n\n    OwnerAssignedEvent(owner);\n    OwnershipOfferAcceptedEvent(_oldOwner, owner);\n  }\n\n\n  /**\n   * @dev Old owner cancels transfer ownership to the new owner.\n   */\n  function cancelOwnershipOffer() external {\n    require (proposedOwner != address(0x0));\n    require (msg.sender == owner || msg.sender == proposedOwner);\n\n    address _oldProposedOwner = proposedOwner;\n    proposedOwner = address(0x0);\n\n    OwnershipOfferCancelledEvent(owner, _oldProposedOwner);\n  }\n\n\n  /**\n   * @dev The getter for \"owner\" contract variable\n   */\n  function getOwner() public constant returns (address) {\n    return owner;\n  }\n\n  /**\n   * @dev The getter for \"proposedOwner\" contract variable\n   */\n  function getProposedOwner() public constant returns (address) {\n    return proposedOwner;\n  }\n}\n",
  "sourcePath": "/home/user/dev/project/jibrel/jibrel-contracts/contracts/lifecycle/Ownable.sol",
  "compiler": {
    "name": "solc",
    "version": "0.4.18+commit.9cf6e910.Emscripten.clang"
  },
  "schemaVersion": "1.0.1",
  "updatedAt": "2017-12-17T22:16:40.560Z"
}