{
  "contractName": "Ownable",
  "abi": [
    {
      "inputs": [],
      "payable": false,
      "stateMutability": "nonpayable",
      "type": "constructor"
    },
    {
      "anonymous": false,
      "inputs": [
        {
          "indexed": true,
          "name": "newowner",
          "type": "address"
        }
      ],
      "name": "OwnerAssignedEvent",
      "type": "event"
    },
    {
      "anonymous": false,
      "inputs": [
        {
          "indexed": true,
          "name": "currentowner",
          "type": "address"
        },
        {
          "indexed": true,
          "name": "proposedowner",
          "type": "address"
        }
      ],
      "name": "OwnershipOfferCreatedEvent",
      "type": "event"
    },
    {
      "anonymous": false,
      "inputs": [
        {
          "indexed": true,
          "name": "currentowner",
          "type": "address"
        },
        {
          "indexed": true,
          "name": "proposedowner",
          "type": "address"
        }
      ],
      "name": "OwnershipOfferAcceptedEvent",
      "type": "event"
    },
    {
      "anonymous": false,
      "inputs": [
        {
          "indexed": true,
          "name": "currentowner",
          "type": "address"
        },
        {
          "indexed": true,
          "name": "proposedowner",
          "type": "address"
        }
      ],
      "name": "OwnershipOfferCancelledEvent",
      "type": "event"
    },
    {
      "constant": false,
      "inputs": [
        {
          "name": "_proposedOwner",
          "type": "address"
        }
      ],
      "name": "createOwnershipOffer",
      "outputs": [],
      "payable": false,
      "stateMutability": "nonpayable",
      "type": "function"
    },
    {
      "constant": false,
      "inputs": [],
      "name": "acceptOwnershipOffer",
      "outputs": [],
      "payable": false,
      "stateMutability": "nonpayable",
      "type": "function"
    },
    {
      "constant": false,
      "inputs": [],
      "name": "cancelOwnershipOffer",
      "outputs": [],
      "payable": false,
      "stateMutability": "nonpayable",
      "type": "function"
    },
    {
      "constant": true,
      "inputs": [],
      "name": "getOwner",
      "outputs": [
        {
          "name": "",
          "type": "address"
        }
      ],
      "payable": false,
      "stateMutability": "view",
      "type": "function"
    },
    {
      "constant": true,
      "inputs": [],
      "name": "getProposedOwner",
      "outputs": [
        {
          "name": "",
          "type": "address"
        }
      ],
      "payable": false,
      "stateMutability": "view",
      "type": "function"
    }
  ],
  "bytecode": "0x608060405260008060006101000a81548173ffffffffffffffffffffffffffffffffffffffff021916908373ffffffffffffffffffffffffffffffffffffffff1602179055506000600160006101000a81548173ffffffffffffffffffffffffffffffffffffffff021916908373ffffffffffffffffffffffffffffffffffffffff16021790555034801561009357600080fd5b50336000806101000a81548173ffffffffffffffffffffffffffffffffffffffff021916908373ffffffffffffffffffffffffffffffffffffffff1602179055506000809054906101000a900473ffffffffffffffffffffffffffffffffffffffff1673ffffffffffffffffffffffffffffffffffffffff167f8d2a41ca5ff551a8f68510de75177b7d56e6019c8579b5509d2be1bb41a0d0af60405160405180910390a2610840806101476000396000f30060806040526004361061006d576000357c0100000000000000000000000000000000000000000000000000000000900463ffffffff1680631eb96a5c14610072578063893d20e8146100895780639739db9d146100e0578063eae5a62d14610123578063f53853451461017a575b600080fd5b34801561007e57600080fd5b50610087610191565b005b34801561009557600080fd5b5061009e610388565b604051808273ffffffffffffffffffffffffffffffffffffffff1673ffffffffffffffffffffffffffffffffffffffff16815260200191505060405180910390f35b3480156100ec57600080fd5b50610121600480360381019080803573ffffffffffffffffffffffffffffffffffffffff1690602001909291905050506103b1565b005b34801561012f57600080fd5b50610138610585565b604051808273ffffffffffffffffffffffffffffffffffffffff1673ffffffffffffffffffffffffffffffffffffffff16815260200191505060405180910390f35b34801561018657600080fd5b5061018f6105af565b005b60008073ffffffffffffffffffffffffffffffffffffffff16600160009054906101000a900473ffffffffffffffffffffffffffffffffffffffff1673ffffffffffffffffffffffffffffffffffffffff16141515156101f057600080fd5b6000809054906101000a900473ffffffffffffffffffffffffffffffffffffffff1673ffffffffffffffffffffffffffffffffffffffff163373ffffffffffffffffffffffffffffffffffffffff1614806102985750600160009054906101000a900473ffffffffffffffffffffffffffffffffffffffff1673ffffffffffffffffffffffffffffffffffffffff163373ffffffffffffffffffffffffffffffffffffffff16145b15156102a357600080fd5b600160009054906101000a900473ffffffffffffffffffffffffffffffffffffffff1690506000600160006101000a81548173ffffffffffffffffffffffffffffffffffffffff021916908373ffffffffffffffffffffffffffffffffffffffff1602179055508073ffffffffffffffffffffffffffffffffffffffff166000809054906101000a900473ffffffffffffffffffffffffffffffffffffffff1673ffffffffffffffffffffffffffffffffffffffff167f223225995c0c0965e8752fd93ca10aba4bafcbca26f31b1565955adb68e76bda60405160405180910390a350565b60008060009054906101000a900473ffffffffffffffffffffffffffffffffffffffff16905090565b6103b9610388565b73ffffffffffffffffffffffffffffffffffffffff163373ffffffffffffffffffffffffffffffffffffffff161415156103f257600080fd5b600073ffffffffffffffffffffffffffffffffffffffff16600160009054906101000a900473ffffffffffffffffffffffffffffffffffffffff1673ffffffffffffffffffffffffffffffffffffffff1614151561044f57600080fd5b600073ffffffffffffffffffffffffffffffffffffffff168173ffffffffffffffffffffffffffffffffffffffff161415151561048b57600080fd5b3073ffffffffffffffffffffffffffffffffffffffff168173ffffffffffffffffffffffffffffffffffffffff16141515156104c657600080fd5b80600160006101000a81548173ffffffffffffffffffffffffffffffffffffffff021916908373ffffffffffffffffffffffffffffffffffffffff1602179055508073ffffffffffffffffffffffffffffffffffffffff166000809054906101000a900473ffffffffffffffffffffffffffffffffffffffff1673ffffffffffffffffffffffffffffffffffffffff167f0c5d18b25c2665dfeec8ea7956663ec48f079fdd04799ddd335f2fdce1a9fceb60405160405180910390a350565b6000600160009054906101000a900473ffffffffffffffffffffffffffffffffffffffff16905090565b60008073ffffffffffffffffffffffffffffffffffffffff16600160009054906101000a900473ffffffffffffffffffffffffffffffffffffffff1673ffffffffffffffffffffffffffffffffffffffff161415151561060e57600080fd5b600160009054906101000a900473ffffffffffffffffffffffffffffffffffffffff1673ffffffffffffffffffffffffffffffffffffffff163373ffffffffffffffffffffffffffffffffffffffff1614151561066a57600080fd5b6000809054906101000a900473ffffffffffffffffffffffffffffffffffffffff169050600160009054906101000a900473ffffffffffffffffffffffffffffffffffffffff166000806101000a81548173ffffffffffffffffffffffffffffffffffffffff021916908373ffffffffffffffffffffffffffffffffffffffff1602179055506000600160006101000a81548173ffffffffffffffffffffffffffffffffffffffff021916908373ffffffffffffffffffffffffffffffffffffffff1602179055506000809054906101000a900473ffffffffffffffffffffffffffffffffffffffff1673ffffffffffffffffffffffffffffffffffffffff167f8d2a41ca5ff551a8f68510de75177b7d56e6019c8579b5509d2be1bb41a0d0af60405160405180910390a26000809054906101000a900473ffffffffffffffffffffffffffffffffffffffff1673ffffffffffffffffffffffffffffffffffffffff168173ffffffffffffffffffffffffffffffffffffffff167f3912b3f6ff73ee5d4cd2894666c349dec2d3d2ed7dc6d35c28c5eabf105a88d860405160405180910390a3505600a165627a7a723058203374ee63bc1dff0a0cf04e75d8b8e9d0d8d43d5979fe90df432cf96bd0056a4c0029",
  "source": "/* Author: Victor Mezrin  victor@mezrin.com */\n\npragma solidity ^0.4.24;\n\n\nimport './OwnableInterface.sol';\n\n\n/**\n * @title Ownable\n * @dev The Ownable contract has an owner address, and provides basic authorization control\n * functions, this simplifies the implementation of \"user permissions\".\n */\ncontract Ownable is OwnableInterface {\n\n  /* Storage */\n\n  address owner = address(0x0);\n  address proposedOwner = address(0x0);\n\n\n  /* Events */\n\n  event OwnerAssignedEvent(address indexed newowner);\n  event OwnershipOfferCreatedEvent(address indexed currentowner, address indexed proposedowner);\n  event OwnershipOfferAcceptedEvent(address indexed currentowner, address indexed proposedowner);\n  event OwnershipOfferCancelledEvent(address indexed currentowner, address indexed proposedowner);\n\n\n  /**\n   * @dev The constructor sets the initial `owner` to the passed account.\n   */\n  constructor () public {\n    owner = msg.sender;\n\n    emit OwnerAssignedEvent(owner);\n  }\n\n\n  /**\n   * @dev Old owner requests transfer ownership to the new owner.\n   * @param _proposedOwner The address to transfer ownership to.\n   */\n  function createOwnershipOffer(address _proposedOwner) external onlyOwner {\n    require (proposedOwner == address(0x0));\n    require (_proposedOwner != address(0x0));\n    require (_proposedOwner != address(this));\n\n    proposedOwner = _proposedOwner;\n\n    emit OwnershipOfferCreatedEvent(owner, _proposedOwner);\n  }\n\n\n  /**\n   * @dev Allows the new owner to accept an ownership offer to contract control.\n   */\n  //noinspection UnprotectedFunction\n  function acceptOwnershipOffer() external {\n    require (proposedOwner != address(0x0));\n    require (msg.sender == proposedOwner);\n\n    address _oldOwner = owner;\n    owner = proposedOwner;\n    proposedOwner = address(0x0);\n\n    emit OwnerAssignedEvent(owner);\n    emit OwnershipOfferAcceptedEvent(_oldOwner, owner);\n  }\n\n\n  /**\n   * @dev Old owner cancels transfer ownership to the new owner.\n   */\n  function cancelOwnershipOffer() external {\n    require (proposedOwner != address(0x0));\n    require (msg.sender == owner || msg.sender == proposedOwner);\n\n    address _oldProposedOwner = proposedOwner;\n    proposedOwner = address(0x0);\n\n    emit OwnershipOfferCancelledEvent(owner, _oldProposedOwner);\n  }\n\n\n  /**\n   * @dev The getter for \"owner\" contract variable\n   */\n  function getOwner() public constant returns (address) {\n    return owner;\n  }\n\n  /**\n   * @dev The getter for \"proposedOwner\" contract variable\n   */\n  function getProposedOwner() public constant returns (address) {\n    return proposedOwner;\n  }\n}\n",
  "sourcePath": "/home/user/develop/jcontracts/jibrel-contracts/contracts/lifecycle/Ownable/Ownable.sol",
  "compiler": {
    "name": "solc",
    "version": "0.4.24+commit.e67f0147.Emscripten.clang"
  },
  "schemaVersion": "2.0.1",
  "updatedAt": "2018-12-10T21:02:12.442Z"
}