{
  "contractName": "PausableMockV1",
  "abi": [
    {
      "constant": true,
      "inputs": [
        {
          "name": "_manager",
          "type": "address"
        },
        {
          "name": "_permissionName",
          "type": "string"
        }
      ],
      "name": "isManagerAllowed",
      "outputs": [
        {
          "name": "",
          "type": "bool"
        }
      ],
      "payable": false,
      "stateMutability": "view",
      "type": "function"
    },
    {
      "constant": false,
      "inputs": [],
      "name": "cancelOwnershipOffer",
      "outputs": [],
      "payable": false,
      "stateMutability": "nonpayable",
      "type": "function"
    },
    {
      "constant": true,
      "inputs": [
        {
          "name": "_manager",
          "type": "address"
        },
        {
          "name": "_permissionName",
          "type": "string"
        }
      ],
      "name": "isPermissionGranted",
      "outputs": [
        {
          "name": "",
          "type": "bool"
        }
      ],
      "payable": false,
      "stateMutability": "view",
      "type": "function"
    },
    {
      "constant": false,
      "inputs": [],
      "name": "pauseContract",
      "outputs": [],
      "payable": false,
      "stateMutability": "nonpayable",
      "type": "function"
    },
    {
      "constant": false,
      "inputs": [
        {
          "name": "_manager",
          "type": "address"
        }
      ],
      "name": "enableManager",
      "outputs": [],
      "payable": false,
      "stateMutability": "nonpayable",
      "type": "function"
    },
    {
      "constant": true,
      "inputs": [],
      "name": "getPaused",
      "outputs": [
        {
          "name": "",
          "type": "bool"
        }
      ],
      "payable": false,
      "stateMutability": "view",
      "type": "function"
    },
    {
      "constant": false,
      "inputs": [
        {
          "name": "_manager",
          "type": "address"
        },
        {
          "name": "_permissionName",
          "type": "string"
        }
      ],
      "name": "revokeManagerPermission",
      "outputs": [],
      "payable": false,
      "stateMutability": "nonpayable",
      "type": "function"
    },
    {
      "constant": false,
      "inputs": [
        {
          "name": "_manager",
          "type": "address"
        },
        {
          "name": "_permissionName",
          "type": "string"
        }
      ],
      "name": "grantManagerPermission",
      "outputs": [],
      "payable": false,
      "stateMutability": "nonpayable",
      "type": "function"
    },
    {
      "constant": true,
      "inputs": [],
      "name": "getOwner",
      "outputs": [
        {
          "name": "",
          "type": "address"
        }
      ],
      "payable": false,
      "stateMutability": "view",
      "type": "function"
    },
    {
      "constant": false,
      "inputs": [
        {
          "name": "_proposedOwner",
          "type": "address"
        }
      ],
      "name": "createOwnershipOffer",
      "outputs": [],
      "payable": false,
      "stateMutability": "nonpayable",
      "type": "function"
    },
    {
      "constant": true,
      "inputs": [
        {
          "name": "_manager",
          "type": "address"
        }
      ],
      "name": "isManagerEnabled",
      "outputs": [
        {
          "name": "",
          "type": "bool"
        }
      ],
      "payable": false,
      "stateMutability": "view",
      "type": "function"
    },
    {
      "constant": false,
      "inputs": [],
      "name": "unpauseContract",
      "outputs": [],
      "payable": false,
      "stateMutability": "nonpayable",
      "type": "function"
    },
    {
      "constant": false,
      "inputs": [
        {
          "name": "_manager",
          "type": "address"
        }
      ],
      "name": "disableManager",
      "outputs": [],
      "payable": false,
      "stateMutability": "nonpayable",
      "type": "function"
    },
    {
      "constant": true,
      "inputs": [],
      "name": "getProposedOwner",
      "outputs": [
        {
          "name": "",
          "type": "address"
        }
      ],
      "payable": false,
      "stateMutability": "view",
      "type": "function"
    },
    {
      "constant": false,
      "inputs": [],
      "name": "acceptOwnershipOffer",
      "outputs": [],
      "payable": false,
      "stateMutability": "nonpayable",
      "type": "function"
    },
    {
      "anonymous": false,
      "inputs": [],
      "name": "PauseEvent",
      "type": "event"
    },
    {
      "anonymous": false,
      "inputs": [],
      "name": "UnpauseEvent",
      "type": "event"
    },
    {
      "anonymous": false,
      "inputs": [
        {
          "indexed": true,
          "name": "manager",
          "type": "address"
        }
      ],
      "name": "ManagerEnabledEvent",
      "type": "event"
    },
    {
      "anonymous": false,
      "inputs": [
        {
          "indexed": true,
          "name": "manager",
          "type": "address"
        }
      ],
      "name": "ManagerDisabledEvent",
      "type": "event"
    },
    {
      "anonymous": false,
      "inputs": [
        {
          "indexed": true,
          "name": "manager",
          "type": "address"
        },
        {
          "indexed": false,
          "name": "permission",
          "type": "string"
        }
      ],
      "name": "ManagerPermissionGrantedEvent",
      "type": "event"
    },
    {
      "anonymous": false,
      "inputs": [
        {
          "indexed": true,
          "name": "manager",
          "type": "address"
        },
        {
          "indexed": false,
          "name": "permission",
          "type": "string"
        }
      ],
      "name": "ManagerPermissionRevokedEvent",
      "type": "event"
    },
    {
      "anonymous": false,
      "inputs": [
        {
          "indexed": true,
          "name": "newowner",
          "type": "address"
        }
      ],
      "name": "OwnerAssignedEvent",
      "type": "event"
    },
    {
      "anonymous": false,
      "inputs": [
        {
          "indexed": true,
          "name": "currentowner",
          "type": "address"
        },
        {
          "indexed": true,
          "name": "proposedowner",
          "type": "address"
        }
      ],
      "name": "OwnershipOfferCreatedEvent",
      "type": "event"
    },
    {
      "anonymous": false,
      "inputs": [
        {
          "indexed": true,
          "name": "currentowner",
          "type": "address"
        },
        {
          "indexed": true,
          "name": "proposedowner",
          "type": "address"
        }
      ],
      "name": "OwnershipOfferAcceptedEvent",
      "type": "event"
    },
    {
      "anonymous": false,
      "inputs": [
        {
          "indexed": true,
          "name": "currentowner",
          "type": "address"
        },
        {
          "indexed": true,
          "name": "proposedowner",
          "type": "address"
        }
      ],
      "name": "OwnershipOfferCancelledEvent",
      "type": "event"
    }
  ],
  "bytecode": "0x606060409081526000805460018054600160a060020a031990811682556004805460ff191690921790915516600160a060020a03338116919091179182905516907f8d2a41ca5ff551a8f68510de75177b7d56e6019c8579b5509d2be1bb41a0d0af905160405180910390a2610ce98061007a6000396000f3006060604052600436106100da5763ffffffff7c01000000000000000000000000000000000000000000000000000000006000350416630392d2b481146100df5780631eb96a5c1461015257806332a2fda714610167578063439766ce146101c65780635ca5b334146101d95780636805b84b146101f85780637c0efb8b1461020b578063822b08d014610236578063893d20e8146102615780639739db9d146102905780639b53d87c146102af578063b33712c5146102ce578063d4859dc5146102e1578063eae5a62d14610300578063f538534514610313575b600080fd5b34156100ea57600080fd5b61013e60048035600160a060020a03169060446024803590810190830135806020601f8201819004810201604051908101604052818152929190602084018383808284375094965061032695505050505050565b604051901515815260200160405180910390f35b341561015d57600080fd5b6101656103fb565b005b341561017257600080fd5b61013e60048035600160a060020a03169060446024803590810190830135806020601f820181900481020160405190810160405281815292919060208401838380828437509496506104ac95505050505050565b34156101d157600080fd5b61016561051b565b34156101e457600080fd5b610165600160a060020a03600435166105b5565b341561020357600080fd5b61013e61066c565b341561021657600080fd5b61016560048035600160a060020a03169060248035908101910135610675565b341561024157600080fd5b61016560048035600160a060020a031690602480359081019101356107eb565b341561026c57600080fd5b610274610960565b604051600160a060020a03909116815260200160405180910390f35b341561029b57600080fd5b610165600160a060020a036004351661096f565b34156102ba57600080fd5b61013e600160a060020a0360043516610a43565b34156102d957600080fd5b610165610a7b565b34156102ec57600080fd5b610165600160a060020a0360043516610b16565b341561030b57600080fd5b610274610bce565b341561031e57600080fd5b610165610bdd565b600082600160a060020a038116151561033e57600080fd5b828051151561034c57600080fd5b600160a060020a03851660009081526002602052604090205460ff1680156103f25750600160a060020a03851660009081526003602052604090819020908590518082805190602001908083835b602083106103b95780518252601f19909201916020918201910161039a565b6001836020036101000a0380198251168184511680821785525050505050509050019150509081526020016040519081900390205460ff165b95945050505050565b600154600090600160a060020a0316151561041557600080fd5b60005433600160a060020a0390811691161480610440575060015433600160a060020a039081169116145b151561044b57600080fd5b506001805473ffffffffffffffffffffffffffffffffffffffff198116909155600054600160a060020a03918216918291167f223225995c0c0965e8752fd93ca10aba4bafcbca26f31b1565955adb68e76bda60405160405180910390a350565b600082600160a060020a03811615156104c457600080fd5b82805115156104d257600080fd5b600160a060020a0385166000908152600360205260409081902090859051808280519060200190808383602083106103b95780518252601f19909201916020918201910161039a565b60408051908101604052600e81527f70617573655f636f6e747261637400000000000000000000000000000000000060208201526105593382610326565b151560011461056757600080fd5b61056f61066c565b1561057957600080fd5b6004805460ff191660011790557f14cc32b2b0edca88201ca20553c392d108a2feb2c750a0ee14c707b4f34fbee260405160405180910390a150565b6105bd610960565b600160a060020a031633600160a060020a03161415156105dc57600080fd5b80600160a060020a03811615156105f257600080fd5b600160a060020a03821660009081526002602052604090205460ff161561061857600080fd5b600160a060020a03821660008181526002602052604090819020805460ff191660011790557f7f0b61f78ab0b549b68ce61404f4ee01a26ffdf8d421d099d271d789aaea3a8e905160405180910390a25050565b60045460ff1690565b61067d610960565b600160a060020a031633600160a060020a031614151561069c57600080fd5b82600160a060020a03811615156106b257600080fd5b82828080601f016020809104026020016040519081016040528181529291906020840183838082843750859450505050505115156106ef57600080fd5b600160a060020a03851660009081526003602052604090819020908590859051808383808284378201915050925050509081526020016040519081900390205460ff16151560011461074057600080fd5b600160a060020a03851660009081526003602052604080822090869086905180838380828437820191505092505050908152602001604051908190039020805460ff1916911515919091179055600160a060020a0385167fe2b13fa06e3428fe0e43b2e517d25708ba477cafdff4fbcd06e3e93864517ddc85856040516020808252810182905280604081018484808284378201915050935050505060405180910390a25050505050565b6107f3610960565b600160a060020a031633600160a060020a031614151561081257600080fd5b82600160a060020a038116151561082857600080fd5b82828080601f0160208091040260200160405190810160405281815292919060208401838380828437508594505050505051151561086557600080fd5b600160a060020a03851660009081526003602052604090819020908590859051808383808284378201915050925050509081526020016040519081900390205460ff16156108b257600080fd5b600160a060020a03851660009081526003602052604090819020600191869086905180838380828437820191505092505050908152602001604051908190039020805460ff1916911515919091179055600160a060020a0385167fb76b4ee2621e0744da93fa797bdc4851a3b9e303b2950f2f234a449e5f36d35e85856040516020808252810182905280604081018484808284378201915050935050505060405180910390a25050505050565b600054600160a060020a031690565b610977610960565b600160a060020a031633600160a060020a031614151561099657600080fd5b600154600160a060020a0316156109ac57600080fd5b600160a060020a03811615156109c157600080fd5b30600160a060020a031681600160a060020a0316141515156109e257600080fd5b6001805473ffffffffffffffffffffffffffffffffffffffff1916600160a060020a038381169182179092556000549091167f0c5d18b25c2665dfeec8ea7956663ec48f079fdd04799ddd335f2fdce1a9fceb60405160405180910390a350565b600081600160a060020a0381161515610a5b57600080fd5b5050600160a060020a031660009081526002602052604090205460ff1690565b60408051908101604052601081527f756e70617573655f636f6e7472616374000000000000000000000000000000006020820152610ab93382610326565b1515600114610ac757600080fd5b610acf61066c565b1515600114610add57600080fd5b6004805460ff191690557f6249a5c797c884cbf33e63e8cfc250816032db24e22051de68a388315e64afc660405160405180910390a150565b610b1e610960565b600160a060020a031633600160a060020a0316141515610b3d57600080fd5b80600160a060020a0381161515610b5357600080fd5b600160a060020a03821660009081526002602052604090205460ff161515600114610b7d57600080fd5b600160a060020a03821660008181526002602052604090819020805460ff191690557f91975e22df3ba360814d3153e8eaef17954cf47d52a42840fc9747ad1086b351905160405180910390a25050565b600154600160a060020a031690565b600154600090600160a060020a03161515610bf757600080fd5b60015433600160a060020a03908116911614610c1257600080fd5b50600080546001805473ffffffffffffffffffffffffffffffffffffffff19808416600160a060020a038381169190911795869055911690915590811691167f8d2a41ca5ff551a8f68510de75177b7d56e6019c8579b5509d2be1bb41a0d0af60405160405180910390a2600054600160a060020a039081169082167f3912b3f6ff73ee5d4cd2894666c349dec2d3d2ed7dc6d35c28c5eabf105a88d860405160405180910390a3505600a165627a7a72305820857ab1030ba41d0a7ec194e5f400cd24862358ef6c6af7fa3168636cbc23c6e30029",
  "source": "/* Author: Victor Mezrin  victor@mezrin.com */\n\npragma solidity ^0.4.18;\n\nimport '../lifecycle/Ownable.sol';\nimport '../lifecycle/Manageable.sol';\nimport '../lifecycle/Pausable.sol';\n\n\n/**\n * @title PausableMock\n * @dev This contract used only to test modifiers of Pausable contract\n */\ncontract PausableMockV1 is Ownable, Manageable, Pausable { }\n",
  "sourcePath": "/home/user/dev/project/jibrel/jibrel-contracts_ropsten/contracts/unittest/PausableMockV1.sol",
  "compiler": {
    "name": "solc",
    "version": "0.4.18+commit.9cf6e910.Emscripten.clang"
  },
  "schemaVersion": "1.0.1",
  "updatedAt": "2017-12-15T04:55:52.647Z"
}