{
  "contractName": "SafeMathMock",
  "abi": [
    {
      "constant": true,
      "inputs": [],
      "name": "result",
      "outputs": [
        {
          "name": "",
          "type": "uint256"
        }
      ],
      "payable": false,
      "stateMutability": "view",
      "type": "function"
    },
    {
      "constant": false,
      "inputs": [
        {
          "name": "a",
          "type": "uint256"
        },
        {
          "name": "b",
          "type": "uint256"
        }
      ],
      "name": "multiply",
      "outputs": [],
      "payable": false,
      "stateMutability": "nonpayable",
      "type": "function"
    },
    {
      "constant": false,
      "inputs": [
        {
          "name": "a",
          "type": "uint256"
        },
        {
          "name": "b",
          "type": "uint256"
        }
      ],
      "name": "subtract",
      "outputs": [],
      "payable": false,
      "stateMutability": "nonpayable",
      "type": "function"
    },
    {
      "constant": false,
      "inputs": [
        {
          "name": "a",
          "type": "uint256"
        },
        {
          "name": "b",
          "type": "uint256"
        }
      ],
      "name": "add",
      "outputs": [],
      "payable": false,
      "stateMutability": "nonpayable",
      "type": "function"
    }
  ],
  "bytecode": "0x608060405234801561001057600080fd5b5061020f806100206000396000f300608060405260043610610062576000357c0100000000000000000000000000000000000000000000000000000000900463ffffffff168063165c4a16146100675780633ef5e4451461009e57806365372147146100d5578063771602f714610100575b600080fd5b34801561007357600080fd5b5061009c6004803603810190808035906020019092919080359060200190929190505050610137565b005b3480156100aa57600080fd5b506100d3600480360381019080803590602001909291908035906020019092919050505061014b565b005b3480156100e157600080fd5b506100ea61015f565b6040518082815260200191505060405180910390f35b34801561010c57600080fd5b506101356004803603810190808035906020019092919080359060200190929190505050610165565b005b6101418282610179565b6000819055505050565b61015582826101ac565b6000819055505050565b60005481565b61016f82826101c5565b6000819055505050565b6000808284029050600084148061019a575082848281151561019757fe5b04145b15156101a257fe5b8091505092915050565b60008282111515156101ba57fe5b818303905092915050565b60008082840190508381101515156101d957fe5b80915050929150505600a165627a7a72305820844e8194892a28873f09bc9c25acb98dd9732aba2da13a21a168963f19a251dc0029",
  "source": "pragma solidity ^0.4.24;\n\n\nimport '../third-party/zeppelin-solidity/SafeMath.sol';\n\n\ncontract SafeMathMock is SafeMath {\n  uint256 public result;\n\n  function multiply(uint256 a, uint256 b) public {\n    result = SafeMath.safeMul(a, b);\n  }\n\n  function subtract(uint256 a, uint256 b) public {\n    result = SafeMath.safeSub(a, b);\n  }\n\n  function add(uint256 a, uint256 b) public {\n    result = SafeMath.safeAdd(a, b);\n  }\n}\n",
  "sourcePath": "/home/user/develop/jcontracts/jibrel-contracts/contracts/unittest/SafeMathMock.sol",
  "compiler": {
    "name": "solc",
    "version": "0.4.24+commit.e67f0147.Emscripten.clang"
  },
  "schemaVersion": "2.0.1",
  "updatedAt": "2018-12-10T21:02:12.449Z"
}