{
  "contractName": "SafeMathMock",
  "abi": [
    {
      "constant": false,
      "inputs": [
        {
          "name": "a",
          "type": "uint256"
        },
        {
          "name": "b",
          "type": "uint256"
        }
      ],
      "name": "multiply",
      "outputs": [],
      "payable": false,
      "stateMutability": "nonpayable",
      "type": "function"
    },
    {
      "constant": false,
      "inputs": [
        {
          "name": "a",
          "type": "uint256"
        },
        {
          "name": "b",
          "type": "uint256"
        }
      ],
      "name": "subtract",
      "outputs": [],
      "payable": false,
      "stateMutability": "nonpayable",
      "type": "function"
    },
    {
      "constant": true,
      "inputs": [],
      "name": "result",
      "outputs": [
        {
          "name": "",
          "type": "uint256"
        }
      ],
      "payable": false,
      "stateMutability": "view",
      "type": "function"
    },
    {
      "constant": false,
      "inputs": [
        {
          "name": "a",
          "type": "uint256"
        },
        {
          "name": "b",
          "type": "uint256"
        }
      ],
      "name": "add",
      "outputs": [],
      "payable": false,
      "stateMutability": "nonpayable",
      "type": "function"
    }
  ],
  "bytecode": "0x6060604052341561000f57600080fd5b6101ec8061001e6000396000f300606060405260043610610062576000357c0100000000000000000000000000000000000000000000000000000000900463ffffffff168063165c4a16146100675780633ef5e4451461009357806365372147146100bf578063771602f7146100e8575b600080fd5b341561007257600080fd5b6100916004808035906020019091908035906020019091905050610114565b005b341561009e57600080fd5b6100bd6004808035906020019091908035906020019091905050610128565b005b34156100ca57600080fd5b6100d261013c565b6040518082815260200191505060405180910390f35b34156100f357600080fd5b6101126004808035906020019091908035906020019091905050610142565b005b61011e8282610156565b6000819055505050565b6101328282610189565b6000819055505050565b60005481565b61014c82826101a2565b6000819055505050565b60008082840290506000841480610177575082848281151561017457fe5b04145b151561017f57fe5b8091505092915050565b600082821115151561019757fe5b818303905092915050565b60008082840190508381101515156101b657fe5b80915050929150505600a165627a7a72305820331bd5883f85965f8fba459748e25d94c98be9a729701cc6d7187dc6f4ec7c280029",
  "source": "pragma solidity ^0.4.18;\n\n\nimport '../third-party/zeppelin-solidity/SafeMath.sol';\n\n\ncontract SafeMathMock is SafeMath {\n  uint256 public result;\n\n  function multiply(uint256 a, uint256 b) public {\n    result = SafeMath.safeMul(a, b);\n  }\n\n  function subtract(uint256 a, uint256 b) public {\n    result = SafeMath.safeSub(a, b);\n  }\n\n  function add(uint256 a, uint256 b) public {\n    result = SafeMath.safeAdd(a, b);\n  }\n}\n",
  "sourcePath": "/home/user/dev/project/jibrel/jibrel-contracts/contracts/unittest/SafeMathMock.sol",
  "compiler": {
    "name": "solc",
    "version": "0.4.18+commit.9cf6e910.Emscripten.clang"
  },
  "schemaVersion": "1.0.1",
  "updatedAt": "2017-12-15T09:06:54.708Z"
}